:020000040000FA
:0400000084EF0AF08F
:08000800056ED8CF06F0E0CF31
:1000100007F00001E9CF0DF0EACF08F0E1CF09F0D9
:10002000E2CF0AF0D9CF0BF0DACF0CF0F3CF14F017
:10003000F4CF15F0FACF16F000C00FF001C010F0A9
:1000400002C011F003C012F004C013F09DA22CEF07
:1000500000F09EB286EF01F09DAA32EF00F09EBA4A
:1000600093EF01F00FC000F010C001F011C002F0DA
:1000700012C003F013C004F00E8E0DC0E9FF08C0DB
:10008000EAFF09C0E1FF0AC0E2FF0BC0D9FF0CC0C4
:10009000DAFF14C0F3FF15C0F4FF16C0FAFF0550D5
:1000A00007C0E0FF06C0D8FF1000F2CF0EF0F29EAE
:1000B000F76AC40FF66E000EF7220900F5500EBE67
:1000C000F28E120054696D656F75743A205761693C
:1000D00074696E6720666F72204E44414320746FCE
:1000E00020676F206C6F77207768696C6520777266
:1000F0006974696E6700F2CF0EF0F29EF76A100F16
:10010000F66E010EF7220900F5500EBEF28E1200B7
:1001100054696D656F75743A2057616974696E67CB
:1001200020666F72204E52464420746F20676F2005
:1001300068696768207768696C6520777269746997
:100140006E670000F2CF0EF0F29EF76A5E0FF66E59
:10015000010EF7220900F5500EBEF28E120054690E
:100160006D656F75743A2057616974696E672066B2
:100170006F72204E44414320746F20676F2068697E
:100180006768207768696C652077726974696E6743
:100190000000F2CF0EF0F29EF76AAC0FF66E010E81
:1001A000F7220900F5500EBEF28E120054696D65FB
:1001B0006F75743A2057616974696E6720666F7253
:1001C0002044415620746F20676F206C6F77207732
:1001D00068696C652072656164696E670000F2CFC2
:1001E0000EF0F29EF76AF80FF66E010EF722090084
:1001F000F5500EBEF28E120054696D656F75743A3B
:100200002057616974696E6720666F722044415699
:1002100020746F20676F2068696768207768696C51
:10022000652072656164696E6700F2CF0EF0F29E20
:10023000F76A440FF66E020EF7220900F5500EBE63
:10024000F28E120052656164206572726F72206FC7
:100250006363757265642E256300F2CF0EF0F29E23
:10026000F76A740FF66E020EF7220900F5500EBE03
:10027000F28E120074657374696E67256300F2CFA5
:100280000EF0F29EF76A980FF66E020EF722090042
:10029000F5500EBEF28E120056657273696F6E20B5
:1002A00025692E3025630000F2CF0EF0F29EF76A2A
:1002B000C20FF66E020EF7220900F5500EBEF28E46
:1002C0001200556E7265636F676E697A65642063AC
:1002D0006F6D6D616E642E256300F2CF0EF0F29E9D
:1002E000F76AF40FF66E020EF7220900F5500EBE03
:1002F000F28E12005772697465206572726F7220F7
:100300006F6363757265642E25630000010E010141
:100310003E27D8B03F2BD8B4402BD8B4412B9E9267
:10032000000132EF00F00201A2919EAAFED7AECFEB
:10033000A1F2A1511F0810E2A1517E080DE30101B5
:100340002851282B036A280FE96E000E0320EA6E5D
:10035000A1C2EFFF0201A281A1510A0803E0A1514D
:100360000D08E3E19EAA0ED0036A01012851280F6F
:10037000E96E000E0320EA6E9EAAFED7AECFEFFF15
:100380000201F0D7A2A10AD001012851282B036A4B
:10039000280FE96E000E0320EA6EEF6A0101285172
:1003A000EA0801E2286B9E9A000132EF00F0959C6A
:1003B0008C9C959A8C9A959E8C8E95988C9893800F
:1003C0009382938493869388938A938C938E92924C
:1003D00089829284928692988998929A899A969024
:1003E0008D80928096928D82F7EF01F0E0D7929AFD
:1003F000898A5CEF0CF0020EEA6E260EE96EEF5071
:100400000EE0050E016E006A002EFED7012EFBD70E
:10041000F90E006E002EFED70000EF2EF2D7000C72
:100420009DC29FF29CC29EF29FC203F002019EC237
:10043000E9FF9FC2EAFFEF5206E09E2BD8B49F2B44
:100440000001F2D702019C519E5D006E9D519F59A3
:10045000036E00C001F0026E0001000C959A8C8AB8
:100460000201985302E092928992975309E196C251
:100470009DF295C29CF20001D3DF01C097F2020108
:10048000959C8C8C929489849296898692889B6B99
:1004900097519B5DD8B0DDD0036A9B519525E96EDD
:1004A00096510320EA6EEFCF9AF2928A0101416BD6
:1004B000406B3F6B3E6B9D82928A80AA35D0415142
:1004C0003D5D32E30BE140513C5D2EE307E13F51DE
:1004D0003B5D2AE303E13E513A5D26E304003D51D2
:1004E000415D21E30BE13C51405D1DE307E13B51E0
:1004F0003F5D19E303E13A513E5D15E3322D10D023
:1005000002019C6B9C510001D0DD02019C2B006E0E
:1005100000509EA8FED7AD6E310E9C5DF3E1010147
:10052000010E016EAED0C8D79D92FF0E02019A1B3C
:10053000936A9AC28AFF92880101416B406B3F6BBC
:100540003E6B9D82928880B835D041513D5D32E34B
:100550000BE140513C5D2EE307E13F513B5D2AE357
:1005600003E13E513A5D26E304003D51415D21E344
:100570000BE13C51405D1DE307E13B513F5D19E359
:1005800003E13A513E5D15E3322D10D002019C6B20
:100590009C510001B0DD02019C2B006E00509EA812
:1005A000FED7AD6E320E9C5DF3E10101010E016ECE
:1005B00068D0C8D79D92010E0201975D9B5D04E152
:1005C000995302E092948994929689960101416B25
:1005D000406B3F6B3E6B9D82928A80BA35D0415111
:1005E0003D5D32E30BE140513C5D2EE307E13F51BD
:1005F0003B5D2AE303E13E513A5D26E304003D51B1
:10060000415D21E30BE13C51405D1DE307E13B51BE
:100610003F5D19E303E13A513E5D15E3322D10D001
:1006200002019C6B9C5100018DDD02019C2B006E30
:1006300000509EA8FED7AD6E320E9C5DF3E1010125
:10064000010E016E1ED0C8D79D92928602019B2B8F
:100650001FD7959C8C9C93809382938493869388D8
:10066000938A938C938E985301E09282928692841F
:10067000929A898A92988988959A8C9A000E016E2E
:1006800001010001000C93C296F292C295F294C24D
:1006900097F2010E0201986F996B0001DFDE0150A5
:1006A000000C25C22AF196908D90C80E0201266F8B
:1006B0000001A1DE968096928D92140E1E6E0201AC
:1006C000936B1E0E926F010E946F0001DCDF0150E0
:1006D00061EF0CF0036A01012751280F0201256F19
:1006E000000E0320266F036A01012751280F020123
:1006F000276F000E0320286F9D6F27C29CF2000118
:100700008FDE01C028F2010E02010124016E000EED
:1007100002200150010127272751EA0801E2276B37
:100720002851275D02E1276B286B020125C201F0E9
:1007300000018DEF0CF002012B533FE027C2E9FFCF
:1007400028C2EAFFEFCF2CF22AC203F029C2E9FF48
:100750002AC2EAFFEF502C5D17E028C203F027C23F
:10076000E9FF28C2EAFFEFCF2CF22AC203F029C228
:10077000E9FF2AC2EAFFEF502C5D02E2FF0E01D032
:10078000010E016E1CD00BD028C203F027C2E9FF76
:1007900028C2EAFFEF5203E1000E016E10D028C21A
:1007A00003F02751272BD8B4282B2AC203F0295154
:1007B000292BD8B42A2B2B07BFD7000E016E0001BE
:1007C000000C006A016A02012E51D8902FB1002658
:1007D000003201322FB30026003201322FB500263D
:1007E000003201322FB70026003201322FB9002625
:1007F000003201322FBB0026003201322FBD00260D
:10080000003201322FBF002600320132000177EFA3
:1008100004F002012C6B2A6B0A0E2B6F296B2751F7
:10082000281103E1000E016EC3D02C512C2B036A5A
:100830002725E96E28510320EA6EEFCF2DF22D51C6
:100840002D080DE1010E2A6F2C512C2B036A272550
:10085000E96E28510320EA6EEFCF2DF20DD02D5115
:100860002B080AE12C512C2B036A2725E96E28510D
:100870000320EA6EEFCF2DF22D512F08D8B090D083
:100880002D513908D8A08CD02D51300821E1036AB0
:100890002C512725E96E28510320EA6EEF50780885
:1008A0000AE0036A2C512725E96E28510320EA6EDD
:1008B000EF5058080DE1100E2B6F2C2B2C512C2BC8
:1008C000036A2725E96E28510320EA6EEFCF2DF247
:1008D0002B510A081DE12D512F0819E22D5139081D
:1008E00016E30A0E2E6F29C22FF200016AD7300ECE
:1008F00002012D5D0124296F2C512C2B036A272521
:10090000E96E28510320EA6EEFCF2DF2E4D748D0EC
:100910002B51100845E12D51600806E22D517A084F
:1009200003E32D51DF0B01D02D512D6F2D512F08D9
:1009300003E22D51390806E22D51400831E22D51D4
:1009400046082EE32D512F080CE22D51390809E3FA
:1009500029392E6FF00E2E17300E2D5D2E25296FA2
:1009600009D029392E6FF00E2E17410E2D5D0A0F7A
:100970002E25296F2C512C2B036A2725E96E28512F
:100980000320EA6EEFCF2DF22D51600806E22D51C3
:100990007A0803E32D51DF0B01D02D512D6FC6D7FF
:1009A0002A2D04D02B510A0801E1296D29C201F03A
:1009B0000001000C02012D51016A2C5D03E22CC2E2
:1009C00000F00CD0006A080E2E6F2C3700362D5127
:1009D000005CD8B0006E01362E2FF7D70001000C56
:1009E000200E020127A9300E286F26C200F026AF84
:1009F00007D0001E002A00C026F22D0E286F278F78
:100A0000015026C22CF2640E2D6F0001D3DF00C00E
:100A100026F2300E01240201296F26C22CF20A0EA2
:100A20002D6F0001C7DF300E002402012B6F300E46
:100A300001242A6F28C200F027A702D027AF2795EC
:100A400027B90BD027AF22D027B520D000C029F27C
:100A500027B31CD000C02AF219D0300E295D16E150
:100A600000C029F2200E286F27A704D027952783DE
:100A700027AF2793300E2A5D09E100C02AF2200E2D
:100A8000296F27A7F7D7279327AF279127A504D04A
:100A900028519EA8FED7AD6E27A304D029519EA849
:100AA000FED7AD6E27A104D02A519EA8FED7AD6E09
:100AB0002B519EA8FED7AD6E0001000C02012F6BDA
:100AC0002D6B0A0E2E6F2C6B2B6B2A6B296B27510B
:100AD000281105E1006A016A026A036A3DD12F51BB
:100AE0002F2B036A2725E96E28510320EA6EEFCFEA
:100AF00030F230512D080DE1010E2D6F2F512F2BAB
:100B0000036A2725E96E28510320EA6EEFCF30F201
:100B10000DD030512B080AE12F512F2B036A2725C6
:100B2000E96E28510320EA6EEFCF30F230512F08E2
:100B3000D8B0FAD030513908D8A0F6D030513008AA
:100B400021E1036A2F512725E96E28510320EA6E1F
:100B5000EF5078080AE0036A2F512725E96E2851E3
:100B60000320EA6EEF5058080DE1100E2E6F2F2B68
:100B70002F512F2B036A2725E96E28510320EA6E97
:100B8000EFCF30F22E510A0844E130512F0840E2F5
:100B9000305139083DE3D8902935326F2A35336F0B
:100BA0002B35346F2C35356F2935006E2A35016EA3
:100BB0002B35026E2C35036E0036013602360336B5
:100BC0000036013602360336F80E00163251002682
:100BD00033510122345102223551032203C02CF239
:100BE00002C02BF201C02AF200C029F2300E305DA3
:100BF0002927000E2A232B232C232F512F2B036A66
:100C00002725E96E28510320EA6EEFCF30F2BDD7D9
:100C10008BD02E511008D8A487D03051600806E23E
:100C200030517A0803E33051DF0B01D03051306F7F
:100C300030512F0803E23051390807E230514008A3
:100C4000D8B072D0305146086FE330512F082DE2F2
:100C5000305139082AE32935326F2A35336F2B3565
:100C6000346F2C35356F32373337343735373237C9
:100C70003337343735373237333734373537F00E8B
:100C80003217300E305D3225006E000E3321016EBA
:100C9000000E3421026E000E35212C6F02C02BF2A3
:100CA00001C02AF200C029F22AD02935326F2A3534
:100CB000336F2B35346F2C35356F3237333734374C
:100CC00035373237333734373537323733373437D0
:100CD0003537F00E3217410E305D0A0F3225006EA7
:100CE000000E3321016E000E3421026E000E3521FC
:100CF0002C6F02C02BF201C02AF200C029F22F5142
:100D00002F2B036A2725E96E28510320EA6EEF5046
:100D1000306F600806E230517A0803E33051DF0B90
:100D200001D03051306F84D72E510A080DE12D2D9E
:100D30000BD0291F2A1F2B1F2C1F292BD8B42A2B7D
:100D4000D8B42B2BD8B42C2B29C200F02AC201F026
:100D50002BC202F02CC203F00001000C006A016AF1
:100D6000026A036A0201396B3A6B3B6B3C6B385188
:100D70003711361135112CE0200E3D6FD8903137E8
:100D800032373337343739373A373B373C373851D6
:100D90003C5D08E137513B5D05E136513A5D02E1CA
:100DA0003551395D0FE33551395F3651D8A0363DA5
:100DB0003A5F3751D8A0373D3B5F3851D8A0383D16
:100DC0003C5FD88000360136023603363D2FD6D739
:100DD000020EEA6E390EE96E0001000CE9500201C4
:100DE000296F3B0E306F9A0E2F6FCA0E2E6F2D6B30
:100DF0000A0E2B6F28C234F227C233F226C232F217
:100E000025C231F230C238F22FC237F22EC236F28A
:100E10002DC235F20001A2DF0150EFCF25F2ECCF59
:100E200026F2ECCF27F2ECCF28F2005213E10201B8
:100E30002B51010AD8A402D000010CD029510CE09A
:100E40000F0B2B5D01E00EE229BF0CD029BD04D0B1
:100E5000200E03D00201296B300E002600509EA800
:100E6000FED7AD6E30C234F22FC233F22EC232F250
:100E70002DC231F2386B376B366B0A0E356F0001BD
:100E80006DDF03C030F202C02FF201C02EF200C0AD
:100E90002DF202012B2FAED700015FEF0DF0020102
:100EA000946B92988988929A899A92860101416BF3
:100EB000406B3F6B3E6B9D82928680A636D041513F
:100EC0003D5D33E30BE140513C5D2FE307E13F51D2
:100ED0003B5D2BE303E13E513A5D27E304003D51C6
:100EE000415D22E30BE13C51405D1EE307E13B51D4
:100EF0003F5D1AE303E13A513E5D16E3322D11D016
:100F00000201966B96510001C9EC00F00201962B8C
:100F1000006E00509EA8FED7AD6E300E965DF2E1D9
:100F20000101FF0E016E5BD0C7D79D929298899800
:100F3000FF0E936E81CF94F20201941B928A0101FD
:100F4000416B406B3F6B3E6B9D82928680B636D084
:100F500041513D5D33E30BE140513C5D2FE307E13F
:100F60003F513B5D2BE303E13E513A5D27E3040033
:100F70003D51415D22E30BE13C51405D1EE307E141
:100F80003B513F5D1AE303E13A513E5D16E3322DDA
:100F900011D00201966B96510001EFEC00F00201B6
:100FA000962B006E00509EA8FED7AD6E310E965D5A
:100FB000F2E10101FF0E016E12D0C7D79D92929A05
:100FC000899A92840201956B80B4952B92C2E9FFB5
:100FD00093C2EAFF94C2EFFF95C201F00101000144
:100FE000000C02018C6B8D6B8E6B8F91020E916FDA
:100FF000280E906F0101385365E05F0E1E6E0201EE
:101000008E530FE1936B1E0E926F010E946F0001D1
:1010100043EC03F00152D8B402D0020102D0000E1A
:1010200001D0010E02018E6F3F0E1E6E8E530FE136
:10103000936B1E0E926F010E946F000143EC03F050
:101040000152D8B402D0020102D0000E01D0010E2C
:1010500002018E6F8E5303E0010E016E72D1200EDD
:1010600001012A251E6E02018E530FE1936B1E0EA5
:10107000926F010E946F000143EC03F00152D8B45B
:1010800002D0020102D0000E01D0010E02018E6FCB
:101090008E5303E0010E016E54D1400E010129254B
:1010A0001E6E0201936B1E0E926F010E946F000173
:1010B00043EC03F001C08EF202018E5303E0010EF7
:1010C000016E3FD102018C6B020E916F280E906F62
:1010D000252D7FD0020E936F260E926F0001DFDE6A
:1010E00001C027F20201273D03D0010E016E29D174
:1010F0000101305312E02D510201265D02E1275318
:101100000AE0036A8C51280FE96E020E0320EA6E92
:1011100026C2EFFF8C2B22D001012E510201265D49
:1011200013E1275311E1010E8C5D036A280FE96E6C
:10113000020E0320EA6E01012D51EF5C03E1020172
:101140008C0701010CD00201036A8C51280FE96E53
:10115000020E0320EA6E26C2EFFF8C2B0101020172
:101160008C5164081BE18D6B8D51630811E391C2B2
:1011700003F090C2E9FF91C2EAFFEFCF92F29251E1
:101180009EA8FED7AD6E902BD8B4912B8D2BECD7AB
:101190008C6B020E916F280E906F040027539AE11A
:1011A0008D6B0101335102018C5D8D5D11E291C2A5
:1011B00003F090C2E9FF91C2EAFFEFCF92F29251A1
:1011C0009EA8FED7AD6E902BD8B4912B8D2BE9D76E
:1011D0007ED0020E936F260E926F000160DE01C07A
:1011E00027F20201273D03D0010E016EAAD00101B2
:1011F000305312E02D510201265D0BE0036A8C5141
:10120000280FE96E020E0320EA6E26C2EFFF8C2B38
:1012100001D08F8121D001012E510201265D12E102
:10122000010E8C5D036A280FE96E020E0320EA6E40
:1012300001012D51EF5C04E102018C078F81010156
:101240000CD00201036A8C51280FE96E020E0320B4
:10125000EA6E26C2EFFF8C2B010102018C5164085B
:101260001BE18D6B8D51630811E391C203F090C2B5
:10127000E9FF91C2EAFFEFCF92F292519EA8FED70A
:10128000AD6E902BD8B4912B8D2BECD78C6B020EBE
:10129000916F280E906F04008FA19BD78F918D6B5B
:1012A0000101335102018C5D8D5D11E291C203F0A9
:1012B00090C2E9FF91C2EAFFEFCF92F292519EA84D
:1012C000FED7AD6E902BD8B4912B8D2BE9D70101B1
:1012D000352D04D036519EA8FED7AD6E38532EE082
:1012E00002018E6B5F0E1E6E8E530FE1936B1E0E0E
:1012F000926F010E946F000143EC03F00152D8B4D9
:1013000002D0020102D0000E01D0010E02018E6F48
:101310003F0E1E6E8E530FE1936B1E0E926F010EE9
:10132000946F000143EC03F00152D8B402D00201E3
:1013300002D0000E01D0010E02018E6F02018EC29A
:1013400001F00001000C0201266B5F0E1E6E265399
:101350000FE1936B1E0E926F010E946F000143EC30
:1013600003F00152D8B402D0020102D0000E01D025
:10137000010E0201266F3F0E1E6E26530FE1936B86
:101380001E0E926F010E946F000143EC03F00152A8
:10139000D8B402D0020102D0000E01D0010E020129
:1013A000266F200E25251E6E26530FE1936B1E0E11
:1013B000926F010E946F000143EC03F00152D8B418
:1013C00002D0020102D0000E01D0010E0201266FF0
:1013D00026C201F00001000C9280000E80B0010EC8
:1013E000016E000E01A0010E016E9CEF13F00201D0
:1013F000286B180E1E6E28530FE1936B1E0E926F12
:10140000010E946F000143EC03F00152D8B402D0F6
:10141000020102D0000E01D0010E0201286F400E21
:1014200027251E6E28530FE1936B1E0E926F010E3F
:10143000946F000143EC03F00152D8B402D00201D2
:1014400002D0000E01D0010E0201286F285301E0E6
:1014500027D0020E936F290E926F000120DD01C08C
:1014600028F20201282D01D0286B283D02D0010E60
:10147000286F190E1E6E936B1E0E926F010E946FE5
:10148000000143EC03F0020128530AE129519EA810
:10149000FED7AD6E010136519EA8FED7AD6E02019A
:1014A0000001000C26C296F225C295F227C297F2DF
:1014B0000201986B28C299F200012EEC02F0015053
:1014C000000C26C203F0020125C2E9FF26C2EAFF92
:1014D0002751EF5C12E026C203F025C2E9FF26C2C5
:1014E000EAFFEF5204E1000E016E026E0AD0252BD6
:1014F000D8B4262B0001E5D7020125C201F026C28F
:1015000002F0000191EF14F0F86AD09E0D8EEA6AA5
:10151000E96AB886090EAF6E000EB06EA60EAC6E0C
:10152000900EAB6EC150C00B0F09C16E070EB46EAA
:10153000186A196A0101276B286B2B6B0A0E2C6F36
:101540002D6B2E6B2F6B030E306F010E316F326BD4
:10155000336B346F356F0D0E366F376B010E386F8E
:10156000396FE80E3A6F030E3B6F3C6B3D6B3E6B81
:101570003F6B406B416B429142934295436B456B8D
:10158000280E446F2B0E466F610E476F3A0E486F60
:10159000496B2B0E4A6F740E4B6F3A0E4C6F4D6BAE
:1015A0002B0E4E6F650E4F6F6F0E506F730E516F97
:1015B0003A0E526F536B2B0E546F650E556F6F0EB4
:1015C000566F690E576F3A0E586F596B2B0E5A6F44
:1015D000740E5B6F650E5C6F730E5D6F740E5E6FE5
:1015E0005F6B2B0E606F720E616F650E626F610E26
:1015F000636F640E646F656B2B0E666F670E676FAB
:10160000650E686F740E696F6A6B2B0E6B6F730ECD
:101610006C6F740E6D6F720E6E6F690E6F6F700E61
:10162000706F3A0E716F726B2B0E736F760E746F54
:10163000650E756F720E766F776B2B0E786F610E7D
:10164000796F750E7A6F740E7B6F6F0E7C6F720EF2
:101650007D6F650E7E6F610E7F6F640E806F3A0E38
:10166000816F826B2B0E836F720E846F650E856F98
:10167000730E866F650E876F740E886F896B2B0EE5
:101680008A6F640E8B6F650E8C6F620E8D6F750E98
:101690008E6F670E8F6F3A0E906F916B2B0E926F5D
:1016A000936F610E946F640E956F966F720E976FC5
:1016B000986B2B0E996F9A6F610E9B6F750E9C6FD6
:1016C000740E9D6F6F0E9E6F9F6B2B0EA06FA16FA0
:1016D000630EA26F6C0EA36F720EA46FA56B2B0E20
:1016E000A66FA76F650EA86F6F0EA96F740EAA6F15
:1016F0005F0EAB6F650EAC6F6E0EAD6F610EAE6FB1
:10170000620EAF6F6C0EB06F650EB16FB26B2B0EC9
:10171000B36FB46F650EB56F6F0EB66F740EB76FA3
:101720005F0EB86F630EB96F680EBA6F610EBB6F54
:10173000720EBC6FBD6B2B0EBE6FBF6F690EC06F9C
:10174000660EC16F630EC26FC36B2B0EC46FC56F85
:101750006C0EC66FC76F6F0EC86FC96B2B0ECA6F4A
:10176000CB6F6C0ECC6F6F0ECD6F630ECE6FCF6BE9
:101770002B0ED06FD16F6C0ED26F6F0ED36F6E0EBB
:10178000D46FD56B2B0ED66FD76F6D0ED86F6F0ED3
:10179000D96F640EDA6F650EDB6FDC6B2B0EDD6FBD
:1017A000DE6F720EDF6F650EE06F610EE16F640E2B
:1017B000E26F5F0EE36F740EE46F6D0EE56F6F0EF8
:1017C000E66F5F0EE76F6D0EE86F730EE96FEA6B01
:1017D0002B0EEB6FEC6F720EED6F730EEE6F740EDF
:1017E000EF6FF06B2B0EF16FF26F730EF36F610EF4
:1017F000F46F760EF56F650EF66F630EF76F660E7B
:10180000F86F670EF96FFA6B2B0EFB6FFC6F730EA0
:10181000FD6F700EFE6F6F0EFF6F6C0E0201006F9A
:10182000016F026B2B0E036F046F730E056F720E48
:10183000066F710E076F086B2B0E096F0A6F730E20
:101840000B6F740E0C6F610E0D6F740E0E6F750EB4
:101850000F6F730E106F116B2B0E126F136F740ED0
:10186000146F720E156F670E166F176B2B0E186FB5
:10187000196F760E1A6F650E1B6F720E1C6F1D6B43
:101880002B0E1E6F1F6F680E206F650E216F6C0E82
:10189000226F700E236F246B949A8B8AD180D76A43
:1018A000D66A080E0609CA6E900ECB6EC00EF212F2
:1018B0009D920001F6EF01F00201256B000151EF4E
:1018C00003F001C043F10101432D01D0FF00949AC0
:1018D0008B9A0400640E0201266F0001FBEC01F0FC
:1018E0000400949A8B8A0400640E0201266F0001A2
:1018F000FBEC01F004009D8A0400949A8B9A04008A
:1019000001012751285DD8B4DCEF14F045C126F25F
:1019100044C125F200016AEF03F0036A01C044F1FB
:10192000010103C045F145C103F044C1E9FF45C1D0
:10193000EAFFEF502B08D8A413EF14F045C128F2AA
:1019400044C127F2010E02012A6F460E296F030ED1
:101950002B6F00019BEC03F0015214E1030E010117
:1019600044250201256F000E010145210201266F69
:10197000286F25C227F2000109EC04F001C029F10B
:1019800011EF14F045C128F244C127F2010E020103
:101990002A6F920E296F060E2B6F00019BEC03F04D
:1019A00001523AE1060E01014425016E000E452167
:1019B000036E01C0E9FFEA6EEF520EE129C126F283
:1019C0001F0E0201276F0001F0EC04F001013651F7
:1019D0009EA8FED7AD6E1ED0060E4425016E000EE9
:1019E0004521036E01C0E9FFEA6EEF50200812E1C5
:1019F000070E44250201256F000E01014521020159
:101A0000266F286F25C227F2000109EC04F001C0FF
:101A100029F1010110EF14F045C128F244C127F269
:101A2000010E02012A6F4A0E296F030E2B6F00016F
:101A30009BEC03F001521AE1030E0101442502015F
:101A4000256F000E010145210201266F286F25C276
:101A500027F200015EEC05F003C03DF102C03CF14D
:101A600001C03BF100C03AF111EF14F045C128F27A
:101A700044C127F2010E02012A6FDD0E296F0D0EFF
:101A80002B6F00019BEC03F0015245E10D0E0101AB
:101A90004425016E000E4521036E01C0E9FFEA6E88
:101AA000EF5213E1410EE96E3DC128F23CC127F22D
:101AB0003BC126F23AC125F20001EEEF06F001012A
:101AC00036519EA8FED7AD6E24D00D0E4425016E72
:101AD000000E4521036E01C0E9FFEA6EEF502008B9
:101AE00018E10E0E44250201256F000E010145216B
:101AF0000201266F286F25C227F200015EEC05F077
:101B000003C03DF102C03CF101C03BF100C03AF11D
:101B1000010110EF14F045C128F244C127F2010E73
:101B200002012A6F600E296F050E2B6F00019BECDE
:101B300003F0015228E101013853D8A402D000017A
:101B400022D031C125F20001F1EC07F0015219E079
:101B50000101322D15D00201256B2551000115EC34
:101B600001F00201252B006E00509EA8FED7AD6E3D
:101B7000130E255DF2E1010136519EA8FED7AD6E30
:101B8000000111EF14F0010E010144250201256F3F
:101B9000000E010145210201266F286F25C227F2A0
:101BA000010E2A6F600E296F050E2B6F00019BEC52
:101BB00003F001522DE101013853D8A402D00001F5
:101BC00027D0060E4425016E000E4521036E01C08C
:101BD000E9FFEA6EEF5207E10201256B0001F1EC2B
:101BE00007F013D00101070E4425016E000E4521B8
:101BF000036E01C0E9FFEA6EEF50650807E1010ED0
:101C00000201256F0001F1EC07F0010110EF14F063
:101C100045C128F244C127F2010E02012A6F5A0E73
:101C2000296F050E2B6F00019BEC03F0015217E1A9
:101C30000201256B255100012DEC01F00201252B3D
:101C4000006E00509EA8FED7AD6E070E255DF2E136
:101C5000010136519EA8FED7AD6E10EF14F045C1BC
:101C600028F244C127F2010E02012A6F4E0E296F9D
:101C7000050E2B6F00019BEC03F001521AE1050EDB
:101C8000010144250201256F000E010145210201D9
:101C9000266F286F25C227F2000109EC04F001C06D
:101CA0002CF12CC12DF101012E6B040E306F10EFC1
:101CB00014F0010E010144250201256F000E0101FF
:101CC00045210201266F286F25C227F2010E2A6FD7
:101CD0004E0E296F040E2B6F00019BEC03F0015296
:101CE00061E1050E01014425016E000E4521036EE0
:101CF00001C0E9FFEA6EEF520EE130C126F21F0E7D
:101D00000201276F0001F0EC04F0010136519EA89A
:101D1000FED7AD6E45D0050E4425016E000E45215F
:101D2000036E01C0E9FFEA6EEF50200839E1060EAC
:101D300044250201256F000E010145210201266F95
:101D4000286F25C227F2000109EC04F001C030F130
:101D500001013051000105E0010A0CE0030A12E024
:101D600019D00101306B0D0E2D6F0A0E2E6F2F6BE7
:101D70002C6F16D0010E0101306F0D0E2D6F2E6BE2
:101D80002C6F0ED0020E0101306F0A0E2D6F2E6BDC
:101D90002C6F06D0030E0101306F2D6B2C6B00D021
:101DA00010EF14F045C128F244C127F2010E0201E0
:101DB0002A6F540E296F050E2B6F00019BEC03F068
:101DC000015214E1050E010144250201256F000EA8
:101DD000010145210201266F286F25C227F200016B
:101DE00009EC04F001C031F111EF14F0010E010112
:101DF00044250201256F000E010145210201266FD5
:101E0000286F25C227F2010E2A6F540E296F040E87
:101E10002B6F00019BEC03F001523AE1050E01012A
:101E20004425016E000E4521036E01C0E9FFEA6EF4
:101E3000EF520EE131C126F21F0E0201276F0001A1
:101E4000F0EC04F0010136519EA8FED7AD6E1ED015
:101E5000050E4425016E000E4521036E01C0E9FF09
:101E6000EA6EEF50200812E1060E44250201256FAC
:101E7000000E010145210201266F286F25C227F2BD
:101E8000000109EC04F001C031F1010110EF14F080
:101E900045C128F244C127F2010E02012A6F6B0EE0
:101EA000296F070E2B6F00019BEC03F0015214E128
:101EB000070E010144250201256F000E0101452195
:101EC0000201266F286F25C227F2000109EC04F0F9
:101ED00001C033F111EF14F045C128F244C127F2DB
:101EE000010E02012A6F730E296F040E2B6F000181
:101EF0009BEC03F001520FE1050E0201266F1F0E4D
:101F0000276F0001F0EC04F0010136519EA8FED7C6
:101F1000AD6E10EF14F0010E010144250201256F92
:101F2000000E010145210201266F286F25C227F20C
:101F3000010E2A6F730E296F040E2B6F00019BECAC
:101F400003F0015226E10201256B255100013FEC0F
:101F500001F00201252B006E00509EA8FED7AD6E49
:101F6000080E255DF2E1050E266F1F0E276F00019A
:101F7000F0EC04F02E0E9EA8FED7AD6E300E9EA89B
:101F8000FED7AD6E010136519EA8FED7AD6E10EFA3
:101F900014F045C128F244C127F2010E02012A6F54
:101FA000660E296F040E2B6F00019BEC03F00152AB
:101FB00030E101013853D8A402D000012AD0050E27
:101FC0004425016E000E4521036E01C0E9FFEA6E53
:101FD000EF521DE143530CE129C125F20001A3ECAE
:101FE00009F00152D8B402D0010102D0000E01D094
:101FF000010E0101436F080E1E6E0201936B1E0E4F
:10200000926F010E946F000143EC03F0010110EF99
:1020100014F045C128F244C127F2020E02012A6FD2
:10202000120E296F050E2B6F00019BEC03F001527D
:1020300030E101013853D8A402D000012AD0050EA6
:102040004425016E000E4521036E01C0E9FFEA6ED2
:10205000EF521DE143530CE129C125F20001A3EC2D
:1020600009F00152D8B402D0010102D0000E01D013
:10207000010E0101436F080E1E6E0201936B1E0ECE
:10208000926F010E946F000143EC03F0010110EF19
:1020900014F045C128F244C127F2010E02012A6F53
:1020A000780E296F0A0E2B6F00019BEC03F0015292
:1020B00014E10A0E010144250201256F000E010101
:1020C00045210201266F286F25C227F2000109EC85
:1020D00004F001C034F111EF14F045C128F244C1FD
:1020E00027F2010E02012A6F990E296F060E2B6F3F
:1020F00000019BEC03F0015240E1060E0101442572
:10210000016E000E4521036E01C0E9FFEA6EEF5239
:102110000EE134C126F21F0E0201276F0001F0EC20
:1021200004F0010136519EA8FED7AD6E25D0060EF3
:102130004425016E000E4521036E01C0E9FFEA6EE1
:10214000EF50200819E1070E44250201256F000E0B
:10215000010145210201266F286F25C227F20001E7
:1021600009EC04F001C034F10101345305E0342DD1
:1021700001D002D0010E346F53D345C128F244C1BF
:1021800027F2010E02012A6F830E296F060E2B6FB4
:1021900000019BEC03F0015208E1010E0201266FE1
:1021A0000001FBEC01F0FF003CD345C128F244C123
:1021B00027F2010E02012A6FEB0E296F050E2B6F1D
:1021C00000019BEC03F0015208E1010E0201266FB1
:1021D0000001FBEC01F0FF0024D345C128F244C10B
:1021E00027F2010E02012A6F8A0E296F070E2B6F4C
:1021F00000019BEC03F0015213E1070E010144259D
:102200000201256F000E010145210201266F286F92
:1022100025C227F2000109EC04F001C032F101D31C
:1022200045C128F244C127F2010E02012A6FA00E17
:10223000296F050E2B6F00019BEC03F001522FE17B
:1022400001013853D8A402D0000129D043530CE136
:1022500029C125F20001A3EC09F00152D8B402D043
:10226000010102D0000E01D0010E0101436F040EE6
:102270001E6E435310E10201936B1E0E926F010E0E
:10228000946F000143EC03F00152D8B402D0010175
:1022900002D0000E01D0010E0101436FC1D245C131
:1022A00028F244C127F2010E02012A6FA60E296FFF
:1022B0000C0E2B6F00019BEC03F0015240E10C0E61
:1022C00001014425016E000E4521036E01C0E9FFA6
:1022D000EA6EEF520EE135C126F21F0E0201276FA2
:1022E0000001F0EC04F0010136519EA8FED7AD6E5E
:1022F00025D00C0E4425016E000E4521036E01C051
:10230000E9FFEA6EEF50200819E10D0E44250201A5
:10231000256F000E010145210201266F286F25C29D
:1023200027F2000109EC04F001C035F10101355339
:1023300005E0352D01D002D0010E356F71D245C1B7
:1023400028F244C127F2010E02012A6FB30E296F51
:102350000A0E2B6F00019BEC03F0015239E10A0ECB
:1023600001014425016E000E4521036E01C0E9FF05
:10237000EA6EEF520EE136C126F21F0E0201276F00
:102380000001F0EC04F0010136519EA8FED7AD6EBD
:102390001ED00A0E4425016E000E4521036E01C0B9
:1023A000E9FFEA6EEF50200812E10B0E442502010E
:1023B000256F000E010145210201266F286F25C2FD
:1023C00027F2000109EC04F001C036F1010128D226
:1023D00045C128F244C127F2010E02012A6FBE0E48
:1023E000296F050E2B6F00019BEC03F001520EE1EB
:1023F00001013853D8A402D0000108D096908D90E6
:10240000E60E006E002EFED796800AD245C128F255
:1024100044C127F2010E02012A6FC40E296F050E76
:102420002B6F00019BEC03F001522FE101013853A7
:10243000D8A402D0000129D043530CE129C125F2D0
:102440000001A3EC09F00152D8B402D0010102D07E
:10245000000E01D0010E0101436F110E1E6E435399
:1024600010E10201936B1E0E926F010E946F00013A
:1024700043EC03F00152D8B402D0010102D0000EA7
:1024800001D0010E0101436FCBD145C128F244C1F7
:1024900027F2010E02012A6FCA0E296F050E2B6F5B
:1024A00000019BEC03F001522FE101013853D8A445
:1024B00002D0000129D043530CE129C125F20001CB
:1024C000A3EC09F00152D8B402D0010102D0000EF1
:1024D00001D0010E0101436F010E1E6E435310E146
:1024E0000201936B1E0E926F010E946F000143EC7C
:1024F00003F00152D8B402D0010102D0000E01D085
:10250000010E0101436F8CD145C128F244C127F26D
:10251000010E02012A6FD00E296F050E2B6F0001EC
:102520009BEC03F0015244E101013853D8B402D0CE
:1025300000013ED0050E4425016E000E4521036EBC
:1025400001C0E9FFEA6EEF520EE137C126F21F0E1D
:102550000201276F0001F0EC04F0010136519EA842
:10256000FED7AD6E24D0050E4425016E000E452128
:10257000036E01C0E9FFEA6EEF50200818E1060E75
:1025800044250201256F000E010145210201266F3D
:10259000286F25C227F2000109EC04F001C037F1D1
:1025A0000101375304E0372D01D001D0376B38D10A
:1025B00045C128F244C127F2010E02012A6FD60E4E
:1025C000296F060E2B6F00019BEC03F001524BE1CB
:1025D000060E01014425016E000E4521036E01C067
:1025E000E9FFEA6EEF520EE138C126F21F0E02013A
:1025F000276F0001F0EC04F0010136519EA8FED7D0
:10260000AD6E25D0060E4425016E000E4521036EE9
:1026100001C0E9FFEA6EEF50200819E1070E4425DA
:102620000201256F000E010145210201266F286F6E
:1026300025C227F2000109EC04F001C038F10101C4
:10264000385305E0382D01D002D0010E386F3853D1
:1026500005E0959E8C8E95988C9804D0959E8C9EC6
:1026600095988C88DDD045C128F244C127F2010E2F
:1026700002012A6FF10E296F090E2B6F00019BECEE
:1026800003F0015240E1090E01014425016E000EE4
:102690004521036E01C0E9FFEA6EEF520EE139C138
:1026A00026F21F0E0201276F0001F0EC04F0010179
:1026B00036519EA8FED7AD6E25D0090E4425016E79
:1026C000000E4521036E01C0E9FFEA6EEF502008BD
:1026D00019E10A0E44250201256F000E0101452172
:1026E0000201266F286F25C227F2000109EC04F0D1
:1026F00001C039F10101395305E0392D01D002D073
:10270000010E396F8DD045C128F244C127F2020E67
:1027100002012A6F030E296F050E2B6F00019BEC3F
:1027200003F0015219E101013853D8A402D000018D
:1027300013D00001ECEF09F001C025F201C026F230
:102740001F0E0201276F0001F0EC04F00101365169
:102750009EA8FED7AD6E64D045C128F244C127F2D1
:10276000010E02012A6FFB0E296F070E2B6F00016D
:102770009BEC03F001523CE101013853D8A402D094
:10278000000136D0070E4425016E000E4521036E70
:1027900001C0E9FFEA6EEF5207E129C127F200010B
:1027A000F7EC09F022D00101070E4425016E000E5E
:1027B0004521036E01C0E9FFEA6EEF50200816E1E3
:1027C000080E44250201256F000E0101452102017A
:1027D000266F286F25C227F2000109EC04F001C022
:1027E00026F201C027F2F7EC09F0010119D000012F
:1027F0000101322D15D00201256B2551000154EC49
:1028000001F00201252B006E00509EA8FED7AD6E90
:10281000150E255DF2E1010136519EA8FED7AD6E81
:102820000001CBD00101385329E043530CE129C109
:1028300025F20001A3EC09F00152D8B402D0010145
:1028400002D0000E01D0010E0101436F400E2A2577
:102850001E6E435310E10201936B1E0E926F010E28
:10286000946F000143EC03F00152D8B402D001018F
:1028700002D0000E01D0010E0101436F385302E176
:1028800042A141D03051030827E0435311E145C133
:1028900026F244C125F20201276B286B000152EC9D
:1028A0000AF00152D8B402D0010102D0000E01D0CA
:1028B000010E0101436F43530EE1010E0201266F29
:1028C0002D0E256F276B31C128F2000152EC0AF062
:1028D00001C043F1010117D0435312E145C126F273
:1028E00044C125F20201276B010E286F000152EC52
:1028F0000AF00152D8B402D0010102D0000E01D07A
:10290000010E0101436F345357E0385355E045C180
:1029100026F244C125F23F0E0201276F000161EF4C
:102920000AF002C026F201C025F20201255302E19D
:10293000265327E001014353D8B402D0020121D02D
:1029400031C125F20001F1EC07F0015219E001015B
:10295000322D15D00201256B2551000115EC01F037
:102960000201252B006E00509EA8FED7AD6E130EFF
:10297000255DF2E1010136519EA8FED7AD6E000142
:102980001CD00101435318E0436B322D15D00201D6
:10299000256B255100016DEC01F00201252B006E25
:1029A00000509EA8FED7AD6E140E255DF2E1010128
:1029B00036519EA8FED7AD6E0001010138533BE1B0
:1029C000928280B228D00201936B1E0E926F00019A
:1029D0004FEC07F0400E010129251E5C02E1428107
:1029E00019D0200E29251E5C02E1428313D01E500F
:1029F0003F0802E142930ED01E505F0802E142916F
:102A000009D01E50180802E1428504D01E50190852
:102A100001E1429510D042A308D031C125F2000156
:102A2000F1EC07F00101429306D042A104D042A587
:0E2A300002D04295429300017FEF0CF00300AC
:020000040030CA
:0E00000000021E19008381000FC00FE00F40A8
:00000001FF
;PIC18F4520
