:020000040000FA
:040000000FEF06F008
:08000800056ED8CF06F0E0CF31
:1000100007F00001E9CF0DF0EACF08F0E1CF09F0D9
:10002000E2CF0AF0D9CF0BF0DACF0CF0F3CF14F017
:10003000F4CF15F0FACF16F000C00FF001C010F0A9
:1000400002C011F003C012F004C013F0F2AA2CEFAA
:1000500000F0F2B491EF01F09DAA32EF00F09EBAE9
:100060009AEF01F00FC000F010C001F011C002F0D3
:1000700012C003F013C004F00E8E0DC0E9FF08C0DB
:10008000EAFF09C0E1FF0AC0E2FF0BC0D9FF0CC0C4
:10009000DAFF14C0F3FF15C0F4FF16C0FAFF0550D5
:1000A00007C0E0FF06C0D8FF1000F2CF0EF0F29EAE
:1000B000F76AC40FF66E000EF7220900F5500EBE67
:1000C000F28E120054696D656F7574206572726FDF
:1000D000723A2057616974696E6720666F72204EAC
:1000E00044414320746F20676F206C6F77207768DE
:1000F000696C652077726974696E670A0D00F2CFCA
:100100000EF0F29EF76A180FF66E010EF722090044
:10011000F5500EBEF28E120054696D656F75742035
:100120006572726F723A2057616974696E672066F2
:100130006F72204E52464420746F20676F206869AA
:100140006768207768696C652077726974696E6783
:100150000A0D0000F2CF0EF0F29EF76A6E0FF66EF7
:10016000010EF7220900F5500EBEF28E12005469FE
:100170006D656F7574206572726F723A2057616990
:1001800074696E6720666F72204E44414320746F1D
:1001900020676F2068696768207768696C652077D9
:1001A000726974696E670A0D0000F2CF0EF0F29E5C
:1001B000F76AC40FF66E010EF7220900F5500EBE65
:1001C000F28E120054696D656F7574206572726FDE
:1001D000723A2057616974696E6720666F722044B5
:1001E000415620746F20676F206C6F7720776869A5
:1001F0006C652072656164696E670A0D0000F2CF5C
:100200000EF0F29EF76A180FF66E020EF722090042
:10021000F5500EBEF28E120054696D656F75742034
:100220006572726F723A2057616974696E672066F1
:100230006F722044415620746F20676F2068696791
:1002400068207768696C652072656164696E670A09
:100250000D00F2CF0EF0F29EF76A6C0FF66E020EF2
:10026000F7220900F5500EBEF28E1200526561644D
:10027000206572726F72206F6363757265642E0AF7
:100280000D00F2CF0EF0F29EF76A9C0FF66E020E92
:10029000F7220900F5500EBEF28E120074657374D9
:1002A000696E670A0D00F2CF0EF0F29EF76AC00F7A
:1002B000F66E020EF7220900F5500EBEF28E120005
:1002C000556E7265636F676E697A656420636F6DE2
:1002D0006D616E642E0A0D00F2CF0EF0F29EF76A89
:1002E000F20FF66E020EF7220900F5500EBEF28EE6
:1002F00012005772697465206572726F72206F63A5
:1003000063757265642C2077696C6C206E6F742045
:10031000636865636B20726573706F6E73652E0A18
:100320000D00EE07EE5303E1F12B030EEE6FF29496
:1003300032EF00F0EA6A680EE96EE906E92A9EAA41
:10034000FED7AECFEFFF0D0EEF5CF8E1EF6A010EC6
:10035000EA6F9E9A32EF00F00D00959C8C9C959A66
:100360008C8A959E8C8E95988C989380938293849A
:1003700093869388938A938C938E929289829284A7
:10038000928692988998929A899A96908D80928076
:1003900096928D82CDEF01F0E0D7929A898AA4EFF0
:1003A00006F0010EEA6E300EE96EEF500EE0050E1B
:1003B000016E006A002EFED7012EFBD7F90E006EEB
:1003C000002EFED70000EF2EF2D7D5EF02F0A4C129
:1003D000A6F1A3C1A5F1A6C103F00101A5C1E9FFE2
:1003E000A6C1EAFFEF5206E0A52BD8B4A62B000168
:1003F000F2D70101A351A55D006EA451A659036E69
:1004000000C001F0026E000113EF02F00101A053E1
:1004100002E0929289929F5309E19EC1A4F19DC18D
:10042000A3F10001D4D701C09FF10101959C8C8CF0
:1004300092948984929689869288A26B9F51A25D3C
:10044000D8B086D0036AA2519D25E96E9E51032043
:10045000EA6EEFCFA1F1928A0001F16BEF51F12525
:10046000F06F928A80AA1AD0F151F05D17E3F05133
:10047000F15D13E30101A36BA351000116DE01013D
:10048000A32B006E00509EA8FED7AD6E390EA35D63
:10049000F3E1010E016E71D00001E3D7FF0E0101FF
:1004A000A11B936AA1C18AFF92880001F16BEF51F1
:1004B000F125F06F928880B81AD0F151F05D17E302
:1004C000F051F15D13E30101A36BA351000117DEAD
:1004D0000101A32B006E00509EA8FED7AD6E3A0E10
:1004E000A35DF3E1010E016E48D00001E3D7010ED8
:1004F00001019F5DA25D04E1A05302E19294899401
:10050000929689960001F16BEF51F125F06F928A76
:1005100080BA1AD0F151F05D17E3F051F15D13E3A9
:100520000101A36BA351000115DE0101A32B006E95
:1005300000509EA8FED7AD6E3A0EA35DF3E1010E0A
:10054000016E1BD00001E3D792860101A22B76D762
:10055000959C8C9C93809382938493869388938AB2
:10056000938C938EA05301E0928292869284929A09
:10057000898A92988988000E016E0001000C9BC147
:100580009EF19AC19DF19CC19FF1010E0101A06FE6
:1005900000013CDF0150000C2FC1E9F096908D90D6
:1005A000C80E0101306F0001FCD6968096928D92A4
:1005B000140E286E01019B6B280E9A6F010E9C6F22
:1005C0000001DDDF0150A8EF06F0010133533FE0E9
:1005D0002FC1E9FF30C1EAFFEFCF34F132C103F0A0
:1005E00031C1E9FF32C1EAFFEF50345D17E030C19D
:1005F00003F02FC1E9FF30C1EAFFEFCF34F132C180
:1006000003F031C1E9FF32C1EAFFEF50345D02E28D
:10061000FF0E01D0010E016E1CD00BD030C103F0D3
:100620002FC1E9FF30C1EAFFEF5203E1000E016E76
:1006300010D030C103F02F512F2BD8B4302B32C142
:1006400003F03151312BD8B4322B3307BFD7000E12
:10065000016E0001000C006A016A01013651D89058
:1006600037B100260032013237B3002600320132A2
:1006700037B500260032013237B70026003201328A
:1006800037B900260032013237BB00260032013272
:1006900037BD00260032013237BF0026003201325A
:1006A0000001C1EF03F00101346B326B0A0E336FAE
:1006B000316B2F51301103E1000E016EC3D0345164
:1006C000342B036A2F25E96E30510320EA6EEFCFF9
:1006D00035F135512D080DE1010E326F3451342BB7
:1006E000036A2F25E96E30510320EA6EEFCF35F112
:1006F0000DD035512B080AE13451342B036A2F25D4
:10070000E96E30510320EA6EEFCF35F135512F08F5
:10071000D8B090D035513908D8A08CD03551300898
:1007200021E1036A34512F25E96E30510320EA6E2E
:10073000EF5078080AE0036A34512F25E96E3051F2
:100740000320EA6EEF5058080DE1100E336F342B82
:100750003451342B036A2F25E96E30510320EA6EA1
:10076000EFCF35F133510A081DE135512F0819E259
:100770003551390816E30A0E366F31C137F10001E1
:100780006AD7300E0101355D0124316F3451342BAD
:10079000036A2F25E96E30510320EA6EEFCF35F161
:1007A000E4D748D03351100845E13551600806E2DE
:1007B00035517A0803E33551DF0B01D03551356FE0
:1007C00035512F0803E23551390806E2355140080A
:1007D00031E2355146082EE335512F080CE23551F0
:1007E000390809E33139366FF00E3617300E355DB2
:1007F0003625316F09D03139366FF00E3617410E7C
:10080000355D0A0F3625316F3451342B036A2F259D
:10081000E96E30510320EA6EEFCF35F135516008B3
:1008200006E235517A0803E33551DF0B01D035512B
:10083000356FC6D7322D04D033510A0801E1316D2E
:1008400031C101F00001000C01019C6B9298898874
:10085000929A899A92860001EF51F125F06F928663
:1008600080A61AD0F151F05D17E3F051F15D13E36A
:1008700001019E6B9E51000198DC01019E2B006ED0
:1008800000509EA8FED7AD6E380E9E5DF3E1FF0EC0
:10089000016E3BD00001E3D792988998FF0E936ECA
:1008A00081CF9CF101019C1B928A0001EF51F1253F
:1008B000F06F928680B61AD0F151F05D17E3F051D7
:1008C000F15D13E301019E6B9E51000198DC010173
:1008D0009E2B006E00509EA8FED7AD6E390E9E5D19
:1008E000F3E1FF0E016E11D00001E3D7929A899ACD
:1008F000928401019D6B80B49D2B9AC1E9FF9BC13D
:10090000EAFF9CC1EFFF9DC101F00001000C010155
:10091000956B966B976B010E996F310E986F5F0E0A
:10092000286E97530EE19B6B280E9A6F010E9C6FF9
:10093000000125DE0152D8B402D0010102D0000E20
:1009400001D0010E0101976F3F0E286E97530EE103
:100950009B6B280E9A6F010E9C6F000110DE0152F6
:10096000D8B402D0010102D0000E01D0010E010165
:10097000976F975303E0010E016E20D1200E000106
:10098000E925286E010197530EE19B6B280E9A6FA3
:10099000010E9C6F0001F3DD0152D8B402D00101B9
:1009A00002D0000E01D0010E0101976F975303E0B2
:1009B000010E016E03D1400E0001E825286E0101F1
:1009C0009B6B280E9A6F010E9C6F0001D8DD01C051
:1009D00097F10101975303E0010E016EEFD0956B83
:1009E000010E996F310E986F0001EC2D56D0010E5B
:1009F00001019B6F2F0E9A6F000126DF01C030F1BD
:100A00000101303D03D0010E016ED8D0036A95512B
:100A1000310FE96E010E0320EA6E2FC1EFFF952B17
:100A2000955164081BE1966B9651630811E399C1D7
:100A300003F098C1E9FF99C1EAFFEFCF9AF19A510B
:100A40009EA8FED7AD6E982BD8B4992B962BECD7D9
:100A5000956B010E996F310E986F04003053D8B426
:100A600002D00001C4D7966B0001ED510101955DE4
:100A7000965D11E299C103F098C1E9FF99C1EAFFBF
:100A8000EFCF9AF19A519EA8FED7AD6E982BD8B4AD
:100A9000992B962BE9D758D00001010E01019B6FCD
:100AA0002F0E9A6F0001D0DE01C030F10101303D00
:100AB00003D0010E016E82D0036A9551310FE96EA9
:100AC000010E0320EA6E2FC1EFFF952B95516408AC
:100AD0001BE1966B9651630811E399C103F098C12D
:100AE000E9FF99C1EAFFEFCF9AF19A519EA8FED78C
:100AF000AD6E982BD8B4992B962BECD7956B010E35
:100B0000996F310E986F04000001EB5101012F5DC8
:100B1000D8B402D00001C1D7966B0001ED5101019C
:100B2000955D965D11E299C103F098C1E9FF99C105
:100B3000EAFFEFCF9AF19A519EA8FED7AD6E982B9F
:100B4000D8B4992B962BE9D7030E036E580E0001EB
:100B5000EB5D02E1035204E00D0E9EA8FED7AD6EE0
:100B60000101976B5F0E286E97530EE19B6B280E69
:100B70009A6F010E9C6F000102DD0152D8B402D0C1
:100B8000010102D0000E01D0010E0101976F3F0E4E
:100B9000286E97530EE19B6B280E9A6F010E9C6F87
:100BA0000001EDDC0152D8B402D0010102D0000EE8
:100BB00001D0010E0101976F97C101F00001000CF7
:100BC00030C19EF12FC19DF131C19FF10101A06B98
:100BD00000011CDC0150000C30C103F001012FC1E9
:100BE000E9FF30C1EAFF3151EF5C12E030C103F0A0
:100BF0002FC1E9FF30C1EAFFEF5204E1000E016EA0
:100C0000026E0AD02F2BD8B4302B0001E5D701019A
:100C10002FC101F030C102F000012FEF08F0F86A97
:100C2000D09E0D8EEA6AE96AB886090EAF6E000E94
:100C3000B06EA60EAC6E900EAB6EC150C00B0F091D
:100C4000C16E070EB46E186A196A330E1E6E1F6AE3
:100C5000206A216A226A236A246A256A266A276A28
:100C6000EA6B010EEB6FEC6FED6B2B0EFD6F610EFF
:100C7000FE6F3A0EFF6F0101006B2B0E016F740EB9
:100C8000026F3A0E036F046B2B0E056F650E066F35
:100C90006F0E076F730E086F3A0E096F0A6B2B0EFB
:100CA0000B6F650E0C6F6F0E0D6F690E0E6F3A0EA7
:100CB0000F6F106B2B0E116F740E126F650E136F8A
:100CC000730E146F740E156F166B2B0E176F720E5A
:100CD000186F650E196F610E1A6F640E1B6F1C6B17
:100CE0002B0E1D6F670E1E6F650E1F6F740E206F2B
:100CF000216B2B0E226F730E236F740E246F720EF6
:100D0000256F690E266F700E276F3A0E286F296BBC
:100D10002B0E2A6F760E2B6F650E2C6F720E2D6FB9
:100D20002E6B949A8B8AD180030E0001EE6FD76AE6
:100D3000D66AD190830ED56EF28A9D8AC00EF212C9
:100D4000050EEF6FCCEF01F001012F6B000124D4F1
:100D500001C0FCF0949A8B9A0400EA53D8B4B8D13D
:100D6000EA6B68502B08D8A407D10101306B680EDC
:100D70002F6F326BFD0E316F030E336F000125DCD8
:100D8000015209E10101306B6B0E2F6F00018BDC0A
:100D900001C0E8F0F0D00101306B680E2F6F010E3A
:100DA000326F170E316F050E336F00010EDC0152EA
:100DB00015E1ADDD015211E001012F6B2F51000152
:100DC00029EC01F001012F2B006E00509EA8FED7E8
:100DD000AD6E150E2F5DF2E10001CDD00101306B3B
:100DE000680E2F6F010E326F110E316F050E336FCB
:100DF0000001E5EC02F0015211E101012F6B2F51CE
:100E0000000141EC01F001012F2B006E00509EA863
:100E1000FED7AD6E090E2F5DF2E1ACD00101306B53
:100E2000680E2F6F010E326F316F030E336F0001AA
:100E3000E5EC02F0015209E10101306B6B0E2F6FFE
:100E4000000131DC01C0EFF096D00101306B680E7B
:100E50002F6F010E326F050E316F336F0001E5EC1D
:100E600002F0015209E10101306B6D0E2F6F00019C
:100E70001ADC01C0EBF07FD00101306B680E2F6FE0
:100E8000010E326F0B0E316F050E336F0001E5EC72
:100E900002F0015209E10101306B6D0E2F6F00016C
:100EA00002DC01C0ECF067D00101306B680E2F6FDF
:100EB000010E326F220E316F070E336F0001E5EC29
:100EC00002F001520AE10101306B6F0E2F6F000139
:100ED00053EC03F001C0EDF04ED00101306B680E11
:100EE0002F6F010E326F2A0E316F040E336F000127
:100EF000E5EC02F0015213E1EA6A1E0EE96E000E03
:100F0000EF1008E0EF509EA8FED7AD6EE92AD8B4E6
:100F1000EA2AF5D70D0E9EA8FED7AD6E2CD00101A2
:100F2000306B680E2F6F010E326F1D0E316F040E85
:100F3000336F0001E5EC02F001520CE1080E286E5F
:100F400001019B6B280E9A6F010E9C6F0001BFEC94
:100F500002F011D001012F6B2F51000153EC01F071
:100F600001012F2B006E00509EA8FED7AD6E170E0C
:100F70002F5DF2E10001ACD05F0E286EFC530DE155
:100F800001019B6B280E9A6F010E9C6F0001BFEC54
:100F900002F0015202E1000E01D0010EFC6F3F0E83
:100FA000286EFC530DE101019B6B280E9A6F010E18
:100FB0009C6F0001BFEC02F0015202E1000E01D073
:100FC000010EFC6F200EE825286EFC530DE1010197
:100FD0009B6B280E9A6F010E9C6F0001BFEC02F014
:100FE000015202E1000E01D0010EFC6F400EE92516
:100FF000286EFC530DE101019B6B280E9A6F010EC8
:101000009C6F0001BFEC02F0015202E1000E01D022
:10101000010EFC6FFC530BE10101306B680E2F6F6A
:10102000316B0001CDDD015202E1000E01D0010E55
:10103000FC6FEC530CE1EBC068F00101306B680E03
:101040002F6F010E316F0001BBDD01C0FCF001010B
:10105000306B680E2F6F3F0E316F0001BDD502C09F
:1010600030F101C02FF101012F5302E130531BE099
:101070000001FC53D8B402D0010115D048DC015264
:1010800011E001012F6B2F51000129EC01F001014A
:101090002F2B006E00509EA8FED7AD6E150E2F5D53
:1010A000F2E1000115D00001FC5312E0FC6B0101DC
:1010B0002F6B2F5100016CEC01F001012F2B006E02
:1010C00000509EA8FED7AD6E2F0E2F5DF2E10001FD
:0410D00043D6030000
:020000040030CA
:0E00000000021E13008381000FC00FE00F40AE
:00000001FF
;PIC18F4520
