:020000040000FA
:040000000CEF0AF007
:08000800056ED8CF06F0E0CF31
:1000100007F00001E9CF0DF0EACF08F0E1CF09F0D9
:10002000E2CF0AF0D9CF0BF0DACF0CF0F3CF14F017
:10003000F4CF15F0FACF16F000C00FF001C010F0A9
:1000400002C011F003C012F004C013F09DA22CEF07
:1000500000F09EB271EF01F09DAA32EF00F09EBA5F
:100060007EEF01F00FC000F010C001F011C002F0EF
:1000700012C003F013C004F00E8E0DC0E9FF08C0DB
:10008000EAFF09C0E1FF0AC0E2FF0BC0D9FF0CC0C4
:10009000DAFF14C0F3FF15C0F4FF16C0FAFF0550D5
:1000A00007C0E0FF06C0D8FF1000F2CF0EF0F29EAE
:1000B000F76AC40FF66E000EF7220900F5500EBE67
:1000C000F28E120054696D656F75743A205761693C
:1000D00074696E6720666F72204E44414320746FCE
:1000E00020676F206C6F77207768696C6520777266
:1000F0006974696E6700F2CF0EF0F29EF76A100F16
:10010000F66E010EF7220900F5500EBEF28E1200B7
:1001100054696D656F75743A2057616974696E67CB
:1001200020666F72204E52464420746F20676F2005
:1001300068696768207768696C6520777269746997
:100140006E670000F2CF0EF0F29EF76A5E0FF66E59
:10015000010EF7220900F5500EBEF28E120054690E
:100160006D656F75743A2057616974696E672066B2
:100170006F72204E44414320746F20676F2068697E
:100180006768207768696C652077726974696E6743
:100190000000F2CF0EF0F29EF76AAC0FF66E010E81
:1001A000F7220900F5500EBEF28E120054696D65FB
:1001B0006F75743A2057616974696E6720666F7253
:1001C0002044415620746F20676F206C6F77207732
:1001D00068696C652072656164696E670000F2CFC2
:1001E0000EF0F29EF76AF80FF66E010EF722090084
:1001F000F5500EBEF28E120054696D656F75743A3B
:100200002057616974696E6720666F722044415699
:1002100020746F20676F2068696768207768696C51
:10022000652072656164696E6700F2CF0EF0F29E20
:10023000F76A440FF66E020EF7220900F5500EBE63
:10024000F28E120052656164206572726F72206FC7
:100250006363757265642E256300F2CF0EF0F29E23
:10026000F76A740FF66E020EF7220900F5500EBE03
:10027000F28E120074657374696E67256300F2CFA5
:100280000EF0F29EF76A980FF66E020EF722090042
:10029000F5500EBEF28E1200556E7265636F676E7A
:1002A000697A656420636F6D6D616E642E256300ED
:1002B000F2CF0EF0F29EF76ACA0FF66E020EF72228
:1002C0000900F5500EBEF28E120057726974652057
:1002D0006572726F72206F6363757265642E256339
:1002E0000000010E01013D27D8B03E2BD8B43F2BB2
:1002F000D8B4402B9E92000132EF00F00201A09191
:100300009EAAFED7AECF9FF29F511F0810E29F51C9
:100310007E080DE301012851282B036A280FE96E9E
:10032000000E0320EA6E9FC2EFFF0201A0819F51E1
:100330000A0803E09F510D08E3E19EAA0ED0036A6C
:1003400001012851280FE96E000E0320EA6E9EAAD3
:10035000FED7AECFEFFF0201F0D7A0A10AD0010176
:100360002851282B036A280FE96E000E0320EA6E3D
:10037000EF6A01012851EA0801E2286B9E9A000108
:1003800032EF00F0959C8C9C959A8C9A959E8C8E61
:1003900095988C9893809382938493869388938A7C
:1003A000938C938E92928982928492869298899865
:1003B000929A899A96908D80928096928D82E2EFA1
:1003C00001F0E0D7929A898AE0EF0BF0020EEA6E14
:1003D000240EE96EEF500EE0050E016E006A002E4D
:1003E000FED7012EFBD7F90E006E002EFED70000BF
:1003F000EF2EF2D7000C9BC29DF29AC29CF29DC2D6
:1004000003F002019CC2E9FF9DC2EAFFEF5206E041
:100410009C2BD8B49D2B0001F2D702019A519C5D10
:10042000006E9B519D59036E00C001F0026E0001E9
:10043000000C959A8C8A0201965302E0929289925E
:10044000955309E194C29BF293C29AF20001D3DF63
:1004500001C095F20201959C8C8C929489849296AD
:1004600089869288996B9551995DD8B0DDD0036AE1
:1004700099519325E96E94510320EA6EEFCF98F2DB
:10048000928A0101406B3F6B3E6B3D6B9D82928A6D
:1004900080AA35D040513C5D32E30BE13F513B5DDA
:1004A0002EE307E13E513A5D2AE303E13D51395D18
:1004B00026E304003C51405D21E30BE13B513F5DED
:1004C0001DE307E13A513E5D19E303E139513D5D1A
:1004D00015E3322D10D002019A6B9A510001E5DD2F
:1004E00002019A2B006E00509EA8FED7AD6E310E11
:1004F0009A5DF3E10101010E016EAED0C8D79D9265
:10050000FF0E0201981B936A98C28AFF928801012C
:10051000406B3F6B3E6B3D6B9D82928880B835D0BF
:1005200040513C5D32E30BE13F513B5D2EE307E17F
:100530003E513A5D2AE303E13D51395D26E3040073
:100540003C51405D21E30BE13B513F5D1DE307E181
:100550003A513E5D19E303E139513D5D15E3322D1A
:1005600010D002019A6B9A510001C5DD02019A2B4D
:10057000006E00509EA8FED7AD6E320E9A5DF3E17C
:100580000101010E016E68D0C8D79D92010E0201D3
:10059000955D995D04E1975302E092948994929657
:1005A00089960101406B3F6B3E6B3D6B9D82928A49
:1005B00080BA35D040513C5D32E30BE13F513B5DA9
:1005C0002EE307E13E513A5D2AE303E13D51395DF7
:1005D00026E304003C51405D21E30BE13B513F5DCC
:1005E0001DE307E13A513E5D19E303E139513D5DF9
:1005F00015E3322D10D002019A6B9A510001A2DD51
:1006000002019A2B006E00509EA8FED7AD6E320EEE
:100610009A5DF3E10101010E016E1ED0C8D79D92D3
:1006200092860201992B1FD7959C8C9C9380938274
:10063000938493869388938A938C938E965301E048
:10064000928292869284929A898A92988988959ABF
:100650008C9A000E016E01010001000C91C294F20F
:1006600090C293F292C295F2010E0201966F976BBF
:100670000001DFDE0150000C23C22AF196908D901C
:10068000C80E0201246F0001A1DE968096928D9221
:10069000140E1E6E0201916B1E0E906F010E926F72
:1006A0000001DCDF0150E5EF0BF0036A0101275187
:1006B000280F0201236F000E0320246F036A01013B
:1006C0002751280F0201256F000E0320266F9B6F14
:1006D00025C29AF200018FDE01C026F2010E02014E
:1006E0000124016E000E022001500101272727512D
:1006F000EA0801E2276B2851275D02E1276B286B8E
:10070000020123C201F0000111EF0CF00201295394
:100710003FE025C2E9FF26C2EAFFEFCF2AF228C256
:1007200003F027C2E9FF28C2EAFFEF502A5D17E075
:1007300026C203F025C2E9FF26C2EAFFEFCF2AF264
:1007400028C203F027C2E9FF28C2EAFFEF502A5D62
:1007500002E2FF0E01D0010E016E1CD00BD026C2AA
:1007600003F025C2E9FF26C2EAFFEF5203E1000EC3
:10077000016E10D026C203F02551252BD8B4262BAC
:1007800028C203F02751272BD8B4282B2907BFD71D
:10079000000E016E0001000C006A016A02012C517A
:1007A000D8902DB10026003201322DB30026003240
:1007B00001322DB50026003201322DB7002600325D
:1007C00001322DB90026003201322DBB0026003245
:1007D00001322DBD0026003201322DBF002600322D
:1007E0000132000162EF04F002012A6B286B0A0E4D
:1007F000296F276B2551261103E1000E016EC3D02E
:100800002A512A2B036A2525E96E26510320EA6E18
:10081000EFCF2BF22B512D080DE1010E286F2A513D
:100820002A2B036A2525E96E26510320EA6EEFCFB5
:100830002BF20DD02B512B080AE12A512A2B036AE7
:100840002525E96E26510320EA6EEFCF2BF22B51BE
:100850002F08D8B090D02B513908D8A08CD02B516C
:10086000300821E1036A2A512525E96E265103202B
:10087000EA6EEF5078080AE0036A2A512525E96EEE
:1008800026510320EA6EEF5058080DE1100E296F33
:100890002A2B2A512A2B036A2525E96E265103208B
:1008A000EA6EEFCF2BF229510A081DE12B512F08D8
:1008B00019E22B51390816E30A0E2C6F27C22DF2CC
:1008C00000016AD7300E02012B5D0124276F2A51E7
:1008D0002A2B036A2525E96E26510320EA6EEFCF05
:1008E0002BF2E4D748D02951100845E12B5160087C
:1008F00006E22B517A0803E32B51DF0B01D02B5179
:100900002B6F2B512F0803E22B51390806E22B5194
:10091000400831E22B5146082EE32B512F080CE200
:100920002B51390809E327392C6FF00E2C17300EA4
:100930002B5D2C25276F09D027392C6FF00E2C1733
:10094000410E2B5D0A0F2C25276F2A512A2B036A93
:100950002525E96E26510320EA6EEFCF2BF22B51AD
:10096000600806E22B517A0803E32B51DF0B01D01C
:100970002B512B6FC6D7282D04D029510A0801E12D
:10098000276D27C201F00001000C02012B51016A02
:100990002A5D03E22AC200F00CD0006A080E2C6F18
:1009A0002A3700362B51005CD8B0006E01362C2F50
:1009B000F7D70001000C200E020125A9300E266F8A
:1009C00024C200F024AF07D0001E002A00C024F289
:1009D0002D0E266F258F015024C22AF2640E2B6F34
:1009E0000001D3DF00C024F2300E01240201276F82
:1009F00024C22AF20A0E2B6F0001C7DF300E00243A
:100A00000201296F300E0124286F26C200F025A7AD
:100A100002D025AF259525B90BD025AF22D025B51D
:100A200020D000C027F225B31CD000C028F219D076
:100A3000300E275D16E100C027F2200E266F25A795
:100A400004D02595258325AF2593300E285D09E137
:100A500000C028F2200E276F25A7F7D7259325AFD2
:100A6000259125A504D026519EA8FED7AD6E25A3BD
:100A700004D027519EA8FED7AD6E25A104D02851E1
:100A80009EA8FED7AD6E29519EA8FED7AD6E00017F
:100A9000000C02012D6B2B6B0A0E2C6F2A6B296B3D
:100AA000286B276B2551261105E1006A016A026A4D
:100AB000036A3DD12D512D2B036A2525E96E265160
:100AC0000320EA6EEFCF2EF22E512D080DE1010E1C
:100AD0002B6F2D512D2B036A2525E96E26510320FE
:100AE000EA6EEFCF2EF20DD02E512B080AE12D51D8
:100AF0002D2B036A2525E96E26510320EA6EEFCFE0
:100B00002EF22E512F08D8B0FAD02E513908D8A085
:100B1000F6D02E51300821E1036A2D512525E96ECA
:100B200026510320EA6EEF5078080AE0036A2D513F
:100B30002525E96E26510320EA6EEF5058080DE195
:100B4000100E2C6F2D2B2D512D2B036A2525E96EB0
:100B500026510320EA6EEFCF2EF22C510A0844E111
:100B60002E512F0840E22E5139083DE3D890273509
:100B7000306F2835316F2935326F2A35336F27357D
:100B8000006E2835016E2935026E2A35036E003657
:100B90000136023603360036013602360336F80EC9
:100BA00000163051002631510122325102223351B8
:100BB000032203C02AF202C029F201C028F200C0B9
:100BC00027F2300E2E5D2727000E282329232A2303
:100BD0002D512D2B036A2525E96E26510320EA6E3F
:100BE000EFCF2EF2BDD78BD02C511008D8A487D0D0
:100BF0002E51600806E22E517A0803E32E51DF0BD6
:100C000001D02E512E6F2E512F0803E22E5139089C
:100C100007E22E514008D8B072D02E5146086FE33B
:100C20002E512F082DE22E5139082AE32735306F37
:100C30002835316F2935326F2A35336F30373137E8
:100C40003237333730373137323733373037313760
:100C500032373337F00E3017300E2E5D3025006EF0
:100C6000000E3121016E000E3221026E000E332182
:100C70002A6F02C029F201C028F200C027F22AD050
:100C80002735306F2835316F2935326F2A35336F6C
:100C90003037313732373337303731373237333710
:100CA0003037313732373337F00E3017410E2E5D83
:100CB0000A0F3025006E000E3121016E000E322128
:100CC000026E000E33212A6F02C029F201C028F201
:100CD00000C027F22D512D2B036A2525E96E2651E0
:100CE0000320EA6EEF502E6F600806E22E517A085C
:100CF00003E32E51DF0B01D02E512E6F84D72C51E0
:100D00000A080DE12B2D0BD0271F281F291F2A1F92
:100D1000272BD8B4282BD8B4292BD8B42A2B27C2F8
:100D200000F028C201F029C202F02AC203F000013B
:100D3000000C006A016A026A036A0201376B386BB1
:100D4000396B3A6B36513511341133112CE0200ECA
:100D50003B6FD8902F373037313732373737383706
:100D600039373A3736513A5D08E13551395D05E199
:100D70003451385D02E13351375D0FE33351375F52
:100D80003451D8A0343D385F3551D8A0353D395F56
:100D90003651D8A0363D3A5FD8800036013602364B
:100DA00003363B2FD6D7020EEA6E370EE96E0001EE
:100DB000000CE9500201276F3B0E2E6F9A0E2D6F2B
:100DC000CA0E2C6F2B6B0A0E296F26C232F225C277
:100DD00031F224C230F223C22FF22EC236F22DC2DB
:100DE00035F22CC234F22BC233F20001A2DF0150E3
:100DF000EFCF23F2ECCF24F2ECCF25F2ECCF26F2AA
:100E0000005213E102012951010AD8A402D00001C5
:100E10000CD027510CE00F0B295D01E00EE227BF3B
:100E20000CD027BD04D0200E03D00201276B300E5A
:100E3000002600509EA8FED7AD6E2EC232F22DC203
:100E400031F22CC230F22BC22FF2366B356B346B81
:100E50000A0E336F00016DDF03C02EF202C02DF2C7
:100E600001C02CF200C02BF20201292FAED70001E5
:100E7000E3EF0CF00201926B92988988929A899A1A
:100E800092860101406B3F6B3E6B3D6B9D8292866B
:100E900080A636D040513C5D33E30BE13F513B5DD2
:100EA0002FE307E13E513A5D2BE303E13D51395D0C
:100EB00027E304003C51405D22E30BE13B513F5DE1
:100EC0001EE307E13A513E5D1AE303E139513D5D0E
:100ED00016E3322D11D00201946B94510001C9EC3C
:100EE00000F00201942B006E00509EA8FED7AD6E5C
:100EF000300E945DF2E10101FF0E016E5BD0C7D7A9
:100F00009D9292988998FF0E936E81CF92F2020182
:100F1000921B928A0101406B3F6B3E6B3D6B9D8241
:100F2000928680B636D040513C5D33E30BE13F51B1
:100F30003B5D2FE307E13E513A5D2BE303E13D5179
:100F4000395D27E304003C51405D22E30BE13B5156
:100F50003F5D1EE307E13A513E5D1AE303E139517B
:100F60003D5D16E3322D11D00201946B94510001C6
:100F7000EFEC00F00201942B006E00509EA8FED70B
:100F8000AD6E310E945DF2E10101FF0E016E12D0E3
:100F9000C7D79D92929A899A92840201936B80B4EA
:100FA000932B90C2E9FF91C2EAFF92C2EFFF93C276
:100FB00001F001010001000C02018A6B8B6B8C6B4C
:100FC0008D91020E8F6F260E8E6F5F0E1E6E8C53EC
:100FD0000FE1916B1E0E906F010E926F00012EECCF
:100FE00003F00152D8B402D0020102D0000E01D0A9
:100FF000010E02018C6F3F0E1E6E8C530FE1916B40
:101000001E0E906F010E926F00012EEC03F0015244
:10101000D8B402D0020102D0000E01D0010E0201AC
:101020008C6F8C5303E0010E016E6ED1200E010116
:101030002A251E6E02018C530FE1916B1E0E906FDC
:10104000010E926F00012EEC03F00152D8B402D0D1
:10105000020102D0000E01D0010E02018C6F8C53F0
:1010600003E0010E016E50D1400E010129251E6ED4
:101070000201916B1E0E906F010E926F00012EEC1B
:1010800003F001C08CF202018C5303E0010E016EEB
:101090003BD18A6B020E8F6F260E8E6F232D7FD071
:1010A000020E916F240E906F0001E4DE01C025F264
:1010B0000201253D03D0010E016E26D101013053FE
:1010C00012E02D510201245D02E125530AE0036A7A
:1010D0008A51260FE96E020E0320EA6E24C2EFFF4A
:1010E0008A2B22D001012E510201245D13E12553E8
:1010F00011E1010E8A5D036A260FE96E020E0320DC
:10110000EA6E01012D51EF5C03E102018A07010142
:101110000CD00201036A8A51260FE96E020E0320E9
:10112000EA6E24C2EFFF8A2B010102018A51640892
:101130001BE18B6B8B51630811E38FC203F08EC2EE
:10114000E9FF8FC2EAFFEFCF90F290519EA8FED741
:10115000AD6E8E2BD8B48F2B8B2BECD78A6B020EF7
:101160008F6F260E8E6F040025539AE18B6B010161
:10117000335102018A5D8B5D11E28FC203F08EC292
:10118000E9FF8FC2EAFFEFCF90F290519EA8FED701
:10119000AD6E8E2BD8B48F2B8B2BE9D77ED0020E61
:1011A000916F240E906F000165DE01C025F20201EF
:1011B000253D03D0010E016EA7D00101305312E08E
:1011C0002D510201245D0BE0036A8A51260FE96E5E
:1011D000020E0320EA6E24C2EFFF8A2B01D08D811C
:1011E00021D001012E510201245D12E1010E8A5D20
:1011F000036A260FE96E020E0320EA6E01012D51EB
:10120000EF5C04E102018A078D8101010CD002012B
:10121000036A8A51260FE96E020E0320EA6E24C289
:10122000EFFF8A2B010102018A5164081BE18B6BDD
:101230008B51630811E38FC203F08EC2E9FF8FC2A6
:10124000EAFFEFCF90F290519EA8FED7AD6E8E2BA5
:10125000D8B48F2B8B2BECD78A6B020E8F6F260E98
:101260008E6F04008DA19BD78D918B6B0101335143
:1012700002018A5D8B5D11E28FC203F08EC2E9FF2D
:101280008FC2EAFFEFCF90F290519EA8FED7AD6ECD
:101290008E2BD8B48F2B8B2BE9D70101352D04D0A1
:1012A00036519EA8FED7AD6E02018C6B5F0E1E6E8E
:1012B0008C530FE1916B1E0E906F010E926F000127
:1012C0002EEC03F00152D8B402D0020102D0000E7D
:1012D00001D0010E02018C6F3F0E1E6E8C530FE188
:1012E000916B1E0E906F010E926F00012EEC03F0B9
:1012F0000152D8B402D0020102D0000E01D0010E7A
:1013000002018C6F8CC201F00001000C0201246B01
:101310005F0E1E6E24530FE1916B1E0E906F010E37
:10132000926F00012EEC03F00152D8B402D00201FA
:1013300002D0000E01D0010E0201246F3F0E1E6E7E
:1013400024530FE1916B1E0E906F010E926F0001FE
:101350002EEC03F00152D8B402D0020102D0000EEC
:1013600001D0010E0201246F200E23251E6E24538E
:101370000FE1916B1E0E906F010E926F00012EEC2B
:1013800003F00152D8B402D0020102D0000E01D005
:10139000010E0201246F24C201F00001000C9280B2
:1013A000000E80B0010E016E000E01A0010E016E54
:1013B0005BEF12F024C294F223C293F225C295F29D
:1013C0000201966B26C297F2000119EC02F001505F
:1013D000000C24C203F0020123C2E9FF24C2EAFF89
:1013E0002551EF5C12E024C203F023C2E9FF24C2BE
:1013F000EAFFEF5204E1000E016E026E0AD0232BC9
:10140000D8B4242B0001E5D7020123C201F024C285
:1014100002F00001FCEF12F0F86AD09E0D8EEA6A2D
:10142000E96AB886090EAF6E000EB06EA60EAC6EFD
:10143000900EAB6EC150C00B0F09C16E070EB46E9B
:10144000186A196A0101276B286B2B6B0A0E2C6F27
:101450002D6B2E6B2F6B030E306F010E316F326BC5
:10146000336B346F356F0D0E366F376B010E386F7F
:10147000E80E396F030E3A6F3B6B3C6B3D6B3E6B76
:101480003F6B406B416B436B280E426F2B0E446FDA
:10149000610E456F3A0E466F476B2B0E486F740E08
:1014A000496F3A0E4A6F4B6B2B0E4C6F650E4D6FAA
:1014B0006F0E4E6F730E4F6F3A0E506F516B2B0EB7
:1014C000526F650E536F6F0E546F690E556F3A0E63
:1014D000566F576B2B0E586F740E596F650E5A6FFF
:1014E000730E5B6F740E5C6F5D6B2B0E5E6F720E16
:1014F0005F6F650E606F610E616F640E626F636B8C
:101500002B0E646F670E656F650E666F740E676FE6
:10151000686B2B0E696F730E6A6F740E6B6F720EB1
:101520006C6F690E6D6F700E6E6F3A0E6F6F706B31
:101530002B0E716F760E726F650E736F720E746F75
:10154000756B2B0E766F610E776F750E786F740E5C
:10155000796F6F0E7A6F720E7B6F650E7C6F610E06
:101560007D6F640E7E6F3A0E7F6F806B2B0E816FE6
:10157000720E826F650E836F730E846F650E856FBA
:10158000740E866F876B2B0E886F640E896F650EE5
:101590008A6F620E8B6F750E8C6F670E8D6F3A0EB1
:1015A0008E6F8F6B2B0E906F916F610E926F640E2A
:1015B000936F946F720E956F966B2B0E976F986F5B
:1015C000610E996F750E9A6F740E9B6F6F0E9C6F04
:1015D0009D6B2B0E9E6F9F6F630EA06F6C0EA16FA5
:1015E000720EA26FA36B2B0EA46FA56F650EA66F74
:1015F0006F0EA76F740EA86F5F0EA96F650EAA6FAE
:101600006E0EAB6F610EAC6F620EAD6F6C0EAE6F97
:10161000650EAF6FB06B2B0EB16FB26F650EB36F0F
:101620006F0EB46F740EB56F5F0EB66F630EB76F4B
:10163000680EB86F610EB96F720EBA6FBB6B2B0E6E
:10164000BC6FBD6F690EBE6F660EBF6F630EC06F5D
:10165000C16B2B0EC26FC36F6C0EC46FC56F6F0E64
:10166000C66FC76B2B0EC86FC96F6C0ECA6F6F0E3B
:10167000CB6F630ECC6FCD6B2B0ECE6FCF6F6C0E1E
:10168000D06F6F0ED16F6E0ED26FD36B2B0ED46FE7
:10169000D56F6D0ED66F6F0ED76F640ED86F650E57
:1016A000D96FDA6B2B0EDB6FDC6F720EDD6F650EA0
:1016B000DE6F610EDF6F640EE06F5F0EE16F740E20
:1016C000E26F6D0EE36F6F0EE46F5F0EE56F6D0EF0
:1016D000E66F730EE76FE86B2B0EE96FEA6F720E21
:1016E000EB6F730EEC6F740EED6FEE6B2B0EEF6FF6
:1016F000F06F730EF16F610EF26F760EF36F650E81
:10170000F46F630EF56F660EF66F670EF76FF86B8A
:101710002B0EF96FFA6F730EFB6F700EFC6F6F0E6E
:10172000FD6F6C0EFE6FFF6F0201006B2B0E016FE1
:10173000026F730E036F720E046F710E056F066BEE
:101740002B0E076F086F730E096F740E0A6F610E10
:101750000B6F740E0C6F750E0D6F730E0E6F0F6B9B
:101760002B0E106F116F740E126F720E136F670EC7
:10177000146F156B2B0E166F176F760E186F650EA4
:10178000196F720E1A6F1B6B2B0E1C6F1D6F680E7C
:101790001E6F650E1F6F6C0E206F700E216F226B17
:1017A000949A8B8AD180D76AD66A080E0609CA6EC7
:1017B000900ECB6EC00EF2129D920001E1EF01F08F
:1017C0000201236B00013CEF03F001C041F1010174
:1017D000412D01D0FF00949A8B9A0400640E0201FF
:1017E000246F0001E6EC01F00400949A8B8A040057
:1017F000640E0201246F0001E6EC01F004009D8AF2
:101800000400949A8B9A040001012751285DD8B4F2
:1018100055EF13F043C124F242C123F2000155EF0A
:1018200003F0036A01C042F1010103C043F143C167
:1018300003F042C1E9FF43C1EAFFEF502B08D8A4EF
:1018400087EF12F043C126F242C125F2010E0201D8
:10185000286F440E276F030E296F000186EC03F0FA
:10186000015214E1030E010142250201236F000E13
:10187000010143210201246F266F23C225F20001DA
:10188000F4EC03F001C029F185EF12F043C126F218
:1018900042C125F2010E0201286F900E276F060E3D
:1018A000296F000186EC03F001523AE1060E0101B6
:1018B0004225016E000E4321036E01C0E9FFEA6E6E
:1018C000EF520EE129C124F21F0E0201256F000123
:1018D000DBEC04F0010136519EA8FED7AD6E1ED0A0
:1018E000060E4225016E000E4321036E01C0E9FF82
:1018F000EA6EEF50200812E1070E42250201236F25
:10190000000E010143210201246F266F23C225F23C
:101910000001F4EC03F001C029F1010184EF12F0A1
:1019200043C126F242C125F2010E0201286F480E82
:10193000276F030E296F000186EC03F001521AE1B4
:10194000030E010142250201236F000E0101432114
:101950000201246F266F23C225F2000149EC05F035
:1019600003C03CF102C03BF101C03AF100C039F1C3
:1019700085EF12F043C126F242C125F2010E0201A9
:10198000286FDB0E276F0D0E296F000186EC03F028
:10199000015245E10D0E01014225016E000E432169
:1019A000036E01C0E9FFEA6EEF5213E1410EE96EEA
:1019B0003CC126F23BC125F23AC124F239C123F2DF
:1019C0000001D9EF06F0010136519EA8FED7AD6E99
:1019D00024D00D0E4225016E000E4321036E01C07E
:1019E000E9FFEA6EEF50200818E10E0E42250201D1
:1019F000236F000E010143210201246F266F23C2D1
:101A000025F2000149EC05F003C03CF102C03BF1B6
:101A100001C03AF100C039F1010184EF12F043C175
:101A200026F242C125F2010E0201286F5E0E276FD9
:101A3000050E296F000186EC03F0015227E131C148
:101A400023F2DCEC07F001521FE00101322D15D02A
:101A50000201236B2351000115EC01F00201232B3D
:101A6000006E00509EA8FED7AD6E130E235DF2E10E
:101A7000010136519EA8FED7AD6E010E0201246F02
:101A80000001E6EC01F0FF0085EF12F0010E01010C
:101A900042250201236F000E010143210201246F40
:101AA000266F23C225F2010E286F5E0E276F050EEA
:101AB000296F000186EC03F0015228E1060E0101B6
:101AC0004225016E000E4321036E01C0E9FFEA6E5C
:101AD000EF5207E10201236B0001DCEC07F013D0A9
:101AE0000101070E4225016E000E4321036E01C065
:101AF000E9FFEA6EEF50650807E1010E0201236F6E
:101B00000001DCEC07F0010184EF12F043C126F282
:101B100042C125F2010E0201286F580E276F050EF3
:101B2000296F000186EC03F0015217E10201236BDB
:101B3000235100012DEC01F00201232B006E005017
:101B40009EA8FED7AD6E070E235DF2E1010136516E
:101B50009EA8FED7AD6E84EF12F043C126F242C1BB
:101B600025F2010E0201286F4C0E276F050E296F1A
:101B7000000186EC03F001521AE1050E0101422535
:101B80000201236F000E010143210201246F266F21
:101B900023C225F20001F4EC03F001C02CF12CC1AA
:101BA0002DF101012E6B040E306F84EF12F0010E47
:101BB000010142250201236F000E010143210201B0
:101BC000246F266F23C225F2010E286F4C0E276F5B
:101BD000040E296F000186EC03F0015261E1050E4D
:101BE00001014225016E000E4321036E01C0E9FF91
:101BF000EA6EEF520EE130C124F21F0E0201256F92
:101C00000001DBEC04F0010136519EA8FED7AD6E59
:101C100045D0050E4225016E000E4321036E01C022
:101C2000E9FFEA6EEF50200839E1060E4225020175
:101C3000236F000E010143210201246F266F23C28E
:101C400025F20001F4EC03F001C030F10101305144
:101C5000000105E0010A0CE0030A12E019D00101BD
:101C6000306B0D0E2D6F0A0E2E6F2F6B2C6F16D052
:101C7000010E0101306F0D0E2D6F2E6B2C6F0ED0EB
:101C8000020E0101306F0A0E2D6F2E6B2C6F06D0E5
:101C9000030E0101306F2D6B2C6B00D084EF12F01E
:101CA00043C126F242C125F2010E0201286F520EF5
:101CB000276F050E296F000186EC03F0015214E135
:101CC000050E010142250201236F000E010143218F
:101CD0000201246F266F23C225F20001F4EC03F009
:101CE00001C031F185EF12F0010E01014225020120
:101CF000236F000E010143210201246F266F23C2CE
:101D000025F2010E286F520E276F040E296F000175
:101D100086EC03F001523AE1050E01014225016E05
:101D2000000E4321036E01C0E9FFEA6EEF520EE19F
:101D300031C124F21F0E0201256F0001DBEC04F01B
:101D4000010136519EA8FED7AD6E1ED0050E42256C
:101D5000016E000E4321036E01C0E9FFEA6EEF50F1
:101D6000200812E1060E42250201236F000E010138
:101D700043210201246F266F23C225F20001F4ECF7
:101D800003F001C031F1010184EF12F043C126F2EA
:101D900042C125F2010E0201286F690E276F070E5E
:101DA000296F000186EC03F0015214E1070E0101D6
:101DB00042250201236F000E010143210201246F1D
:101DC000266F23C225F20001F4EC03F001C033F1C9
:101DD00085EF12F043C126F242C125F2010E020145
:101DE000286F710E276F040E296F000186EC03F037
:101DF00001520FE1050E0201246F1F0E256F000135
:101E0000DBEC04F0010136519EA8FED7AD6E84EFE5
:101E100012F0010E010142250201236F000E0101A3
:101E200043210201246F266F23C225F2010E286F81
:101E3000710E276F040E296F000186EC03F001522A
:101E40000EE1050E0201246F1F0E256F0001DBEC71
:101E500004F0010136519EA8FED7AD6E55D343C1A3
:101E600026F242C125F2010E0201286F640E276F8F
:101E7000040E296F000186EC03F001520CE1080EFC
:101E80001E6E0201916B1E0E906F010E926F00018B
:101E90002EEC03F03AD343C126F242C125F2020EE2
:101EA0000201286F100E276F050E296F000186ECC6
:101EB00003F001522AE1050E01014225016E000ED8
:101EC0004321036E01C0E9FFEA6EEF521DE1415369
:101ED0000CE129C123F2000186EC09F00152D8B4CB
:101EE00002D0010102D0000E01D0010E0101416FAC
:101EF000080E1E6E0201916B1E0E906F010E926F06
:101F000000012EEC03F00101FFD243C126F242C1D1
:101F100025F2010E0201286F760E276F0A0E296F37
:101F2000000186EC03F0015213E10A0E0101422583
:101F30000201236F000E010143210201246F266F6D
:101F400023C225F20001F4EC03F001C034F1DDD22C
:101F500043C126F242C125F2010E0201286F970EFD
:101F6000276F060E296F000186EC03F0015240E155
:101F7000060E01014225016E000E4321036E01C0D1
:101F8000E9FFEA6EEF520EE134C124F21F0E0201A6
:101F9000256F0001DBEC04F0010136519EA8FED74D
:101FA000AD6E25D0060E4225016E000E4321036E54
:101FB00001C0E9FFEA6EEF50200819E1070E422543
:101FC0000201236F000E010143210201246F266FDD
:101FD00023C225F20001F4EC03F001C034F1010149
:101FE000345305E0342D01D002D0010E346F8CD271
:101FF00043C126F242C125F2010E0201286F810E73
:10200000276F060E296F000186EC03F0015208E1EC
:10201000010E0201246F0001E6EC01F0FF0075D211
:1020200043C126F242C125F2010E0201286FE90EDA
:10203000276F050E296F000186EC03F0015208E1BD
:10204000010E0201246F0001E6EC01F0FF005DD2F9
:1020500043C126F242C125F2010E0201286F880E0B
:10206000276F070E296F000186EC03F0015213E180
:10207000070E010142250201236F000E01014321D9
:102080000201246F266F23C225F20001F4EC03F055
:1020900001C032F13AD243C126F242C125F2010E0B
:1020A0000201286F9E0E276F050E296F000186EC36
:1020B00003F001522AE1010141530CE129C123F24D
:1020C000000186EC09F00152D8B402D0010102D01F
:1020D000000E01D0010E0101416F040E1E6E41532E
:1020E00010E10201916B1E0E906F010E926F0001C4
:1020F0002EEC03F00152D8B402D0010102D0000E40
:1021000001D0010E0101416FFFD143C126F242C14E
:1021100025F2010E0201286FA40E276F0C0E296F05
:10212000000186EC03F0015240E10C0E0101422552
:10213000016E000E4321036E01C0E9FFEA6EEF520B
:102140000EE135C124F21F0E0201256F0001DBEC08
:1021500004F0010136519EA8FED7AD6E25D00C0EBD
:102160004225016E000E4321036E01C0E9FFEA6EB5
:10217000EF50200819E10D0E42250201236F000ED9
:10218000010143210201246F266F23C225F20001C1
:10219000F4EC03F001C035F10101355305E0352DB4
:1021A00001D002D0010E356FAFD143C126F242C13A
:1021B00025F2010E0201286FB10E276F0A0E296F5A
:1021C000000186EC03F0015239E10A0E01014225BB
:1021D000016E000E4321036E01C0E9FFEA6EEF526B
:1021E0000EE136C124F21F0E0201256F0001DBEC67
:1021F00004F0010136519EA8FED7AD6E1ED00A0E26
:102200004225016E000E4321036E01C0E9FFEA6E14
:10221000EF50200812E10B0E42250201236F000E41
:10222000010143210201246F266F23C225F2000120
:10223000F4EC03F001C036F1010166D143C126F28E
:1022400042C125F2010E0201286FBC0E276F050E58
:10225000296F000186EC03F0015208E196908D9001
:10226000E60E006E002EFED796804FD143C126F2B7
:1022700042C125F2010E0201286FC20E276F050E22
:10228000296F000186EC03F001522AE1010141535C
:102290000CE129C123F2000186EC09F00152D8B407
:1022A00002D0010102D0000E01D0010E0101416FE8
:1022B000110E1E6E415310E10201916B1E0E906FC4
:1022C000010E926F00012EEC03F00152D8B402D03F
:1022D000010102D0000E01D0010E0101416F14D1A5
:1022E00043C126F242C125F2010E0201286FC80E39
:1022F000276F050E296F000186EC03F001522AE1D9
:10230000010141530CE129C123F2000186EC09F0DF
:102310000152D8B402D0010102D0000E01D0010E4A
:102320000101416F010E1E6E415310E10201916BDC
:102330001E0E906F010E926F00012EEC03F0015201
:10234000D8B402D0010102D0000E01D0010E01016B
:10235000416FDAD043C126F242C125F2010E0201DB
:10236000286FCE0E276F050E296F000186EC03F053
:1023700001523FE1050E01014225016E000E43218D
:10238000036E01C0E9FFEA6EEF520EE137C124F29D
:102390001F0E0201256F0001DBEC04F00101365134
:1023A0009EA8FED7AD6E24D0050E4225016E000E0C
:1023B0004321036E01C0E9FFEA6EEF50200818E1E7
:1023C000060E42250201236F000E01014321020186
:1023D000246F266F23C225F20001F4EC03F001C044
:1023E00037F10101375304E0372D01D001D0376BAD
:1023F0008BD043C126F242C125F2010E0201286FA3
:10240000D40E276F060E296F000186EC03F00152EF
:1024100040E1060E01014225016E000E4321036ECC
:1024200001C0E9FFEA6EEF520EE138C124F21F0E3F
:102430000201256F0001DBEC04F0010136519EA87A
:10244000FED7AD6E25D0060E4225016E000E43214B
:10245000036E01C0E9FFEA6EEF50200819E1070E94
:1024600042250201236F000E010143210201246F66
:10247000266F23C225F20001F4EC03F001C038F10D
:102480000101385305E0382D01D002D0010E386F1C
:102490003BD043C126F242C125F2020E0201286F51
:1024A000010E276F050E296F000186EC03F0015223
:1024B00013E1CFEF09F001C023F201C024F21F0E97
:1024C0000201256F0001DBEC04F0010136519EA8EA
:1024D000FED7AD6E19D000010101322D15D00201D9
:1024E000236B235100013FEC01F00201232B006E0E
:1024F00000509EA8FED7AD6E150E235DF2E10101DE
:1025000036519EA8FED7AD6E0001CED001014153D9
:102510000CE129C123F2000186EC09F00152D8B484
:1025200002D0010102D0000E01D0010E0101416F65
:10253000400E2A251E6E415310E10201916B1E0EC2
:10254000906F010E926F00012EEC03F00152D8B48F
:1025500002D0010102D0000E01D0010E0101416F35
:102560003051030825E0415311E143C124F242C137
:1025700023F20201256B266B0001DAEC09F001520F
:10258000D8B402D0010102D0000E01D0010E010129
:10259000416F010E0201246F2D0E236F256B31C197
:1025A00026F20001DAEC09F001C041F118D0010176
:1025B000415312E143C124F242C123F20201256BCF
:1025C000010E266F0001DAEC09F00152D8B402D0F6
:1025D000010102D0000E01D0010E0101416F010185
:1025E000345363E043C124F242C123F23F0E02019F
:1025F000256F0001E9EF09F002C024F201C023F2C7
:102600000201235302E124532DE001014153D8B4C8
:1026100002D0020127D031C123F20001DCEC07F027
:1026200001521FE00101322D15D00201236B23510D
:10263000000115EC01F00201232B006E00509EA852
:10264000FED7AD6E130E235DF2E1010136519EA857
:10265000FED7AD6E010E0201246F0001E6EC01F021
:10266000FF0022D00101415320E0416B322D15D0F3
:102670000201236B2351000158EC01F00201232BCE
:10268000006E00509EA8FED7AD6E140E235DF2E1E1
:10269000010136519EA8FED7AD6E010E0201246FD6
:1026A0000001E6EC01F0FF000101000103EF0CF076
:0226B000030025
:020000040030CA
:0E00000000021E19008381000FC00FE00F40A8
:00000001FF
;PIC18F4520
