:020000040000FA
:04000000E3EF06F034
:08000800056ED8CF06F0E0CF31
:1000100007F00001E9CF0DF0EACF08F0E1CF09F0D9
:10002000E2CF0AF0D9CF0BF0DACF0CF0F3CF14F017
:10003000F4CF15F0FACF16F000C00FF001C010F0A9
:1000400002C011F003C012F004C013F09DA22CEF07
:1000500000F09EB273EF01F09DAA32EF00F09EBA5D
:100060009BEF01F00FC000F010C001F011C002F0D2
:1000700012C003F013C004F00E8E0DC0E9FF08C0DB
:10008000EAFF09C0E1FF0AC0E2FF0BC0D9FF0CC0C4
:10009000DAFF14C0F3FF15C0F4FF16C0FAFF0550D5
:1000A00007C0E0FF06C0D8FF1000F2CF0EF0F29EAE
:1000B000F76AC40FF66E000EF7220900F5500EBE67
:1000C000F28E120054696D656F75743A205761693C
:1000D00074696E6720666F72204E44414320746FCE
:1000E00020676F206C6F77207768696C6520777266
:1000F0006974696E670A0000F2CF0EF0F29EF76A2B
:10010000120FF66E010EF7220900F5500EBEF28EA8
:10011000120054696D656F75743A2057616974698E
:100120006E6720666F72204E52464420746F2067BF
:100130006F2068696768207768696C6520777269E5
:1001400074696E670A00F2CF0EF0F29EF76A600FD4
:10015000F66E010EF7220900F5500EBEF28E120067
:1001600054696D656F75743A2057616974696E677B
:1001700020666F72204E44414320746F20676F20C9
:1001800068696768207768696C6520777269746947
:100190006E670A00F2CF0EF0F29EF76AAE0FF66EAF
:1001A000010EF7220900F5500EBEF28E12005469BE
:1001B0006D656F75743A2057616974696E67206662
:1001C0006F722044415620746F20676F206C6F77E8
:1001D000207768696C652072656164696E670A00E2
:1001E000F2CF0EF0F29EF76AFA0FF66E010EF722CA
:1001F0000900F5500EBEF28E120054696D656F75E0
:10020000743A2057616974696E6720666F72204482
:10021000415620746F20676F20686967682077688F
:10022000696C652072656164696E670A0000F2CFCF
:100230000EF0F29EF76A480FF66E020EF7220900E2
:10024000F5500EBEF28E1200526561642065727226
:100250006F72206F6363757265642E0A0D00F2CFB2
:100260000EF0F29EF76A780FF66E020EF722090082
:10027000F5500EBEF28E120074657374696E670AD3
:100280000D00F2CF0EF0F29EF76A9C0FF66E020E92
:10029000F7220900F5500EBEF28E1200556E7265FF
:1002A000636F676E697A656420636F6D6D616E64FC
:1002B0002E0A0D00F2CF0EF0F29EF76ACE0FF66E08
:1002C000020EF7220900F5500EBEF28E1200577290
:1002D000697465206572726F72206F6363757265F1
:1002E000642E0A0D00000101822F03D0852B6E0EB3
:1002F000826F9E92000132EF00F065C267F264C225
:1003000066F267C203F0020166C2E9FF67C2EAFF54
:10031000EF5206E0662BD8B4672B0001F2D702013A
:100320006451665D006E65516759036E00C001F04F
:10033000026E0001000C290E010176250201626F98
:10034000636BD8B0632B63C2EAFFE96EE906E92A62
:100350009EAAFED7AECFEFFF0D0EEF5CF8E1EF6A7D
:10036000290E010176250201626F636BD8B0632B01
:1003700063C265F2646F0001C0DF01C063F2010E69
:1003800002010124016E000E0220015001017627B6
:10039000763D01D0766B9E9A000132EF00F0959C7D
:1003A0008C9C959A8C9A959E8C8E95988C9893801F
:1003B0009382938493869388938A938C938E92925C
:1003C00089829284928692988998929A899A969034
:1003D0008D80928096928D82EFEF01F0E0D7929A15
:1003E000898ACDEF07F0010EEA6EEA0EE96EEF5052
:1003F0000EE0050E016E006A002EFED7012EFBD71F
:10040000F90E006E002EFED70000EF2EF2D7000C82
:10041000959A8C8A02015A5302E09292899259531A
:100420000FE1186AF2BE188EF29E58C265F257C2EA
:1004300064F2000162DF18BEF28E01C059F20201BF
:10044000959C8C8C929489849296898692885C6B18
:1004500059515C5DD8B08FD0036A5C515725E96E65
:1004600058510320EA6EEFCF5BF2928A0101856B4F
:1004700083518525846F928A80AA1DD08551845D21
:100480001AE304008451855D15E37F2D10D002012D
:100490005D6B5D51000109DE02015D2B006E0050B5
:1004A0009EA8FED7AD6E320E5D5DF3E10101010E37
:1004B000016E79D0E0D7FF0E02015B1B936A5BC22D
:1004C0008AFF92880101856B83518525846F92880C
:1004D00080B81DD08551845D1AE304008451855D88
:1004E00015E37F2D10D002015D6B5D51000104DE2C
:1004F00002015D2B006E00509EA8FED7AD6E330E3C
:100500005D5DF3E10101010E016E4DD0E0D7010EFA
:100510000201595D5C5D04E15A5302E192948994B1
:10052000929689960101856B83518525846F928A05
:1005300080BA1DD08551845D1AE304008451855D25
:1005400015E37F2D10D002015D6B5D510001FBDDD5
:1005500002015D2B006E00509EA8FED7AD6E330EDB
:100560005D5DF3E10101010E016E1DD0E0D79286C1
:1005700002015C2B6DD7959C8C9C93809382938415
:1005800093869388938A938C938E5A5301E0928238
:1005900092869284929A898A92988988959A8C9A5E
:1005A000000E016E01010001000C55C258F254C248
:1005B00057F256C259F2010E02015A6F000128DFAC
:1005C0000150000CE9C178F196908D90C80E0101A0
:1005D000EA6F000108DF968096928D92140E1F6ECE
:1005E0000201556B1F0E546F010E566F0001DDDFC7
:1005F0000150D2EF07F0290E01017525E96FEA6B72
:10060000D8B0EA2B290E7525EB6FEC6BD8B0EC2B2C
:10061000186AF2BE188EF29EECC165F2E8CF64F261
:1006200000016BDE18BEF28E01C0ECF1010E01017B
:100630000124016E000E022001507527753D01D086
:10064000756BE9C101F00001FCEF07F00101ED530A
:100650003FE0E9C1E9FFEAC1EAFFEFCFEEF1ECC10B
:1006600003F0EBC1E9FFECC1EAFFEF50EE5D17E0EC
:10067000EAC103F0E9C1E9FFEAC1EAFFEFCFEEF119
:10068000ECC103F0EBC1E9FFECC1EAFFEF50EE5D16
:1006900002E2FF0E01D0010E016E1CD00BD0EAC1A8
:1006A00003F0E9C1E9FFEAC1EAFFEF5203E1000EFE
:1006B000016E10D0EAC103F0E951E92BD8B4EA2B5E
:1006C000ECC103F0EB51EB2BD8B4EC2BED07BFD70B
:1006D000000E016E0001000C006A016A0101F25176
:1006E000D890F3B1002600320132F3B30026003275
:1006F0000132F3B5002600320132F3B70026003292
:100700000132F3B9002600320132F3BB0026003279
:100710000132F3BD002600320132F3BF0026003261
:100720000132000102EF04F00101F06BEE6B0A0EE2
:10073000EF6FED6BEB51EC1103E1000E016EC3D0D6
:10074000F051F02B036AEB25E96EEC510320EA6EC1
:10075000EFCFF1F1F1512D080DE1010EEE6FF051E7
:10076000F02B036AEB25E96EEC510320EA6EEFCF24
:10077000F1F10DD0F1512B080AE1F051F02B036A91
:10078000EB25E96EEC510320EA6EEFCFF1F1F15168
:100790002F08D8B090D0F1513908D8A08CD0F151A1
:1007A000300821E1036AF051EB25E96EEC5103209A
:1007B000EA6EEF5078080AE0036AF051EB25E96E23
:1007C000EC510320EA6EEF5058080DE1100EEF6F68
:1007D000F02BF051F02B036AEB25E96EEC5103206E
:1007E000EA6EEFCFF1F1EF510A081DE1F1512F0848
:1007F00019E2F151390816E30A0EF26FEDC1F3F177
:1008000000016AD7300E0101F15D0124ED6FF05156
:10081000F02B036AEB25E96EEC510320EA6EEFCF73
:10082000F1F1E4D748D0EF51100845E1F1516008EB
:1008300006E2F1517A0803E3F151DF0B01D0F151E7
:10084000F16FF1512F0803E2F151390806E2F1513D
:10085000400831E2F15146082EE3F1512F080CE235
:10086000F151390809E3ED39F26FF00EF217300E4D
:10087000F15DF225ED6F09D0ED39F26FF00EF21750
:10088000410EF15D0A0FF225ED6FF051F02B036A76
:10089000EB25E96EEC510320EA6EEFCFF1F1F15157
:1008A000600806E2F1517A0803E3F151DF0B01D051
:1008B000F151F16FC6D7EE2D04D0EF510A0801E1D6
:1008C000ED6DEDC101F00001000C0101F051016A74
:1008D000EF5D03E2EFC100F00CD0006A080EF16F8B
:1008E000EF370036F051005CD8B0006E0136F12FC2
:1008F000F7D70001000C200E0101EAA9300EEB6FC2
:10090000E9C100F0E9AF07D0001E002A00C0E9F1FC
:100910002D0EEB6FEA8F0150E9C1EFF1640EF06F1D
:100920000001D3DF00C0E9F1300E01240101EC6FBA
:10093000E9C1EFF10A0EF06F0001C7DF300E0024AD
:100940000101EE6F300E0124ED6FEBC100F0EAA75C
:1009500002D0EAAFEA95EAB90BD0EAAF22D0EAB505
:1009600020D000C0ECF1EAB31CD000C0EDF119D0EA
:10097000300EEC5D16E100C0ECF1200EEB6FEAA743
:1009800004D0EA95EA83EAAFEA93300EED5D09E11F
:1009900000C0EDF1200EEC6FEAA7F7D7EA93EAAFBB
:1009A000EA91EAA504D0EB519EA8FED7AD6EEAA36A
:1009B00004D0EC519EA8FED7AD6EEAA104D0ED5153
:1009C0009EA8FED7AD6EEE519EA8FED7AD6E00017B
:1009D000000C0201566B92988988929A899A9286A5
:1009E0000101856B83518525846F928680A61ED078
:1009F0008551845D1BE304008451855D16E37F2DE2
:100A000011D00201586B58510001CAEC00F00201EC
:100A1000582B006E00509EA8FED7AD6E310E585D6B
:100A2000F2E10101FF0E016E40D0DFD79298899864
:100A3000FF0E936E81CF56F20201561B928A01017E
:100A4000856B83518525846F928680B61ED0855133
:100A5000845D1BE304008451855D16E37F2D11D076
:100A60000201586B58510001F0EC00F00201582BC4
:100A7000006E00509EA8FED7AD6E320E585DF2E1BA
:100A80000101FF0E016E11D0DFD7929A899A9284EC
:100A90000201576B80B4572B54C2E9FF55C2EAFFDD
:100AA00056C2EFFF57C201F001010001000C020124
:100AB0004F6B506B516B010E536FEB0E526F5F0E0D
:100AC0001F6E51530EE1556B1F0E546F010E566F82
:100AD00000016BDD0152D8B402D0020102D0000E39
:100AE00001D0010E0201516F3F0E1F6E51530EE1F6
:100AF000556B1F0E546F010E566F000156DD0152EB
:100B0000D8B402D0020102D0000E01D0010E0201C1
:100B1000516F515303E0010E016E23D1200E0101EC
:100B200078251F6E020151530EE1556B1F0E546F55
:100B3000010E566F000139DD0152D8B402D0020116
:100B400002D0000E01D0010E0201516F515303E09B
:100B5000010E016E06D1400E010177251F6E0201C4
:100B6000556B1F0E546F010E566F00011EDD01C044
:100B700051F20201515303E0010E016EF2D04F6BAE
:100B8000010E536FEB0E526F01017E2D5ED0010EF0
:100B90000201556FE90E546F00011BDF01C0EAF13D
:100BA0000101EA3D05D0010E016E0201DAD001011A
:100BB0007A51E95D02E1EA530BE0036A02014F5109
:100BC000EB0FE96E010E0320EA6EE9C1EFFF4F2B38
:100BD00002014F5164081BE1506B5051630811E34F
:100BE00053C203F052C2E9FF53C2EAFFEFCF54F2FF
:100BF00054519EA8FED7AD6E522BD8B4532B502B18
:100C0000ECD74F6B010E536FEB0E526F04000101D6
:100C1000EA53BDE10201506B0101805102014F5DB9
:100C2000505D11E253C203F052C2E9FF53C2EAFF22
:100C3000EFCF54F254519EA8FED7AD6E522BD8B4CC
:100C4000532B502BE9D75CD00101010E0201556FE7
:100C5000E90E546F0001BDDE01C0EAF10101EA3D79
:100C600005D0010E016E02017CD001017A51E95DCF
:100C70000BE0036A02014F51EB0FE96E010E0320F6
:100C8000EA6EE9C1EFFF4F2B02014F5164081BE1EF
:100C9000506B5051630811E353C203F052C2E9FF95
:100CA00053C2EAFFEFCF54F254519EA8FED7AD6E67
:100CB000522BD8B4532B502BECD74F6B010E536FE4
:100CC000EB0E526F040001017A51E95DBEE10201B1
:100CD000506B0101805102014F5D505D11E253C222
:100CE00003F052C2E9FF53C2EAFFEFCF54F254516E
:100CF0009EA8FED7AD6E522BD8B4532B502BE9D7FC
:100D00000D0E9EA8FED7AD6E516B5F0E1F6E515338
:100D10000EE1556B1F0E546F010E566F000145DC3E
:100D20000152D8B402D0020102D0000E01D0010E4F
:100D30000201516F3F0E1F6E51530EE1556B1F0E96
:100D4000546F010E566F000130DC0152D8B402D04E
:100D5000020102D0000E01D0010E0201516F51C2FA
:100D600001F00001000CEAC158F2E9C157F2EBC1F1
:100D700059F202015A6B000108EC02F00150000C1C
:100D8000EAC103F00101E9C1E9FFEAC1EAFFEB5161
:100D9000EF5C12E0EAC103F0E9C1E9FFEAC1EAFF52
:100DA000EF5204E1000E016E026E0AD0E92BD8B4B6
:100DB000EA2B0001E5D70101E9C101F0EAC102F027
:100DC000000117EF0BF0F86AD09E0D8EEA6AE96A0F
:100DD000B886090EAF6E000EB06EA60EAC6E900E09
:100DE000AB6EC150C00B0F09C16E070EB46E196A0D
:100DF0001A6A0101756B766B796B0A0E7A6F7B6FDD
:100E00007C6B7D6B010E7E6F7F6B806B816F856B62
:100E1000866B886B290E876F2B0E896F610E8A6F28
:100E20003A0E8B6F8C6B2B0E8D6F740E8E6F3A0E8D
:100E30008F6F906B2B0E916F650E926F6F0E936F8D
:100E4000730E946F3A0E956F966B2B0E976F650E1F
:100E5000986F6F0E996F690E9A6F3A0E9B6F9C6B2D
:100E60002B0E9D6F740E9E6F650E9F6F730EA06F9D
:100E7000740EA16FA26B2B0EA36F720EA46F650E82
:100E8000A56F610EA66F640EA76FA86B2B0EA96FDE
:100E9000670EAA6F650EAB6F740EAC6FAD6B2B0E49
:100EA000AE6F730EAF6F740EB06F720EB16F690ECE
:100EB000B26F700EB36F3A0EB46FB56B2B0EB66F88
:100EC000760EB76F650EB86F720EB96FBA6B2B0ED8
:100ED000BB6F610EBC6F750EBD6F740EBE6F6F0E73
:100EE000BF6F720EC06F650EC16F610EC26F640E70
:100EF000C36F3A0EC46FC56B2B0EC66F720EC76FF1
:100F0000650EC86F730EC96F650ECA6F740ECB6F16
:100F1000CC6B2B0ECD6F640ECE6F650ECF6F620E55
:100F2000D06F750ED16F670ED26F3A0ED36FD46B40
:100F30002B0ED56FD66F610ED76F640ED86FD96F39
:100F4000720EDA6FDB6B2B0EDC6FDD6F610EDE6F06
:100F5000750EDF6F740EE06F6F0EE16FE26B2B0E9C
:100F6000E36FE46F630EE56F6C0EE66F720EE76F72
:100F7000E86B949A8B8AD1806E0E826FD76AD66A9C
:100F8000480E0609CA6EFA0ECB6E9D82C00EF21292
:100F9000050E836F0001EEEF01F00101E96B000126
:100FA000E2EF02F001C086F10101862D01D0FF00C1
:100FB000949A8B9A0400640EEA6F0001F3EC01F03E
:100FC0000400949A8B8A0400640E0101EA6F000108
:100FD000F3EC01F004009D8A0400949A8B9A0400BB
:100FE00001017551765DD8B467D388C1EAF187C134
:100FF000E9F10001FBEF02F0036A01C087F1010192
:1010000003C088F188C103F087C1E9FF88C1EAFF06
:10101000EF502B08D8A480D288C1EAF187C1E9F14A
:10102000010EEC6F890EEB6F030EED6F000126ECE5
:1010300003F0015210E1030E01018725E96F000E54
:101040008821EA6FEC6FE9C1EBF1000194EC03F049
:1010500001C077F15FD288C1EAF187C1E9F1010EE1
:101060000101EC6FD50EEB6F060EED6F000126EC63
:1010700003F0015234E1060E01018725016E000ED6
:101080008821036E01C0E9FFEA6EEF520CE177C1DF
:10109000E9F11F0EEA6F00012EDC0D0E9EA8FED7AF
:1010A000AD6E1BD00101060E8725016E000E882152
:1010B000036E01C0E9FFEA6EEF5020080FE1070E52
:1010C0008725E96F000E8821EA6FEC6FE9C1EBF12B
:1010D000000194EC03F001C077F101011AD288C13C
:1010E000EAF187C1E9F1010E0101EC6FA30EEB6F8C
:1010F000050EED6F000126EC03F001521CE1D7DC78
:10110000015218E001017F2D0FD0E96BE951000178
:1011100017EC01F00101E92B006E00509EA8FED7EC
:10112000AD6E150EE95DF2E1010EEA6F0001F3EC20
:1011300001F0FF00EFD188C1EAF187C1E9F1010EAA
:101140000101EC6F9D0EEB6F050EED6F000126ECBB
:1011500003F0015211E10101E96BE95100012FECAB
:1011600001F00101E92B006E00509EA8FED7AD6E84
:10117000090EE95DF2E1CDD188C1EAF187C1E9F15B
:10118000010E0101EC6F8D0EEB6F030EED6F000190
:1011900026EC03F0015210E1030E01018725E96FEF
:1011A000000E8821EA6FEC6FE9C1EBF1000194ECCD
:1011B00003F001C083F1AED188C1EAF187C1E9F142
:1011C000010E0101EC6F910EEB6F050EED6F00014A
:1011D00026EC03F0015214E1050E01018725E96FA9
:1011E000000E8821EA6FEC6FE9C1EBF1000194EC8D
:1011F00003F001C07AF17AC17BF101017C6B89D1E6
:1012000088C1EAF187C1E9F1010E0101EC6F970E87
:10121000EB6F050EED6F000126EC03F0015210E1BB
:10122000050E01018725E96F000E8821EA6FEC6F3A
:10123000E9C1EBF1000194EC03F001C07EF16AD149
:1012400088C1EAF187C1E9F1010E0101EC6FAE0E30
:10125000EB6F070EED6F000126EC03F0015210E179
:10126000070E01018725E96F000E8821EA6FEC6FF8
:10127000E9C1EBF1000194EC03F001C080F14AD127
:1012800088C1EAF187C1E9F1010E0101EC6FB60EE8
:10129000EB6F040EED6F000126EC03F001520DE13F
:1012A000050E0101E96F1F0EEA6F00017BEC04F0EF
:1012B0000D0E9EA8FED7AD6E2DD188C1EAF187C173
:1012C000E9F1010E0101EC6FA90EEB6F040EED6F59
:1012D000000126EC03F001520CE1080E1F6E020122
:1012E000556B1F0E546F010E566F0001D5EC02F0C6
:1012F00011D188C1EAF187C1E9F1010E0101EC6F5A
:10130000BB0EEB6F0A0EED6F000126EC03F00152ED
:1013100010E10A0E01018725E96F000E8821EA6FAE
:10132000EC6FE9C1EBF1000194EC03F001C081F135
:10133000F1D088C1EAF187C1E9F1010E0101EC6F3A
:10134000DC0EEB6F060EED6F000126EC03F0015290
:101350003DE1060E01018725016E000E8821036E16
:1013600001C0E9FFEA6EEF520DE181C1E9F11F0E04
:10137000EA6F00017BEC04F00D0E9EA8FED7AD6E67
:1013800024D00101060E8725016E000E8821036E10
:1013900001C0E9FFEA6EEF50200816E1070E87252D
:1013A000E96F000E8821EA6FEC6FE9C1EBF10001F3
:1013B00094EC03F001C081F10101815305E0812D1E
:1013C00001D002D0010E816F0001A4D088C1EAF1E2
:1013D00087C1E9F1010E0101EC6FC60EEB6F060E3D
:1013E000ED6F000126EC03F0015208E1010E01014E
:1013F000EA6F0001F3EC01F0FF008CD088C1EAF144
:1014000087C1E9F1010E0101EC6FCD0EEB6F070E04
:10141000ED6F000126EC03F0015210E1070E01010F
:101420008725E96F000E8821EA6FEC6FE9C1EBF1C7
:10143000000194EC03F001C07FF16CD088C1EAF1A7
:1014400087C1E9F1010E0101EC6FE30EEB6F050EB0
:10145000ED6F000126EC03F0015249E13F0E1F6ED3
:101460000101865310E10201556B1F0E546F010EEE
:10147000566F0001D5EC02F00152D8B402D0010140
:1014800002D0000E01D0010E0101866F200E7725DB
:101490001F6E865310E10201556B1F0E546F010E33
:1014A000566F0001D5EC02F00152D8B402D0010110
:1014B00002D0000E01D0010E0101866F040E1F6ED6
:1014C000865310E10201556B1F0E546F010E566FCB
:1014D0000001D5EC02F00152D8B402D0010102D0D3
:1014E000000E01D0010E0101866F13D00001010131
:1014F0007F2D0FD0E96BE951000141EC01F00101B2
:10150000E92B006E00509EA8FED7AD6E170EE95D68
:10151000F2E10001D0D001015F0E1F6E865310E191
:101520000201556B1F0E546F010E566F0001D5EC72
:1015300002F00152D8B402D0010102D0000E01D055
:10154000010E0101866F3F0E1F6E865310E10201EE
:10155000556B1F0E546F010E566F0001D5EC02F053
:101560000152D8B402D0010102D0000E01D0010E08
:101570000101866F200E77251F6E865310E1020150
:10158000556B1F0E546F010E566F0001D5EC02F023
:101590000152D8B402D0010102D0000E01D0010ED8
:1015A0000101866F400E78251F6E865310E10201FF
:1015B000556B1F0E546F010E566F0001D5EC02F0F3
:1015C0000152D8B402D0010102D0000E01D0010EA8
:1015D0000101866F86530FE188C1EAF187C1E9F105
:1015E000EB6B0001B3EC06F00152D8B402D001015C
:1015F00002D0000E01D0010E0101866F7E530CE176
:10160000010EEA6F7B0EE96F010EEB6F0001B3EC88
:1016100006F001C086F1010181534EE088C1EAF174
:1016200087C1E9F13F0EEB6F0001C0EF06F002C089
:10163000EAF101C0E9F10101E95302E1EA5321E0D5
:1016400086531FE1000157EC05F0015218E001013B
:101650007F2D0FD0E96BE951000117EC01F001017A
:10166000E92B006E00509EA8FED7AD6E150EE95D09
:10167000F2E1010EEA6F0001F3EC01F0FF001BD074
:101680000101865319E0866B7F2D0FD0E96BE9517C
:1016900000015AEC01F00101E92B006E00509EA8F8
:1016A000FED7AD6E160EE95DF2E1010EEA6F0001A4
:0E16B000F3EC01F0FF000101000191D40300F2
:020000040030CA
:0E00000000021E19008381000FC00FE00F40A8
:00000001FF
;PIC18F4520
