:020000040000FA
:040000003DEF07F0D9
:08000800056ED8CF06F0E0CF31
:1000100007F00001E9CF0DF0EACF08F0E1CF09F0D9
:10002000E2CF0AF0D9CF0BF0DACF0CF0F3CF14F017
:10003000F4CF15F0FACF16F000C00FF001C010F0A9
:1000400002C011F003C012F004C013F09DA22CEF07
:1000500000F09EB295EF01F09DAA32EF00F09EBA3B
:1000600041EF02F00FC000F010C001F011C002F02B
:1000700012C003F013C004F00E8E0DC0E9FF08C0DB
:10008000EAFF09C0E1FF0AC0E2FF0BC0D9FF0CC0C4
:10009000DAFF14C0F3FF15C0F4FF16C0FAFF0550D5
:1000A00007C0E0FF06C0D8FF1000F76ABA0FF66E6F
:1000B000000EF7220900F550120062756620696E85
:1000C0003A2025690D00F2CF0EF0F29EF76AE00F9C
:1000D000F66E000EF7220900F5500EBEF28E1200E9
:1000E000627566206F75743A2025690D0000F2CFA5
:1000F0000EF0F29EF76A080FF66E010EF722090065
:10010000F5500EBEF28E120054696D656F75743A2B
:100110002057616974696E6720666F72204E444192
:100120004320746F20676F206C6F77207768696C4D
:10013000652077726974696E670A0000F2CF0EF06D
:10014000F29EF76A560FF66E010EF7220900F5507F
:100150000EBEF28E120054696D656F75743A2057A9
:10016000616974696E6720666F72204E5246442042
:10017000746F20676F2068696768207768696C65AD
:100180002077726974696E670A00F2CF0EF0F29EF2
:10019000F76AA40FF66E010EF7220900F5500EBEA5
:1001A000F28E120054696D656F75743A205761695B
:1001B00074696E6720666F72204E44414320746FED
:1001C00020676F2068696768207768696C652077A9
:1001D000726974696E670A00F2CF0EF0F29EF76AD8
:1001E000F20FF66E010EF7220900F5500EBEF28EE8
:1001F000120054696D656F75743A205761697469AE
:100200006E6720666F722044415620746F20676FBE
:10021000206C6F77207768696C652072656164690E
:100220006E670A00F2CF0EF0F29EF76A3E0FF66E8E
:10023000020EF7220900F5500EBEF28E120054692C
:100240006D656F75743A2057616974696E672066D1
:100250006F722044415620746F20676F2068696771
:1002600068207768696C652072656164696E670AE9
:100270000000F2CF0EF0F29EF76A8C0FF66E020EBF
:10028000F7220900F5500EBEF28E1200526561642D
:10029000206572726F72206F6363757265642E0AD7
:1002A0000D00F2CF0EF0F29EF76ABC0FF66E020E52
:1002B000F7220900F5500EBEF28E120074657374B9
:1002C000696E670A0D00F2CF0EF0F29EF76AE00F3A
:1002D000F66E020EF7220900F5500EBEF28E1200E5
:1002E000556E7265636F676E697A656420636F6DC2
:1002F0006D616E642E0A0D00F2CF0EF0F29EF76A69
:10030000120FF66E030EF7220900F5500EBEF28EA4
:1003100012005772697465206572726F72206F6384
:1003200063757265642E0A0D00000101892F03D0E8
:100330008C2B6E0E896F9E92000132EF00F062C22C
:1003400064F261C263F264C203F0020163C2E9FFB6
:1003500064C2EAFFEF5206E0632BD8B4642B0001BD
:10036000F2D702016151635D006E62516459036E00
:1003700000C001F0026E0001000C02016751016A29
:10038000665D03E266C200F00CD0006A080E686F7A
:10039000663700366751005CD8B0006E0136682FB2
:1003A000F7D70001000C200E020161A9300E626F28
:1003B00060C200F060AF07D0001E002A00C060F2EB
:1003C0002D0E626F618F015060C266F2640E676F1E
:1003D0000001D3DF00C060F2300E01240201636F20
:1003E00060C266F20A0E676F0001C7DF300E00249C
:1003F0000201656F300E0124646F62C200F061A7D4
:1004000002D061AF619561B90BD061AF22D061B507
:1004100020D000C063F261B31CD000C064F219D0D8
:10042000300E635D16E100C063F2200E626F61A7BB
:1004300004D06195618361AF6193300E645D09E121
:1004400000C064F2200E636F61A7F7D7619361AFBC
:10045000619161A504D062519EA8FED7AD6E61A3E3
:1004600004D063519EA8FED7AD6E61A104D0645143
:100470009EA8FED7AD6E65519EA8FED7AD6E000159
:10048000000C330E0101802502015F6F606BD8B054
:10049000602B60C2EAFFE96EE906E92A9EAAFED750
:1004A000AECFEFFF0D0EEF5CF8E1EF6A330E010106
:1004B000802502015F6F606BD8B0602B60C262F272
:1004C000616F00013CDF01C060F2010E02010124F6
:1004D000016E000E0220015001018027803D01D0F5
:1004E000806B02015F6B5F510001DFDD02015F2B5A
:1004F000006E00509EA8FED7AD6E080E5F5DF3E162
:1005000080C160F21F0E616F00014DDF0D0E9EA8CD
:10051000FED7AD6E9E9A32EF00F0959C8C9C959A1A
:100520008C9A959E8C8E95988C98938093829384C8
:1005300093869388938A938C938E929289829284E5
:10054000928692988998929A899A96908D809280B4
:1005500096928D82ADEF02F0E0D7929A898A0DEFE4
:1005600008F0010EEA6EE70EE96EEF500EE0050EA0
:10057000016E006A002EFED7012EFBD7F90E006E29
:10058000002EFED70000EF2EF2D7000C959A8C8A31
:100590000201575302E09292899256530FE1186A72
:1005A000F2BE188EF29E55C262F254C261F2000190
:1005B000C6DE18BEF28E01C056F20201959C8C8CEC
:1005C00092948984929689869288596B5651595D86
:1005D000D8B08FD0036A59515425E96E5551032084
:1005E000EA6EEFCF58F2928A01018C6B8A518C250A
:1005F0008B6F928A80AA1DD08C518B5D1AE3040008
:100600008B518C5D15E3862D10D002015A6B5A5127
:1006100000016DDD02015A2B006E00509EA8FED72E
:10062000AD6E320E5A5DF3E10101010E016E79D01B
:10063000E0D7FF0E0201581B936A58C28AFF9288C6
:1006400001018C6B8A518C258B6F928880B81DD0EC
:100650008C518B5D1AE304008B518C5D15E3862D64
:1006600010D002015A6B5A51000168DD02015A2B69
:10067000006E00509EA8FED7AD6E330E5A5DF3E1BA
:100680000101010E016E4DD0E0D7010E0201565D51
:10069000595D04E1575302E19294899492968996A8
:1006A00001018C6B8A518C258B6F928A80BA1DD088
:1006B0008C518B5D1AE304008B518C5D15E3862D04
:1006C00010D002015A6B5A5100015FDD02015A2B12
:1006D000006E00509EA8FED7AD6E330E5A5DF3E15A
:1006E0000101010E016E1DD0E0D792860201592B47
:1006F0006DD7959C8C9C93809382938493869388EA
:10070000938A938C938E575301E0928292869284BF
:10071000929A898A92988988959A8C9A000E016E8D
:1007200001010001000C52C255F251C254F253C2F1
:1007300056F2010E0201576F000128DF0150000C34
:10074000E6C182F196908D90C80E0101E76F00011D
:1007500008DF968096928D92140E296E0201526BDC
:10076000290E516F010E536F0001DDDF015012EFB2
:1007700008F0330E01017F25E66FE76BD8B0E72B59
:10078000330E7F25E86FE96BD8B0E92B186AF2BE0B
:10079000188EF29EE9C162F2E8CF61F20001CFDD6E
:1007A00018BEF28E01C0E9F1010E01010124016EB3
:1007B000000E022001507F277F3D01D07F6BE86B48
:1007C000E851000180DC0101E82B006E00509EA87A
:1007D000FED7AD6E090EE85DF3E1186AF2BE188E21
:1007E000F29E7FC160F21F0E0201616F0001DBDD2E
:1007F00018BEF28E0D0E9EA8FED7AD6E0101E6C1A9
:1008000001F000013CEF08F00101EA533FE0E6C1CE
:10081000E9FFE7C1EAFFEFCFEBF1E9C103F0E8C17F
:10082000E9FFE9C1EAFFEF50EB5D17E0E7C103F034
:10083000E6C1E9FFE7C1EAFFEFCFEBF1E9C103F061
:10084000E8C1E9FFE9C1EAFFEF50EB5D02E2FF0E0C
:1008500001D0010E016E1CD00BD0E7C103F0E6C140
:10086000E9FFE7C1EAFFEF5203E1000E016E10D08D
:10087000E7C103F0E651E62BD8B4E72BE9C103F05A
:10088000E851E82BD8B4E92BEA07BFD7000E016E78
:100890000001000C006A016A0101EF51D890F0B12B
:1008A000002600320132F0B3002600320132F0B5EA
:1008B000002600320132F0B7002600320132F0B9D2
:1008C000002600320132F0BB002600320132F0BDBA
:1008D000002600320132F0BF002600320132000152
:1008E000E0EF04F00101ED6BEB6B0A0EEC6FEA6BCD
:1008F000E851E91103E1000E016EC3D0ED51ED2B7B
:10090000036AE825E96EE9510320EA6EEFCFEEF1C4
:10091000EE512D080DE1010EEB6FED51ED2B036A49
:10092000E825E96EE9510320EA6EEFCFEEF10DD034
:10093000EE512B080AE1ED51ED2B036AE825E96E33
:10094000E9510320EA6EEFCFEEF1EE512F08D8B057
:1009500090D0EE513908D8A08CD0EE51300821E16A
:10096000036AED51E825E96EE9510320EA6EEF5084
:1009700078080AE0036AED51E825E96EE9510320A1
:10098000EA6EEF5058080DE1100EEC6FED2BED51B3
:10099000ED2B036AE825E96EE9510320EA6EEFCFFB
:1009A000EEF1EC510A081DE1EE512F0819E2EE516B
:1009B000390816E30A0EEF6FEAC1F0F100016AD7B9
:1009C000300E0101EE5D0124EA6FED51ED2B036A5B
:1009D000E825E96EE9510320EA6EEFCFEEF1E4D7A6
:1009E00048D0EC51100845E1EE51600806E2EE51A6
:1009F0007A0803E3EE51DF0B01D0EE51EE6FEE51BA
:100A00002F0803E2EE51390806E2EE51400831E2C8
:100A1000EE5146082EE3EE512F080CE2EE51390854
:100A200009E3EA39EF6FF00EEF17300EEE5DEF25B8
:100A3000EA6F09D0EA39EF6FF00EEF17410EEE5D65
:100A40000A0FEF25EA6FED51ED2B036AE825E96EF9
:100A5000E9510320EA6EEFCFEEF1EE51600806E2B5
:100A6000EE517A0803E3EE51DF0B01D0EE51EE6F49
:100A7000C6D7EB2D04D0EC510A0801E1EA6DEAC1BA
:100A800001F00001000C0201536B92988988929A40
:100A9000899A928601018C6B8A518C258B6F928684
:100AA00080A61ED08C518B5D1BE304008B518C5DA6
:100AB00016E3862D11D00201556B55510001ECEC67
:100AC00000F00201552B006E00509EA8FED7AD6EBF
:100AD000310E555DF2E10101FF0E016E40D0DFD70E
:100AE00092988998FF0E936E81CF53F20201531BA7
:100AF000928A01018C6B8A518C258B6F928680B60D
:100B00001ED08C518B5D1BE304008B518C5D16E372
:100B1000862D11D00201556B5551000112EC01F0E8
:100B20000201552B006E00509EA8FED7AD6E320E0E
:100B3000555DF2E10101FF0E016E11D0DFD7929AEF
:100B4000899A92840201546B80B4542B51C2E9FFFC
:100B500052C2EAFF53C2EFFF54C201F0010100018B
:100B6000000C02014C6B4D6B4E6B010E506FE80E8A
:100B70004F6F5F0E296E4E530EE1526B290E516F6F
:100B8000010E536F0001CFDD0152D8B402D0020133
:100B900002D0000E01D0010E02014E6F3F0E296EF1
:100BA0004E530EE1526B290E516F010E536F00012F
:100BB000BADD0152D8B402D0020102D0000E01D039
:100BC000010E02014E6F4E5303E0010E016E23D160
:100BD000200E01018225296E02014E530EE1526B57
:100BE000290E516F010E536F00019DDD0152D8B4E3
:100BF00002D0020102D0000E01D0010E02014E6FA0
:100C00004E5303E0010E016E06D1400E0101812515
:100C1000296E0201526B290E516F010E536F0001B4
:100C200082DD01C04EF202014E5303E0010E016E5F
:100C3000F2D04C6B010E506FE80E4F6F0101852D05
:100C40005ED0010E0201526FE60E516F00011BDFF4
:100C500001C0E7F10101E73D05D0010E016E02017F
:100C6000DAD001018451E65D02E1E7530BE0036A4B
:100C700002014C51E80FE96E010E0320EA6EE6C155
:100C8000EFFF4C2B02014C5164081BE14D6B4D51A1
:100C9000630811E350C203F04FC2E9FF50C2EAFFFC
:100CA000EFCF51F251519EA8FED7AD6E4F2BD8B465
:100CB000502B4D2BECD74C6B010E506FE80E4F6F45
:100CC00004000101E753BDE102014D6B01018751B1
:100CD00002014C5D4D5D11E250C203F04FC2E9FFCD
:100CE00050C2EAFFEFCF51F251519EA8FED7AD6E30
:100CF0004F2BD8B4502B4D2BE9D75CD00101010EFE
:100D00000201526FE60E516F0001BDDE01C0E7F136
:100D10000101E73D05D0010E016E02017CD0010109
:100D20008451E65D0BE0036A02014C51E80FE96E65
:100D3000010E0320EA6EE6C1EFFF4C2B02014C517D
:100D400064081BE14D6B4D51630811E350C203F081
:100D50004FC2E9FF50C2EAFFEFCF51F251519EA8B6
:100D6000FED7AD6E4F2BD8B4502B4D2BECD74C6B20
:100D7000010E506FE80E4F6F040001018451E65DD3
:100D8000BEE102014D6B0101875102014C5D4D5DD9
:100D900011E250C203F04FC2E9FF50C2EAFFEFCFA9
:100DA00051F251519EA8FED7AD6E4F2BD8B4502BA7
:100DB0004D2BE9D70D0E9EA8FED7AD6E4E6B5F0E84
:100DC000296E4E530EE1526B290E516F010E536F77
:100DD0000001A9DC0152D8B402D0020102D0000EF9
:100DE00001D0010E02014E6F3F0E296E4E530EE1EF
:100DF000526B290E516F010E536F000194DC0152AA
:100E0000D8B402D0020102D0000E01D0010E0201BE
:100E10004E6F4EC201F00001000CE7C155F2E6C171
:100E200054F2E8C156F20201576B0001C6EC02F021
:100E30000150000CE7C103F00101E6C1E9FFE7C181
:100E4000EAFFE851EF5C12E0E7C103F0E6C1E9FF19
:100E5000E7C1EAFFEF5204E1000E016E026E0AD014
:100E6000E62BD8B4E72B0001E5D70101E6C101F07C
:100E7000E7C102F0000169EF0AF0F86AD09E0D8E1A
:100E8000EA6AE96AB886090EAF6E000EB06EA60E69
:100E9000AC6E900EAB6EC150C00B0F09C16E070E49
:100EA000B46E196A1A6A350E1F6E206A216A226AA8
:100EB000236A246A256A266A276A286A01017F6BE9
:100EC000806B836B010E846F856F866B876B886F79
:100ED0008C6B976B996B330E986F2B0E9A6F610E1C
:100EE0009B6F3A0E9C6F9D6B2B0E9E6F740E9F6FC7
:100EF0003A0EA06FA16B2B0EA26F650EA36F6F0E43
:100F0000A46F730EA56F3A0EA66FA76B2B0EA86F7A
:100F1000650EA96F6F0EAA6F690EAB6F3A0EAC6FBC
:100F2000AD6B2B0EAE6F740EAF6F650EB06F730EA0
:100F3000B16F740EB26FB36B2B0EB46F720EB56FD0
:100F4000650EB66F610EB76F640EB86FB96B2B0E7E
:100F5000BA6F670EBB6F650EBC6F740EBD6FBE6B54
:100F60002B0EBF6F730EC06F740EC16F720EC26F07
:100F7000690EC36F700EC46F3A0EC56FC66B2B0E31
:100F8000C76F760EC86F650EC96F720ECA6FCB6BD6
:100F90002B0ECC6F610ECD6F750ECE6F740ECF6FB2
:100FA0006F0ED06F720ED16F650ED26F610ED36F60
:100FB000640ED46F3A0ED56FD66B2B0ED76F720EB0
:100FC000D86F650ED96F730EDA6F650EDB6F740E16
:100FD000DC6FDD6B2B0EDE6F640EDF6F650EE06F76
:100FE000620EE16F750EE26F670EE36F3A0EE46F0B
:100FF000E56B949A8B8AD1806E0E896FD76AD66A18
:10100000480E0609CA6EFA0ECB6E9D82C00EF21211
:10101000050E8A6F0001ACEF02F00101E66B0001E2
:10102000A0EF03F001C097F10101972D01D0FF005F
:10103000949A8B9A0400640EE76F0001B1EC02F001
:101040000400949A8B8A0400640E0101E76F00018A
:10105000B1EC02F004009D8A0400949A8B9A04007B
:1010600001017F51805DD8B479D299C1E7F198C16F
:10107000E6F10001B9EF03F0036A01C098F1010144
:1010800003C099F199C103F098C1E9FF99C1EAFF42
:10109000EF502B08D8A495D199C1E7F198C1E6F19A
:1010A000010EE96F9A0EE86F030EEA6F000104EC7F
:1010B00004F001520FE1030E01019825E66F000EC6
:1010C0009921E76FE96FE6C1E8F100010BDC01C08F
:1010D00081F175D199C1E7F198C1E6F1010E0101E5
:1010E000E96FB40EE86F050EEA6F000104EC04F03E
:1010F00001521CE136DD015218E00101862D0FD0AE
:10110000E66BE651000139EC01F00101E62B006EBF
:1011100000509EA8FED7AD6E150EE65DF2E1010E01
:10112000E76F0001B1EC02F0FF0049D199C1E7F18E
:1011300098C1E6F1010E0101E96FAE0EE86F050EF0
:10114000EA6F000104EC04F0015211E10101E66BC9
:10115000E651000151EC01F00101E62B006E005058
:101160009EA8FED7AD6E090EE65DF2E127D199C1CA
:10117000E7F198C1E6F1010E0101E96F9E0EE86FFB
:10118000030EEA6F000104EC04F0015210E1030EBB
:1011900001019825E66F000E9921E76FE96FE6C11E
:1011A000E8F1000172EC04F001C08AF108D199C1A4
:1011B000E7F198C1E6F1010E0101E96FA20EE86FB7
:1011C000050EEA6F000104EC04F0015210E1050E77
:1011D00001019825E66F000E9921E76FE96FE6C1DE
:1011E000E8F1000172EC04F001C084F1E8D099C18B
:1011F000E7F198C1E6F1010E0101E96FA80EE86F71
:10120000050EEA6F000104EC04F0015210E1050E36
:1012100001019825E66F000E9921E76FE96FE6C19D
:10122000E8F1000172EC04F001C085F1C8D099C169
:10123000E7F198C1E6F1010E0101E96FBF0EE86F19
:10124000070EEA6F000104EC04F0015210E1070EF2
:1012500001019825E66F000E9921E76FE96FE6C15D
:10126000E8F1000172EC04F001C087F1A8D099C147
:10127000E7F198C1E6F1010E0101E96FC70EE86FD1
:10128000040EEA6F000104EC04F0015213E1EA6A73
:101290001F0EE96E000EEF1008E0EF509EA8FED77B
:1012A000AD6EE92AD8B4EA2AF5D70D0E9EA8FED76E
:1012B000AD6E85D099C1E7F198C1E6F1010E01014B
:1012C000E96FBA0EE86F040EEA6F000104EC04F057
:1012D00001520CE1080E296E0201526B290E516F6A
:1012E000010E536F000193EC03F069D099C1E7F14F
:1012F00098C1E6F1010E0101E96FCC0EE86F0A0E0C
:10130000EA6F000104EC04F0015210E10A0E010141
:101310009825E66F000E9921E76FE96FE6C1E8F1C5
:10132000000172EC04F001C088F149D099C1E7F1E5
:1013300098C1E6F1010E0101E96FD70EE86F060EC4
:10134000EA6F000104EC04F0015208E1010E010112
:10135000E76F0001B1EC02F0FF0031D099C1E7F175
:1013600098C1E6F1010E0101E96FDE0EE86F070E8C
:10137000EA6F000104EC04F0015210E1070E0101D4
:101380009825E66F000E9921E76FE96FE6C1E8F155
:10139000000172EC04F001C086F111D00101E66B8E
:1013A000E651000163EC01F00101E62B006E0050F4
:1013B0009EA8FED7AD6E170EE65DF2E10001CDD01E
:1013C00001015F0E296E975310E10201526B290E45
:1013D000516F010E536F000193EC03F00152D8B42A
:1013E00002D0010102D0000E01D0010E0101976F61
:1013F0003F0E296E975310E10201526B290E516F77
:10140000010E536F000193EC03F00152D8B402D0E7
:10141000010102D0000E01D0010E0101976F200ED4
:101420008125296E975310E10201526B290E516FED
:10143000010E536F000193EC03F00152D8B402D0B7
:10144000010102D0000E01D0010E0101976F400E84
:101450008225296E975310E10201526B290E516FBC
:10146000010E536F000193EC03F00152D8B402D087
:10147000010102D0000E01D0010E0101976F9753B8
:101480000EE199C1E7F198C1E6F1E86B0001C5DC16
:101490000152D8B402D0010102D0000E01D0010ED9
:1014A0000101976F85530BE1010EE76F840EE66F24
:1014B000010EE86F0001B1DC01C097F10101885312
:1014C0004DE099C1E7F198C1E6F13F0EE86F0001E8
:1014D000B1D402C0E7F101C0E6F10101E65302E137
:1014E000E75321E097531FE10001B1EC05F00152F1
:1014F00018E00101862D0FD0E66BE651000139ECB2
:1015000001F00101E62B006E00509EA8FED7AD6EE3
:10151000150EE65DF2E1010EE76F0001B1EC02F09D
:10152000FF001BD00101975319E0976B862D0FD058
:10153000E66BE65100017CEC01F00101E62B006E48
:1015400000509EA8FED7AD6E160EE65DF2E1010ECC
:10155000E76F0001B1EC02F0FF00010100017FD54F
:02156000030086
:020000040030CA
:0E00000000021E19008381000FC00FE00F40A8
:00000001FF
;PIC18F4520
