:020000040000FA
:0400000067EF0AF0AC
:08000800056ED8CF06F0E0CF31
:1000100007F00001E9CF0DF0EACF08F0E1CF09F0D9
:10002000E2CF0AF0D9CF0BF0DACF0CF0F3CF14F017
:10003000F4CF15F0FACF16F000C00FF001C010F0A9
:1000400002C011F003C012F004C013F09DA22CEF07
:1000500000F09EB271EF01F09DAA32EF00F09EBA5F
:100060007EEF01F00FC000F010C001F011C002F0EF
:1000700012C003F013C004F00E8E0DC0E9FF08C0DB
:10008000EAFF09C0E1FF0AC0E2FF0BC0D9FF0CC0C4
:10009000DAFF14C0F3FF15C0F4FF16C0FAFF0550D5
:1000A00007C0E0FF06C0D8FF1000F2CF0EF0F29EAE
:1000B000F76AC40FF66E000EF7220900F5500EBE67
:1000C000F28E120054696D656F75743A205761693C
:1000D00074696E6720666F72204E44414320746FCE
:1000E00020676F206C6F77207768696C6520777266
:1000F0006974696E6700F2CF0EF0F29EF76A100F16
:10010000F66E010EF7220900F5500EBEF28E1200B7
:1001100054696D656F75743A2057616974696E67CB
:1001200020666F72204E52464420746F20676F2005
:1001300068696768207768696C6520777269746997
:100140006E670000F2CF0EF0F29EF76A5E0FF66E59
:10015000010EF7220900F5500EBEF28E120054690E
:100160006D656F75743A2057616974696E672066B2
:100170006F72204E44414320746F20676F2068697E
:100180006768207768696C652077726974696E6743
:100190000000F2CF0EF0F29EF76AAC0FF66E010E81
:1001A000F7220900F5500EBEF28E120054696D65FB
:1001B0006F75743A2057616974696E6720666F7253
:1001C0002044415620746F20676F206C6F77207732
:1001D00068696C652072656164696E670000F2CFC2
:1001E0000EF0F29EF76AF80FF66E010EF722090084
:1001F000F5500EBEF28E120054696D656F75743A3B
:100200002057616974696E6720666F722044415699
:1002100020746F20676F2068696768207768696C51
:10022000652072656164696E6700F2CF0EF0F29E20
:10023000F76A440FF66E020EF7220900F5500EBE63
:10024000F28E120052656164206572726F72206FC7
:100250006363757265642E256300F2CF0EF0F29E23
:10026000F76A740FF66E020EF7220900F5500EBE03
:10027000F28E120074657374696E67256300F2CFA5
:100280000EF0F29EF76A980FF66E020EF722090042
:10029000F5500EBEF28E1200556E7265636F676E7A
:1002A000697A656420636F6D6D616E642E256300ED
:1002B000F2CF0EF0F29EF76ACA0FF66E020EF72228
:1002C0000900F5500EBEF28E120057726974652057
:1002D0006572726F72206F6363757265642E256339
:1002E0000000010E01013E27D8B03F2BD8B4402BAF
:1002F000D8B4412B9E92000132EF00F00201A1918F
:100300009EAAFED7AECFA0F2A0511F0810E2A051C6
:100310007E080DE301012851282B036A280FE96E9E
:10032000000E0320EA6EA0C2EFFF0201A181A051DE
:100330000A0803E0A0510D08E3E19EAA0ED0036A6B
:1003400001012851280FE96E000E0320EA6E9EAAD3
:10035000FED7AECFEFFF0201F0D7A1A10AD0010175
:100360002851282B036A280FE96E000E0320EA6E3D
:10037000EF6A01012851EA0801E2286B9E9A000108
:1003800032EF00F0959C8C9C959A8C9A959E8C8E61
:1003900095988C9893809382938493869388938A7C
:1003A000938C938E92928982928492869298899865
:1003B000929A899A96908D80928096928D82E2EFA1
:1003C00001F0E0D7929A898A3CEF0CF0020EEA6EB7
:1003D000250EE96EEF500EE0050E016E006A002E4C
:1003E000FED7012EFBD7F90E006E002EFED70000BF
:1003F000EF2EF2D7000C9CC29EF29BC29DF29EC2D1
:1004000003F002019DC2E9FF9EC2EAFFEF5206E03F
:100410009D2BD8B49E2B0001F2D702019B519D5D0C
:10042000006E9C519E59036E00C001F0026E0001E7
:10043000000C959A8C8A0201975302E0929289925D
:10044000965309E195C29CF294C29BF20001D3DF5E
:1004500001C096F20201959C8C8C929489849296AC
:10046000898692889A6B96519A5DD8B0DDD0036ADE
:100470009A519425E96E95510320EA6EEFCF99F2D7
:10048000928A0101416B406B3F6B3E6B9D82928A69
:1004900080AA35D041513D5D32E30BE140513C5DD6
:1004A0002EE307E13F513B5D2AE303E13E513A5D14
:1004B00026E304003D51415D21E30BE13C51405DE9
:1004C0001DE307E13B513F5D19E303E13A513E5D16
:1004D00015E3322D10D002019B6B9B510001E5DD2D
:1004E00002019B2B006E00509EA8FED7AD6E310E10
:1004F0009B5DF3E10101010E016EAED0C8D79D9264
:10050000FF0E0201991B936A99C28AFF928801012A
:10051000416B406B3F6B3E6B9D82928880B835D0BB
:1005200041513D5D32E30BE140513C5D2EE307E17B
:100530003F513B5D2AE303E13E513A5D26E304006F
:100540003D51415D21E30BE13C51405D1DE307E17D
:100550003B513F5D19E303E13A513E5D15E3322D16
:1005600010D002019B6B9B510001C5DD02019B2B4A
:10057000006E00509EA8FED7AD6E320E9B5DF3E17B
:100580000101010E016E68D0C8D79D92010E0201D3
:10059000965D9A5D04E1985302E092948994929654
:1005A00089960101416B406B3F6B3E6B9D82928A45
:1005B00080BA35D041513D5D32E30BE140513C5DA5
:1005C0002EE307E13F513B5D2AE303E13E513A5DF3
:1005D00026E304003D51415D21E30BE13C51405DC8
:1005E0001DE307E13B513F5D19E303E13A513E5DF5
:1005F00015E3322D10D002019B6B9B510001A2DD4F
:1006000002019B2B006E00509EA8FED7AD6E320EED
:100610009B5DF3E10101010E016E1ED0C8D79D92D2
:10062000928602019A2B1FD7959C8C9C9380938273
:10063000938493869388938A938C938E975301E047
:10064000928292869284929A898A92988988959ABF
:100650008C9A000E016E01010001000C92C295F20D
:1006600091C294F293C296F2010E0201976F986BB9
:100670000001DFDE0150000C24C22AF196908D901B
:10068000C80E0201256F0001A1DE968096928D9220
:10069000140E1E6E0201926B1E0E916F010E936F6F
:1006A0000001DCDF015041EF0CF0036A010127512A
:1006B000280F0201246F000E0320256F036A010139
:1006C0002751280F0201266F000E0320276F9C6F11
:1006D00026C29BF200018FDE01C027F2010E02014B
:1006E0000124016E000E022001500101272727512D
:1006F000EA0801E2276B2851275D02E1276B286B8E
:10070000020124C201F000016DEF0CF002012A5336
:100710003FE026C2E9FF27C2EAFFEFCF2BF229C252
:1007200003F028C2E9FF29C2EAFFEF502B5D17E072
:1007300027C203F026C2E9FF27C2EAFFEFCF2BF260
:1007400029C203F028C2E9FF29C2EAFFEF502B5D5E
:1007500002E2FF0E01D0010E016E1CD00BD027C2A9
:1007600003F026C2E9FF27C2EAFFEF5203E1000EC1
:10077000016E10D027C203F02651262BD8B4272BA8
:1007800029C203F02851282BD8B4292B2A07BFD718
:10079000000E016E0001000C006A016A02012D5179
:1007A000D8902EB10026003201322EB3002600323E
:1007B00001322EB50026003201322EB7002600325B
:1007C00001322EB90026003201322EBB0026003243
:1007D00001322EBD0026003201322EBF002600322B
:1007E0000132000162EF04F002012B6B296B0A0E4B
:1007F0002A6F286B2651271103E1000E016EC3D02A
:100800002B512B2B036A2625E96E27510320EA6E14
:10081000EFCF2CF22C512D080DE1010E296F2B5139
:100820002B2B036A2625E96E27510320EA6EEFCFB2
:100830002CF20DD02C512B080AE12B512B2B036AE3
:100840002625E96E27510320EA6EEFCF2CF22C51BA
:100850002F08D8B090D02C513908D8A08CD02C516A
:10086000300821E1036A2B512625E96E2751032028
:10087000EA6EEF5078080AE0036A2B512625E96EEC
:1008800027510320EA6EEF5058080DE1100E2A6F31
:100890002B2B2B512B2B036A2625E96E2751032086
:1008A000EA6EEFCF2CF22A510A081DE12C512F08D5
:1008B00019E22C51390816E30A0E2D6F28C22EF2C8
:1008C00000016AD7300E02012C5D0124286F2B51E4
:1008D0002B2B036A2625E96E27510320EA6EEFCF02
:1008E0002CF2E4D748D02A51100845E12C51600879
:1008F00006E22C517A0803E32C51DF0B01D02C5176
:100900002C6F2C512F0803E22C51390806E22C5190
:10091000400831E22C5146082EE32C512F080CE2FE
:100920002C51390809E328392D6FF00E2D17300EA0
:100930002C5D2D25286F09D028392D6FF00E2D172D
:10094000410E2C5D0A0F2D25286F2B512B2B036A8E
:100950002625E96E27510320EA6EEFCF2CF22C51A9
:10096000600806E22C517A0803E32C51DF0B01D01A
:100970002C512C6FC6D7292D04D02A510A0801E129
:10098000286D28C201F00001000C02012C51016AFF
:100990002B5D03E22BC200F00CD0006A080E2D6F15
:1009A0002B3700362C51005CD8B0006E01362D2F4D
:1009B000F7D70001000C200E020126A9300E276F88
:1009C00025C200F025AF07D0001E002A00C025F286
:1009D0002D0E276F268F015025C22BF2640E2C6F2F
:1009E0000001D3DF00C025F2300E01240201286F80
:1009F00025C22BF20A0E2C6F0001C7DF300E002437
:100A000002012A6F300E0124296F27C200F026A7A9
:100A100002D026AF269526B90BD026AF22D026B518
:100A200020D000C028F226B31CD000C029F219D073
:100A3000300E285D16E100C028F2200E276F26A791
:100A400004D02695268326AF2693300E295D09E132
:100A500000C029F2200E286F26A7F7D7269326AFCD
:100A6000269126A504D027519EA8FED7AD6E26A3B9
:100A700004D028519EA8FED7AD6E26A104D02951DE
:100A80009EA8FED7AD6E2A519EA8FED7AD6E00017E
:100A9000000C02012E6B2C6B0A0E2D6F2B6B2A6B38
:100AA000296B286B2651271105E1006A016A026A49
:100AB000036A3DD12E512E2B036A2625E96E27515C
:100AC0000320EA6EEFCF2FF22F512D080DE1010E1A
:100AD0002C6F2E512E2B036A2625E96E27510320F9
:100AE000EA6EEFCF2FF20DD02F512B080AE12E51D5
:100AF0002E2B036A2625E96E27510320EA6EEFCFDD
:100B00002FF22F512F08D8B0FAD02F513908D8A082
:100B1000F6D02F51300821E1036A2E512625E96EC7
:100B200027510320EA6EEF5078080AE0036A2E513D
:100B30002625E96E27510320EA6EEF5058080DE193
:100B4000100E2D6F2E2B2E512E2B036A2625E96EAB
:100B500027510320EA6EEFCF2FF22D510A0844E10E
:100B60002F512F0840E22F5139083DE3D890283506
:100B7000316F2935326F2A35336F2B35346F283575
:100B8000006E2935016E2A35026E2B35036E003654
:100B90000136023603360036013602360336F80EC9
:100BA00000163151002632510122335102223451B4
:100BB000032203C02BF202C02AF201C029F200C0B6
:100BC00028F2300E2F5D2827000E29232A232B23FD
:100BD0002E512E2B036A2625E96E27510320EA6E3B
:100BE000EFCF2FF2BDD78BD02D511008D8A487D0CE
:100BF0002F51600806E22F517A0803E32F51DF0BD3
:100C000001D02F512F6F2F512F0803E22F51390898
:100C100007E22F514008D8B072D02F5146086FE339
:100C20002F512F082DE22F5139082AE32835316F33
:100C30002935326F2A35336F2B35346F31373237E0
:100C40003337343731373237333734373137323758
:100C500033373437F00E3117300E2F5D3125006EEB
:100C6000000E3221016E000E3321026E000E34217F
:100C70002B6F02C02AF201C029F200C028F22AD04C
:100C80002835316F2935326F2A35336F2B35346F64
:100C90003137323733373437313732373337343708
:100CA0003137323733373437F00E3117410E2F5D7D
:100CB0000A0F3125006E000E3221016E000E332125
:100CC000026E000E34212B6F02C02AF201C029F2FD
:100CD00000C028F22E512E2B036A2625E96E2751DB
:100CE0000320EA6EEF502F6F600806E22F517A085A
:100CF00003E32F51DF0B01D02F512F6F84D72D51DC
:100D00000A080DE12C2D0BD0281F291F2A1F2B1F8D
:100D1000282BD8B4292BD8B42A2BD8B42B2B28C2F3
:100D200000F029C201F02AC202F02BC203F0000138
:100D3000000C006A016A026A036A0201386B396BAF
:100D40003A6B3B6B37513611351134112CE0200EC4
:100D50003C6FD890303731373237333738373937FF
:100D60003A373B3737513B5D08E136513A5D05E193
:100D70003551395D02E13451385D0FE33451385F4C
:100D80003551D8A0353D395F3651D8A0363D3A5F50
:100D90003751D8A0373D3B5FD88000360136023648
:100DA00003363C2FD6D7020EEA6E380EE96E0001EC
:100DB000000CE9500201286F3B0E2F6F9A0E2E6F28
:100DC000CA0E2D6F2C6B0A0E2A6F27C233F226C271
:100DD00032F225C231F224C230F22FC237F22EC2D3
:100DE00036F22DC235F22CC234F20001A2DF0150DE
:100DF000EFCF24F2ECCF25F2ECCF26F2ECCF27F2A6
:100E0000005213E102012A51010AD8A402D00001C4
:100E10000CD028510CE00F0B2A5D01E00EE228BF38
:100E20000CD028BD04D0200E03D00201286B300E58
:100E3000002600509EA8FED7AD6E2FC233F22EC200
:100E400032F22DC231F22CC230F2376B366B356B79
:100E50000A0E346F00016DDF03C02FF202C02EF2C4
:100E600001C02DF200C02CF202012A2FAED70001E2
:100E70003FEF0DF00201936B92988988929A899ABC
:100E800092860101416B406B3F6B3E6B9D82928667
:100E900080A636D041513D5D33E30BE140513C5DCE
:100EA0002FE307E13F513B5D2BE303E13E513A5D08
:100EB00027E304003D51415D22E30BE13C51405DDD
:100EC0001EE307E13B513F5D1AE303E13A513E5D0A
:100ED00016E3322D11D00201956B95510001C9EC3A
:100EE00000F00201952B006E00509EA8FED7AD6E5B
:100EF000300E955DF2E10101FF0E016E5BD0C7D7A8
:100F00009D9292988998FF0E936E81CF93F2020181
:100F1000931B928A0101416B406B3F6B3E6B9D823C
:100F2000928680B636D041513D5D33E30BE14051AE
:100F30003C5D2FE307E13F513B5D2BE303E13E5175
:100F40003A5D27E304003D51415D22E30BE13C5152
:100F5000405D1EE307E13B513F5D1AE303E13A5177
:100F60003E5D16E3322D11D00201956B95510001C3
:100F7000EFEC00F00201952B006E00509EA8FED70A
:100F8000AD6E310E955DF2E10101FF0E016E12D0E2
:100F9000C7D79D92929A899A92840201946B80B4E9
:100FA000942B91C2E9FF92C2EAFF93C2EFFF94C271
:100FB00001F001010001000C02018B6B8C6B8D6B49
:100FC0008E91020E906F270E8F6F5F0E1E6E8D53E7
:100FD0000FE1926B1E0E916F010E936F00012EECCC
:100FE00003F00152D8B402D0020102D0000E01D0A9
:100FF000010E02018D6F3F0E1E6E8D530FE1926B3D
:101000001E0E916F010E936F00012EEC03F0015242
:10101000D8B402D0020102D0000E01D0010E0201AC
:101020008D6F8D5303E0010E016E6ED1200E010114
:101030002A251E6E02018D530FE1926B1E0E916FD9
:10104000010E936F00012EEC03F00152D8B402D0D0
:10105000020102D0000E01D0010E02018D6F8D53EE
:1010600003E0010E016E50D1400E010129251E6ED4
:101070000201926B1E0E916F010E936F00012EEC18
:1010800003F001C08DF202018D5303E0010E016EE9
:101090003BD18B6B020E906F270E8F6F242D7FD06C
:1010A000020E926F250E916F0001E4DE01C026F260
:1010B0000201263D03D0010E016E26D101013053FD
:1010C00012E02D510201255D02E126530AE0036A78
:1010D0008B51270FE96E020E0320EA6E25C2EFFF47
:1010E0008B2B22D001012E510201255D13E12653E5
:1010F00011E1010E8B5D036A270FE96E020E0320DA
:10110000EA6E01012D51EF5C03E102018B07010141
:101110000CD00201036A8B51270FE96E020E0320E7
:10112000EA6E25C2EFFF8B2B010102018B5164088F
:101130001BE18C6B8C51630811E390C203F08FC2EA
:10114000E9FF90C2EAFFEFCF91F291519EA8FED73E
:10115000AD6E8F2BD8B4902B8C2BECD78B6B020EF3
:10116000906F270E8F6F040026539AE18C6B01015C
:10117000335102018B5D8C5D11E290C203F08FC28E
:10118000E9FF90C2EAFFEFCF91F291519EA8FED7FE
:10119000AD6E8F2BD8B4902B8C2BE9D77ED0020E5E
:1011A000926F250E916F000165DE01C026F20201EB
:1011B000263D03D0010E016EA7D00101305312E08D
:1011C0002D510201255D0BE0036A8B51270FE96E5B
:1011D000020E0320EA6E25C2EFFF8B2B01D08E8119
:1011E00021D001012E510201255D12E1010E8B5D1E
:1011F000036A270FE96E020E0320EA6E01012D51EA
:10120000EF5C04E102018B078E8101010CD0020129
:10121000036A8B51270FE96E020E0320EA6E25C286
:10122000EFFF8B2B010102018B5164081BE18C6BDA
:101230008C51630811E390C203F08FC2E9FF90C2A2
:10124000EAFFEFCF91F291519EA8FED7AD6E8F2BA2
:10125000D8B4902B8C2BECD78B6B020E906F270E93
:101260008F6F04008EA19BD78E918C6B010133513F
:1012700002018B5D8C5D11E290C203F08FC2E9FF29
:1012800090C2EAFFEFCF91F291519EA8FED7AD6ECA
:101290008F2BD8B4902B8C2BE9D70101352D04D09E
:1012A00036519EA8FED7AD6E02018D6B5F0E1E6E8D
:1012B0008D530FE1926B1E0E916F010E936F000123
:1012C0002EEC03F00152D8B402D0020102D0000E7D
:1012D00001D0010E02018D6F3F0E1E6E8D530FE186
:1012E000926B1E0E916F010E936F00012EEC03F0B6
:1012F0000152D8B402D0020102D0000E01D0010E7A
:1013000002018D6F8DC201F00001000C0201256BFE
:101310005F0E1E6E25530FE1926B1E0E916F010E34
:10132000936F00012EEC03F00152D8B402D00201F9
:1013300002D0000E01D0010E0201256F3F0E1E6E7D
:1013400025530FE1926B1E0E916F010E936F0001FA
:101350002EEC03F00152D8B402D0020102D0000EEC
:1013600001D0010E0201256F200E24251E6E25538B
:101370000FE1926B1E0E916F010E936F00012EEC28
:1013800003F00152D8B402D0020102D0000E01D005
:10139000010E0201256F25C201F00001000C9280B0
:1013A000000E80B0010E016E000E01A0010E016E54
:1013B00003EF13F00201276B180E1E6E27530FE187
:1013C000926B1E0E916F010E936F00012EEC03F0D5
:1013D0000152D8B402D0020102D0000E01D0010E99
:1013E0000201276F400E26251E6E27530FE1926BD8
:1013F0001E0E916F010E936F00012EEC03F001524F
:10140000D8B402D0020102D0000E01D0010E0201B8
:10141000276F275301E027D0020E926F280E916F9D
:10142000000128DD01C027F20201272D01D0276B22
:10143000273D02D0010E276F190E1E6E926B1E0EF5
:10144000916F010E936F00012EEC03F00201275300
:101450000AE128519EA8FED7AD6E010136519EA823
:10146000FED7AD6E02010001000C25C295F224C228
:1014700094F226C296F20201976B27C298F20001FD
:1014800019EC02F00150000C25C203F0020124C245
:10149000E9FF25C2EAFF2651EF5C12E025C203F006
:1014A00024C2E9FF25C2EAFFEF5204E1000E016EFB
:1014B000026E0AD0242BD8B4252B0001E5D70201F7
:1014C00024C201F025C202F00001EAEF13F0F86A2D
:1014D000D09E0D8EEA6AE96AB886090EAF6E000EDC
:1014E000B06EA60EAC6E900EAB6EC150C00B0F0965
:1014F000C16E070EB46E186A196A0101276B286B5A
:101500002B6B0A0E2C6F2D6B2E6B2F6B030E306F17
:10151000010E316F326B336B346F356F0D0E366FDA
:10152000376B010E386F396FE80E3A6F030E3B6F61
:101530003C6B3D6B3E6B3F6B406B416B426B446B56
:10154000280E436F2B0E456F610E466F3A0E476FA4
:10155000486B2B0E496F740E4A6F3A0E4B6F4C6BF3
:101560002B0E4D6F650E4E6F6F0E4F6F730E506FDB
:101570003A0E516F526B2B0E536F650E546F6F0EF8
:10158000556F690E566F3A0E576F586B2B0E596F89
:10159000740E5A6F650E5B6F730E5C6F740E5D6F29
:1015A0005E6B2B0E5F6F720E606F650E616F610E6A
:1015B000626F640E636F646B2B0E656F670E666FF0
:1015C000650E676F740E686F696B2B0E6A6F730E12
:1015D0006B6F740E6C6F720E6D6F690E6E6F700EA6
:1015E0006F6F3A0E706F716B2B0E726F760E736F9A
:1015F000650E746F720E756F766B2B0E776F610EC2
:10160000786F750E796F740E7A6F6F0E7B6F720E36
:101610007C6F650E7D6F610E7E6F640E7F6F3A0E7C
:10162000806F816B2B0E826F720E836F650E846FDD
:10163000730E856F650E866F740E876F886B2B0E29
:10164000896F640E8A6F650E8B6F620E8C6F750EDC
:101650008D6F670E8E6F3A0E8F6F906B2B0E916FA2
:10166000926F610E936F640E946F956F720E966F0A
:10167000976B2B0E986F996F610E9A6F750E9B6F1B
:10168000740E9C6F6F0E9D6F9E6B2B0E9F6FA06FE5
:10169000630EA16F6C0EA26F720EA36FA46B2B0E64
:1016A000A56FA66F650EA76F6F0EA86F740EA96F5A
:1016B0005F0EAA6F650EAB6F6E0EAC6F610EAD6FF5
:1016C000620EAE6F6C0EAF6F650EB06FB16B2B0E0E
:1016D000B26FB36F650EB46F6F0EB56F740EB66FE9
:1016E0005F0EB76F630EB86F680EB96F610EBA6F99
:1016F000720EBB6FBC6B2B0EBD6FBE6F690EBF6FE2
:10170000660EC06F630EC16FC26B2B0EC36FC46FCA
:101710006C0EC56FC66F6F0EC76FC86B2B0EC96F8F
:10172000CA6F6C0ECB6F6F0ECC6F630ECD6FCE6B2E
:101730002B0ECF6FD06F6C0ED16F6F0ED26F6E0EFF
:10174000D36FD46B2B0ED56FD66F6D0ED76F6F0E18
:10175000D86F640ED96F650EDA6FDB6B2B0EDC6F02
:10176000DD6F720EDE6F650EDF6F610EE06F640E6F
:10177000E16F5F0EE26F740EE36F6D0EE46F6F0E3C
:10178000E56F5F0EE66F6D0EE76F730EE86FE96B46
:101790002B0EEA6FEB6F720EEC6F730EED6F740E23
:1017A000EE6FEF6B2B0EF06FF16F730EF26F610E39
:1017B000F36F760EF46F650EF56F630EF66F660EBF
:1017C000F76F670EF86FF96B2B0EFA6FFB6F730EE6
:1017D000FC6F700EFD6F6F0EFE6F6C0EFF6F0201DF
:1017E000006F016B2B0E026F036F730E046F720E8E
:1017F000056F710E066F076B2B0E086F096F730E66
:101800000A6F740E0B6F610E0C6F740E0D6F750EF8
:101810000E6F730E0F6F106B2B0E116F126F740E15
:10182000136F720E146F670E156F166B2B0E176FFA
:10183000186F760E196F650E1A6F720E1B6F1C6B88
:101840002B0E1D6F1E6F680E1F6F650E206F6C0EC6
:10185000216F700E226F236B949A8B8AD180D76A86
:10186000D66A080E0609CA6E900ECB6EC00EF21232
:101870009D920001E1EF01F00201246B00013CEFB9
:1018800003F001C042F10101422D01D0FF00949A02
:101890008B9A0400640E0201256F0001E6EC01F052
:1018A0000400949A8B8A0400640E0201256F0001E3
:1018B000E6EC01F004009D8A0400949A8B9A0400DF
:1018C00001012751285DD8B435EF14F044C125F249
:1018D00043C124F2000155EF03F0036A01C043F154
:1018E000010103C044F144C103F043C1E9FF44C115
:1018F000EAFFEF502B08D8A475EF13F044C127F28C
:1019000043C126F2010E0201296F450E286F030E16
:101910002A6F000186EC03F0015214E1030E01016D
:1019200043250201246F000E010144210201256FAD
:10193000276F24C226F20001F4EC03F001C029F164
:1019400073EF13F044C127F243C126F2010E0201E6
:10195000296F910E286F060E2A6F000186EC03F0A6
:1019600001523AE1060E01014325016E000E4421A9
:10197000036E01C0E9FFEA6EEF520EE129C125F2C4
:101980001F0E0201266F0001DBEC04F0010136514D
:101990009EA8FED7AD6E1ED0060E4325016E000E2A
:1019A0004421036E01C0E9FFEA6EEF50200812E106
:1019B000070E43250201246F000E0101442102019C
:1019C000256F276F24C226F20001F4EC03F001C05A
:1019D00029F1010172EF13F044C127F243C126F24D
:1019E000010E0201296F490E286F030E2A6F0001B4
:1019F00086EC03F001521AE1030E010143250201B6
:101A0000246F000E010144210201256F276F24C2BB
:101A100026F2000149EC05F003C03DF102C03CF1A3
:101A200001C03BF100C03AF173EF13F044C127F25B
:101A300043C126F2010E0201296FDC0E286F0D0E44
:101A40002A6F000186EC03F0015245E10D0E010101
:101A50004325016E000E4421036E01C0E9FFEA6ECA
:101A6000EF5213E1410EE96E3DC127F23CC126F26F
:101A70003BC125F23AC124F20001D9EF06F0010181
:101A800036519EA8FED7AD6E24D00D0E4325016EB3
:101A9000000E4421036E01C0E9FFEA6EEF502008FA
:101AA00018E10E0E43250201246F000E01014421AE
:101AB0000201256F276F24C226F2000149EC05F0D0
:101AC00003C03DF102C03CF101C03BF100C03AF15E
:101AD000010172EF13F044C127F243C126F2010E57
:101AE0000201296F5F0E286F050E2A6F000186EC38
:101AF00003F0015221E131C124F2DCEC07F0015284
:101B000019E00101322D15D00201246B245100018E
:101B100015EC01F00201242B006E00509EA8FED7A8
:101B2000AD6E130E245DF2E1010136519EA8FED781
:101B3000AD6E000173EF13F0010E010143250201A8
:101B4000246F000E010144210201256F276F24C27A
:101B500026F2010E296F5F0E286F050E2A6F000115
:101B600086EC03F0015228E1060E01014325016EC7
:101B7000000E4421036E01C0E9FFEA6EEF5207E157
:101B80000201246B0001DCEC07F013D00101070E09
:101B90004325016E000E4421036E01C0E9FFEA6E89
:101BA000EF50650807E1010E0201246F0001DCEC33
:101BB00007F0010172EF13F044C127F243C126F28E
:101BC000010E0201296F590E286F050E2A6F0001C0
:101BD00086EC03F0015217E10201246B245100014D
:101BE0002DEC01F00201242B006E00509EA8FED7C0
:101BF000AD6E070E245DF2E1010136519EA8FED7BD
:101C0000AD6E72EF13F044C127F243C126F2010E0C
:101C10000201296F4D0E286F050E2A6F000186EC18
:101C200003F001521AE1050E010143250201246F60
:101C3000000E010144210201256F276F24C226F204
:101C40000001F4EC03F001C02CF12CC12DF10101D5
:101C50002E6B040E306F72EF13F0010E010143255D
:101C60000201246F000E010144210201256F276F3C
:101C700024C226F2010E296F4D0E286F040E2A6F22
:101C8000000186EC03F0015261E1050E01014325DC
:101C9000016E000E4421036E01C0E9FFEA6EEF52AF
:101CA0000EE130C125F21F0E0201266F0001DBECB0
:101CB00004F0010136519EA8FED7AD6E45D0050E49
:101CC0004325016E000E4421036E01C0E9FFEA6E58
:101CD000EF50200839E1060E43250201246F000E63
:101CE000010144210201256F276F24C226F2000161
:101CF000F4EC03F001C030F101013051000105E0C6
:101D0000010A0CE0030A12E019D00101306B0D0E3C
:101D10002D6F0A0E2E6F2F6B2C6F16D0010E010146
:101D2000306F0D0E2D6F2E6B2C6F0ED0020E010139
:101D3000306F0A0E2D6F2E6B2C6F06D0030E010133
:101D4000306F2D6B2C6B00D072EF13F044C127F273
:101D500043C126F2010E0201296F530E286F050EB2
:101D60002A6F000186EC03F0015214E1050E010117
:101D700043250201246F000E010144210201256F59
:101D8000276F24C226F20001F4EC03F001C031F108
:101D900073EF13F0010E010143250201246F000EC1
:101DA000010144210201256F276F24C226F2010E92
:101DB000296F530E286F040E2A6F000186EC03F082
:101DC00001523AE1050E01014325016E000E442146
:101DD000036E01C0E9FFEA6EEF520EE131C125F258
:101DE0001F0E0201266F0001DBEC04F001013651E9
:101DF0009EA8FED7AD6E1ED0050E4325016E000EC7
:101E00004421036E01C0E9FFEA6EEF50200812E1A1
:101E1000060E43250201246F000E01014421020138
:101E2000256F276F24C226F20001F4EC03F001C0F5
:101E300031F1010172EF13F044C127F243C126F2E0
:101E4000010E0201296F6A0E286F070E2A6F00012A
:101E500086EC03F0015214E1070E01014325020153
:101E6000246F000E010144210201256F276F24C257
:101E700026F20001F4EC03F001C033F173EF13F02C
:101E800044C127F243C126F2010E0201296F720EEE
:101E9000286F040E2A6F000186EC03F001520FE157
:101EA000050E0201256F1F0E266F0001DBEC04F00A
:101EB000010136519EA8FED7AD6E72EF13F0010EF0
:101EC000010143250201246F000E0101442102019A
:101ED000256F276F24C226F2010E296F720E286F1C
:101EE000040E2A6F000186EC03F001520FE1050E8B
:101EF0000201256F1F0E266F0001DBEC04F00101CB
:101F000036519EA8FED7AD6E72EF13F044C127F292
:101F100043C126F2010E0201296F650E286F040EDF
:101F20002A6F000186EC03F001520DE1080E1E6ECF
:101F30000201926B1E0E916F010E936F00012EEC49
:101F400003F073EF13F044C127F243C126F2020EEF
:101F50000201296F110E286F050E2A6F000186EC11
:101F600003F001522BE1050E01014325016E000E25
:101F70004421036E01C0E9FFEA6EEF521DE14253B6
:101F80000CE129C124F2000186EC09F00152D8B419
:101F900002D0010102D0000E01D0010E0101426FFA
:101FA000080E1E6E0201926B1E0E916F010E936F52
:101FB00000012EEC03F0010172EF13F044C127F28F
:101FC00043C126F2010E0201296F770E286F0A0E17
:101FD0002A6F000186EC03F0015213E10A0E0101A1
:101FE00043250201246F000E010144210201256FE7
:101FF000276F24C226F20001F4EC03F001C034F193
:1020000072D344C127F243C126F2010E0201296FA7
:10201000980E286F060E2A6F000186EC03F001521D
:1020200040E1060E01014325016E000E4421036EBE
:1020300001C0E9FFEA6EEF520EE134C125F21F0E36
:102040000201266F0001DBEC04F0010136519EA86D
:10205000FED7AD6E25D0060E4325016E000E44213D
:10206000036E01C0E9FFEA6EEF50200819E1070E88
:1020700043250201246F000E010144210201256F56
:10208000276F24C226F20001F4EC03F001C034F102
:102090000101345305E0342D01D002D0010E346F1C
:1020A00021D344C127F243C126F2010E0201296F58
:1020B000820E286F060E2A6F000186EC03F0015293
:1020C00008E1010E0201256F0001E6EC01F0FF00BE
:1020D0000AD344C127F243C126F2010E0201296F3F
:1020E000EA0E286F050E2A6F000186EC03F00152FC
:1020F00008E1010E0201256F0001E6EC01F0FF008E
:10210000F2D244C127F243C126F2010E0201296F27
:10211000890E286F070E2A6F000186EC03F001522A
:1021200013E1070E010143250201246F000E010196
:1021300044210201256F276F24C226F20001F4EC2E
:1021400003F001C032F1CFD244C127F243C126F2DD
:10215000010E0201296F9F0E286F050E2A6F0001E4
:1021600086EC03F001522AE1010142530CE129C13E
:1021700024F2000186EC09F00152D8B402D001012A
:1021800002D0000E01D0010E0101426F040E1E6E3E
:10219000425310E10201926B1E0E916F010E936F7C
:1021A00000012EEC03F00152D8B402D0010102D09C
:1021B000000E01D0010E0101426F94D244C127F2FA
:1021C00043C126F2010E0201296FA50E286F0C0EE5
:1021D0002A6F000186EC03F0015240E10C0E010170
:1021E0004325016E000E4421036E01C0E9FFEA6E33
:1021F000EF520EE135C125F21F0E0201266F0001DC
:10220000DBEC04F0010136519EA8FED7AD6E25D05F
:102210000C0E4325016E000E4421036E01C0E9FF40
:10222000EA6EEF50200819E10D0E43250201246FDC
:10223000000E010144210201256F276F24C226F2FE
:102240000001F4EC03F001C035F10101355305E064
:10225000352D01D002D0010E356F44D244C127F292
:1022600043C126F2010E0201296FB20E286F0A0E39
:102270002A6F000186EC03F0015239E10A0E0101D8
:102280004325016E000E4421036E01C0E9FFEA6E92
:10229000EF520EE136C125F21F0E0201266F00013A
:1022A000DBEC04F0010136519EA8FED7AD6E1ED0C6
:1022B0000A0E4325016E000E4421036E01C0E9FFA2
:1022C000EA6EEF50200812E10B0E43250201246F45
:1022D000000E010144210201256F276F24C226F25E
:1022E0000001F4EC03F001C036F10101FBD144C15F
:1022F00027F243C126F2010E0201296FBD0E286F9D
:10230000050E2A6F000186EC03F0015208E1969059
:102310008D90E60E006E002EFED79680E4D144C16B
:1023200027F243C126F2010E0201296FC30E286F66
:10233000050E2A6F000186EC03F001522AE101012B
:1023400042530CE129C124F2000186EC09F001524C
:10235000D8B402D0010102D0000E01D0010E01015B
:10236000426F110E1E6E425310E10201926B1E0E5F
:10237000916F010E936F00012EEC03F00152D8B45F
:1023800002D0010102D0000E01D0010E0101426F06
:10239000A9D144C127F243C126F2010E0201296FDF
:1023A000C90E286F050E2A6F000186EC03F001525A
:1023B0002AE1010142530CE129C124F2000186EC1B
:1023C00009F00152D8B402D0010102D0000E01D0B0
:1023D000010E0101426F010E1E6E425310E1020117
:1023E000926B1E0E916F010E936F00012EEC03F0A5
:1023F0000152D8B402D0010102D0000E01D0010E6A
:102400000101426F6FD144C127F243C126F2010E90
:102410000201296FCF0E286F050E2A6F000186EC8E
:1024200003F001523FE1050E01014325016E000E4C
:102430004421036E01C0E9FFEA6EEF520EE137C19D
:1024400025F21F0E0201266F0001DBEC04F00101F2
:1024500036519EA8FED7AD6E24D0050E4325016EE1
:10246000000E4421036E01C0E9FFEA6EEF50200820
:1024700018E1060E43250201246F000E01014421DC
:102480000201256F276F24C226F20001F4EC03F04D
:1024900001C037F10101375304E0372D01D001D0DD
:1024A000376B20D144C127F243C126F2010E02014D
:1024B000296FD50E286F060E2A6F000186EC03F0F7
:1024C000015240E1060E01014325016E000E442138
:1024D000036E01C0E9FFEA6EEF520EE138C125F24A
:1024E0001F0E0201266F0001DBEC04F001013651E2
:1024F0009EA8FED7AD6E25D0060E4325016E000EB8
:102500004421036E01C0E9FFEA6EEF50200819E193
:10251000070E43250201246F000E01014421020130
:10252000256F276F24C226F20001F4EC03F001C0EE
:1025300038F10101385305E0382D01D002D0010EE9
:10254000386FD0D044C127F243C126F2010E0201F8
:10255000296FF00E286F090E2A6F000186EC03F038
:10256000015240E1090E01014325016E000E442194
:10257000036E01C0E9FFEA6EEF520EE139C125F2A8
:102580001F0E0201266F0001DBEC04F00101365141
:102590009EA8FED7AD6E25D0090E4325016E000E14
:1025A0004421036E01C0E9FFEA6EEF50200819E1F3
:1025B0000A0E43250201246F000E0101442102018D
:1025C000256F276F24C226F20001F4EC03F001C04E
:1025D00039F10101395305E0392D01D002D0010E46
:1025E000396F80D044C127F243C126F2020E0201A6
:1025F000296F286F050E2A6F000186EC03F0015247
:1026000012E1CFEF09F001C024F201C025F21F0E44
:102610000201266F0001DBEC04F0010136519EA897
:10262000FED7AD6E5FD044C127F243C126F2010E42
:102630000201296FFA0E286F070E2A6F000186EC3F
:1026400003F0015237E1070E01014325016E000E30
:102650004421036E01C0E9FFEA6EEF5207E129C190
:1026600026F20001DAEC09F022D00101070E432521
:10267000016E000E4421036E01C0E9FFEA6EEF50C7
:10268000200816E1080E43250201246F000E010107
:1026900044210201256F276F24C226F20001F4ECC9
:1026A00003F001C025F201C026F2DAEC09F00101C5
:1026B00019D000010101322D15D00201246B2451E3
:1026C00000013FEC01F00201242B006E00509EA897
:1026D000FED7AD6E150E245DF2E1010136519EA8C4
:1026E000FED7AD6E0001C2D0010142530CE129C1F9
:1026F00024F2000186EC09F00152D8B402D00101A5
:1027000002D0000E01D0010E0101426F400E2A25B9
:102710001E6E425310E10201926B1E0E916F010E6C
:10272000936F00012EEC03F00152D8B402D00101E6
:1027300002D0000E01D0010E0101426F305103089A
:1027400025E0425311E144C125F243C124F20201C4
:10275000266B276B000135EC0AF00152D8B402D089
:10276000010102D0000E01D0010E0101426F010EE5
:102770000201256F2D0E246F266B31C127F2000157
:1027800035EC0AF001C042F118D00101425312E1C8
:1027900044C125F243C124F20201266B010E276FCA
:1027A000000135EC0AF00152D8B402D0010102D088
:1027B000000E01D0010E0101426F0101345355E0BA
:1027C00044C125F243C124F23F0E0201266F0001ED
:1027D00044EF0AF002C025F201C024F202012453A2
:1027E00002E1255327E001014253D8B402D002018F
:1027F00021D031C124F20001DCEC07F0015219E0D4
:102800000101322D15D00201246B2451000115EC79
:1028100001F00201242B006E00509EA8FED7AD6E81
:10282000130E245DF2E1010136519EA8FED7AD6E74
:1028300000011CD00101425318E0426B322D15D02B
:102840000201246B2451000158EC01F00201242BF9
:10285000006E00509EA8FED7AD6E140E245DF2E10E
:10286000010136519EA8FED7AD6E00015FEF0CF05E
:02287000030063
:020000040030CA
:0E00000000021E19008381000FC00FE00F40A8
:00000001FF
;PIC18F4520
