:020000040000FA
:0400000055EF07F0C1
:08000800056ED8CF06F0E0CF31
:1000100007F00001E9CF0DF0EACF08F0E1CF09F0D9
:10002000E2CF0AF0D9CF0BF0DACF0CF0F3CF14F017
:10003000F4CF15F0FACF16F000C00FF001C010F0A9
:1000400002C011F003C012F004C013F09DA22CEF07
:1000500000F09EB273EF01F09DAA32EF00F09EBA5D
:100060009BEF01F00FC000F010C001F011C002F0D2
:1000700012C003F013C004F00E8E0DC0E9FF08C0DB
:10008000EAFF09C0E1FF0AC0E2FF0BC0D9FF0CC0C4
:10009000DAFF14C0F3FF15C0F4FF16C0FAFF0550D5
:1000A00007C0E0FF06C0D8FF1000F2CF0EF0F29EAE
:1000B000F76AC40FF66E000EF7220900F5500EBE67
:1000C000F28E120054696D656F75743A205761693C
:1000D00074696E6720666F72204E44414320746FCE
:1000E00020676F206C6F77207768696C6520777266
:1000F0006974696E670A0000F2CF0EF0F29EF76A2B
:10010000120FF66E010EF7220900F5500EBEF28EA8
:10011000120054696D656F75743A2057616974698E
:100120006E6720666F72204E52464420746F2067BF
:100130006F2068696768207768696C6520777269E5
:1001400074696E670A00F2CF0EF0F29EF76A600FD4
:10015000F66E010EF7220900F5500EBEF28E120067
:1001600054696D656F75743A2057616974696E677B
:1001700020666F72204E44414320746F20676F20C9
:1001800068696768207768696C6520777269746947
:100190006E670A00F2CF0EF0F29EF76AAE0FF66EAF
:1001A000010EF7220900F5500EBEF28E12005469BE
:1001B0006D656F75743A2057616974696E67206662
:1001C0006F722044415620746F20676F206C6F77E8
:1001D000207768696C652072656164696E670A00E2
:1001E000F2CF0EF0F29EF76AFA0FF66E010EF722CA
:1001F0000900F5500EBEF28E120054696D656F75E0
:10020000743A2057616974696E6720666F72204482
:10021000415620746F20676F20686967682077688F
:10022000696C652072656164696E670A0000F2CFCF
:100230000EF0F29EF76A480FF66E020EF7220900E2
:10024000F5500EBEF28E1200526561642065727226
:100250006F72206F6363757265642E0A0D00F2CFB2
:100260000EF0F29EF76A780FF66E020EF722090082
:10027000F5500EBEF28E120074657374696E670AD3
:100280000D00F2CF0EF0F29EF76A9C0FF66E020E92
:10029000F7220900F5500EBEF28E1200556E7265FF
:1002A000636F676E697A656420636F6D6D616E64FC
:1002B0002E0A0D00F2CF0EF0F29EF76ACE0FF66E08
:1002C000020EF7220900F5500EBEF28E1200577290
:1002D000697465206572726F72206F6363757265F1
:1002E000642E0A0D00000101842F03D0872B6E0EAF
:1002F000846F9E92000132EF00F075C277F274C2F3
:1003000076F277C203F0020176C2E9FF77C2EAFF14
:10031000EF5206E0762BD8B4772B0001F2D702011A
:100320007451765D006E75517759036E00C001F00F
:10033000026E0001000C290E010176250201726F88
:10034000736BD8B0732B73C2EAFFE96EE906E92A32
:100350009EAAFED7AECFEFFF0D0EEF5CF8E1EF6A7D
:10036000290E010176250201726F736BD8B0732BD1
:1003700073C275F2746F0001C0DF01C073F2010E29
:1003800002010124016E000E0220015001017627B6
:10039000763D01D0766B9E9A000132EF00F0959C7D
:1003A0008C9C959A8C9A959E8C8E95988C9893801F
:1003B0009382938493869388938A938C938E92925C
:1003C00089829284928692988998929A899A969034
:1003D0008D80928096928D82EFEF01F0E0D7929A15
:1003E000898A5AEF08F0010EEA6EF90EE96EEF50B5
:1003F0000EE0050E016E006A002EFED7012EFBD71F
:10040000F90E006E002EFED70000EF2EF2D7000C82
:10041000959A8C8A02016A5302E0929289926953FA
:100420000FE1186AF2BE188EF29E68C275F267C2BA
:1004300074F2000162DF18BEF28E01C069F202019F
:10044000959C8C8C929489849296898692886C6B08
:1004500069516C5DD8B08FD0036A6C516725E96E25
:1004600068510320EA6EEFCF6BF2928A0101876B2D
:1004700085518725866F928A80AA1DD08751865D17
:100480001AE304008651875D15E3802D10D0020128
:100490006D6B6D51000109DE02016D2B006E005085
:1004A0009EA8FED7AD6E320E6D5DF3E10101010E27
:1004B000016E79D0E0D7FF0E02016B1B936A6BC20D
:1004C0008AFF92880101876B85518725866F928804
:1004D00080B81DD08751865D1AE304008651875D80
:1004E00015E3802D10D002016D6B6D51000104DE0B
:1004F00002016D2B006E00509EA8FED7AD6E330E2C
:100500006D5DF3E10101010E016E4DD0E0D7010EEA
:100510000201695D6C5D04E16A5302E19294899481
:10052000929689960101876B85518725866F928AFD
:1005300080BA1DD08751865D1AE304008651875D1D
:1005400015E3802D10D002016D6B6D510001FBDDB4
:1005500002016D2B006E00509EA8FED7AD6E330ECB
:100560006D5DF3E10101010E016E1DD0E0D79286B1
:1005700002016C2B6DD7959C8C9C93809382938405
:1005800093869388938A938C938E6A5301E0928228
:1005900092869284929A898A92988988959A8C9A5E
:1005A000000E016E01010001000C65C268F264C218
:1005B00067F266C269F2010E02016A6F000128DF6C
:1005C0000150000CF8C178F196908D90C80E010191
:1005D000F96F000108DF968096928D92140E1F6EBF
:1005E0000201656B1F0E646F010E666F0001DDDF97
:1005F00001505FEF08F0290E01017525F86FF96BC6
:10060000D8B0F92B290E7525FA6FFB6BD8B0FB2BF0
:10061000186AF2BE188EF29EFBC175F2E8CF74F232
:1006200000016BDE18BEF28E01C0FBF1010E01016C
:100630000124016E000E022001507527753D01D086
:10064000756BF8C101F000018AEF08F00101FE535B
:100650003FE0FAC1E9FFFBC1EAFFEFCFFFF1FDC1C7
:1006600003F0FCC1E9FFFDC1EAFFEF50FF5D17E0B9
:10067000FBC103F0FAC1E9FFFBC1EAFFEFCFFFF1D5
:10068000FDC103F0FCC1E9FFFDC1EAFFEF50FF5DD2
:1006900002E2FF0E01D0010E016E1CD00BD0FBC197
:1006A00003F0FAC1E9FFFBC1EAFFEF5203E1000EDC
:1006B000016E10D0FBC103F0FA51FA2BD8B4FB2B1A
:1006C000FDC103F0FC51FC2BD8B4FD2BFE07BFD7B6
:1006D000000E016E0001000C006A016A0201015166
:1006E000D89002B100260032013202B30026003257
:1006F000013202B500260032013202B70026003274
:10070000013202B900260032013202BB002600325B
:10071000013202BD00260032013202BF0026003243
:10072000013200010EEF04F00101FF6BFD6B0A0EB8
:10073000FE6FFC6BFA51FB1103E1000E016EDBD082
:10074000FF51FF2B036AFA25E96EFB510320EA6E85
:10075000EFCF00F2020100512D080FE1010E01015F
:10076000FD6FFF51FF2B036AFA25E96EFB51032051
:10077000EA6EEFCF00F202010FD000512B080CE11E
:100780000101FF51FF2B036AFA25E96EFB5103209B
:10079000EA6EEFCF00F2020100512F08D8B0A2D0CC
:1007A00000513908D8A09ED00051300826E1036AD4
:1007B0000101FF51FA25E96EFB510320EA6EEF506B
:1007C00078080DE0036AFF51FA25E96EFB5103201A
:1007D000EA6EEF505808D8B402D002010ED0100EC5
:1007E000FE6FFF2BFF51FF2B036AFA25E96EFB51C9
:1007F0000320EA6EEFCF00F202010101FE510A0868
:1008000021E1020100512F081BE20051390818E3D1
:100810000A0E016FFCC102F200015ED7300E020128
:10082000005D01240101FC6FFF51FF2B036AFA25D3
:10083000E96EFB510320EA6EEFCF00F20201E2D72E
:1008400051D00101FE5110084EE102010051600833
:1008500006E200517A0803E30051DF0B01D000519A
:10086000006F00512F0803E20051390806E20051E1
:10087000400838E20051460835E300512F080FE2E6
:10088000005139080CE30101FC390201016FF00E3F
:100890000117300E005D01250101FC6F0CD0010134
:1008A000FC390201016FF00E0117410E005D0A0FC5
:1008B00001250101FC6FFF51FF2B036AFA25E96E48
:1008C000FB510320EA6EEFCF00F2020100516008F5
:1008D00006E200517A0803E30051DF0B01D000511A
:1008E000006FBFD70101FD2D04D0FE510A0801E1C0
:1008F000FC6DFCC101F00001000C0101FF51016A17
:10090000FE5D03E2FEC100F010D0006A080E020195
:10091000006F0101FE370036FF51005CD8B0006E59
:1009200001360201002FF5D701010001000C200E55
:100930000101F9A9300EFA6FF8C100F0F8AF07D045
:10094000001E002A00C0F8F12D0EFA6FF98F015039
:10095000F8C1FEF1640EFF6F0001CFDF00C0F8F1B7
:10096000300E01240101FB6FF8C1FEF10A0EFF6F8A
:100970000001C3DF300E00240101FD6F300E0124A1
:10098000FC6FFAC100F0F9A702D0F9AFF995F9B9F7
:100990000BD0F9AF22D0F9B520D000C0FBF1F9B3EC
:1009A0001CD000C0FCF119D0300EFB5D16E100C078
:1009B000FBF1200EFA6FF9A704D0F995F983F9AF8E
:1009C000F993300EFC5D09E100C0FCF1200EFB6FD5
:1009D000F9A7F7D7F993F9AFF991F9A504D0FA512E
:1009E0009EA8FED7AD6EF9A304D0FB519EA8FED7FA
:1009F000AD6EF9A104D0FC519EA8FED7AD6EFD519D
:100A00009EA8FED7AD6E0001000C0201666B9298A5
:100A10008988929A899A92860101876B85518725E8
:100A2000866F928680A61ED08751865D1BE30400E8
:100A30008651875D16E3802D11D00201686B6851E5
:100A40000001CAEC00F00201682B006E00509EA865
:100A5000FED7AD6E310E685DF2E10101FF0E016E51
:100A600040D0DFD792988998FF0E936E81CF66F2BF
:100A70000201661B928A0101876B85518725866F6B
:100A8000928680B61ED08751865D1BE30400865196
:100A9000875D16E3802D11D00201686B685100015B
:100AA000F0EC00F00201682B006E00509EA8FED70B
:100AB000AD6E320E685DF2E10101FF0E016E11D0E4
:100AC000DFD7929A899A92840201676B80B4672B70
:100AD00064C2E9FF65C2EAFF66C2EFFF67C201F0C8
:100AE00001010001000C02015E6B5F6B606B6191A4
:100AF000010E636FFA0E626F5F0E1F6E60530EE1A0
:100B0000656B1F0E646F010E666F00014EDD0152B2
:100B1000D8B402D0020102D0000E01D0010E0201B1
:100B2000606F3F0E1F6E60530EE1656B1F0E646FAA
:100B3000010E666F000139DD0152D8B402D0020106
:100B400002D0000E01D0010E0201606F605303E07D
:100B5000010E016E78D1200E010178251F6E020171
:100B600060530EE1656B1F0E646F010E666F00012E
:100B70001CDD0152D8B402D0020102D0000E01D017
:100B8000010E0201606F605303E0010E016E5BD144
:100B9000400E010177251F6E0201656B1F0E646F09
:100BA000010E666F000101DD01C060F202016053B9
:100BB00003E0010E016E47D15E6B010E636FFA0E0A
:100BC000626F01017F2D84D0010E0201656FF80E66
:100BD000646F00011ADF01C0F9F10101F93D05D090
:100BE000010E016E02012FD101017E5312E07B51F3
:100BF000F85D02E1F9530CE0036A02015E51FA0F5D
:100C0000E96E010E0320EA6EF8C1EFFF5E2B0101D1
:100C100022D07C51F85D13E1F95311E1010E02017C
:100C20005E5D036AFA0FE96E010E0320EA6E0101B0
:100C30007B51EF5C03E102015E0701010CD0036A06
:100C400002015E51FA0FE96E010E0320EA6EF8C14F
:100C5000EFFF5E2B010102015E5164081BE15F6B37
:100C60005F51630811E363C203F062C2E9FF63C22C
:100C7000EAFFEFCF64F264519EA8FED7AD6E622BFF
:100C8000D8B4632B5F2BECD75E6B010E636FFA0E4B
:100C9000626F04000101F95397E102015F6B0101EA
:100CA000815102015E5D5F5D11E263C203F062C2C9
:100CB000E9FF63C2EAFFEFCF64F264519EA8FED75A
:100CC000AD6E622BD8B4632B5F2BE9D785D00101C1
:100CD000010E0201656FF80E646F000196DE01C01F
:100CE000F9F10101F93D05D0010E016E0201ABD011
:100CF00001017E5314E07B51F85D0DE0036A0201AF
:100D00005E51FA0FE96E010E0320EA6EF8C1EFFFA3
:100D10005E2B03D001010201618121D001017C51D0
:100D2000F85D12E1010E02015E5D036AFA0FE96EE1
:100D3000010E0320EA6E01017B51EF5C04E1020128
:100D40005E07618101010CD0036A02015E51FA0F56
:100D5000E96E010E0320EA6EF8C1EFFF5E2B010180
:100D600002015E5164081BE15F6B5F51630811E390
:100D700063C203F062C2E9FF63C2EAFFEFCF64F22D
:100D800064519EA8FED7AD6E622BD8B4632B5F2B47
:100D9000ECD75E6B010E636FFA0E626F040061B1F7
:100DA00002D0010195D761915F6B01018151020170
:100DB0005E5D5F5D11E263C203F062C2E9FF63C280
:100DC000EAFFEFCF64F264519EA8FED7AD6E622BAE
:100DD000D8B4632B5F2BE9D70101832D04D00D0E0E
:100DE0009EA8FED7AD6E0201606B5F0E1F6E605352
:100DF0000FE1656B1F0E646F010E666F0001D5EC8D
:100E000002F00152D8B402D0020102D0000E01D08B
:100E1000010E0201606F3F0E1F6E60530FE1656BA4
:100E20001F0E646F010E666F0001D5EC02F00152D7
:100E3000D8B402D0020102D0000E01D0010E02018E
:100E4000606F60C201F00001000CF9C168F2F8C1E6
:100E500067F2FAC169F202016A6B000108EC02F064
:100E60000150000CF9C103F00101F8C1E9FFF9C11B
:100E7000EAFFFA51EF5C12E0F9C103F0F8C1E9FFB3
:100E8000F9C1EAFFEF5204E1000E016E026E0AD0D2
:100E9000F82BD8B4F92B0001E5D70101F8C101F016
:100EA000F9C102F00001B0EF0CF0F86AD09E0D8E8F
:100EB000EA6AE96AB886090EAF6E000EB06EA60E39
:100EC000AC6E900EAB6EC150C00B0F09C16E070E19
:100ED000B46E196A1A6A0101756B766B796B0A0E2A
:100EE0007A6F7B6B7C6B7D6B030E7E6F010E7F6F69
:100EF000806B816B826F836F876B886B8A6B290E27
:100F0000896F2B0E8B6F610E8C6F3A0E8D6F8E6B0F
:100F10002B0E8F6F740E906F3A0E916F926B2B0E9B
:100F2000936F650E946F6F0E956F730E966F3A0EFA
:100F3000976F986B2B0E996F650E9A6F6F0E9B6F64
:100F4000690E9C6F3A0E9D6F9E6B2B0E9F6F740EF9
:100F5000A06F650EA16F730EA26F740EA36FA46BCA
:100F60002B0EA56F720EA66F650EA76F610EA86F90
:100F7000640EA96FAA6B2B0EAB6F670EAC6F650E7C
:100F8000AD6F740EAE6FAF6B2B0EB06F730EB16F93
:100F9000740EB26F720EB36F690EB46F700EB56FD0
:100FA0003A0EB66FB76B2B0EB86F760EB96F650E33
:100FB000BA6F720EBB6FBC6B2B0EBD6F610EBE6F36
:100FC000750EBF6F740EC06F6F0EC16F720EC26F61
:100FD000650EC36F610EC46F640EC56F3A0EC66FA7
:100FE000C76B2B0EC86F720EC96F650ECA6F730E7A
:100FF000CB6F650ECC6F740ECD6FCE6B2B0ECF6F9B
:10100000640ED06F650ED16F620ED26F750ED36F06
:10101000670ED46F3A0ED56FD66B2B0ED76FD86F85
:10102000610ED96F640EDA6FDB6F720EDC6FDD6BF1
:101030002B0EDE6FDF6F610EE06F750EE16F740EC9
:10104000E26F6F0EE36FE46B2B0EE56FE66F630EDE
:10105000E76F6C0EE86F720EE96FEA6B2B0EEB6FA9
:10106000EC6F650EED6F6F0EEE6F740EEF6F5F0E2F
:10107000F06F650EF16F6E0EF26F610EF36F620E20
:10108000F46F6C0EF56F650EF66FF76B949A8B8AA2
:10109000D1806E0E846FD76AD66A480E0609CA6E72
:1010A000FA0ECB6E9D82C00EF212050E856F000106
:1010B000EEEF01F00101F86B0001E2EF02F001C078
:1010C00088F10101882D01D0FF00949A8B9A0400C9
:1010D000640EF96F0001F3EC01F00400949A8B8A1E
:1010E0000400640E0101F96F0001F3EC01F004004B
:1010F0009D8A0400949A8B9A040001017551765DD3
:10110000D8B4F5EF0CF08AC1F9F189C1F8F100010A
:10111000FBEF02F0036A01C089F1010103C08AF10B
:101120008AC103F089C1E9FF8AC1EAFFEF502B08A9
:10113000D8A426EF0CF08AC1FBF189C1FAF1010EA7
:10114000FD6F8B0EFC6F030EFE6F000126EC03F0AB
:10115000015210E1030E01018925F86F000E8A216A
:10116000F96FFB6FF8C1FAF1000194EC03F001C0D4
:1011700077F16AD38AC1FBF189C1FAF1010E01014D
:10118000FD6FD70EFC6F060EFE6F000126EC03F01C
:10119000015235E1060E01018925016E000E8A21FA
:1011A000036E01C0E9FFEA6EEF520DE177C1F8F17D
:1011B0001F0EF96F000197EC04F00D0E9EA8FED7EC
:1011C000AD6E1BD00101060E8925016E000E8A212D
:1011D000036E01C0E9FFEA6EEF5020080FE1070E31
:1011E0008925F86F000E8A21F96FFB6FF8C1FAF1BB
:1011F000000194EC03F001C077F1010124D38AC10E
:10120000FBF189C1FAF1010E0101FD6FA50EFC6F22
:10121000050EFE6F000126EC03F001521CE163DCB9
:10122000015218E00101802D0FD0F86BF851000138
:1012300017EC01F00101F82B006E00509EA8FED7BC
:10124000AD6E150EF85DF2E1010EF96F0001F3ECE1
:1012500001F0FF00F9D28AC1FBF189C1FAF1010E58
:101260000101FD6F9F0EFC6F050EFE6F000126EC65
:1012700003F0015211E10101F86BF85100012FEC6C
:1012800001F00101F82B006E00509EA8FED7AD6E54
:10129000090EF85DF2E1D7D28AC1FBF189C1FAF1FA
:1012A000010E0101FD6F8F0EFC6F030EFE6F00013A
:1012B00026EC03F0015210E1030E01018925F86FBD
:1012C000000E8A21F96FFB6FF8C1FAF1000194EC6E
:1012D00003F001C085F1B8D28AC1FBF189C1FAF1EE
:1012E000010E0101FD6F930EFC6F050EFE6F0001F4
:1012F00026EC03F0015216E1050E01018925F86F75
:10130000000E8A21F96FFB6FF8C1FAF1000194EC2D
:1013100003F001C07AF17AC17BF101017C6B040E0C
:101320007E6F91D2010E01018925F86F000E8A218E
:10133000F96FFB6FF8C1FAF1010EFD6F930EFC6FB0
:10134000040EFE6F000126EC03F001525DE1050E74
:1013500001018925016E000E8A21036E01C0E9FF9B
:10136000EA6EEF520DE17EC1F8F11F0EF96F000138
:1013700097EC04F00D0E9EA8FED7AD6E44D001018F
:10138000050E8925016E000E8A21036E01C0E9FF5A
:10139000EA6EEF50200836E1060E8925F86F000E40
:1013A0008A21F96FFB6FF8C1FAF1000194EC03F0A8
:1013B00001C07EF101017E51000105E0010A0CE04F
:1013C000030A12E019D001017E6B0D0E7B6F0A0E2D
:1013D0007C6F7D6B7A6F16D0010E01017E6F0D0E52
:1013E0007B6F7C6B7A6F0ED0020E01017E6F0A0E4E
:1013F0007B6F7C6B7A6F06D0030E01017E6F7B6B77
:101400007A6B00D0000120D28AC1FBF189C1FAF1C8
:10141000010E0101FD6F990EFC6F050EFE6F0001BC
:1014200026EC03F0015210E1050E01018925F86F49
:10143000000E8A21F96FFB6FF8C1FAF1000194ECFC
:1014400003F001C07FF100D2010E01018925F86F80
:10145000000E8A21F96FFB6FF8C1FAF1010EFD6FE2
:10146000990EFC6F040EFE6F000126EC03F0015292
:1014700035E1050E01018925016E000E8A21036EFA
:1014800001C0E9FFEA6EEF520DE17FC1F8F11F0ED6
:10149000F96F000197EC04F00D0E9EA8FED7AD6E1B
:1014A0001BD00101050E8925016E000E8A21036EF5
:1014B00001C0E9FFEA6EEF5020080FE1060E892512
:1014C000F86F000E8A21F96FFB6FF8C1FAF1000185
:1014D00094EC03F001C07FF10101B5D18AC1FBF1A9
:1014E00089C1FAF1010E0101FD6FB00EFC6F070E0C
:1014F000FE6F000126EC03F0015210E1070E01011E
:101500008925F86F000E8A21F96FFB6FF8C1FAF197
:10151000000194EC03F001C081F196D18AC1FBF186
:1015200089C1FAF1010E0101FD6FB80EFC6F040EC6
:10153000FE6F000126EC03F001520DE1050E0101E2
:10154000F86F1F0EF96F000197EC04F00D0E9EA8C6
:10155000FED7AD6E79D18AC1FBF189C1FAF1010ED6
:101560000101FD6FAB0EFC6F040EFE6F000126EC57
:1015700003F001520CE1080E1F6E0201656B1F0E95
:10158000646F010E666F0001D5EC02F05DD18AC177
:10159000FBF189C1FAF1010E0101FD6FBD0EFC6F77
:1015A0000A0EFE6F000126EC03F0015210E10A0E54
:1015B00001018925F86F000E8A21F96FFB6FF8C1D0
:1015C000FAF1000194EC03F001C082F13DD18AC12F
:1015D000FBF189C1FAF1010E0101FD6FDE0EFC6F16
:1015E000060EFE6F000126EC03F001523DE1060EEF
:1015F00001018925016E000E8A21036E01C0E9FFF9
:10160000EA6EEF520DE182C1F8F11F0EF96F000191
:1016100097EC04F00D0E9EA8FED7AD6E24D001010C
:10162000060E8925016E000E8A21036E01C0E9FFB6
:10163000EA6EEF50200816E1070E8925F86F000EBC
:101640008A21F96FFB6FF8C1FAF1000194EC03F005
:1016500001C082F10101825305E0822D01D002D048
:10166000010E826F0001F0D08AC1FBF189C1FAF14D
:10167000010E0101FD6FC80EFC6F060EFE6F00012A
:1016800026EC03F0015208E1010E0101F96F00019F
:10169000F3EC01F0FF00D8D08AC1FBF189C1FAF167
:1016A000010E0101FD6FCF0EFC6F070EFE6F0001F2
:1016B00026EC03F0015210E1070E01018925F86FB5
:1016C000000E8A21F96FFB6FF8C1FAF1000194EC6A
:1016D00003F001C080F1B8D08AC1FBF189C1FAF1F1
:1016E000010E0101FD6FE50EFC6F050EFE6F00019E
:1016F00026EC03F0015248E13F0E1F6E01018853B2
:1017000010E10201656B1F0E646F010E666F000130
:10171000D5EC02F00152D8B402D0010102D0000E83
:1017200001D0010E0101886F200E77251F6E8853AE
:1017300010E10201656B1F0E646F010E666F000100
:10174000D5EC02F00152D8B402D0010102D0000E53
:1017500001D0010E0101886F040E1F6E885310E145
:101760000201656B1F0E646F010E666F0001D5EC00
:1017700002F00152D8B402D0010102D0000E01D013
:10178000010E0101886F5FD08AC1FBF189C1FAF1B6
:10179000010E0101FD6FEB0EFC6F0C0EFE6F0001E0
:1017A00026EC03F001523DE10C0E01018925016E8A
:1017B000000E8A21036E01C0E9FFEA6EEF520DE1CF
:1017C00083C1F8F11F0EF96F000197EC04F00D0EC4
:1017D0009EA8FED7AD6E24D001010C0E8925016EA6
:1017E000000E8A21036E01C0E9FFEA6EEF50200867
:1017F00016E10D0E8925F86F000E8A21F96FFB6F37
:10180000F8C1FAF1000194EC03F001C083F1010189
:10181000835305E0832D01D002D0010E836F0001B8
:1018200013D00101802D0FD0F86BF851000141EC6D
:1018300001F00101F82B006E00509EA8FED7AD6E9E
:10184000170EF85DF2E10001CFD001015F0E1F6EAF
:10185000885310E10201656B1F0E646F010E666F05
:101860000001D5EC02F00152D8B402D0010102D03F
:10187000000E01D0010E0101886F3F0E1F6E8853CC
:1018800010E10201656B1F0E646F010E666F0001AF
:10189000D5EC02F00152D8B402D0010102D0000E02
:1018A00001D0010E0101886F200E77251F6E88532D
:1018B00010E10201656B1F0E646F010E666F00017F
:1018C000D5EC02F00152D8B402D0010102D0000ED2
:1018D00001D0010E0101886F400E78251F6E8853DC
:1018E00010E10201656B1F0E646F010E666F00014F
:1018F000D5EC02F00152D8B402D0010102D0000EA2
:1019000001D0010E0101886F88530FE18AC1F9F1FE
:1019100089C1F8F1FA6B000125EC07F00152D8B447
:1019200002D0010102D0000E01D0010E0101886F2A
:101930007F530BE1010EF96F7B0EF86FFA6B00011C
:1019400025EC07F001C088F1010182534EE08AC105
:10195000F9F189C1F8F13F0EFA6F000132EF07F09B
:1019600002C0F9F101C0F8F10101F85302E1F953A5
:1019700021E088531FE1000173EC05F0015218E0EB
:101980000101802D0FD0F86BF851000117EC01F028
:101990000101F82B006E00509EA8FED7AD6E150E0B
:1019A000F85DF2E1010EF96F0001F3EC01F0FF00C8
:1019B0001BD00101885319E0886B802D0FD0F86B84
:1019C000F85100015AEC01F00101F82B006E0050B3
:1019D0009EA8FED7AD6E160EF85DF2E1010EF96F0E
:1019E0000001F3EC01F0FF00010100017CEF08F0C1
:0219F0000300F2
:020000040030CA
:0E00000000021E19008381000FC00FE00F40A8
:00000001FF
;PIC18F4520
