:020000040000FA
:040000003DEF07F0D9
:08000800056ED8CF06F0E0CF31
:1000100007F00001E9CF0DF0EACF08F0E1CF09F0D9
:10002000E2CF0AF0D9CF0BF0DACF0CF0F3CF14F017
:10003000F4CF15F0FACF16F000C00FF001C010F0A9
:1000400002C011F003C012F004C013F09DA22CEF07
:1000500000F09EB273EF01F09DAA32EF00F09EBA5D
:100060009BEF01F00FC000F010C001F011C002F0D2
:1000700012C003F013C004F00E8E0DC0E9FF08C0DB
:10008000EAFF09C0E1FF0AC0E2FF0BC0D9FF0CC0C4
:10009000DAFF14C0F3FF15C0F4FF16C0FAFF0550D5
:1000A00007C0E0FF06C0D8FF1000F2CF0EF0F29EAE
:1000B000F76AC40FF66E000EF7220900F5500EBE67
:1000C000F28E120054696D656F75743A205761693C
:1000D00074696E6720666F72204E44414320746FCE
:1000E00020676F206C6F77207768696C6520777266
:1000F0006974696E670A0000F2CF0EF0F29EF76A2B
:10010000120FF66E010EF7220900F5500EBEF28EA8
:10011000120054696D656F75743A2057616974698E
:100120006E6720666F72204E52464420746F2067BF
:100130006F2068696768207768696C6520777269E5
:1001400074696E670A00F2CF0EF0F29EF76A600FD4
:10015000F66E010EF7220900F5500EBEF28E120067
:1001600054696D656F75743A2057616974696E677B
:1001700020666F72204E44414320746F20676F20C9
:1001800068696768207768696C6520777269746947
:100190006E670A00F2CF0EF0F29EF76AAE0FF66EAF
:1001A000010EF7220900F5500EBEF28E12005469BE
:1001B0006D656F75743A2057616974696E67206662
:1001C0006F722044415620746F20676F206C6F77E8
:1001D000207768696C652072656164696E670A00E2
:1001E000F2CF0EF0F29EF76AFA0FF66E010EF722CA
:1001F0000900F5500EBEF28E120054696D656F75E0
:10020000743A2057616974696E6720666F72204482
:10021000415620746F20676F20686967682077688F
:10022000696C652072656164696E670A0000F2CFCF
:100230000EF0F29EF76A480FF66E020EF7220900E2
:10024000F5500EBEF28E1200526561642065727226
:100250006F72206F6363757265642E0A0D00F2CFB2
:100260000EF0F29EF76A780FF66E020EF722090082
:10027000F5500EBEF28E120074657374696E670AD3
:100280000D00F2CF0EF0F29EF76A9C0FF66E020E92
:10029000F7220900F5500EBEF28E1200556E7265FF
:1002A000636F676E697A656420636F6D6D616E64FC
:1002B0002E0A0D00F2CF0EF0F29EF76ACE0FF66E08
:1002C000020EF7220900F5500EBEF28E1200577290
:1002D000697465206572726F72206F6363757265F1
:1002E000642E0A0D00000101852F03D0882B6E0EAD
:1002F000856F9E92000132EF00F088C28AF287C2B9
:1003000089F28AC203F0020189C2E9FF8AC2EAFFC8
:10031000EF5206E0892BD8B48A2B0001F2D70201F4
:100320008751895D006E88518A59036E00C001F0C3
:10033000026E0001000C290E010176250201856F75
:10034000866BD8B0862B86C2EAFFE96EE906E92AF9
:100350009EAAFED7AECFEFFF0D0EEF5CF8E1EF6A7D
:10036000290E010176250201856F866BD8B0862B98
:1003700086C288F2876F0001C0DF01C086F2010EDD
:1003800002010124016E000E0220015001017627B6
:10039000763D01D0766B9E9A000132EF00F0959C7D
:1003A0008C9C959A8C9A959E8C8E95988C9893801F
:1003B0009382938493869388938A938C938E92925C
:1003C00089829284928692988998929A899A969034
:1003D0008D80928096928D82EFEF01F0E0D7929A15
:1003E000898A64EF08F0020EEA6E0B0EE96EEF5098
:1003F0000EE0050E016E006A002EFED7012EFBD71F
:10040000F90E006E002EFED70000EF2EF2D7000C82
:10041000959A8C8A02017C5302E0929289927B53D6
:100420000FE1186AF2BE188EF29E7AC288F279C283
:1004300087F2000162DF18BEF28E01C07BF202017A
:10044000959C8C8C929489849296898692887F6BF5
:100450007B517F5DD8B08FD0036A7F517925E96EDB
:100460007A510320EA6EEFCF7EF2928A0101886B07
:1004700086518825876F928A80AA1DD08851875D12
:100480001AE304008751885D15E3802D10D0020126
:10049000806B8051000109DE0201802B006E00504C
:1004A0009EA8FED7AD6E320E805DF3E10101010E14
:1004B000016E79D0E0D7FF0E02017E1B936A7EC2E7
:1004C0008AFF92880101886B86518825876F928800
:1004D00080B81DD08851875D1AE304008751885D7C
:1004E00015E3802D10D00201806B8051000104DEE5
:1004F0000201802B006E00509EA8FED7AD6E330E19
:10050000805DF3E10101010E016E4DD0E0D7010ED7
:1005100002017B5D7F5D04E17D5302E0929489944A
:10052000929689960101886B86518825876F928AF9
:1005300080BA1DD08851875D1AE304008751885D19
:1005400015E3802D10D00201806B80510001FBDD8E
:100550000201802B006E00509EA8FED7AD6E330EB8
:10056000805DF3E10101010E016E1DD0E0D792869E
:1005700002017F2B6DD7959C8C9C938093829384F2
:1005800093869388938A938C938E7C5301E0928216
:1005900092869284929A898A92988988959A8C9A5E
:1005A000000E016E01010001000C77C27AF276C2E2
:1005B00079F278C27BF2010E02017C6F7D6B000143
:1005C00027DF0150000C0AC278F196908D90C80E7A
:1005D00002010B6F000107DF968096928D92140E38
:1005E0001F6E0201776B1F0E766F010E786F000190
:1005F000DCDF015069EF08F0290E010175250201C9
:100600000A6F0B6BD8B00B2B290E01017525020167
:100610000C6F0D6BD8B00D2B186AF2BE188EF29EBF
:100620000DC288F2876F000168DE18BEF28E01C02D
:100630000DF2010E02010124016E000E0220015094
:1006400001017527753D01D0756B02010AC201F0E9
:10065000000195EF08F0020110533FE00CC2E9FFE2
:100660000DC2EAFFEFCF11F20FC203F00EC2E9FF95
:100670000FC2EAFFEF50115D17E00DC203F00CC28C
:10068000E9FF0DC2EAFFEFCF11F20FC203F00EC275
:10069000E9FF0FC2EAFFEF50115D02E2FF0E01D049
:1006A000010E016E1CD00BD00DC203F00CC2E9FF8D
:1006B0000DC2EAFFEF5203E1000E016E10D00DC231
:1006C00003F00C510C2BD8B40D2B0FC203F00E51BC
:1006D0000E2BD8B40F2B1007BFD7000E016E0001F0
:1006E000000C006A016A02011351D89014B100266F
:1006F0000032013214B300260032013214B5002654
:100700000032013214B700260032013214B900263B
:100710000032013214BB00260032013214BD002623
:100720000032013214BF002600320132000107EF0F
:1007300004F00201116B0F6B0A0E106F0E6B0C515F
:100740000D1103E1000E016EC3D01151112B036A8C
:100750000C25E96E0D510320EA6EEFCF12F2125113
:100760002D080DE1010E0F6F1151112B036A0C259D
:10077000E96E0D510320EA6EEFCF12F20DD0125147
:100780002B080AE11151112B036A0C25E96E0D515A
:100790000320EA6EEFCF12F212512F08D8B090D09A
:1007A00012513908D8A08CD01251300821E1036AC7
:1007B00011510C25E96E0D510320EA6EEF507808B7
:1007C0000AE0036A11510C25E96E0D510320EA6E0F
:1007D000EF5058080DE1100E106F112B1151112B15
:1007E000036A0C25E96E0D510320EA6EEFCF12F279
:1007F00010510A081DE112512F0819E2125139084F
:1008000016E30A0E136F0EC214F200016AD7300EFF
:100810000201125D01240E6F1151112B036A0C2588
:10082000E96E0D510320EA6EEFCF12F2E4D748D003
:100830001051100845E11251600806E212517A0881
:1008400003E31251DF0B01D01251126F12512F0826
:1008500003E21251390806E21251400831E2125106
:1008600046082EE312512F080CE21251390809E311
:100870000E39136FF00E1317300E125D13250E6F25
:1008800009D00E39136FF00E1317410E125D0A0FC7
:1008900013250E6F1151112B036A0C25E96E0D51B2
:1008A0000320EA6EEFCF12F21251600806E21251F5
:1008B0007A0803E31251DF0B01D01251126FC6D731
:1008C0000F2D04D010510A0801E10E6D0EC201F087
:1008D0000001000C02011151016A105D03E210C217
:1008E00000F00CD0006A080E126F1037003611515C
:1008F000005CD8B0006E0136122FF7D70001000C53
:10090000200E02010BA9300E0C6F0AC200F00AAFD4
:1009100007D0001E002A00C00AF22D0E0C6F0B8FAC
:1009200001500AC210F2640E116F0001D3DF00C043
:100930000AF2300E012402010D6F0AC210F20A0EF3
:10094000116F0001C7DF300E002402010F6F300E5F
:1009500001240E6F0CC200F00BA702D00BAF0B9559
:100960000BB90BD00BAF22D00BB520D000C00DF2CD
:100970000BB31CD000C00EF219D0300E0D5D16E185
:1009800000C00DF2200E0C6F0BA704D00B950B834B
:100990000BAF0B93300E0E5D09E100C00EF2200E7E
:1009A0000D6F0BA7F7D70B930BAF0B910BA504D0D3
:1009B0000C519EA8FED7AD6E0BA304D00D519EA87E
:1009C000FED7AD6E0BA104D00E519EA8FED7AD6E22
:1009D0000F519EA8FED7AD6E0001000C0201786B8E
:1009E00092988988929A899A92860101886B865199
:1009F0008825876F928680A61ED08851875D1BE36D
:100A000004008751885D16E3802D11D002017A6BB6
:100A10007A510001CAEC00F002017A2B006E0050FE
:100A20009EA8FED7AD6E310E7A5DF2E10101FF0E98
:100A3000016E40D0DFD792988998FF0E936E81CFD8
:100A400078F20201781B928A0101886B8651882511
:100A5000876F928680B61ED08851875D1BE30400A5
:100A60008751885D16E3802D11D002017A6B7A518F
:100A70000001F0EC00F002017A2B006E00509EA8FD
:100A8000FED7AD6E320E7A5DF2E10101FF0E016E0E
:100A900011D0DFD7929A899A92840201796B80B43F
:100AA000792B76C2E9FF77C2EAFF78C2EFFF79C2FD
:100AB00001F001010001000C0201706B716B726B9F
:100AC0007391020E756F0C0E746F5F0E1F6E725372
:100AD0000EE1776B1F0E766F010E786F000165DDFA
:100AE0000152D8B402D0020102D0000E01D0010E92
:100AF0000201726F3F0E1F6E72530EE1776B1F0E75
:100B0000766F010E786F000150DD0152D8B402D02B
:100B1000020102D0000E01D0010E0201726F725369
:100B200003E0010E016E75D1200E010178251F6EC4
:100B3000020172530EE1776B1F0E766F010E786F14
:100B4000000133DD0152D8B402D0020102D0000E00
:100B500001D0010E0201726F725303E0010E016EAB
:100B600058D1400E010177251F6E0201776B1F0ED1
:100B7000766F010E786F000118DD01C072F202017C
:100B8000725303E0010E016E44D1706B020E756F5B
:100B90000C0E746F01017F2D84D0020E0201776F5D
:100BA0000A0E766F00011ADF01C00BF202010B3D45
:100BB00003D0010E016E2DD101017E5312E07B5155
:100BC00002010A5D02E10B530AE0036A70510C0F47
:100BD000E96E020E0320EA6E0AC2EFFF702B22D0EC
:100BE00001017C5102010A5D13E10B5311E1010E79
:100BF000705D036A0C0FE96E020E0320EA6E0101BC
:100C00007B51EF5C03E10201700701010CD002018E
:100C1000036A70510C0FE96E020E0320EA6E0AC2DD
:100C2000EFFF702B01010201705164081BE1716B31
:100C30007151630811E375C203F074C2E9FF75C214
:100C4000EAFFEFCF76F276519EA8FED7AD6E742BF9
:100C5000D8B4752B712BECD7706B020E756F0C0E20
:100C6000746F04000B53D8B402D0010196D7716B96
:100C7000010181510201705D715D11E275C203F0E5
:100C800074C2E9FF75C2EAFFEFCF76F276519EA8F3
:100C9000FED7AD6E742BD8B4752B712BE9D782D0EB
:100CA0000101020E0201776F0A0E766F000196DED7
:100CB00001C00BF202010B3D03D0010E016EA9D061
:100CC00001017E5312E07B5102010A5D0BE0036AD1
:100CD00070510C0FE96E020E0320EA6E0AC2EFFF9C
:100CE000702B01D0738121D001017C5102010A5D7A
:100CF00012E1010E705D036A0C0FE96E020E032013
:100D0000EA6E01017B51EF5C04E10201700773811F
:100D100001010CD00201036A70510C0FE96E020E42
:100D20000320EA6E0AC2EFFF702B0101020170512D
:100D300064081BE1716B7151630811E375C203F024
:100D400074C2E9FF75C2EAFFEFCF76F276519EA832
:100D5000FED7AD6E742BD8B4752B712BECD7706B9E
:100D6000020E756F0C0E746F040073B102D0010196
:100D700098D77391716B010181510201705D715DB2
:100D800011E275C203F074C2E9FF75C2EAFFEFCF4A
:100D900076F276519EA8FED7AD6E742BD8B4752B23
:100DA000712BE9D70101832D04D084519EA8FED771
:100DB000AD6E0201726B5F0E1F6E72530FE1776BA7
:100DC0001F0E766F010E786F0001D5EC02F0015214
:100DD000D8B402D0020102D0000E01D0010E0201EF
:100DE000726F3F0E1F6E72530FE1776B1F0E766F9F
:100DF000010E786F0001D5EC02F00152D8B402D098
:100E0000020102D0000E01D0010E0201726F72C207
:100E100001F00001000C0BC27AF20AC279F20CC296
:100E20007BF202017C6B0DC27DF2000108EC02F046
:100E30000150000C0BC203F002010AC2E9FF0BC211
:100E4000EAFF0C51EF5C12E00BC203F00AC2E9FFAB
:100E50000BC2EAFFEF5204E1000E016E026E0AD0EF
:100E60000A2BD8B40B2B0001E5D702010AC201F00E
:100E70000BC202F000016DEF0DF0F86AD09E0D8EEE
:100E8000EA6AE96AB886090EAF6E000EB06EA60E69
:100E9000AC6E900EAB6EC150C00B0F09C16E070E49
:100EA000B46E196A1A6A0101756B766B796B0A0E5A
:100EB0007A6F7B6B7C6B7D6B030E7E6F010E7F6F99
:100EC000806B816B826F836F0D0E846F886B896B73
:100ED0008B6B290E8A6F2B0E8C6F610E8D6F3A0E05
:100EE0008E6F8F6B2B0E906F740E916F3A0E926F08
:100EF000936B2B0E946F650E956F6F0E966F730E3E
:100F0000976F3A0E986F996B2B0E9A6F650E9B6FC9
:100F10006F0E9C6F690E9D6F3A0E9E6F9F6B2B0E2E
:100F2000A06F740EA16F650EA26F730EA36F740E87
:100F3000A46FA56B2B0EA66F720EA76F650EA86F20
:100F4000610EA96F640EAA6FAB6B2B0EAC6F670EB0
:100F5000AD6F650EAE6F740EAF6FB06B2B0EB16FD1
:100F6000730EB26F740EB36F720EB46F690EB56FFD
:100F7000700EB66F3A0EB76FB86B2B0EB96F760E58
:100F8000BA6F650EBB6F720EBC6FBD6B2B0EBE6F62
:100F9000610EBF6F750EC06F740EC16F6F0EC26FA2
:100FA000720EC36F650EC46F610EC56F640EC66F9F
:100FB0003A0EC76FC86B2B0EC96F720ECA6F650EE3
:100FC000CB6F730ECC6F650ECD6F740ECE6FCF6B83
:100FD0002B0ED06F640ED16F650ED26F620ED36F81
:100FE000750ED46F670ED56F3A0ED66FD76B2B0E7A
:100FF000D86FD96F610EDA6F640EDB6FDC6F720E23
:10100000DD6FDE6B2B0EDF6FE06F610EE16F750E33
:10101000E26F740EE36F6F0EE46FE56B2B0EE66FFD
:10102000E76F630EE86F6C0EE96F720EEA6FEB6BA1
:101030002B0EEC6FED6F650EEE6F6F0EEF6F740E93
:10104000F06F5F0EF16F650EF26F6E0EF36F610E53
:10105000F46F620EF56F6C0EF66F650EF76FF86B3E
:101060002B0EF96FFA6F650EFB6F6F0EFC6F740E2F
:10107000FD6F5F0EFE6F630EFF6F680E0201006F63
:10108000610E016F720E026F036B2B0E046F056F02
:10109000690E066F660E076F630E086F096B949AF0
:1010A0008B8AD1806E0E0101856FD76AD66A480E91
:1010B0000609CA6EFA0ECB6E9D82C00EF212050EA4
:1010C000866F0001EEEF01F002010A6B0001E3EF11
:1010D00002F001C089F10101892D01D0FF00949A2D
:1010E0008B9A0400640E02010B6F0001F3EC01F017
:1010F0000400949A8B8A0400640E02010B6F0001B5
:10110000F3EC01F004009D8A0400949A8B9A040089
:1011100001017551765DD8B4BAEF0DF08BC10BF2B9
:101120008AC10AF20001FCEF02F0036A01C08AF1F1
:10113000010103C08BF18BC103F08AC1E9FF8BC1B0
:10114000EAFFEF502B08D8A4C3EF0CF08BC10DF2CF
:101150008AC10CF2010E02010F6F8C0E0E6F030E8E
:10116000106F00012BEC03F0015214E1030E01019A
:101170008A2502010A6F000E01018B2102010B6F0B
:101180000D6F0AC20CF2000199EC03F001C077F177
:10119000C1EF0CF08BC10DF28AC10CF2010E0201FD
:1011A0000F6FD80E0E6F060E106F00012BEC03F0C0
:1011B00001523AE1060E01018A25016E000E8B21D3
:1011C000036E01C0E9FFEA6EEF520EE177C10AF249
:1011D0001F0E02010B6F000180EC04F00D0E9EA8A3
:1011E000FED7AD6E1ED00101060E8A25016E000EDF
:1011F0008B21036E01C0E9FFEA6EEF50200812E177
:10120000070E8A2502010A6F000E01018B210201DF
:101210000B6F0D6F0AC20CF2000199EC03F001C0D4
:1012200077F10101C0EF0CF08BC10DF28AC10CF215
:10123000010E02010F6FA60E0E6F050E106F00015A
:101240002BEC03F001521EE137DC01521AE00101E0
:10125000802D10D002010A6B0A51000117EC01F039
:1012600002010A2B006E00509EA8FED7AD6E150E2F
:101270000A5DF2E1010E02010B6F0001F3EC01F0D7
:10128000FF007FD38BC10DF28AC10CF2010E020167
:101290000F6FA00E0E6F050E106F00012BEC03F008
:1012A000015211E102010A6B0A5100012FEC01F019
:1012B00002010A2B006E00509EA8FED7AD6E090EEB
:1012C0000A5DF2E15CD38BC10DF28AC10CF2010E12
:1012D00002010F6F900E0E6F030E106F00012BECCA
:1012E00003F0015213E1030E01018A2502010A6F86
:1012F000000E01018B2102010B6F0D6F0AC20CF26F
:10130000000199EC03F001C086F13BD38BC10DF2D3
:101310008AC10CF2010E02010F6F940E0E6F050EC2
:10132000106F00012BEC03F0015219E1050E0101D1
:101330008A2502010A6F000E01018B2102010B6F49
:101340000D6F0AC20CF2000199EC03F001C07AF1B2
:101350007AC17BF101017C6B040E7E6F11D3010E0B
:1013600001018A2502010A6F000E01018B21020191
:101370000B6F0D6F0AC20CF2010E0F6F940E0E6F01
:10138000040E106F00012BEC03F0015261E1050E19
:1013900001018A25016E000E8B21036E01C0E9FF59
:1013A000EA6EEF520EE17EC10AF21F0E02010B6FD0
:1013B000000180EC04F00D0E9EA8FED7AD6E47D064
:1013C0000101050E8A25016E000E8B21036E01C0FE
:1013D000E9FFEA6EEF50200839E1060E8A25020186
:1013E0000A6F000E01018B2102010B6F0D6F0AC203
:1013F0000CF2000199EC03F001C07EF101017E5175
:10140000000105E0010A0CE0030A12E019D0010115
:101410007E6B0D0E7B6F0A0E7C6F7D6B7A6F16D024
:10142000010E01017E6F0D0E7B6F7C6B7A6F0ED00B
:10143000020E01017E6F0A0E7B6F7C6B7A6F06D005
:10144000030E01017E6F7B6B7A6B00D0000199D295
:101450008BC10DF28AC10CF2010E02010F6F9A0EC0
:101460000E6F050E106F00012BEC03F0015213E11B
:10147000050E01018A2502010A6F000E01018B2170
:1014800002010B6F0D6F0AC20CF2000199EC03F020
:1014900001C07FF176D2010E01018A2502010A6F97
:1014A000000E01018B2102010B6F0D6F0AC20CF2BD
:1014B000010E0F6F9A0E0E6F040E106F00012BECD1
:1014C00003F0015239E1050E01018A25016E000E7B
:1014D0008B21036E01C0E9FFEA6EEF520EE17FC17E
:1014E0000AF21F0E02010B6F000180EC04F00D0EDA
:1014F0009EA8FED7AD6E1ED00101050E8A25016E95
:10150000000E8B21036E01C0E9FFEA6EEF50200848
:1015100012E1060E8A2502010A6F000E01018B21DD
:1015200002010B6F0D6F0AC20CF2000199EC03F07F
:1015300001C07FF1010124D28BC10DF28AC10CF2EE
:10154000010E02010F6FB10E0E6F070E106F00013A
:101550002BEC03F0015213E1070E01018A25020171
:101560000A6F000E01018B2102010B6F0D6F0AC281
:101570000CF2000199EC03F001C081F102D28BC1A1
:101580000DF28AC10CF2010E02010F6FB90E0E6F3F
:10159000040E106F00012BEC03F001520DE1050E5B
:1015A00002010A6F1F0E0B6F000180EC04F00D0E9C
:1015B0009EA8FED7AD6EE5D18BC10DF28AC10CF2AB
:1015C000010E02010F6FAC0E0E6F040E106F0001C2
:1015D0002BEC03F001520CE1080E1F6E0201776B39
:1015E0001F0E766F010E786F0001D5EC02F0C9D1A5
:1015F0008BC10DF28AC10CF2010E02010F6FBE0EFB
:101600000E6F0A0E106F00012BEC03F0015213E174
:101610000A0E01018A2502010A6F000E01018B21C9
:1016200002010B6F0D6F0AC20CF2000199EC03F07E
:1016300001C082F1A6D18BC10DF28AC10CF2010E5C
:1016400002010F6FDF0E0E6F060E106F00012BEC04
:1016500003F0015241E1060E01018A25016E000EE0
:101660008B21036E01C0E9FFEA6EEF520EE182C1E9
:101670000AF21F0E02010B6F000180EC04F00D0E48
:101680009EA8FED7AD6E27D00101060E8A25016EF9
:10169000000E8B21036E01C0E9FFEA6EEF502008B7
:1016A00019E1070E8A2502010A6F000E01018B2144
:1016B00002010B6F0D6F0AC20CF2000199EC03F0EE
:1016C00001C082F10101825305E0822D01D002D0D8
:1016D000010E826F000155D18BC10DF28AC10CF24F
:1016E000010E02010F6FC90E0E6F060E106F000182
:1016F0002BEC03F0015208E1010E02010B6F000117
:10170000F3EC01F0FF003DD18BC10DF28AC10CF268
:10171000010E02010F6FD00E0E6F070E106F000149
:101720002BEC03F0015213E1070E01018A2502019F
:101730000A6F000E01018B2102010B6F0D6F0AC2AF
:101740000CF2000199EC03F001C080F11AD18BC1B9
:101750000DF28AC10CF2010E02010F6FE60E0E6F40
:10176000050E106F00012BEC03F0015248E13F0E13
:101770001F6E0101895310E10201776B1F0E766F16
:10178000010E786F0001D5EC02F00152D8B402D0FE
:10179000010102D0000E01D0010E0101896F200E5F
:1017A00077251F6E895310E10201776B1F0E766F4C
:1017B000010E786F0001D5EC02F00152D8B402D0CE
:1017C000010102D0000E01D0010E0101896F040E4B
:1017D0001F6E895310E10201776B1F0E766F010EA9
:1017E000786F0001D5EC02F00152D8B402D00101AB
:1017F00002D0000E01D0010E0101896FC1D08BC152
:101800000DF28AC10CF2010E02010F6FEC0E0E6F89
:101810000C0E106F00012BEC03F0015241E10C0E95
:1018200001018A25016E000E8B21036E01C0E9FFC4
:10183000EA6EEF520EE183C10AF21F0E02010B6F36
:10184000000180EC04F00D0E9EA8FED7AD6E27D0EF
:1018500001010C0E8A25016E000E8B21036E01C062
:10186000E9FFEA6EEF50200819E10D0E8A2502010A
:101870000A6F000E01018B2102010B6F0D6F0AC26E
:101880000CF2000199EC03F001C083F101018353D4
:1018900005E0832D01D002D0010E836F000171D0CD
:1018A0008BC10DF28AC10CF2010E02010F6FF90E0D
:1018B0000E6F0A0E106F00012BEC03F0015234E1A1
:1018C0000A0E01018A25016E000E8B21036E01C0F4
:1018D000E9FFEA6EEF5209E184519EA8FED7AD6E92
:1018E0000D0E9EA8FED7AD6E1ED00A0E8A25016E83
:1018F000000E8B21036E01C0E9FFEA6EEF50200855
:1019000012E10B0E8A2502010A6F000E01018B21E4
:1019100002010B6F0D6F0AC20CF2000199EC03F08B
:1019200001C084F101012CD08BC10DF28AC10CF2EF
:10193000020E02010F6F040E0E6F050E106F0001F4
:101940002BEC03F0015208E196908D90E60E006EAC
:10195000002EFED7968015D00101802D11D00201F6
:101960000A6B0A51000141EC01F002010A2B006EE2
:1019700000509EA8FED7AD6E170E0A5DF2E1010180
:101980000001F7D001015F0E1F6E895310E10201C3
:10199000776B1F0E766F010E786F0001D5EC02F0A9
:1019A0000152D8B402D0010102D0000E01D0010EC4
:1019B0000101896F3F0E1F6E895310E10201776BA1
:1019C0001F0E766F010E786F0001D5EC02F0015208
:1019D000D8B402D0010102D0000E01D0010E0101E5
:1019E000896F200E77251F6E895310E10201776BF6
:1019F0001F0E766F010E786F0001D5EC02F00152D8
:101A0000D8B402D0010102D0000E01D0010E0101B4
:101A1000896F400E78251F6E895310E10201776BA4
:101A20001F0E766F010E786F0001D5EC02F00152A7
:101A3000D8B402D0010102D0000E01D0010E010184
:101A4000896F7E51030825E0895311E18BC10BF2A8
:101A50008AC10AF202010C6B0D6B00010BEC07F05E
:101A60000152D8B402D0010102D0000E01D0010E03
:101A70000101896F010E02010B6F7B0E0A6F0C6B67
:101A80007FC10DF200010BEC07F001C089F118D005
:101A90000101895312E18BC10BF28AC10AF20201E2
:101AA0000C6B010E0D6F00010BEC07F00152D8B466
:101AB00002D0010102D0000E01D0010E0101896F98
:101AC0000101825357E08BC10BF28AC10AF23F0E2B
:101AD00002010C6F00011AEF07F002C00BF201C007
:101AE0000AF202010A5302E10B5326E00101895375
:101AF000D8B402D0020120D000015CEC05F0015204
:101B00001AE00101802D10D002010A6B0A51000178
:101B100017EC01F002010A2B006E00509EA8FED7C0
:101B2000AD6E150E0A5DF2E1010E02010B6F0001B0
:101B3000F3EC01F0FF001DD0010189531BE0896B1C
:101B4000802D10D002010A6B0A5100015AEC01F0FD
:101B500002010A2B006E00509EA8FED7AD6E160E35
:101B60000A5DF2E1010E02010B6F0001F3EC01F0DE
:0C1B7000FF000101000187EF08F00300F6
:020000040030CA
:0E00000000021E19008381000FC00FE00F40A8
:00000001FF
;PIC18F4520
