:020000040000FA
:0400000088EF07F08E
:08000800056ED8CF06F0E0CF31
:1000100007F00001E9CF0DF0EACF08F0E1CF09F0D9
:10002000E2CF0AF0D9CF0BF0DACF0CF0F3CF14F017
:10003000F4CF15F0FACF16F000C00FF001C010F0A9
:1000400002C011F003C012F004C013F09DA22CEF07
:1000500000F09EB273EF01F09DAA32EF00F09EBA5D
:100060009BEF01F00FC000F010C001F011C002F0D2
:1000700012C003F013C004F00E8E0DC0E9FF08C0DB
:10008000EAFF09C0E1FF0AC0E2FF0BC0D9FF0CC0C4
:10009000DAFF14C0F3FF15C0F4FF16C0FAFF0550D5
:1000A00007C0E0FF06C0D8FF1000F2CF0EF0F29EAE
:1000B000F76AC40FF66E000EF7220900F5500EBE67
:1000C000F28E120054696D656F75743A205761693C
:1000D00074696E6720666F72204E44414320746FCE
:1000E00020676F206C6F77207768696C6520777266
:1000F0006974696E670A0000F2CF0EF0F29EF76A2B
:10010000120FF66E010EF7220900F5500EBEF28EA8
:10011000120054696D656F75743A2057616974698E
:100120006E6720666F72204E52464420746F2067BF
:100130006F2068696768207768696C6520777269E5
:1001400074696E670A00F2CF0EF0F29EF76A600FD4
:10015000F66E010EF7220900F5500EBEF28E120067
:1001600054696D656F75743A2057616974696E677B
:1001700020666F72204E44414320746F20676F20C9
:1001800068696768207768696C6520777269746947
:100190006E670A00F2CF0EF0F29EF76AAE0FF66EAF
:1001A000010EF7220900F5500EBEF28E12005469BE
:1001B0006D656F75743A2057616974696E67206662
:1001C0006F722044415620746F20676F206C6F77E8
:1001D000207768696C652072656164696E670A00E2
:1001E000F2CF0EF0F29EF76AFA0FF66E010EF722CA
:1001F0000900F5500EBEF28E120054696D656F75E0
:10020000743A2057616974696E6720666F72204482
:10021000415620746F20676F20686967682077688F
:10022000696C652072656164696E670A0000F2CFCF
:100230000EF0F29EF76A480FF66E020EF7220900E2
:10024000F5500EBEF28E1200526561642065727226
:100250006F72206F6363757265642E0A0D00F2CFB2
:100260000EF0F29EF76A780FF66E020EF722090082
:10027000F5500EBEF28E120074657374696E670AD3
:100280000D00F2CF0EF0F29EF76A9C0FF66E020E92
:10029000F7220900F5500EBEF28E1200556E7265FF
:1002A000636F676E697A656420636F6D6D616E64FC
:1002B0002E0A0D00F2CF0EF0F29EF76ACE0FF66E08
:1002C000020EF7220900F5500EBEF28E1200577290
:1002D000697465206572726F72206F6363757265F1
:1002E000642E0A0D00000101852F03D0882B6E0EAD
:1002F000856F9E92000132EF00F08EC290F28DC2A7
:100300008FF290C203F002018FC2E9FF90C2EAFFB0
:10031000EF5206E08F2BD8B4902B0001F2D70201E8
:100320008D518F5D006E8E519059036E00C001F0AB
:10033000026E0001000C290E0101762502018B6F6F
:100340008C6BD8B08C2B8CC2EAFFE96EE906E92AE7
:100350009EAAFED7AECFEFFF0D0EEF5CF8E1EF6A7D
:10036000290E0101762502018B6F8C6BD8B08C2B86
:100370008CC28EF28D6F0001C0DF01C08CF2010EC5
:1003800002010124016E000E0220015001017627B6
:10039000763D01D0766B9E9A000132EF00F0959C7D
:1003A0008C9C959A8C9A959E8C8E95988C9893801F
:1003B0009382938493869388938A938C938E92925C
:1003C00089829284928692988998929A899A969034
:1003D0008D80928096928D82EFEF01F0E0D7929A15
:1003E000898AB8EF08F0020EEA6E110EE96EEF503E
:1003F0000EE0050E016E006A002EFED7012EFBD71F
:10040000F90E006E002EFED70000EF2EF2D7000C82
:10041000959A8C8A0201825302E0929289928153CA
:100420000FE1186AF2BE188EF29E80C28EF27FC271
:100430008DF2000162DF18BEF28E01C081F202016E
:10044000959C8C8C92948984929689869288856BEF
:100450008151855DD8B08FD0036A85517F25E96EC3
:1004600080510320EA6EEFCF84F2928A0101886BFB
:1004700086518825876F928A80AA1DD08851875D12
:100480001AE304008751885D15E3802D10D0020126
:10049000866B8651000109DE0201862B006E00503A
:1004A0009EA8FED7AD6E320E865DF3E10101010E0E
:1004B000016E79D0E0D7FF0E0201841B936A84C2DB
:1004C0008AFF92880101886B86518825876F928800
:1004D00080B81DD08851875D1AE304008751885D7C
:1004E00015E3802D10D00201866B8651000104DED9
:1004F0000201862B006E00509EA8FED7AD6E330E13
:10050000865DF3E10101010E016E4DD0E0D7010ED1
:100510000201815D855D04E1835302E09294899438
:10052000929689960101886B86518825876F928AF9
:1005300080BA1DD08851875D1AE304008751885D19
:1005400015E3802D10D00201866B86510001FBDD82
:100550000201862B006E00509EA8FED7AD6E330EB2
:10056000865DF3E10101010E016E1DD0E0D7928698
:100570000201852B6DD7959C8C9C938093829384EC
:1005800093869388938A938C938E825301E0928210
:1005900092869284929A898A92988988959A8C9A5E
:1005A000000E016E01010001000C7DC280F27CC2D0
:1005B0007FF27EC281F2010E0201826F836B000125
:1005C00027DF0150000C10C278F196908D90C80E74
:1005D0000201116F000107DF968096928D92140E32
:1005E0001F6E02017D6B1F0E7C6F010E7E6F00017E
:1005F000DCDF0150BDEF08F0290E01017525020175
:10060000106F116BD8B0112B290E01017525020155
:10061000126F136BD8B0132B186AF2BE188EF29EAD
:1006200013C28EF28D6F000168DE18BEF28E01C01B
:1006300013F2010E02010124016E000E022001508E
:1006400001017527753D01D0756B020110C201F0E3
:100650000001E9EF08F0020116533FE012C2E9FF82
:1006600013C2EAFFEFCF17F215C203F014C2E9FF7D
:1006700015C2EAFFEF50175D17E013C203F012C274
:10068000E9FF13C2EAFFEFCF17F215C203F014C25D
:10069000E9FF15C2EAFFEF50175D02E2FF0E01D03D
:1006A000010E016E1CD00BD013C203F012C2E9FF81
:1006B00013C2EAFFEF5203E1000E016E10D013C225
:1006C00003F01251122BD8B4132B15C203F014519E
:1006D000142BD8B4152B1607BFD7000E016E0001DE
:1006E000000C006A016A02011951D8901AB1002663
:1006F000003201321AB30026003201321AB5002648
:10070000003201321AB70026003201321AB900262F
:10071000003201321ABB0026003201321ABD002617
:10072000003201321ABF002600320132000107EF09
:1007300004F00201176B156B0A0E166F146B125141
:10074000131103E1000E016EC3D01751172B036A7A
:100750001225E96E13510320EA6EEFCF18F21851FB
:100760002D080DE1010E156F1751172B036A122585
:10077000E96E13510320EA6EEFCF18F20DD0185135
:100780002B080AE11751172B036A1225E96E135142
:100790000320EA6EEFCF18F218512F08D8B090D08E
:1007A00018513908D8A08CD01851300821E1036ABB
:1007B00017511225E96E13510320EA6EEF507808A5
:1007C0000AE0036A17511225E96E13510320EA6EFD
:1007D000EF5058080DE1100E166F172B1751172BFD
:1007E000036A1225E96E13510320EA6EEFCF18F267
:1007F00016510A081DE118512F0819E2185139083D
:1008000016E30A0E196F14C21AF200016AD7300EED
:100810000201185D0124146F1751172B036A12256A
:10082000E96E13510320EA6EEFCF18F2E4D748D0F7
:100830001651100845E11851600806E218517A086F
:1008400003E31851DF0B01D01851186F18512F080E
:1008500003E21851390806E21851400831E21851F4
:1008600046082EE318512F080CE21851390809E305
:100870001439196FF00E1917300E185D1925146F01
:1008800009D01439196FF00E1917410E185D0A0FAF
:100890001925146F1751172B036A1225E96E13518E
:1008A0000320EA6EEFCF18F21851600806E21851E3
:1008B0007A0803E31851DF0B01D01851186FC6D71F
:1008C000152D04D016510A0801E1146D14C201F06F
:1008D0000001000C02011751016A165D03E216C205
:1008E00000F00CD0006A080E186F1637003617514A
:1008F000005CD8B0006E0136182FF7D70001000C4D
:10090000200E020111A9300E126F10C200F010AFBC
:1009100007D0001E002A00C010F22D0E126F118F9A
:10092000015010C216F2640E176F0001D3DF00C031
:1009300010F2300E01240201136F10C216F20A0EDB
:10094000176F0001C7DF300E00240201156F300E53
:100950000124146F12C200F011A702D011AF11953B
:1009600011B90BD011AF22D011B520D000C013F2B5
:1009700011B31CD000C014F219D0300E135D16E173
:1009800000C013F2200E126F11A704D0119511832D
:1009900011AF1193300E145D09E100C014F2200E66
:1009A000136F11A7F7D7119311AF119111A504D0AF
:1009B00012519EA8FED7AD6E11A304D013519EA86C
:1009C000FED7AD6E11A104D014519EA8FED7AD6E16
:1009D00015519EA8FED7AD6E0001000C02017E6B82
:1009E00092988988929A899A92860101886B865199
:1009F0008825876F928680A61ED08851875D1BE36D
:100A000004008751885D16E3802D11D00201806BB0
:100A100080510001CAEC00F00201802B006E0050F2
:100A20009EA8FED7AD6E310E805DF2E10101FF0E92
:100A3000016E40D0DFD792988998FF0E936E81CFD8
:100A40007EF202017E1B928A0101886B8651882505
:100A5000876F928680B61ED08851875D1BE30400A5
:100A60008751885D16E3802D11D00201806B805183
:100A70000001F0EC00F00201802B006E00509EA8F7
:100A8000FED7AD6E320E805DF2E10101FF0E016E08
:100A900011D0DFD7929A899A928402017F6B80B439
:100AA0007F2B7CC2E9FF7DC2EAFF7EC2EFFF7FC2DF
:100AB00001F001010001000C0201766B776B786B8D
:100AC0007991020E7B6F120E7A6F5F0E1F6E785354
:100AD0000EE17D6B1F0E7C6F010E7E6F000165DDE8
:100AE0000152D8B402D0020102D0000E01D0010E92
:100AF0000201786F3F0E1F6E78530EE17D6B1F0E63
:100B00007C6F010E7E6F000150DD0152D8B402D01F
:100B1000020102D0000E01D0010E0201786F78535D
:100B200003E0010E016E75D1200E010178251F6EC4
:100B3000020178530EE17D6B1F0E7C6F010E7E6FFC
:100B4000000133DD0152D8B402D0020102D0000E00
:100B500001D0010E0201786F785303E0010E016E9F
:100B600058D1400E010177251F6E02017D6B1F0ECB
:100B70007C6F010E7E6F000118DD01C078F202016A
:100B8000785303E0010E016E44D1766B020E7B6F49
:100B9000120E7A6F01017F2D84D0020E02017D6F4B
:100BA000100E7C6F00011ADF01C011F20201113D2D
:100BB00003D0010E016E2DD101017E5312E07B5155
:100BC0000201105D02E111530AE0036A7651120F2F
:100BD000E96E020E0320EA6E10C2EFFF762B22D0E0
:100BE00001017C510201105D13E1115311E1010E6D
:100BF000765D036A120FE96E020E0320EA6E0101B0
:100C00007B51EF5C03E10201760701010CD0020188
:100C1000036A7651120FE96E020E0320EA6E10C2CB
:100C2000EFFF762B01010201765164081BE1776B1F
:100C30007751630811E37BC203F07AC2E9FF7BC2FC
:100C4000EAFFEFCF7CF27C519EA8FED7AD6E7A2BE7
:100C5000D8B47B2B772BECD7766B020E7B6F120E02
:100C60007A6F04001153D8B402D0010196D7776B84
:100C7000010181510201765D775D11E27BC203F0D3
:100C80007AC2E9FF7BC2EAFFEFCF7CF27C519EA8DB
:100C9000FED7AD6E7A2BD8B47B2B772BE9D782D0D9
:100CA0000101020E02017D6F100E7C6F000196DEC5
:100CB00001C011F20201113D03D0010E016EA9D055
:100CC00001017E5312E07B510201105D0BE0036ACB
:100CD0007651120FE96E020E0320EA6E10C2EFFF8A
:100CE000762B01D0798121D001017C510201105D68
:100CF00012E1010E765D036A120FE96E020E032007
:100D0000EA6E01017B51EF5C04E102017607798113
:100D100001010CD00201036A7651120FE96E020E36
:100D20000320EA6E10C2EFFF762B0101020176511B
:100D300064081BE1776B7751630811E37BC203F012
:100D40007AC2E9FF7BC2EAFFEFCF7CF27C519EA81A
:100D5000FED7AD6E7A2BD8B47B2B772BECD7766B86
:100D6000020E7B6F120E7A6F040079B102D001017E
:100D700098D77991776B010181510201765D775D9A
:100D800011E27BC203F07AC2E9FF7BC2EAFFEFCF38
:100D90007CF27C519EA8FED7AD6E7A2BD8B47B2B0B
:100DA000772BE9D70101832D04D084519EA8FED76B
:100DB000AD6E0201786B5F0E1F6E78530FE17D6B95
:100DC0001F0E7C6F010E7E6F0001D5EC02F0015208
:100DD000D8B402D0020102D0000E01D0010E0201EF
:100DE000786F3F0E1F6E78530FE17D6B1F0E7C6F87
:100DF000010E7E6F0001D5EC02F00152D8B402D092
:100E0000020102D0000E01D0010E0201786F78C2FB
:100E100001F00001000C0201106B5F0E1F6E1053F9
:100E20000FE17D6B1F0E7C6F010E7E6F0001D5EC14
:100E300002F00152D8B402D0020102D0000E01D05B
:100E4000010E0201106F3F0E1F6E10530FE17D6BFC
:100E50001F0E7C6F010E7E6F0001D5EC02F0015277
:100E6000D8B402D0020102D0000E01D0010E02015E
:100E7000106F200E010177251F6E020110530FE144
:100E80007D6B1F0E7C6F010E7E6F0001D5EC02F0B2
:100E90000152D8B402D0020102D0000E01D0010EDE
:100EA0000201106F10C201F00001000C11C280F2AB
:100EB00010C27FF212C281F20201826B13C283F26E
:100EC000000108EC02F00150000C11C203F0020115
:100ED00010C2E9FF11C2EAFF1251EF5C12E011C229
:100EE00003F010C2E9FF11C2EAFFEF5204E1000E65
:100EF000016E026E0AD0102BD8B4112B0001E5D779
:100F0000020110C201F011C202F00001AAEF0DF0BF
:100F1000F86AD09E0D8EEA6AE96AB886090EAF6E4D
:100F2000000EB06EA60EAC6E900EAB6EC150C00B34
:100F30000F09C16E070EB46E196A1A6A0101756B4A
:100F4000766B796B0A0E7A6F7B6B7C6B7D6B030E15
:100F50007E6F010E7F6F806B816B826F836F0D0ED2
:100F6000846F886B896B8B6B290E8A6F2B0E8C6F4D
:100F7000610E8D6F3A0E8E6F8F6B2B0E906F740E0D
:100F8000916F3A0E926F936B2B0E946F650E956F67
:100F90006F0E966F730E976F3A0E986F996B2B0EBC
:100FA0009A6F650E9B6F6F0E9C6F690E9D6F3A0E68
:100FB0009E6F9F6B2B0EA06F740EA16F650EA26FBC
:100FC000730EA36F740EA46FA56B2B0EA66F720E1B
:100FD000A76F650EA86F610EA96F640EAA6FAB6B49
:100FE0002B0EAC6F670EAD6F650EAE6F740EAF6FEC
:100FF000B06B2B0EB16F730EB26F740EB36F720EB7
:10100000B46F690EB56F700EB66F3A0EB76FB86BEE
:101010002B0EB96F760EBA6F650EBB6F720EBC6F7A
:10102000BD6B2B0EBE6F610EBF6F750EC06F740E61
:10103000C16F6F0EC26F720EC36F650EC46F610E0B
:10104000C56F640EC66F3A0EC76FC86B2B0EC96FA3
:10105000720ECA6F650ECB6F730ECC6F650ECD6FBF
:10106000740ECE6FCF6B2B0ED06F640ED16F650EEA
:10107000D26F620ED36F750ED46F670ED56F3A0EB6
:10108000D66FD76B2B0ED86FD96F610EDA6F640EE7
:10109000DB6FDC6F720EDD6FDE6B2B0EDF6FE06FD0
:1010A000610EE16F750EE26F740EE36F6F0EE46F09
:1010B000E56B2B0EE66FE76F630EE86F6C0EE96F62
:1010C000720EEA6FEB6B2B0EEC6FED6F650EEE6F31
:1010D0006F0EEF6F740EF06F5F0EF16F650EF26FB3
:1010E0006E0EF36F610EF46F620EF56F6C0EF66F9D
:1010F000650EF76FF86B2B0EF96FFA6F650EFB6FCD
:101100006F0EFC6F740EFD6F5F0EFE6F630EFF6F50
:10111000680E0201006F610E016F720E026F036BA9
:101120002B0E046F056F690E066F660E076F630E58
:10113000086F096B2B0E0A6F0B6F6C0E0C6F0D6F27
:101140006F0E0E6F0F6B949A8B8AD1806E0E010119
:10115000856FD76AD66A480E0609CA6EFA0ECB6E3C
:101160009D82C00EF212050E866F0001EEEF01F0B7
:101170000201106B0001E3EF02F001C089F10101EF
:10118000892D01D0FF00949A8B9A0400640E02010D
:10119000116F0001F3EC01F00400949A8B8A0400B3
:1011A000640E0201116F0001F3EC01F004009D8A4E
:1011B0000400949A8B9A040001017551765DD8B4AD
:1011C000F7EF0DF08BC111F28AC110F20001FCEFB4
:1011D00002F0036A01C08AF1010103C08BF18BC1E7
:1011E00003F08AC1E9FF8BC1EAFFEF502B08D8A4B6
:1011F00037EF0DF08BC113F28AC112F2010E02011A
:10120000156F8C0E146F030E166F00012BEC03F09C
:10121000015214E1030E01018A250201106F000E34
:1012200001018B210201116F136F10C212F2000134
:1012300099EC03F001C077F135EF0DF08BC113F29B
:101240008AC112F2010E0201156FD80E146F060E3C
:10125000166F00012BEC03F001523AE1060E01017A
:101260008A25016E000E8B21036E01C0E9FFEA6E34
:10127000EF520EE177C110F21F0E0201116F000153
:1012800080EC04F00D0E9EA8FED7AD6E1ED00101BD
:10129000060E8A25016E000E8B21036E01C0E9FF48
:1012A000EA6EEF50200812E1070E8A250201106F46
:1012B000000E01018B210201116F136F10C212F297
:1012C000000199EC03F001C077F1010134EF0DF05A
:1012D0008BC113F28AC112F2010E0201156FA60E24
:1012E000146F050E166F00012BEC03F0015220E184
:1012F0005CEC05F001521AE00101802D10D00201D2
:10130000106B1051000117EC01F00201102B006E60
:1013100000509EA8FED7AD6E150E105DF2E1010ED5
:101320000201116F0001F3EC01F0FF0035EF0DF049
:101330008BC113F28AC112F2010E0201156FA00EC9
:10134000146F050E166F00012BEC03F0015211E132
:101350000201106B105100012FEC01F00201102B63
:10136000006E00509EA8FED7AD6E090E105DF2E132
:101370007AD38BC113F28AC112F2010E0201156FEA
:10138000900E146F030E166F00012BEC03F0015248
:1013900013E1030E01018A250201106F000E010105
:1013A0008B210201116F136F10C212F2000199EC30
:1013B00003F001C086F159D38BC113F28AC112F236
:1013C000010E0201156F940E146F050E166F0001C9
:1013D0002BEC03F0015219E1050E01018A250201EF
:1013E000106F000E01018B210201116F136F10C2EB
:1013F00012F2000199EC03F001C07AF17AC17BF19D
:1014000001017C6B040E7E6F2FD3010E01018A2532
:101410000201106F000E01018B210201116F136F89
:1014200010C212F2010E156F940E146F040E166F97
:1014300000012BEC03F0015261E1050E01018A2548
:10144000016E000E8B21036E01C0E9FFEA6EEF52C0
:101450000EE17EC110F21F0E0201116F000180EC3F
:1014600004F00D0E9EA8FED7AD6E47D00101050E0B
:101470008A25016E000E8B21036E01C0E9FFEA6E22
:10148000EF50200839E1060E8A250201106F000E88
:1014900001018B210201116F136F10C212F20001C2
:1014A00099EC03F001C07EF101017E51000105E0DD
:1014B000010A0CE0030A12E019D001017E6B0D0E47
:1014C0007B6F0A0E7C6F7D6B7A6F16D0010E010167
:1014D0007E6F0D0E7B6F7C6B7A6F0ED0020E01015A
:1014E0007E6F0A0E7B6F7C6B7A6F06D0030E010154
:1014F0007E6F7B6B7A6B00D00001B7D28BC113F289
:101500008AC112F2010E0201156F9A0E146F050EB8
:10151000166F00012BEC03F0015213E1050E0101DF
:101520008A250201106F000E01018B210201116F4B
:10153000136F10C212F2000199EC03F001C07FF1A9
:1015400094D2010E01018A250201106F000E0101E3
:101550008B210201116F136F10C212F2010E156F71
:101560009A0E146F040E166F00012BEC03F001525B
:1015700039E1050E01018A25016E000E8B21036EF3
:1015800001C0E9FFEA6EEF520EE17FC110F21F0EBB
:101590000201116F000180EC04F00D0E9EA8FED731
:1015A000AD6E1ED00101050E8A25016E000E8B2145
:1015B000036E01C0E9FFEA6EEF50200812E1060E4B
:1015C0008A250201106F000E01018B210201116FAB
:1015D000136F10C212F2000199EC03F001C07FF109
:1015E000010142D28BC113F28AC112F2010E020133
:1015F000156FB10E146F070E166F00012BEC03F080
:10160000015213E1070E01018A250201106F000E3D
:1016100001018B210201116F136F10C212F2000140
:1016200099EC03F001C081F120D28BC113F28AC181
:1016300012F2010E0201156FB90E146F040E166F2F
:1016400000012BEC03F001520DE1050E0201106FB9
:101650001F0E116F000180EC04F00D0E9EA8FED746
:10166000AD6E03D28BC113F28AC112F2010E0201D8
:10167000156FAC0E146F040E166F00012BEC03F007
:1016800001520CE1080E1F6E02017D6B1F0E7C6F74
:10169000010E7E6F0001D5EC02F0E7D18BC113F291
:1016A0008AC112F2010E0201156FBE0E146F0A0EEE
:1016B000166F00012BEC03F0015213E10A0E010139
:1016C0008A250201106F000E01018B210201116FAA
:1016D000136F10C212F2000199EC03F001C082F105
:1016E000C4D18BC113F28AC112F2010E0201156F2F
:1016F000DF0E146F060E166F00012BEC03F0015283
:1017000041E1060E01018A25016E000E8B21036E58
:1017100001C0E9FFEA6EEF520EE182C110F21F0E26
:101720000201116F000180EC04F00D0E9EA8FED79F
:10173000AD6E27D00101060E8A25016E000E8B21A9
:10174000036E01C0E9FFEA6EEF50200819E1070EB1
:101750008A250201106F000E01018B210201116F19
:10176000136F10C212F2000199EC03F001C082F174
:101770000101825305E0822D01D002D0010E826F5B
:10178000000173D18BC113F28AC112F2010E020162
:10179000156FC90E146F060E166F00012BEC03F0C7
:1017A000015208E1010E0201116F0001F3EC01F09A
:1017B000FF005BD18BC113F28AC112F2010E02014C
:1017C000156FD00E146F070E166F00012BEC03F08F
:1017D000015213E1070E01018A250201106F000E6C
:1017E00001018B210201116F136F10C212F200016F
:1017F00099EC03F001C080F138D18BC113F28AC19A
:1018000012F2010E0201156FE60E146F050E166F2F
:1018100000012BEC03F0015228E1010189530AE198
:1018200000010BEC07F00152D8B402D0010102D044
:10183000000E01D0010E0101896F040E1F6E895345
:1018400010E102017D6B1F0E7C6F010E7E6F0001A7
:10185000D5EC02F00152D8B402D0010102D0000E42
:1018600001D0010E0101896FFFD08BC113F28AC133
:1018700012F2010E0201156FEC0E146F0C0E166FB2
:1018800000012BEC03F0015241E10C0E01018A250D
:10189000016E000E8B21036E01C0E9FFEA6EEF526C
:1018A0000EE183C110F21F0E0201116F000180ECE6
:1018B00004F00D0E9EA8FED7AD6E27D001010C0ED0
:1018C0008A25016E000E8B21036E01C0E9FFEA6ECE
:1018D000EF50200819E10D0E8A250201106F000E4D
:1018E00001018B210201116F136F10C212F200016E
:1018F00099EC03F001C083F10101835305E0832DCE
:1019000001D002D0010E836F0001AFD08BC113F262
:101910008AC112F2010E0201156FF90E146F0A0E40
:10192000166F00012BEC03F0015239E10A0E0101A0
:101930008A25016E000E8B21036E01C0E9FFEA6E5D
:10194000EF520EE184C110F21F0E0201116F00016F
:1019500080EC04F00D0E9EA8FED7AD6E1ED00101E6
:101960000A0E8A25016E000E8B21036E01C0E9FF6D
:10197000EA6EEF50200812E10B0E8A250201106F6B
:10198000000E01018B210201116F136F10C212F2C0
:10199000000199EC03F001C084F1010165D08BC115
:1019A00013F28AC112F2020E0201156F040E146FB7
:1019B000050E166F00012BEC03F0015208E1969022
:1019C0008D90E60E006E002EFED796804ED08BC115
:1019D00013F28AC112F2020E0201156F0A0E146F81
:1019E000050E166F00012BEC03F0015229E10101F5
:1019F00089530AE100010BEC07F00152D8B402D080
:101A0000010102D0000E01D0010E0101896F110EFB
:101A10001F6E895310E102017D6B1F0E7C6F010E5A
:101A20007E6F0001D5EC02F00152D8B402D0010162
:101A300002D0000E01D0010E0101896F15D0000106
:101A40000101802D11D00201106B1051000141ECF9
:101A500001F00201102B006E00509EA8FED7AD6E63
:101A6000170E105DF2E101010001C0D001018953A0
:101A70000AE100010BEC07F00152D8B402D00101D9
:101A800002D0000E01D0010E0101896F400E7825B1
:101A90001F6E895310E102017D6B1F0E7C6F010EDA
:101AA0007E6F0001D5EC02F00152D8B402D00101E2
:101AB00002D0000E01D0010E0101896F7E51030892
:101AC00025E0895311E18BC111F28AC110F20201A4
:101AD000126B136B000156EC07F00152D8B402D020
:101AE000010102D0000E01D0010E0101896F010E2B
:101AF0000201116F7B0E106F126B7FC113F2000198
:101B000056EC07F001C089F118D00101895312E1A8
:101B10008BC111F28AC110F20201126B010E136F18
:101B2000000156EC07F00152D8B402D0010102D0F6
:101B3000000E01D0010E0101896F0101825357E0AF
:101B40008BC111F28AC110F23F0E0201126F000127
:101B500065EF07F002C011F201C010F2020110534C
:101B600002E1115326E001018953D8B402D00201E9
:101B700020D000015CEC05F001521AE00101802D3B
:101B800010D00201106B1051000117EC01F002019E
:101B9000102B006E00509EA8FED7AD6E150E105D86
:101BA000F2E1010E0201116F0001F3EC01F0FF0000
:101BB0001DD0010189531BE0896B802D10D00201DB
:101BC000106B105100015AEC01F00201102B006E55
:101BD00000509EA8FED7AD6E160E105DF2E1010E0C
:101BE0000201116F0001F3EC01F0FF00010100019F
:061BF000DBEF08F003002A
:020000040030CA
:0E00000000021E19008381000FC00FE00F40A8
:00000001FF
;PIC18F4520
