:020000040000FA
:040000007AEF05F09E
:08000800056ED8CF06F0E0CF31
:1000100007F00001E9CF0DF0EACF08F0E1CF09F0D9
:10002000E2CF0AF0D9CF0BF0DACF0CF0F3CF14F017
:10003000F4CF15F0FACF16F000C00FF001C010F0A9
:1000400002C011F003C012F004C013F0F2AA2CEFAA
:1000500000F0F2B435EF01F00FC000F010C001F075
:1000600011C002F012C003F013C004F00E8E0DC0D8
:10007000E9FF08C0EAFF09C0E1FF0AC0E2FF0BC0C8
:10008000D9FF0CC0DAFF14C0F3FF15C0F4FF16C08F
:10009000FAFF055007C0E0FF06C0D8FF1000F2CFFE
:1000A0000EF0F29EF76AB80FF66E000EF722090006
:1000B000F5500EBEF28E120054696D656F75742096
:1000C0006572726F723A2057616974696E67206653
:1000D0006F72204E44414320746F20676F206C6F15
:1000E00077207768696C652077726974696E670A32
:1000F0000D00F2CF0EF0F29EF76A0C0FF66E010EB5
:10010000F7220900F5500EBEF28E120054696D659B
:100110006F7574206572726F723A205761697469E5
:100120006E6720666F72204E52464420746F2067BF
:100130006F2068696768207768696C6520777269E5
:1001400074696E670A0D0000F2CF0EF0F29EF76A36
:10015000620FF66E010EF7220900F5500EBEF28E08
:10016000120054696D656F7574206572726F723A12
:100170002057616974696E6720666F72204E444132
:100180004320746F20676F2068696768207768690B
:100190006C652077726974696E670A0D0000F2CF92
:1001A0000EF0F29EF76AB80FF66E010EF722090004
:1001B000F5500EBEF28E120054696D656F75742095
:1001C0006572726F723A2057616974696E67206652
:1001D0006F722044415620746F20676F206C6F77D8
:1001E000207768696C652072656164696E670A0DC5
:1001F0000000F2CF0EF0F29EF76A0C0FF66E020EC0
:10020000F7220900F5500EBEF28E120054696D659A
:100210006F7574206572726F723A205761697469E4
:100220006E6720666F722044415620746F20676F9E
:100230002068696768207768696C65207265616409
:10024000696E670A0D00F2CF0EF0F29EF76A600F3A
:10025000F66E020EF7220900F5500EBEF28E120065
:1002600074657374696E670A0D00A207A25303E1F7
:10027000A52B030EA26FF2942CEF00F00D009380DB
:100280009382938493869388938A938C938E92829D
:1002900092849286928896829680928A928052EF79
:1002A00001F0EDD7929689969288DEEF05F0EA6A22
:1002B000D20EE96EEF500EE0050E016E006A002EC0
:1002C000FED7012EFBD7F90E006E002EFED70000E0
:1002D000EF2EF2D778EF02F046C148F145C147F161
:1002E00048C103F0010147C1E9FF48C1EAFFEF52ED
:1002F00006E0472BD8B4482B0001F2D70101455145
:10030000475D006E46514859036E00C001F0026E11
:10031000000198EF01F00101425302E0929A899A9C
:10032000415309E140C146F13FC145F10001D4D735
:1003300001C041F10101928292849286446B415145
:10034000445DD8B0B1D0036A44513F25E96E4051B5
:100350000320EA6EEFCF43F192880001A56BA35111
:10036000A525A46F928880A81AD0A551A45D17E393
:10037000A451A55D13E10101456B455100018FDEDC
:100380000101452B006E00509EA8FED7AD6E390EC0
:10039000455DF3E1FF0E016E95D00001E3D7010149
:1003A00043A103D093908A9001D0938043A303D0BC
:1003B00093928A9201D0938243A503D093948A9416
:1003C00001D0938443A703D093968A9601D0938655
:1003D00043A903D093988A9801D0938843AB03D064
:1003E000939A8A9A01D0938A43AD03D0939C8A9CB6
:1003F00001D0938C43AF03D0939E8A9E01D0938EFD
:1004000092860001A56BA351A525A46F928680B6A4
:100410001AD0A551A45D17E3A451A55D13E1010114
:10042000456B4551000165DE0101452B006E005012
:100430009EA8FED7AD6E3A0E455DF3E1FF0E016E4C
:1004400041D00001E3D7010E0101415D445D04E1AB
:10045000425302E192928992929489940001A56B91
:10046000A351A525A46F928880B81AD0A551A45D88
:1004700017E3A451A55D13E10101456B455100014E
:1004800063DE0101452B006E00509EA8FED7AD6EC5
:100490003A0E455DF3E1FF0E016E14D00001E3D783
:1004A00092840101442B4BD793809382938493864B
:1004B0009388938A938C938E425301E0928A92821E
:1004C000000E016E0001000C3DC140F13CC13FF146
:1004D0003EC141F1010E0101426F00011CDF0150DC
:1004E000000CD1C09FF096928D92C80ED26FDFD6CD
:1004F000968292908990140E1E6E01013D6B1E0E25
:100500003C6F010E3E6F0001DFDF0150E0EF05F0B0
:10051000D5533FE0D1C0E9FFD2C0EAFFEFCFD6F01C
:10052000D4C003F0D3C0E9FFD4C0EAFFEF50D65DDA
:1005300017E0D2C003F0D1C0E9FFD2C0EAFFEFCF8D
:10054000D6F0D4C003F0D3C0E9FFD4C0EAFFEF5027
:10055000D65D02E2FF0E01D0010E016E1CD00BD061
:10056000D2C003F0D1C0E9FFD2C0EAFFEF5203E1ED
:10057000000E016E10D0D2C003F0D151D12BD8B4EF
:10058000D22BD4C003F0D351D32BD8B4D42BD5075E
:10059000BFD7000E016E000C006A016AD851D890D6
:1005A000D9B1002600320132D9B30026003201321F
:1005B000D9B5002600320132D9B700260032013207
:1005C000D9B9002600320132D9BB002600320132EF
:1005D000D9BD002600320132D9BF002600320132D7
:1005E0005EEF03F0D66BD46B0A0ED56FD36BD1518F
:1005F000D21103E1000E016EC1D0D651D62B036A91
:10060000D125E96ED2510320EA6EEFCFD7F0D75152
:100610002D080DE1010ED46FD651D62B036AD125DA
:10062000E96ED2510320EA6EEFCFD7F00DD0D7514B
:100630002B080AE1D651D62B036AD125E96ED25197
:100640000320EA6EEFCFD7F0D7512F08D8B08ED065
:10065000D7513908D8A08AD0D751300821E1036A90
:10066000D651D125E96ED2510320EA6EEF507808B9
:100670000AE0036AD651D125E96ED2510320EA6E11
:10068000EF5058080DE1100ED56FD62BD651D62B52
:10069000036AD125E96ED2510320EA6EEFCFD7F07D
:1006A000D5510A081BE1D7512F0817E2D751390855
:1006B00014E30A0ED86FD3C0D9F06ED7300ED75DD1
:1006C0000124D36FD651D62B036AD125E96ED251BE
:1006D0000320EA6EEFCFD7F0E6D748D0D551100807
:1006E00045E1D751600806E2D7517A0803E3D751B4
:1006F000DF0B01D0D751D76FD7512F0803E2D75165
:10070000390806E2D751400831E2D75146082EE3B6
:10071000D7512F080CE2D751390809E3D339D86FE4
:10072000F00ED817300ED75DD825D36F09D0D33946
:10073000D86FF00ED817410ED75D0A0FD825D36FAA
:10074000D651D62B036AD125E96ED2510320EA6E29
:10075000EFCFD7F0D751600806E2D7517A0803E30C
:10076000D751DF0B01D0D751D76FC6D7D42D04D0C6
:10077000D5510A0801E1D36DD3C001F0000C01018D
:100780003E6B92869298899892840001A351A52588
:10079000A46F928480A41BD0A551A45D18E3A4513A
:1007A000A55D14E10101406B40510001F8DC01013D
:1007B000402B006E00509EA8FED7AD6E380E405DF7
:1007C000F3E1FF00FF0E016E3BD00001E2D79296ED
:1007D0008996FF0E936E81CF3EF101013E1B9288F8
:1007E0000001A351A525A46F928480B41AD0A5510D
:1007F000A45D17E3A451A55D13E10101406B4051D5
:100800000001F7DC0101402B006E00509EA8FED7CE
:10081000AD6E390E405DF3E1FF0E016E11D00001A7
:10082000E3D792988998928201013F6B80B23F2B67
:100830003CC1E9FF3DC1EAFF3EC1EFFF3FC101F00E
:100840000001000C0101376B386B3B6BD30E3A6F24
:100850005F0E1E6E3D6B1E0E3C6F010E3E6F000163
:1008600033DE01C039F10101395303E0FF0E016E9F
:1008700014D13F0E1E6E3D6B1E0E3C6F010E3E6F7F
:10088000000122DE01C039F10101395303E0FF0EFE
:10089000016E03D1200E00019F251E6E01013D6BEC
:1008A0001E0E3C6F010E3E6F00010EDE01C039F1DD
:1008B0000101395303E0FF0E016EEFD0400E00013D
:1008C0009E251E6E01013D6B1E0E3C6F010E3E6F9C
:1008D0000001FADD01C039F10101395303E0FF0ED7
:1008E000016EDBD0376B3B6BD30E3A6F0001A12D4D
:1008F00052D001013D6BD10E3C6F000140DF01C0C1
:10090000D2F0D23D05D0FF0E016E0101C6D000012C
:10091000036A01013751D30FE96E000E0320EA6E1E
:10092000D1C0EFFF372B375164081AE1386B3851CB
:10093000630811E33BC103F03AC1E9FF3BC1EAFFA1
:10094000EFCF3CF13C519EA8FED7AD6E3A2BD8B408
:100950003B2B382BECD7376B3B6BD30E3A6F040035
:100960000001D253C6E10101386B3751385D11E205
:100970003BC103F03AC1E9FF3BC1EAFFEFCF3CF1D5
:100980003C519EA8FED7AD6E3A2BD8B43B2B382BEA
:10099000ECD752D0000101013D6BD10E3C6F00013C
:1009A000EEDE01C0D2F0D23D05D0FF0E016E010196
:1009B00074D00001036A01013751D30FE96E000EB4
:1009C0000320EA6ED1C0EFFF372B375164081AE1DC
:1009D000386B3851630811E33BC103F03AC1E9FFBA
:1009E0003BC1EAFFEFCF3CF13C519EA8FED7AD6E74
:1009F0003A2BD8B43B2B382BECD7376B3B6BD30E51
:100A00003A6F04000001A051D15DC5E10101386BCE
:100A10003751385D11E23BC103F03AC1E9FF3BC1F8
:100A2000EAFFEFCF3CF13C519EA8FED7AD6E3A2BCA
:100A3000D8B43B2B382BECD7020E036E7C0E000192
:100A4000A05D02E1035204E00D0E9EA8FED7AD6E3C
:100A50005F0E1E6E01013D6B1E0E3C6F010E3E6F60
:100A6000000132DD01C039F10101393D03D0FF0E33
:100A7000016E13D03F0E1E6E3D6B1E0E3C6F010EBD
:100A80003E6F000121DD01C039F10101393D03D084
:100A9000FF0E016E02D0000E016E0001000CD2C0EC
:100AA00040F1D1C03FF1D3C041F10101426B0001DF
:100AB00032DC0150000CD2C003F0D1C0E9FFD2C03B
:100AC000EAFFD351EF5C10E0D2C003F0D1C0E9FFE0
:100AD000D2C0EAFFEF5204E1000E016E026E08D0B0
:100AE000D12BD8B4D22BE7D7D1C001F0D2C002F0BD
:100AF000B5EF06F0F86AD09E0D8EEA6AE96AB8860C
:100B0000090EAF6E000EB06EA60EAC6E900EAB6E00
:100B1000C150C00B0F09C16E070EB46E186A196A76
:100B2000010EA06FA16F2B0EB16F610EB26F3A0E66
:100B3000B36FB46B2B0EB56F740EB66F3A0EB76F02
:100B4000B86B2B0EB96F650EBA6F6F0EBB6F730E5D
:100B5000BC6F3A0EBD6FBE6B2B0EBF6F650EC06FC4
:100B60006F0EC16F690EC26F3A0EC36FC46B2B0E4E
:100B7000C56F740EC66F650EC76F730EC86F740EA7
:100B8000C96FCA6B2B0ECB6F720ECC6F650ECD6F1B
:100B9000610ECE6F640ECF6FD06B949A8B8AD1802A
:100BA000030EA26FD76AD66AD190830ED56EF28AF1
:100BB000C00EF212050EA36F51EF01F0D16B91D46C
:100BC00001C0B0F0949A8B9A04009EAAD9D0EA6A28
:100BD0005E0EE96EE906E92A9EAAFED7AECFEFFFC8
:100BE0000D0EEF5CF8E1EF6A5E502B08D8A46ED0D2
:100BF000D26B5E0ED16FD46BB10ED36F030ED56F77
:100C000087DC015207E1D26B610ED16FEBDC01C0D2
:100C10009EF05BD0D26B5E0ED16FD46BCB0ED36FD8
:100C2000050ED56F75DC015202E10CDE4ED0D26BA1
:100C30005E0ED16FD46BC50ED36F050ED56F68DC19
:100C400001520EE1D16BD15123EC01F0D12B006E9A
:100C500000509EA8FED7AD6E090ED15DF4E135D0EF
:100C6000D26B5E0ED16FD46BB50ED36F030ED56F02
:100C70004FDC015207E1D26B610ED16FB3DC01C0D2
:100C8000A3F023D0D26B5E0ED16FD46BB90ED36FAD
:100C9000050ED56F3DDC015207E1D26B630ED16FBB
:100CA000A1DC01C0A0F011D0D26B5E0ED16FD46B6D
:100CB000BF0ED36F050ED56F2BDC015206E1D26B50
:100CC000630ED16F8FDC01C0A1F05AD05F0E1E6E93
:100CD00001013D6B1E0E3C6F010E3E6F000164EC86
:100CE00002F03F0E1E6E01013D6B1E0E3C6F010EA9
:100CF0003E6F000164EC02F0200E9E251E6E010185
:100D00003D6B1E0E3C6F010E3E6F000164EC02F065
:100D1000400E9F251E6E01013D6B1E0E3C6F010EA5
:100D20003E6F000164EC02F0D26B5E0ED16FD36BAC
:100D3000B6DE01C0B0F0B03D02D0010EB06FA153DD
:100D40000EE1A0C05EF0D26B5E0ED16F010ED36FCC
:100D5000A6DE01C0B0F0B03D02D0010EB06FD26B84
:100D60005E0ED16F3F0ED36FA6D602C0D2F001C087
:100D7000D1F0D15302E1D25303E0B05301E162DD7F
:040D800023D7030072
:020000040030CA
:0E00000000021E11008381000FC00FE00F40B0
:00000001FF
;PIC18F4520
