:020000040000FA
:04000000A0EF06F077
:08000800056ED8CF06F0E0CF31
:1000100007F00001E9CF0DF0EACF08F0E1CF09F0D9
:10002000E2CF0AF0D9CF0BF0DACF0CF0F3CF14F017
:10003000F4CF15F0FACF16F000C00FF001C010F0A9
:1000400002C011F003C012F004C013F09DA22CEF07
:1000500000F09EB271EF01F09DAA32EF00F09EBA5F
:100060007BEF01F00FC000F010C001F011C002F0F2
:1000700012C003F013C004F00E8E0DC0E9FF08C0DB
:10008000EAFF09C0E1FF0AC0E2FF0BC0D9FF0CC0C4
:10009000DAFF14C0F3FF15C0F4FF16C0FAFF0550D5
:1000A00007C0E0FF06C0D8FF1000F2CF0EF0F29EAE
:1000B000F76AC40FF66E000EF7220900F5500EBE67
:1000C000F28E120054696D656F75743A205761693C
:1000D00074696E6720666F72204E44414320746FCE
:1000E00020676F206C6F77207768696C6520777266
:1000F0006974696E6700F2CF0EF0F29EF76A100F16
:10010000F66E010EF7220900F5500EBEF28E1200B7
:1001100054696D656F75743A2057616974696E67CB
:1001200020666F72204E52464420746F20676F2005
:1001300068696768207768696C6520777269746997
:100140006E670000F2CF0EF0F29EF76A5E0FF66E59
:10015000010EF7220900F5500EBEF28E120054690E
:100160006D656F75743A2057616974696E672066B2
:100170006F72204E44414320746F20676F2068697E
:100180006768207768696C652077726974696E6743
:100190000000F2CF0EF0F29EF76AAC0FF66E010E81
:1001A000F7220900F5500EBEF28E120054696D65FB
:1001B0006F75743A2057616974696E6720666F7253
:1001C0002044415620746F20676F206C6F77207732
:1001D00068696C652072656164696E670000F2CFC2
:1001E0000EF0F29EF76AF80FF66E010EF722090084
:1001F000F5500EBEF28E120054696D656F75743A3B
:100200002057616974696E6720666F722044415699
:1002100020746F20676F2068696768207768696C51
:10022000652072656164696E6700F2CF0EF0F29E20
:10023000F76A440FF66E020EF7220900F5500EBE63
:10024000F28E120052656164206572726F72206FC7
:100250006363757265642E256300F2CF0EF0F29E23
:10026000F76A740FF66E020EF7220900F5500EBE03
:10027000F28E120074657374696E67256300F2CFA5
:100280000EF0F29EF76A980FF66E020EF722090042
:10029000F5500EBEF28E1200556E7265636F676E7A
:1002A000697A656420636F6D6D616E642E256300ED
:1002B000F2CF0EF0F29EF76ACA0FF66E020EF72228
:1002C0000900F5500EBEF28E120057726974652057
:1002D0006572726F72206F6363757265642E256339
:1002E00000000101392F03D03C2B6E0E396F9E9216
:1002F000000132EF00F09EAAFED7AECF9BF20201C2
:100300009B511F080FE29B517E080CE3010128510D
:10031000282B036A280FE96E000E0320EA6E9BC2A9
:10032000EFFF02019B510A0806E09B510D08D8B46B
:1003300002D00001E0D701012851282B036A280FC1
:10034000E96E000E0320EA6EEF6A2851EA0801E226
:10035000286B9E9A000132EF00F0959C8C9C959A38
:100360008C9A959E8C8E95988C989380938293848A
:1003700093869388938A938C938E929289829284A7
:10038000928692988998929A899A96908D80928076
:1003900096928D82CDEF01F0E0D7929A898A70EF24
:1003A00008F0020EEA6E200EE96EEF500EE0050E28
:1003B000016E006A002EFED7012EFBD7F90E006EEB
:1003C000002EFED70000EF2EF2D7000C97C299F254
:1003D00096C298F299C203F0020198C2E9FF99C24D
:1003E000EAFFEF5206E0982BD8B4992B0001F2D720
:1003F00002019651985D006E97519959036E00C0A5
:1004000001F0026E0001000C959A8C8A0201925351
:1004100002E092928992915309E190C297F28FC2C1
:1004200096F20001D3DF01C091F20201959C8C8C01
:1004300092948984929689869288956B9151955D64
:10044000D8B08FD0036A95518F25E96E9051032063
:10045000EA6EEFCF94F2928A01013C6B3A513C254F
:100460003B6F928A80AA1DD03C513B5D1AE3040089
:100470003B513C5D15E3322D10D00201966B965135
:10048000000113DE0201962B006E00509EA8FED7DD
:10049000AD6E310E965DF3E10101010E016E79D072
:1004A000E0D7FF0E0201941B936A94C28AFF9288E0
:1004B00001013C6B3A513C253B6F928880B81DD0BE
:1004C0003C513B5D1AE304003B513C5D15E3322D8A
:1004D00010D00201966B965100010DDE0201962BA1
:1004E000006E00509EA8FED7AD6E320E965DF3E111
:1004F0000101010E016E4DD0E0D7010E0201915DA8
:10050000955D04E1935302E09294899492968996C2
:1005100001013C6B3A513C253B6F928A80BA1DD059
:100520003C513B5D1AE304003B513C5D15E3322D29
:1005300010D00201966B9651000104DE0201962B49
:10054000006E00509EA8FED7AD6E320E965DF3E1B0
:100550000101010E016E1DD0E0D792860201952B9C
:100560006DD7959C8C9C938093829384938693887B
:10057000938A938C938E925301E092829286928416
:10058000929A898A92988988959A8C9A000E016E1F
:1005900001010001000C8DC290F28CC28FF28EC25C
:1005A00091F2010E0201926F936B00012DDF015059
:1005B000000C1FC22AF196908D90C80E0201206F88
:1005C0000001EFDE968096928D92140E1E6E02014F
:1005D0008D6B1E0E8C6F010E8E6F0001DCDF0150E3
:1005E00075EF08F0036A01012751280F02011F6F00
:1005F000000E0320206F036A01012751280F02011A
:10060000216F000E0320226F976F21C296F2000126
:10061000DDDE01C022F2010E02010124016E000E96
:1006200002200150010127272751EA0801E2276B28
:100630002851275D02E1276B286B02011FC201F0E0
:100640000001A1EF08F0020125533FE021C2E9FFBC
:1006500022C2EAFFEFCF26F224C203F023C2E9FF51
:1006600024C2EAFFEF50265D17E022C203F021C248
:10067000E9FF22C2EAFFEFCF26F224C203F023C231
:10068000E9FF24C2EAFFEF50265D02E2FF0E01D02F
:10069000010E016E1CD00BD022C203F021C2E9FF73
:1006A00022C2EAFFEF5203E1000E016E10D022C217
:1006B00003F02151212BD8B4222B24C203F0235163
:1006C000232BD8B4242B2507BFD7000E016E0001C1
:1006D000000C0201236B22C203F021C2E9FF22C2F7
:1006E000EAFFEF5212E023510A0DF3CF24F222C2A7
:1006F00003F02151212BD8B4222BE96E03C0EAFF6D
:10070000300EEF5C2425236FE6D723C201F00001F1
:10071000000C02012751016A265D03E226C200F0A7
:100720000CD0006A080E286F263700362751005C6F
:10073000D8B0006E0136282FF7D70001000C200E2C
:10074000020121A9300E226F20C200F020AF07D095
:10075000001E002A00C020F22D0E226F218F0150B2
:1007600020C226F2640E276F0001D3DF00C020F202
:10077000300E01240201236F20C226F20A0E276FD9
:100780000001C7DF300E00240201256F300E012466
:10079000246F22C200F021A702D021AF219521B9F8
:1007A0000BD021AF22D021B520D000C023F221B33D
:1007B0001CD000C024F219D0300E235D16E100C019
:1007C00023F2200E226F21A704D02195218321AF8F
:1007D0002193300E245D09E100C024F2200E236F26
:1007E00021A7F7D7219321AF219121A504D0225130
:1007F0009EA8FED7AD6E21A304D023519EA8FED79C
:10080000AD6E21A104D024519EA8FED7AD6E255116
:100810009EA8FED7AD6E0001000C02018E6B92986F
:100820008988929A899A928601013C6B3A513C25BB
:100830003B6F928680A61DD03C513B5D1AE30400BD
:100840003B513C5D15E3322D10D00201906B90516D
:1008500000019FDC0201902B006E00509EA8FED785
:10086000AD6E300E905DF3E10101FF0E016E3FD0E1
:10087000E0D792988998FF0E936E81CF8EF2020195
:100880008E1B928A01013C6B3A513C253B6F92864C
:1008900080B61DD03C513B5D1AE304003B513C5DEA
:1008A00015E3322D10D00201906B9051000197DCBE
:1008B0000201902B006E00509EA8FED7AD6E310E47
:1008C000905DF3E10101FF0E016E11D0E0D7929A25
:1008D000899A928402018F6B80B48F2B8CC2E9FFBE
:1008E0008DC2EAFF8EC2EFFF8FC201F0010100014D
:1008F000000C0201866B876B886B8991020E8B6FEF
:10090000220E8A6F5F0E1E6E88530EE18D6B1E0ED7
:100910008C6F010E8E6F00013EDE0152D8B402D002
:10092000020102D0000E01D0010E0201886F3F0EBD
:100930001E6E88530EE18D6B1E0E8C6F010E8E6F36
:10094000000129DE0152D8B402D0020102D0000E0B
:1009500001D0010E0201886F885303E0010E016E81
:100960006AD1200E01012A251E6E020188530EE174
:100970008D6B1E0E8C6F010E8E6F00010CDE01520E
:10098000D8B402D0020102D0000E01D0010E020143
:10099000886F885303E0010E016E4DD1400E0101B6
:1009A00029251E6E02018D6B1E0E8C6F010E8E6F3F
:1009B0000001F1DD01C088F20201885303E0010E5D
:1009C000016E39D1866B020E8B6F220E8A6F1F2D3E
:1009D0007FD0020E8D6F200E8C6F00011EDF01C0D4
:1009E00021F20201213D03D0010E016E24D101014B
:1009F000305312E02D510201205D02E121530AE043
:100A0000036A8651220FE96E020E0320EA6E20C2AD
:100A1000EFFF862B22D001012E510201205D13E150
:100A2000215311E1010E865D036A220FE96E020E69
:100A30000320EA6E01012D51EF5C03E102018607FC
:100A400001010CD00201036A8651220FE96E020EE9
:100A50000320EA6E20C2EFFF862B010102018651BE
:100A600064081BE1876B8751630811E38BC203F0B5
:100A70008AC2E9FF8BC2EAFFEFCF8CF28C519EA8AD
:100A8000FED7AD6E8A2BD8B48B2B872BECD7866B19
:100A9000020E8B6F220E8A6F040021539AE1876B3E
:100AA000010133510201865D875D11E28BC203F0C3
:100AB0008AC2E9FF8BC2EAFFEFCF8CF28C519EA86D
:100AC000FED7AD6E8A2BD8B48B2B872BE9D77ED07F
:100AD000020E8D6F200E8C6F00019FDE01C021F28F
:100AE0000201213D03D0010E016EA5D0010130535A
:100AF00012E02D510201205D0BE0036A8651220FA6
:100B0000E96E020E0320EA6E20C2EFFF862B01D0B1
:100B1000898121D001012E510201205D12E1010ED7
:100B2000865D036A220FE96E020E0320EA6E010160
:100B30002D51EF5C04E102018607898101010CD08F
:100B40000201036A8651220FE96E020E0320EA6E4B
:100B500020C2EFFF862B01010201865164081BE1D0
:100B6000876B8751630811E38BC203F08AC2E9FFE8
:100B70008BC2EAFFEFCF8CF28C519EA8FED7AD6EF0
:100B80008A2BD8B48B2B872BECD7866B020E8B6FFE
:100B9000220E8A6F040089A19BD78991876B01017E
:100BA00033510201865D875D11E28BC203F08AC278
:100BB000E9FF8BC2EAFFEFCF8CF28C519EA8FED7E3
:100BC000AD6E8A2BD8B48B2B872BE9D70101352D3D
:100BD00004D036519EA8FED7AD6E0201886B5F0E21
:100BE0001E6E88530EE18D6B1E0E8C6F010E8E6F84
:100BF0000001D1DC0152D8B402D0020102D0000EB3
:100C000001D0010E0201886F3F0E1E6E88530EE167
:100C10008D6B1E0E8C6F010E8E6F0001BCDC0152BD
:100C2000D8B402D0020102D0000E01D0010E0201A0
:100C3000886F88C201F00001000C0201206B5F0E7A
:100C40001E6E20530EE18D6B1E0E8C6F010E8E6F8B
:100C50000001A1DC0152D8B402D0020102D0000E82
:100C600001D0010E0201206F3F0E1E6E20530EE1D7
:100C70008D6B1E0E8C6F010E8E6F00018CDC01528D
:100C8000D8B402D0020102D0000E01D0010E020140
:100C9000206F200E1F251E6E20530EE18D6B1E0E41
:100CA0008C6F010E8E6F000176DC0152D8B402D039
:100CB000020102D0000E01D0010E0201206F20C2FD
:100CC00001F00001000C9280000E80B0010E016E58
:100CD000000E01A0010E016E90EF0EF020C290F206
:100CE0001FC28FF221C291F20201926B22C293F2D3
:100CF000000104EC02F00150000C20C203F00201DC
:100D00001FC2E9FF20C2EAFF2151EF5C12E020C2BE
:100D100003F01FC2E9FF20C2EAFFEF5204E1000E18
:100D2000016E026E0AD01F2BD8B4202B0001E5D72C
:100D300002011FC201F020C202F0000131EF0FF0EA
:100D4000F86AD09E0D8EEA6AE96AB886090EAF6E1F
:100D5000000EB06EA60EAC6E900EAB6EC150C00B06
:100D60000F09C16E070EB46E186A196A0101276B6C
:100D7000286B2B6B0A0E2C6F2D6B2E6B2F6B030EBB
:100D8000306F010E316F326B336B346F356F0D0E78
:100D9000366F376B010E386F3C6B3D6B3F6B280E27
:100DA0003E6F2B0E406F610E416F3A0E426F436BE8
:100DB0002B0E446F740E456F3A0E466F476B2B0E29
:100DC000486F650E496F6F0E4A6F730E4B6F3A0E88
:100DD0004C6F4D6B2B0E4E6F650E4F6F6F0E506F3D
:100DE000690E516F3A0E526F536B2B0E546F740E87
:100DF000556F650E566F730E576F740E586F596BA3
:100E00002B0E5A6F720E5B6F650E5C6F610E5D6F1D
:100E1000640E5E6F5F6B2B0E606F670E616F650E09
:100E2000626F740E636F646B2B0E656F730E666F6B
:100E3000740E676F720E686F690E696F700E6A6F5D
:100E40003A0E6B6F6C6B2B0E6D6F760E6E6F650EC0
:100E50006F6F720E706F716B2B0E726F610E736F0E
:100E6000750E746F740E756F6F0E766F720E776FEE
:100E7000650E786F610E796F640E7A6F3A0E7B6F34
:100E80007C6B2B0E7D6F720E7E6F650E7F6F730E07
:100E9000806F650E816F740E826F836B2B0E846F73
:100EA000640E856F650E866F620E876F750E886F94
:100EB000670E896F3A0E8A6F8B6B2B0E8C6F8D6F5E
:100EC000610E8E6F640E8F6F906F720E916F926BCA
:100ED0002B0E936F946F610E956F750E966F740E57
:100EE000976F6F0E986F996B2B0E9A6F9B6F630EB7
:100EF0009C6F6C0E9D6F720E9E6F9F6B2B0EA06F82
:100F0000A16F650EA26F6F0EA36F740EA46F5F0EBC
:100F1000A56F650EA66F6E0EA76F610EA86F620EAD
:100F2000A96F6C0EAA6F650EAB6FAC6B2B0EAD6F1D
:100F3000AE6F650EAF6F6F0EB06F740EB16F5F0E58
:100F4000B26F630EB36F680EB46F610EB56F720E41
:100F5000B66FB76B2B0EB86FB96F690EBA6F660EAE
:100F6000BB6F630EBC6FBD6B2B0EBE6FBF6F6C0E85
:100F7000C06FC16F6F0EC26FC36B2B0EC46FC56F96
:100F80006C0EC66F6F0EC76F630EC86FC96B2B0EEA
:100F9000CA6FCB6F6C0ECC6F6F0ECD6F6E0ECE6FB7
:100FA000CF6B2B0ED06FD16F6D0ED26F6F0ED36FD4
:100FB000640ED46F650ED56FD66B2B0ED76FD86FBE
:100FC000720ED96F650EDA6F610EDB6F640EDC6F27
:100FD0005F0EDD6F740EDE6F6D0EDF6F6F0EE06FF4
:100FE0005F0EE16F6D0EE26F730EE36FE46B2B0E1D
:100FF000E56FE66F720EE76F730EE86F740EE96FC0
:10100000EA6B2B0EEB6FEC6F730EED6F610EEE6FF4
:10101000760EEF6F650EF06F630EF16F660EF26F76
:10102000670EF36FF46B2B0EF56FF66F730EF76FA1
:10103000700EF86F6F0EF96F6C0EFA6FFB6FFC6B32
:101040002B0EFD6FFE6F730EFF6F720E0201006FAD
:10105000710E016F026B2B0E036F046F730E056F21
:10106000740E066F610E076F740E086F750E096FB0
:10107000730E0A6F0B6B2B0E0C6F0D6F740E0E6FD1
:10108000720E0F6F670E106F116B2B0E126F136FB6
:10109000760E146F650E156F720E166F176B2B0E92
:1010A000186F196F680E1A6F650E1B6F6C0E1C6F30
:1010B000700E1D6F1E6B949A8B8AD1806E0E01018B
:1010C000396FD76AD66A480E0609CA6EFA0ECB6E19
:1010D0009D82C00EF212050E3A6F0001CCEF01F0B6
:1010E00002011F6B0001D9EF02F001C03DF10101C7
:1010F0003D2D01D0FF00949A8B9A0400640E0201EA
:10110000206F0001D1EC01F00400949A8B8A040056
:10111000640E0201206F0001D1EC01F004009D8AF1
:101120000400949A8B9A040001012751285DD8B4D9
:101130008AEF0FF03FC120F23EC11FF20001F2EF33
:1011400002F0036A01C03EF1010103C03FF13FC15B
:1011500003F03EC1E9FF3FC1EAFFEF502B08D8A4DE
:10116000BCEF0EF03FC122F23EC121F2010E02019E
:10117000246F400E236F030E256F000123EC03F054
:10118000015214E1030E01013E2502011F6F000E02
:1011900001013F210201206F226F1FC221F20001D5
:1011A00069EC03F001C029F1BAEF0EF03FC122F261
:1011B0003EC121F2010E0201246F8C0E236F060E38
:1011C000256F000123EC03F001523AE1060E010104
:1011D0003E25016E000E3F21036E01C0E9FFEA6E5D
:1011E000EF520EE129C120F21F0E0201216F000112
:1011F0009FEC03F0010136519EA8FED7AD6E1ED0C4
:10120000060E3E25016E000E3F21036E01C0E9FF70
:10121000EA6EEF50200812E1070E3E2502011F6F13
:10122000000E01013F210201206F226F1FC221F237
:10123000000169EC03F001C029F10101B9EF0EF0E2
:101240003FC122F23EC121F2010E0201246F5A0E6B
:10125000236F050E256F000123EC03F0015227E1F7
:1012600031C11FF279EC04F001521FE00101322D6F
:1012700015D002011F6B1F51000115EC01F0020196
:101280001F2B006E00509EA8FED7AD6E130E1F5D83
:10129000F2E1010136519EA8FED7AD6E010E0201AA
:1012A000206F0001D1EC01F0FF00BAEF0EF0010E4B
:1012B00001013E2502011F6F000E01013F210201C5
:1012C000206F226F1FC221F2010E246F5A0E236F6E
:1012D000050E256F000123EC03F0015228E1060EF4
:1012E00001013E25016E000E3F21036E01C0E9FFA2
:1012F000EA6EEF5207E102011F6B000179EC04F086
:1013000013D00101070E3E25016E000E3F21036E32
:1013100001C0E9FFEA6EEF50650807E1010E020126
:101320001F6F000179EC04F00101B9EF0EF03FC12D
:1013300022F23EC121F2010E0201246F540E236FEE
:10134000050E256F000123EC03F0015217E10201A5
:101350001F6B1F5100012DEC01F002011F2B006ECD
:1013600000509EA8FED7AD6E070E1F5DF2E1010191
:1013700036519EA8FED7AD6EB9EF0EF03FC122F2F6
:101380003EC121F2010E0201246F440E236F030EB1
:10139000256F000123EC03F0015214E1030E01015B
:1013A0003E2502011F6F000E01013F210201206F47
:1013B000226F1FC221F2000169EC03F001C03AF173
:1013C000BAEF0EF03FC122F23EC121F2010E02013E
:1013D000246F480E236F050E256F000123EC03F0E8
:1013E00001521AE1050E01013E2502011F6F000E98
:1013F00001013F210201206F226F1FC221F2000173
:1014000069EC03F001C02CF12CC12DF101012E6B10
:10141000040E306FB9EF0EF0010E01013E250201FE
:101420001F6F000E01013F210201206F226F1FC2BA
:1014300021F2010E246F480E236F040E256F000168
:1014400023EC03F0015261E1050E01013E25016E1E
:10145000000E3F21036E01C0E9FFEA6EEF520EE17C
:1014600030C120F21F0E0201216F00019FEC03F03A
:10147000010136519EA8FED7AD6E45D0050E3E2522
:10148000016E000E3F21036E01C0E9FFEA6EEF50CE
:10149000200839E1060E3E2502011F6F000E0101F2
:1014A0003F210201206F226F1FC221F2000169EC6F
:1014B00003F001C030F101013051000105E0010AE3
:1014C0000CE0030A12E019D00101306B0D0E2D6FF4
:1014D0000A0E2E6F2F6B2C6F16D0010E0101306F8C
:1014E0000D0E2D6F2E6B2C6F0ED0020E0101306F82
:1014F0000A0E2D6F2E6B2C6F06D0030E0101306F7C
:101500002D6B2C6B00D0B9EF0EF03FC122F23EC123
:1015100021F2010E0201246F4E0E236F050E256F7E
:10152000000123EC03F0015214E1050E01013E25F8
:1015300002011F6F000E01013F210201206F226F87
:101540001FC221F2000169EC03F001C031F1BAEFD2
:101550000EF0010E01013E2502011F6F000E010178
:101560003F210201206F226F1FC221F2010E246F62
:101570004E0E236F040E256F000123EC03F0015281
:101580003AE1050E01013E25016E000E3F21036E7A
:1015900001C0E9FFEA6EEF520EE131C120F21F0EE9
:1015A0000201216F00019FEC03F0010136519EA85A
:1015B000FED7AD6E1ED0050E3E25016E000E3F21FA
:1015C000036E01C0E9FFEA6EEF50200812E1060E3B
:1015D0003E2502011F6F000E01013F210201206F15
:1015E000226F1FC221F2000169EC03F001C031F14A
:1015F0000101B9EF0EF03FC122F23EC121F2010E0E
:101600000201246F650E236F070E256F000123EC86
:1016100003F0015214E1070E01013E2502011F6F84
:10162000000E01013F210201206F226F1FC221F233
:10163000000169EC03F001C033F1BAEF0EF03FC1D5
:1016400022F23EC121F2010E0201246F6D0E236FC2
:10165000040E256F000123EC03F001520FE1050E8B
:101660000201206F1F0E216F00019FEC03F00101AA
:1016700036519EA8FED7AD6EB9EF0EF0010E0101F6
:101680003E2502011F6F000E01013F210201206F64
:10169000226F1FC221F2010E246F6D0E236F040E04
:1016A000256F000123EC03F001520EE1050E02014B
:1016B000206F1F0E216F00019FEC03F001013651D6
:1016C0009EA8FED7AD6E55D33FC122F23EC121F296
:1016D000010E0201246F600E236F040E256F0001BE
:1016E00023EC03F001520CE1080E1E6E02018D6B1B
:1016F0001E0E8C6F010E8E6F0001CBEC02F03AD300
:101700003FC122F23EC121F2020E0201246F0C0EF3
:10171000236F050E256F000123EC03F001522AE12F
:10172000050E01013E25016E000E3F21036E01C032
:10173000E9FFEA6EEF521DE13D530CE129C11FF2B2
:1017400000011DEC06F00152D8B402D0010102D014
:10175000000E01D0010E01013D6F080E1E6E020148
:101760008D6B1E0E8C6F010E8E6F0001CBEC02F0A4
:101770000101FFD23FC122F23EC121F2010E02015E
:10178000246F720E236F0A0E256F000123EC03F005
:10179000015213E10A0E01013E2502011F6F000EE6
:1017A00001013F210201206F226F1FC221F20001BF
:1017B00069EC03F001C034F1DDD23FC122F23EC139
:1017C00021F2010E0201246F930E236F060E256F86
:1017D000000123EC03F0015240E1060E01013E2519
:1017E000016E000E3F21036E01C0E9FFEA6EEF5269
:1017F0000EE134C120F21F0E0201216F00019FECA7
:1018000003F0010136519EA8FED7AD6E25D0060E1D
:101810003E25016E000E3F21036E01C0E9FFEA6E16
:10182000EF50200819E1070E3E2502011F6F000E40
:1018300001013F210201206F226F1FC221F200012E
:1018400069EC03F001C034F10101345305E0342D9B
:1018500001D002D0010E346F8CD23FC122F23EC1C2
:1018600021F2010E0201246F7D0E236F060E256FFB
:10187000000123EC03F0015208E1010E0201206F88
:101880000001D1EC01F0FF0075D23FC122F23EC150
:1018900021F2010E0201246FE50E236F050E256F64
:1018A000000123EC03F0015208E1010E0201206F58
:1018B0000001D1EC01F0FF005DD23FC122F23EC138
:1018C00021F2010E0201246F840E236F070E256F93
:1018D000000123EC03F0015213E1070E01013E2544
:1018E00002011F6F000E01013F210201206F226FD4
:1018F0001FC221F2000169EC03F001C032F13AD2BB
:101900003FC122F23EC121F2010E0201246F9A0E64
:10191000236F050E256F000123EC03F001522AE12D
:1019200001013D530CE129C11FF200011DEC06F03D
:101930000152D8B402D0010102D0000E01D0010E34
:1019400001013D6F040E1E6E3D5310E102018D6BCF
:101950001E0E8C6F010E8E6F0001CBEC02F0015257
:10196000D8B402D0010102D0000E01D0010E010155
:101970003D6FFFD13FC122F23EC121F2010E0201B3
:10198000246FA00E236F0C0E256F000123EC03F0D3
:10199000015240E10C0E01013E25016E000E3F2177
:1019A000036E01C0E9FFEA6EEF520EE135C120F28D
:1019B0001F0E0201216F00019FEC03F0010136515F
:1019C0009EA8FED7AD6E25D00C0E3E25016E000EF2
:1019D0003F21036E01C0E9FFEA6EEF50200819E1D4
:1019E0000D0E3E2502011F6F000E01013F21020175
:1019F000206F226F1FC221F2000169EC03F001C0C9
:101A000035F10101355305E0352D01D002D0010E2D
:101A1000356FAFD13FC122F23EC121F2010E02016A
:101A2000246FAD0E236F0A0E256F000123EC03F027
:101A3000015239E10A0E01013E25016E000E3F21DF
:101A4000036E01C0E9FFEA6EEF520EE136C120F2EB
:101A50001F0E0201216F00019FEC03F001013651BE
:101A60009EA8FED7AD6E1ED00A0E3E25016E000E5A
:101A70003F21036E01C0E9FFEA6EEF50200812E13A
:101A80000B0E3E2502011F6F000E01013F210201D6
:101A9000206F226F1FC221F2000169EC03F001C028
:101AA00036F1010166D13FC122F23EC121F2010EA1
:101AB0000201246FB80E236F050E256F000123EC81
:101AC00003F0015208E196908D90E60E006E002E14
:101AD000FED796804FD13FC122F23EC121F2010EC6
:101AE0000201246FBE0E236F050E256F000123EC4B
:101AF00003F001522AE101013D530CE129C11FF21B
:101B000000011DEC06F00152D8B402D0010102D050
:101B1000000E01D0010E01013D6F110E1E6E3D53EE
:101B200010E102018D6B1E0E8C6F010E8E6F000195
:101B3000CBEC02F00152D8B402D0010102D0000E69
:101B400001D0010E01013D6F14D13FC122F23EC10F
:101B500021F2010E0201246FC40E236F050E256FC2
:101B6000000123EC03F001522AE101013D530CE195
:101B700029C11FF200011DEC06F00152D8B402D0B9
:101B8000010102D0000E01D0010E01013D6F010ED6
:101B90001E6E3D5310E102018D6B1E0E8C6F010E07
:101BA0008E6F0001CBEC02F00152D8B402D00101DB
:101BB00002D0000E01D0010E01013D6FDAD03FC10D
:101BC00022F23EC121F2010E0201246FCA0E236FE0
:101BD000050E256F000123EC03F001523FE1050ED5
:101BE00001013E25016E000E3F21036E01C0E9FF99
:101BF000EA6EEF520EE137C120F21F0E0201216F93
:101C000000019FEC03F0010136519EA8FED7AD6E96
:101C100024D0050E3E25016E000E3F21036E01C04B
:101C2000E9FFEA6EEF50200818E1060E3E2502019A
:101C30001F6F000E01013F210201206F226F1FC2A2
:101C400021F2000169EC03F001C037F101013753C3
:101C500004E0372D01D001D0376B8BD03FC122F289
:101C60003EC121F2010E0201246FD00E236F060E39
:101C7000256F000123EC03F0015240E1060E010143
:101C80003E25016E000E3F21036E01C0E9FFEA6EA2
:101C9000EF520EE138C120F21F0E0201216F000148
:101CA0009FEC03F0010136519EA8FED7AD6E25D002
:101CB000060E3E25016E000E3F21036E01C0E9FFB6
:101CC000EA6EEF50200819E1070E3E2502011F6F52
:101CD000000E01013F210201206F226F1FC221F27D
:101CE000000169EC03F001C038F10101385305E04F
:101CF000382D01D002D0010E386F3BD03FC122F207
:101D00003EC121F2010E0201246FFD0E236F050E6C
:101D1000256F000123EC03F0015213E163EF06F09D
:101D200001C01FF201C020F21F0E0201216F00014D
:101D30009FEC03F0010136519EA8FED7AD6E19D07D
:101D400000010101322D15D002011F6B1F5100014E
:101D50003FEC01F002011F2B006E00509EA8FED741
:101D6000AD6E150E1F5DF2E1010136519EA8FED742
:101D7000AD6E0001CED001013D530CE129C11FF22F
:101D800000011DEC06F00152D8B402D0010102D0CE
:101D9000000E01D0010E01013D6F400E2A251E6E7E
:101DA0003D5310E102018D6B1E0E8C6F010E8E6F84
:101DB0000001CBEC02F00152D8B402D0010102D0F4
:101DC000000E01D0010E01013D6F3051030825E0E6
:101DD0003D5311E13FC120F23EC11FF20201216BD0
:101DE000226B00016EEC06F00152D8B402D0010162
:101DF00002D0000E01D0010E01013D6F010E020163
:101E0000206F2D0E1F6F216B31C122F200016EEC8D
:101E100006F001C03DF118D001013D5312E13FC170
:101E200020F23EC11FF20201216B010E226F000160
:101E30006EEC06F00152D8B402D0010102D0000EBF
:101E400001D0010E01013D6F0101345363E03FC138
:101E500020F23EC11FF23F0E0201216F00017DEF13
:101E600006F002C020F201C01FF202011F5302E17E
:101E700020532DE001013D53D8B402D0020127D0F8
:101E800031C11FF2000179EC04F001521FE00101A1
:101E9000322D15D002011F6B1F51000115EC01F00E
:101EA00002011F2B006E00509EA8FED7AD6E130ED0
:101EB0001F5DF2E1010136519EA8FED7AD6E010E05
:101EC0000201206F0001D1EC01F0FF0022D00101DE
:101ED0003D5320E03D6B322D15D002011F6B1F5189
:101EE000000158EC01F002011F2B006E00509EA86B
:101EF000FED7AD6E140E1F5DF2E1010136519EA8B2
:101F0000FED7AD6E010E0201206F0001D1EC01F091
:0C1F1000FF000101000193EF08F0030046
:020000040030CA
:0E00000000021E19008381000FC00FE00F40A8
:00000001FF
;PIC18F4520
