:020000040000FA
:0400000009EF0BF009
:08000800056ED8CF06F0E0CF31
:1000100007F00001E9CF0DF0EACF08F0E1CF09F0D9
:10002000E2CF0AF0D9CF0BF0DACF0CF0F3CF14F017
:10003000F4CF15F0FACF16F000C00FF001C010F0A9
:1000400002C011F003C012F004C013F09DA22CEF07
:1000500000F09EB28FEF01F09DAA32EF00F09EBA41
:100060009CEF01F00FC000F010C001F011C002F0D1
:1000700012C003F013C004F00E8E0DC0E9FF08C0DB
:10008000EAFF09C0E1FF0AC0E2FF0BC0D9FF0CC0C4
:10009000DAFF14C0F3FF15C0F4FF16C0FAFF0550D5
:1000A00007C0E0FF06C0D8FF1000F2CF0EF0F29EAE
:1000B000F76AC40FF66E000EF7220900F5500EBE67
:1000C000F28E120054696D656F75743A2042656650
:1000D0006F72652077726974696E672025632025C9
:1000E00078200000F2CF0EF0F29EF76AFE0FF66E57
:1000F000000EF7220900F5500EBEF28E1200546970
:100100006D656F75743A2057616974696E67206612
:100110006F72204E44414320746F20676F206C6FD4
:1001200077207768696C652077726974696E6725D6
:100130006300F2CF0EF0F29EF76A4C0FF66E010EDE
:10014000F7220900F5500EBEF28E120054696D655B
:100150006F75743A2057616974696E6720666F72B3
:10016000204E52464420746F20676F20686967688C
:10017000207768696C652077726974696E6725639A
:100180000000F2CF0EF0F29EF76A9C0FF66E010EA1
:10019000F7220900F5500EBEF28E120054696D650B
:1001A0006F75743A2057616974696E6720666F7263
:1001B000204E44414320746F20676F206869676850
:1001C000207768696C652077726974696E6725634A
:1001D0000000F2CF0EF0F29EF76AEC0FF66E010E01
:1001E000F7220900F5500EBEF28E120054696D65BB
:1001F0006F75743A2057616974696E6720666F7213
:100200002044415620746F20676F206C6F772077F1
:1002100068696C652072656164696E6725630000BA
:10022000F2CF0EF0F29EF76A3A0FF66E020EF72248
:100230000900F5500EBEF28E120054696D656F759F
:10024000743A2057616974696E6720666F72204442
:10025000415620746F20676F20686967682077684F
:10026000696C652072656164696E67256300F2CF11
:100270000EF0F29EF76A880FF66E020EF722090062
:10028000F5500EBEF28E120056657273696F6E20C5
:1002900025692E3025630000F2CF0EF0F29EF76A3A
:1002A000B20FF66E020EF7220900F5500EBEF28E66
:1002B000120052656164206572726F72206F636311
:1002C000757265642E256300F2CF0EF0F29EF76A18
:1002D000E20FF66E020EF7220900F5500EBEF28E06
:1002E000120074657374696E67256300F2CF0EF0B7
:1002F000F29EF76A060FF66E030EF7220900F5501C
:100300000EBEF28E1200556E7265636F676E697A6B
:10031000656420636F6D6D616E642E256300010E50
:1003200001013E27D8B03F2BD8B4402BD8B4412B85
:100330009E92000132EF00F00101C3919EAAFED708
:10034000AECFC2F1C2511F080EE2C2517E080BE3CC
:100350002851282B036A280FE96E000E0320EA6E4D
:10036000C2C1EFFFC381C2510A0803E0C2510D08A8
:10037000E5E19EAA0CD0036A2851280FE96E000E11
:100380000320EA6E9EAAFED7AECFEFFFF2D7C3A13D
:1003900009D02851282B036A280FE96E000E03208C
:1003A000EA6EEF6A2851EA0801E2286B9E9A000182
:1003B00032EF00F0959C8C9C959A8C9A01013753F2
:1003C00005E0959E8C8E95988C9804D0959E8C9E79
:1003D00095988C8893809382938493869388938A4C
:1003E000938C938E37530EE09292898292849286F8
:1003F00092988998929A899A96908D8092809692F6
:100400008D9208D09282928492869288928A968067
:10041000928096820001000CCDDF929A898AC0EF0B
:100420000CF0010EEA6E470EE96EEF500EE0050E7D
:10043000016E006A002EFED7012EFBD7F90E006E6A
:10044000002EFED70000EF2EF2D7000CBEC1C0F187
:10045000BDC1BFF1C0C103F00101BFC1E9FFC0C10F
:10046000EAFFEF5206E0BF2BD8B4C02B0001F2D751
:100470000101BD51BF5D006EBE51C059036E00C089
:1004800001F0026E0001000C0101C1BF10D00F0E7F
:10049000006EC03900160A0E005C03E2300E002622
:1004A00002D0C151002600509EA8FED7AD6E0F0E9F
:1004B000C0170A0EC05D02E2300E02D0C19FC151CA
:1004C000C027C0519EA8FED7AD6E0001D6EF02F046
:1004D000959A8C8A0101B95302E092928992B8539D
:1004E00009E1B7C1BEF1B6C1BDF10001AFDF01C086
:1004F000B8F10101959C8C8C92948984929689869E
:100500009288928A416B406B3F6B3E6B9D82928AD0
:1005100080BA03D0928880B857D041513D5D54E3F2
:100520000BE140513C5D50E307E13F513B5D4CE343
:1005300003E13E513A5D48E304003D51415D43E330
:100540000BE13C51405D3FE307E13B513F5D3BE345
:1005500003E13A513E5D37E3312D2DD0B6C1E9FFBD
:10056000B7C1EAFFEFCFBDF1B6C1E9FFB7C1EAFFFE
:10057000EFCFBEF1BF6BBF51000197DD0101BF2B73
:10058000006E00509EA8FED7AD6E180EBF5DF3E161
:10059000BD519EA8FED7AD6E200E9EA8FED7AD6EB3
:1005A000BEC1C0F1570EC16F00016ED7200E9EA8CC
:1005B000FED7AD6E0101429142950001FBDE010EB6
:1005C000016E0CD10101A3D79D92BC6BB851BC5DEB
:1005D000D8B0ECD0036ABC51B625E96EB751032000
:1005E000EA6EEFCFBBF1416B406B3F6B3E6B9D8280
:1005F000928A80AA3CD041513D5D39E30BE14051E4
:100600003C5D35E307E13F513B5D31E303E13E51A2
:100610003A5D2DE304003D51415D28E30BE13C517F
:10062000405D24E307E13B513F5D20E303E13A51A4
:100630003E5D1CE3312D12D0BD6BBD51000152DD7A
:100640000101BD2B006E00509EA8FED7AD6E310E8D
:10065000BD5DF3E135519EA8FED7AD6E4291429546
:100660000001A8DE010E016EB9D00101C1D79D9233
:10067000FF0EBB1B936ABBC18AFF9288416B406B24
:100680003F6B3E6B9D82928880B83CD041513D5D6E
:1006900039E30BE140513C5D35E307E13F513B5D00
:1006A00031E303E13E513A5D2DE304003D51415DEC
:1006B00028E30BE13C51405D24E307E13B513F5D02
:1006C00020E303E13A513E5D1CE3312D12D0BD6BB6
:1006D000BD5100012EDD0101BD2B006E00509EA812
:1006E000FED7AD6E320EBD5DF3E135519EA8FED74B
:1006F000AD6E4291429500015DDE010E016E6ED03D
:100700000101C1D79D92010EB85DBC5D04E1BA53F1
:1007100002E09294899492968996416B406B3F6B6C
:100720003E6B9D82928A80BA3CD041513D5D39E357
:100730000BE140513C5D35E307E13F513B5D31E367
:1007400003E13E513A5D2DE304003D51415D28E354
:100750000BE13C51405D24E307E13B513F5D20E369
:1007600003E13A513E5D1CE3312D12D0BD6BBD510A
:10077000000107DD0101BD2B006E00509EA8FED7D1
:10078000AD6E320EBD5DF3E135519EA8FED7AD6E64
:100790004291429500010EDE010E016E1FD0010153
:1007A000C1D79D9292968986BC2B10D7959C8C9C24
:1007B00093809382938493869388938A938C938E69
:1007C000B95302E09292898292869284929A898A9F
:1007D00092988988959A8C9A000E016E0001000CFF
:1007E000B4C1B7F1B3C1B6F1B5C1B8F1010E0101A1
:1007F000B96FBA6B00016CDE0150000C46C12AF1E2
:1008000096908D90C80E0101476F00010ADE968018
:1008100096928D92140E1E6E0101B46B1E0EB36F74
:10082000010EB56F0001DCDF0150000C036A01010D
:100830002751280F466F000E0320476F036A275188
:10084000280F486F000E0320496FBE6F48C1BDF1ED
:100850000001FCDD01C049F1010E01010124016E1E
:10086000000E0220015027272751EA0801E2276BDA
:100870002851275D02E1276B286B46C101F000017A
:10088000EDEF0CF001014E51016A4D5D03E24DC1E7
:1008900000F00CD0006A080E4F6F4D3700364E51F5
:1008A000005CD8B0006E01364F2FF7D70001000C66
:1008B000200E010148A9300E496F47C100F047AF33
:1008C00007D0001E002A00C047F12D0E496F488F47
:1008D000015047C14DF1640E4E6F0001D3DF00C0DF
:1008E00047F1300E012401014A6F47C14DF10A0E54
:1008F0004E6F0001C7DF300E002401014C6F300E37
:1009000001244B6F49C100F048A702D048AF489579
:1009100048B90BD048AF22D048B520D000C04AF12A
:1009200048B31CD000C04BF119D0300E4A5D16E11F
:1009300000C04AF1200E496F48A704D0489548836B
:1009400048AF4893300E4B5D09E100C04BF1200EDB
:100950004A6F48A7F7D7489348AF489148A504D0B5
:1009600049519EA8FED7AD6E48A304D04A519EA817
:10097000FED7AD6E48A104D04B519EA8FED7AD6EF8
:100980004C519EA8FED7AD6E0001000C006A016AB2
:1009900001014F51D89050B100260032013250B3BE
:1009A00000260032013250B500260032013250B725
:1009B00000260032013250B900260032013250BB0D
:1009C00000260032013250BD00260032013250BFF5
:1009D00000260032013200015CEF05F001014D6B91
:1009E0004B6B0A0E4C6F4A6B4851491103E1000EE4
:1009F000016EC3D04D514D2B036A4825E96E495114
:100A00000320EA6EEFCF4EF14E512D080DE1010E9D
:100A10004B6F4D514D2B036A4825E96E4951032018
:100A2000EA6EEFCF4EF10DD04E512B080AE14D5139
:100A30004D2B036A4825E96E49510320EA6EEFCF3A
:100A40004EF14E512F08D8B090D04E513908D8A051
:100A50008CD04E51300821E1036A4D514825E96E92
:100A600049510320EA6EEF5078080AE0036A4D51BD
:100A70004825E96E49510320EA6EEF5058080DE110
:100A8000100E4C6F4D2B4D514D2B036A4825E96ECE
:100A900049510320EA6EEFCF4EF14C510A081DE197
:100AA0004E512F0819E24E51390816E30A0E4F6FC6
:100AB0004AC150F100016AD7300E01014E5D012498
:100AC0004A6F4D514D2B036A4825E96E4951032069
:100AD000EA6EEFCF4EF1E4D748D04C51100845E113
:100AE0004E51600806E24E517A0803E34E51DF0B87
:100AF00001D04E514E6F4E512F0803E24E5139082E
:100B000006E24E51400831E24E5146082EE34E5166
:100B10002F080CE24E51390809E34A394F6FF00EA5
:100B20004F17300E4E5D4F254A6F09D04A394F6F2F
:100B3000F00E4F17410E4E5D0A0F4F254A6F4D5173
:100B40004D2B036A4825E96E49510320EA6EEFCF29
:100B50004EF14E51600806E24E517A0803E34E51C1
:100B6000DF0B01D04E514E6FC6D74B2D04D04C51E8
:100B70000A0801E14A6D4AC101F00001000C0101BF
:100B8000476B5F0E1E6E47530EE1B46B1E0EB36FC4
:100B9000010EB56F000124DE0152D8B402D001016C
:100BA00002D0000E01D0010E0101476F3F0E1E6EF4
:100BB00047530EE1B46B1E0EB36F010EB56F00010B
:100BC0000FDE0152D8B402D0010102D0000E01D0D4
:100BD000010E0101476F200E46251E6E47530EE1A0
:100BE000B46B1E0EB36F010EB56F0001F9DD01523B
:100BF000D8B402D0010102D0000E01D0010E0101D3
:100C0000476F47C101F00001000C006A016A026AE7
:100C1000036A01015A6B5B6B5C6B5D6B5951581138
:100C2000571156112CE0200E5E6FD8905237533773
:100C3000543755375A375B375C375D3759515D5DEF
:100C400008E158515C5D05E157515B5D02E1565189
:100C50005A5D0FE356515A5F5751D8A0573D5B5F1D
:100C60005851D8A0583D5C5F5951D8A0593D5D5F9F
:100C7000D88000360136023603365E2FD6D7010EF5
:100C8000EA6E5A0EE96E0001000CE95001014A6F4C
:100C90003B0E516F9A0E506FCA0E4F6F4E6B0A0E7D
:100CA0004C6F49C155F148C154F147C153F146C198
:100CB00052F151C159F150C158F14FC157F14EC1D4
:100CC00056F10001A2DF0150EFCF46F1ECCF47F122
:100CD000ECCF48F1ECCF49F1005213E101014C5146
:100CE000010AD8A402D000010CD04A510CE00F0B2D
:100CF0004C5D01E00EE24ABF0CD04ABD04D0200E8C
:100D000003D001014A6B300E002600509EA8FED78A
:100D1000AD6E51C155F150C154F14FC153F14EC1A7
:100D200052F1596B586B576B0A0E566F00016DDF0D
:100D300003C051F102C050F101C04FF100C04EF1AB
:100D400001014C2FAED70001C1EF10F00101506B33
:100D50004E6B0A0E4F6F4D6B4C6B4B6B4A6B485191
:100D6000491105E1006A016A026A036A3DD15051E6
:100D7000502B036A4825E96E49510320EA6EEFCFF4
:100D800051F151512D080DE1010E4E6F5051502B74
:100D9000036A4825E96E49510320EA6EEFCF51F10D
:100DA0000DD051512B080AE15051502B036A4825B0
:100DB000E96E49510320EA6EEFCF51F151512F08EE
:100DC000D8B0FAD051513908D8A0F6D051513008D6
:100DD00021E1036A50514825E96E49510320EA6E2A
:100DE000EF5078080AE0036A50514825E96E4951EE
:100DF0000320EA6EEF5058080DE1100E4F6F502B94
:100E00005051502B036A4825E96E49510320EA6E80
:100E1000EFCF51F14F510A0844E151512F0840E200
:100E2000515139083DE3D8904A35536F4B35546FD3
:100E30004C35556F4D35566F4A35006E4B35016E4A
:100E40004C35026E4D35036E0036013602360336E0
:100E50000036013602360336F80E001653510026CE
:100E600054510122555102225651032203C04DF123
:100E700002C04CF101C04BF100C04AF1300E515D8F
:100E80004A27000E4B234C234D235051502B036A0D
:100E90004825E96E49510320EA6EEFCF51F1BDD7E5
:100EA0008BD04F511008D8A487D05151600806E26A
:100EB00051517A0803E35151DF0B01D05151516F69
:100EC00051512F0803E25151390807E251514008AE
:100ED000D8B072D0515146086FE351512F082DE21E
:100EE000515139082AE34A35536F4B35546F4C350D
:100EF000556F4D35566F533754375537563753372F
:100F00005437553756375337543755375637F00E11
:100F10005317300E515D5325006E000E5421016EA3
:100F2000000E5521026E000E56214D6F02C04CF18D
:100F300001C04BF100C04AF12AD04A35536F4B35FE
:100F4000546F4C35556F4D35566F533754375537B1
:100F50005637533754375537563753375437553735
:100F60005637F00E5317410E515D0A0F5325006E90
:100F7000000E5421016E000E5521026E000E562106
:100F80004D6F02C04CF101C04BF100C04AF150510D
:100F9000502B036A4825E96E49510320EA6EEF5051
:100FA000516F600806E251517A0803E35151DF0B9B
:100FB00001D05151516F84D74F510A080DE14E2D88
:100FC0000BD04A1F4B1F4C1F4D1F4A2BD8B44B2B25
:100FD000D8B44C2BD8B44D2B4AC100F04BC101F012
:100FE0004CC102F04DC103F00001000C0101B56BD2
:100FF00092988988929A899A9286416B406B3F6B4E
:101000003E6B9D82928680A63DD041513D5D3AE384
:101010000BE140513C5D36E307E13F513B5D32E37C
:1010200003E13E513A5D2EE304003D51415D29E369
:101030000BE13C51405D25E307E13B513F5D21E37E
:1010400003E13A513E5D1DE3312D13D0B76BB7512B
:101050000001E9EC00F00101B72B006E00509EA8E2
:10106000FED7AD6E300EB75DF2E135519EA8FED7CA
:10107000AD6E42930001DAEC01F0FF0E016E5FD01D
:101080000101C0D79D9292988998FF0E936E81CFEF
:10109000B5F1B51B9284B66B80B4B62B928A416BC6
:1010A000406B3F6B3E6B9D82928680B63DD0415136
:1010B0003D5D3AE30BE140513C5D36E307E13F51D2
:1010C0003B5D32E303E13E513A5D2EE304003D51C6
:1010D000415D29E30BE13C51405D25E307E13B51D4
:1010E0003F5D21E303E13A513E5D1DE3312D13D015
:1010F000B76BB751000110EC01F00101B72B006E86
:1011000000509EA8FED7AD6E310EB75DF2E13551AD
:101110009EA8FED7AD6E42930001DAEC01F0FF0EFF
:10112000016E0DD00101C0D79D92929A899AB3C1E8
:10113000E9FFB4C1EAFFB5C1EFFFB6C101F000019C
:10114000000C0101AD6BAE6BAF6BB091010EB26FD5
:10115000490EB16F375360E05F0E1E6EAF530FE163
:10116000B46B1E0EB36F010EB56F0001F0EC03F00F
:101170000152D8B402D0010102D0000E01D0010EFC
:101180000101AF6F3F0E1E6EAF530FE1B46B1E0E29
:10119000B36F010EB56F0001F0EC03F00152D8B44B
:1011A00002D0010102D0000E01D0010E0101AF6F8B
:1011B000AF5303E0010E016E52D1200E2A251E6EA0
:1011C000AF530FE1B46B1E0EB36F010EB56F00018C
:1011D000F0EC03F00152D8B402D0010102D0000EAD
:1011E00001D0010E0101AF6FAF5303E0010E016E9C
:1011F00036D1400E29251E6EB46B1E0EB36F010E44
:10120000B56F0001F0EC03F001C0AFF10101AF5385
:1012100003E0010E016E23D1AD6B010EB26F490EDA
:10122000B16F462D73D0010EB46F470EB36F00013E
:10123000DDDE01C048F10101483D03D0010E016E21
:101240000ED12F5310E02C51475D02E148530AE0C4
:10125000036AAD51490FE96E010E0320EA6E47C1E2
:10126000EFFFAD2B1CD02D51475D0FE148530DE131
:10127000010EAD5D036A490FE96E010E0320EA6EAF
:101280002C51EF5C01E1AD070AD0036AAD51490F63
:10129000E96E010E0320EA6E47C1EFFFAD2BAD51A1
:1012A00064081BE1AE6BAE51630811E3B2C103F0F9
:1012B000B1C1E9FFB2C1EAFFEFCFB3F1B3519EA8CC
:1012C000FED7AD6EB12BD8B4B22BAE2BECD7AD6B35
:1012D000010EB26F490EB16F04004853A4E1AE6B2A
:1012E0003251AD5DAE5D11E2B2C103F0B1C1E9FFB3
:1012F000B2C1EAFFEFCFB3F1B3519EA8FED7AD6EF6
:10130000B12BD8B4B22BAE2BEBD772D0010EB46F89
:10131000470EB36F00016ADE01C048F10101483D8C
:1013200003D0010E016E9BD02F5310E02C51475D6E
:101330000BE0036AAD51490FE96E010E0320EA6E1E
:1013400047C1EFFFAD2B01D0B0811BD02D51475DC0
:101350000EE1010EAD5D036A490FE96E010E032037
:10136000EA6E2C51EF5C02E1AD07B0810AD0036A4E
:10137000AD51490FE96E010E0320EA6E47C1EFFF40
:10138000AD2BAD5164081BE1AE6BAE51630811E3A8
:10139000B2C103F0B1C1E9FFB2C1EAFFEFCFB3F1CF
:1013A000B3519EA8FED7AD6EB12BD8B4B22BAE2BE5
:1013B000ECD7AD6B010EB26F490EB16F0400B0A156
:1013C000A5D7B091AE6B3251AD5DAE5D11E2B2C149
:1013D00003F0B1C1E9FFB2C1EAFFEFCFB3F1B351FE
:1013E0009EA8FED7AD6EB12BD8B4B22BAE2BEBD7E7
:1013F000342D04D035519EA8FED7AD6E37532DE065
:10140000AF6B5F0E1E6EAF530FE1B46B1E0EB36F6A
:10141000010EB56F0001F0EC03F00152D8B402D018
:10142000010102D0000E01D0010E0101AF6F3F0E8D
:101430001E6EAF530FE1B46B1E0EB36F010EB56F8E
:101440000001F0EC03F00152D8B402D0010102D047
:10145000000E01D0010E0101AF6FAFC101F000011C
:10146000000C0101496B180E1E6E49530FE1B46B5D
:101470001E0EB36F010EB56F0001F0EC03F00152C8
:10148000D8B402D0010102D0000E01D0010E01013A
:10149000496F400E48251E6E49530FE1B46B1E0E76
:1014A000B36F010EB56F0001F0EC03F00152D8B438
:1014B00002D0010102D0000E01D0010E0101496FDE
:1014C000495301E025D0010EB46F4A0EB36F0001FD
:1014D0008DDD01C049F10101492D01D0496B493D24
:1014E00002D0010E496F190E1E6EB46B1E0EB36F43
:1014F000010EB56F0001F0EC03F00101495308E162
:101500004A519EA8FED7AD6E35519EA8FED7AD6E4E
:101510000001000C9280000E80B0010E016E000EE2
:1015200001A0010E016E82EF12F0015046C14DF193
:10153000640E01014E6F000142EC04F000C046F160
:101540000150300E08E1010147A30ED047B70CD07F
:1015500047B9200E04D001014797479947810126DA
:1015600001509EA8FED7AD6E46C14DF10A0E4E6FDA
:10157000000142EC04F000C046F10150300E08E1D9
:10158000010147B70BD047A109D047B9200E000190
:10159000012601509EA8FED7AD6E0101300E4627F0
:1015A00046519EA8FED7AD6E0001B2EF12F047C1C2
:1015B000B7F146C1B6F148C1B8F10101B96B49C1F3
:1015C000BAF1000168EC02F00150000C47C103F0D1
:1015D000010146C1E9FF47C1EAFF4851EF5C12E053
:1015E00047C103F046C1E9FF47C1EAFFEF5204E1FA
:1015F000000E016E026E0AD0462BD8B4472B0001B4
:10160000E5D7010146C101F047C102F000018FEFAB
:1016100015F0F86AD09E0D8EEA6AE96AB886090E5E
:10162000AF6E000EB06EA60EAC6E900EAB6EC150DB
:10163000C00B0F09C16E070EB46E186A196A01015A
:10164000276B286B010E296F0A0E2B6F2C6B2D6BED
:101650002E6B030E2F6F010E306F316B326B336FB9
:10166000346F0D0E356F366B010E376F386F396B77
:10167000E80E3A6F030E3B6F3C6B3D6B3E6B3F6B6E
:10168000406B416B429142934295436B456B280EF0
:10169000446F949A8B8AD180D76AD66A080E06095D
:1016A000CA6E900ECB6EC00EF2129D92F2CF46F132
:1016B000F29EA96AA69CA69EA680A85046BFF28E5E
:1016C000AA08D8A494D0F2CF46F1F29E010EA96EDA
:1016D000A69CA69EA680A85046BFF28E376FF2CF7A
:1016E00046F1F29E020EA96EA69CA69EA680A85068
:1016F00046BFF28E296FF2CF46F1F29E030EA96E1D
:10170000A69CA69EA680A85046BFF28E356FF2CF4B
:1017100046F1F29E040EA96EA69CA69EA680A85035
:1017200046BFF28E346FF2CF46F1F29E050EA96EDF
:10173000A69CA69EA680A85046BFF28E2F6F2F5162
:10174000000105E0010A0CE0030A12E019D00101D2
:101750002F6B0D0E2C6F0A0E2D6F2E6B2B6F16D06C
:10176000010E01012F6F0D0E2C6F2D6B2B6F0ED004
:10177000020E01012F6F0A0E2C6F2D6B2B6F06D0FE
:10178000030E01012F6F2C6B2B6B00D0F2CF46F1B3
:10179000F29E060EA96EA69CA69EA680A85046BFE5
:1017A000F28E306FF2CF46F1F29E070EA96EA69C24
:1017B000A69EA680A85046BFF28E336FF2CF46F1A8
:1017C000F29E080EA96EA69CA69EA680A85046BFB3
:1017D000F28E366FF2CF46F1F29E090EA96EA69CEC
:1017E000A69EA680A85046BFF28E386FC6D0A96AC2
:1017F000AA0EA86EA69CA69EA684F2CF00F0F29E2A
:101800000F01550EA76EAA0EA76EA682A6B2FED72E
:10181000A6940050F212010EA96EA86EA69CA69E78
:10182000A684F2CF00F0F29E550EA76EAA0EA76E08
:10183000A682A6B2FED7A6940050F212020EA96E9E
:10184000010EA86EA69CA69EA684F2CF00F0F29E82
:10185000550EA76EAA0EA76EA682A6B2FED7A694B4
:101860000050F212030EA96E0D0EA86EA69CA69E45
:10187000A684F2CF00F0F29E550EA76EAA0EA76EB8
:10188000A682A6B2FED7A6940050F212040EA96E4C
:10189000010EA86EA69CA69EA684F2CF00F0F29E32
:1018A000550EA76EAA0EA76EA682A6B2FED7A69464
:1018B0000050F212050EA96E030EA86EA69CA69EFD
:1018C000A684F2CF00F0F29E550EA76EAA0EA76E68
:1018D000A682A6B2FED7A6940050F212060EA96EFA
:1018E000010EA86EA69CA69EA684F2CF00F0F29EE2
:1018F000550EA76EAA0EA76EA682A6B2FED7A69414
:101900000050F212070EA96E010EA86EA69CA69EAC
:10191000A684F2CF00F0F29E550EA76EAA0EA76E17
:10192000A682A6B2FED7A6940050F212080EA96EA7
:10193000A86AA69CA69EA684F2CF00F0F29E550E41
:10194000A76EAA0EA76EA682A6B2FED7A6940050D6
:10195000F212090EA96E010EA86EA69CA69EA68480
:10196000F2CF00F0F29E550EA76EAA0EA76EA682C9
:10197000A6B2FED7A6940050F21200010CEF02F0BE
:101980000101375305E0466B0001FEEC03F0010155
:10199000949A8B9A0400640E476F000111EC02F0D8
:1019A0000400949A8B8A0400640E0101476F0001C1
:1019B00011EC02F004009D8A0400949A8B9A0400B2
:1019C00001012751285DD8B4A2EF15F045C147F1B8
:1019D00044C146F1000116EF04F0036A01C044F16E
:1019E000010103C045F145C103F044C1E9FF45C110
:1019F000EAFFEF502B08D8A40AEF15F0010E44259A
:101A0000016E000E4521036E01C0E9FFEA6EEF5042
:101A10002B08D8A43AEF13F0020E4425016E000EF5
:101A20004521036E01C0E9FFEA6EEF506108D8A4BA
:101A300086D0030E4425016E000E4521036E01C0C1
:101A4000E9FFEA6EEF50640834E1060E4425016EAA
:101A5000000E4521036E01C0E9FFEA6EEF520DE171
:101A600029C147F11F0E486F000158EC04F0010135
:101A700035519EA8FED7AD6E1BD0060E4425016ED3
:101A8000000E4521036E01C0E9FFEA6EEF50200809
:101A90000FE1070E4425466F000E4521476F496F41
:101AA00046C148F10001EEEC04F001C029F101014A
:101AB00044D0030E4425016E000E4521036E01C083
:101AC000E9FFEA6EEF50750838E1060E4425016E15
:101AD000000E4521036E01C0E9FFEA6EEF520DE1F1
:101AE00033C147F11F0E486F000158EC04F00101AB
:101AF00035519EA8FED7AD6E20D0060E4425016E4E
:101B0000000E4521036E01C0E9FFEA6EEF50200888
:101B100014E1070E4425466F000E4521476F496FBB
:101B200046C148F10001EEEC04F001C033F10101BF
:101B30003351020802E2020E336F39EF13F0020E46
:101B40004425016E000E4521036E01C0E9FFEA6ED7
:101B5000EF5063082BE1375329E043530CE129C1CF
:101B600046F10001BFEC05F00152D8B402D00101EA
:101B700002D0000E01D0010E0101436F040E1E6E53
:101B800043530FE1B46B1E0EB36F010EB56F00012E
:101B9000F0EC03F00152D8B402D0010102D0000EE3
:101BA00001D0010E0101436F39EF13F0020E4425FD
:101BB000016E000E4521036E01C0E9FFEA6EEF5091
:101BC00064083BE1070E4425016E000E4521036EBB
:101BD00001C0E9FFEA6EEF520DE131C147F11F0E7E
:101BE000486F000158EC04F0010135519EA8FED762
:101BF000AD6E21D0070E4425016E000E4521036E07
:101C000001C0E9FFEA6EEF50200815E1080E4425F7
:101C1000466F000E4521476F496F46C148F10001EC
:101C2000EEEC04F001C031F10101315304E0312D3B
:101C300001D001D0316B39EF13F0020E4425016E53
:101C4000000E4521036E01C0E9FFEA6EEF50650802
:101C5000D8A42FD1040E4425016E000E4521036E39
:101C600001C0E9FFEA6EEF5073085BE1050E442501
:101C7000016E000E4521036E01C0E9FFEA6EEF52CE
:101C80000DE12FC147F11F0E486F000158EC04F021
:101C9000010135519EA8FED7AD6E42D0050E4425F8
:101CA000016E000E4521036E01C0E9FFEA6EEF50A0
:101CB000200836E1060E4425466F000E4521476F89
:101CC000496F46C148F10001EEEC04F001C02FF16C
:101CD00001012F51000105E0010A0CE0030A12E0A6
:101CE00019D001012F6B0D0E2C6F0A0E2D6F2E6B6C
:101CF0002B6F16D0010E01012F6F0D0E2C6F2D6B67
:101D00002B6F0ED0020E01012F6F0A0E2C6F2D6B60
:101D10002B6F06D0030E01012F6F2C6B2B6B00D0A5
:101D2000C6D0040E4425016E000E4521036E01C08D
:101D3000E9FFEA6EEF50690834E1050E4425016EB3
:101D4000000E4521036E01C0E9FFEA6EEF520DE17E
:101D500030C147F11F0E486F000158EC04F001013B
:101D600035519EA8FED7AD6E1BD0050E4425016EE1
:101D7000000E4521036E01C0E9FFEA6EEF50200816
:101D80000FE1060E4425466F000E4521476F496F4F
:101D900046C148F10001EEEC04F001C030F1010150
:101DA00086D0060E4425016E000E4521036E01C04B
:101DB000E9FFEA6EEF5065083BE10C0E4425016E29
:101DC000000E4521036E01C0E9FFEA6EEF520DE1FE
:101DD00034C147F11F0E486F000158EC04F00101B7
:101DE00035519EA8FED7AD6E22D00C0E4425016E53
:101DF000000E4521036E01C0E9FFEA6EEF50200896
:101E000016E10D0E4425466F000E4521476F496FC0
:101E100046C148F10001EEEC04F001C034F10101CB
:101E2000345305E0342D01D002D0010E346F3FD081
:101E3000060E4425016E000E4521036E01C0E9FF28
:101E4000EA6EEF50630833E10A0E4425016E000E7E
:101E50004521036E01C0E9FFEA6EEF520DE135C185
:101E600047F11F0E486F000158EC04F00101355195
:101E70009EA8FED7AD6E1BD00A0E4425016E000E43
:101E80004521036E01C0E9FFEA6EEF5020080FE123
:101E90000B0E4425466F000E4521476F496F46C122
:101EA00048F10001EEEC04F001C035F1010139EF19
:101EB00013F0020E4425016E000E4521036E01C091
:101EC000E9FFEA6EEF5069080BE1375309E096909D
:101ED0008D90E60E006E002EFED7968039EF13F03F
:101EE000020E4425016E000E4521036E01C0E9FF7C
:101EF000EA6EEF506C08D8A4B4D0030E4425016EEE
:101F0000000E4521036E01C0E9FFEA6EEF506C0838
:101F10002AE1375328E043530CE129C146F100017F
:101F2000BFEC05F00152D8B402D0010102D0000E7E
:101F300001D0010E0101436F110E1E6E43530FE1DC
:101F4000B46B1E0EB36F010EB56F0001F0EC03F021
:101F50000152D8B402D0010102D0000E01D0010E0E
:101F60000101436F7DD0040E4425016E000E452112
:101F7000036E01C0E9FFEA6EEF5063082AE13753B0
:101F800028E043530CE129C146F10001BFEC05F004
:101F90000152D8B402D0010102D0000E01D0010ECE
:101FA0000101436F010E1E6E43530FE1B46B1E0E11
:101FB000B36F010EB56F0001F0EC03F00152D8B41D
:101FC00002D0010102D0000E01D0010E0101436FC9
:101FD00047D0040E4425016E000E4521036E01C05A
:101FE000E9FFEA6EEF506E083BE1375339E1050E29
:101FF0004425016E000E4521036E01C0E9FFEA6E23
:10200000EF520DE136C147F11F0E486F000158EC49
:1020100004F0010135519EA8FED7AD6E21D0050E0A
:102020004425016E000E4521036E01C0E9FFEA6EF2
:10203000EF50200815E1060E4425466F000E45219D
:10204000476F496F46C148F10001EEEC04F001C052
:1020500036F10101365304E0362D01D001D0366B44
:1020600008D3020E4425016E000E4521036E01C007
:10207000E9FFEA6EEF506D0846E1060E4425016E59
:10208000000E4521036E01C0E9FFEA6EEF520DE13B
:1020900037C147F11F0E486F000158EC04F00101F1
:1020A00035519EA8FED7AD6E2DD0060E4425016E8B
:1020B000000E4521036E01C0E9FFEA6EEF502008D3
:1020C00021E1070E4425466F000E4521476F496FF9
:1020D00046C148F10001EEEC04F001C037F1010106
:1020E000375305E0372D01D002D0010E376F0001C4
:1020F000DAEC01F00101375305E0466B0001FEEC1C
:1021000003F00101B6D2020E4425016E000E4521F6
:10211000036E01C0E9FFEA6EEF507208D8A493D0B5
:10212000030E4425016E000E4521036E01C0E9FF38
:10213000EA6EEF506508D8A472D0060E4425016EF1
:10214000000E4521036E01C0E9FFEA6EEF505F0803
:1021500040E10D0E4425016E000E4521036E01C0C5
:10216000E9FFEA6EEF5213E1410EE96E3DC149F11C
:102170003CC148F13BC147F13AC146F1000145EF8E
:1021800006F0010135519EA8FED7AD6E21D00D0E8F
:102190004425016E000E4521036E01C0E9FFEA6E81
:1021A000EF50200815E10E0E4425466F000E452124
:1021B000476F496F46C148F10001A6EC06F003C025
:1021C0003DF102C03CF101C03BF100C03AF1010118
:1021D00025D0375323E0060E4425016E000E45211D
:1021E000036E01C0E9FFEA6EEF5206E1466B0001A3
:1021F000A1EC08F012D00101070E4425016E000E7B
:102200004521036E01C0E9FFEA6EEF50650806E163
:10221000010E466F0001A1EC08F0010113D0030E7E
:102220004425016E000E4521036E01C0E9FFEA6EF0
:10223000EF50730807E1010E476F000111EC02F047
:10224000FF00010116D2020E4425016E000E452149
:10225000036E01C0E9FFEA6EEF507308D8A4A4D161
:10226000030E4425016E000E4521036E01C0E9FFF7
:10227000EA6EEF506108D8A4F4D0090E4425016E2F
:10228000000E4521036E01C0E9FFEA6EEF520DE139
:1022900038C147F11F0E486F000158EC04F00101EE
:1022A00035519EA8FED7AD6EDBD0090E4425016ED8
:1022B000000E4521036E01C0E9FFEA6EEF502008D1
:1022C000D8A4CED00A0E4425466F000E4521476F94
:1022D000496F46C148F10001EEEC04F001C038F14D
:1022E0000101385305E0382D01D002D0010E386FBE
:1022F000382DB6D0010EA96E37C1A8FFA69CA69EA8
:10230000A684F2CF00F0F29E0F01550EA76EAA0E22
:10231000A76EA682A6B2FED7A6940050F212020EB5
:10232000A96E29C1A8FFA69CA69EA684F2CF00F0A4
:10233000F29E550EA76EAA0EA76EA682A6B2FED773
:10234000A6940050F212030EA96E35C1A8FFA69CF8
:10235000A69EA684F2CF00F0F29E550EA76EAA0E9E
:10236000A76EA682A6B2FED7A6940050F212040E63
:10237000A96E34C1A8FFA69CA69EA684F2CF00F049
:10238000F29E550EA76EAA0EA76EA682A6B2FED723
:10239000A6940050F212050EA96E2FC1A8FFA69CAC
:1023A000A69EA684F2CF00F0F29E550EA76EAA0E4E
:1023B000A76EA682A6B2FED7A6940050F212060E11
:1023C000A96E30C1A8FFA69CA69EA684F2CF00F0FD
:1023D000F29E550EA76EAA0EA76EA682A6B2FED7D3
:1023E000A6940050F212070EA96E33C1A8FFA69C56
:1023F000A69EA684F2CF00F0F29E550EA76EAA0EFE
:10240000A76EA682A6B2FED7A6940050F212080EBE
:10241000A96E36C1A8FFA69CA69EA684F2CF00F0A6
:10242000F29E550EA76EAA0EA76EA682A6B2FED782
:10243000A6940050F212090EA96E38C1A8FFA69CFE
:10244000A69EA684F2CF00F0F29E550EA76EAA0EAD
:10245000A76EA682A6B2FED7A6940050F212010182
:10246000A2D0030E4425016E000E4521036E01C06B
:10247000E9FFEA6EEF50700834E1375332E0070E9F
:102480004425016E000E4521036E01C0E9FFEA6E8E
:10249000EF5207E129C148F1000131EC0AF01FD0E9
:1024A0000101070E4425016E000E4521036E01C097
:1024B000E9FFEA6EEF50200813E1080E4425466F4D
:1024C000000E4521476F496F46C148F10001EEEC0F
:1024D00004F001C047F101C048F131EC0AF00101FC
:1024E00062D0030E4425016E000E4521036E01C02B
:1024F000E9FFEA6EEF50720815E1375313E000016F
:102500008AEF0AF001C046F101C047F11F0E010138
:10251000486F000158EC04F0010135519EA8FED728
:10252000AD6E41D0030E4425016E000E4521036EB1
:1025300001C0E9FFEA6EEF50740835E1375333E12B
:10254000080E4425016E000E4521036E01C0E9FF0F
:10255000EA6EEF520DE139C146F11B0E476F0001E3
:1025600095EF0AF0010135519EA8FED7AD6E1BD044
:10257000080E4425016E000E4521036E01C0E9FFDF
:10258000EA6EEF5020080FE1090E4425466F000E59
:102590004521476F496F46C148F10001EEEC04F058
:1025A00001C039F1010165D0020E4425016E000E13
:1025B0004521036E01C0E9FFEA6EEF5074082AE17D
:1025C000375328E0050E4425016E000E4521036EA9
:1025D00001C0E9FFEA6EEF521CE143530CE129C14F
:1025E00046F10001BFEC05F00152D8B402D0010160
:1025F00002D0000E01D0010E0101436F080E1E6EC5
:10260000B46B1E0EB36F010EB56F0001F0EC03F05A
:1026100001012FD0020E4425016E000E4521036EEC
:1026200001C0E9FFEA6EEF50760823E1466B4651A0
:10263000000137EC01F00101462B006E00509EA80E
:10264000FED7AD6E080E465DF2E1060E476F1F0E17
:10265000486F000158EC04F02E0E9EA8FED7AD6E18
:10266000300E9EA8FED7AD6E010135519EA8FED753
:10267000AD6ECDD1010E4425016E000E4521036ED5
:1026800001C0E9FFEA6EEF5061083EE1020E442509
:10269000016E000E4521036E01C0E9FFEA6EEF50A6
:1026A0003A0810E1030E4425466F000E4521476F9E
:1026B000496F46C148F10001EEEC04F001C029F178
:1026C00021D00101020E4425016E000E4521036E4A
:1026D00001C0E9FFEA6EEF50750813E10A0E4425C8
:1026E000466F000E4521476F496F46C148F1000112
:1026F000EEEC04F001C033F10101332D02D0020EE3
:10270000336F000185D10101010E4425016E000ED9
:102710004521036E01C0E9FFEA6EEF50640810E145
:10272000070E4425466F000E4521476F496F46C18D
:1027300048F10001EEEC04F001C031F169D1010172
:10274000010E4425016E000E4521036E01C0E9FF14
:10275000EA6EEF5065083DE1030E4425016E000E60
:102760004521036E01C0E9FFEA6EEF50730815E1E1
:10277000050E4425466F000E4521476F496F46C13F
:1027800048F10001EEEC04F001C02BF12BC12CF15B
:1027900001012D6B040E2F6F1BD0030E4425016E1B
:1027A000000E4521036E01C0E9FFEA6EEF50690893
:1027B0000FE1050E4425466F000E4521476F496F16
:1027C00046C148F10001EEEC04F001C030F1010116
:1027D0001ED1010E4425016E000E4521036E01C07D
:1027E000E9FFEA6EEF5067082AE1375327E0050E4C
:1027F0004425016E000E4521036E01C0E9FFEA6E1B
:10280000EF521CE143530CE129C146F10001BFEC3A
:1028100005F00152D8B402D0010102D0000E01D05F
:10282000010E0101436F080E1E6EB46B1E0EB36FD6
:10283000010EB56F0001F0EC03F00101E8D0010ECC
:102840004425016E000E4521036E01C0E9FFEA6ECA
:10285000EF50720842E1030E4425016E000E45213F
:10286000036E01C0E9FFEA6EEF50610822E13753C1
:102870001DE030C146F10001A1EC08F0015217E063
:102880000101312D13D0466B465100014CEC01F093
:102890000101462B006E00509EA8FED7AD6E130EB0
:1028A000465DF2E135519EA8FED7AD6E000113D012
:1028B0000101030E4425016E000E4521036E01C087
:1028C000E9FFEA6EEF50730807E1010E476F000160
:1028D00011EC02F0FF0001019AD0010E4425016EB7
:1028E000000E4521036E01C0E9FFEA6EEF50730848
:1028F00010E1070E4425466F000E4521476F496FD2
:1029000046C148F10001EEEC04F001C032F180D084
:102910000101010E4425016E000E4521036E01C028
:10292000E9FFEA6EEF50740844E1020E4425016E9F
:10293000000E4521036E01C0E9FFEA6EEF503A0830
:1029400016E1030E4425466F000E4521476F496F7F
:1029500046C148F10001A6EC06F003C03DF102C0FB
:102960003CF101C03BF100C03AF121D00101020E5F
:102970004425016E000E4521036E01C0E9FFEA6E99
:10298000EF50650813E1466B4651000164EC01F01D
:102990000101462B006E00509EA8FED7AD6E070EBB
:1029A000465DF2E135519EA8FED7AD6E000130D0F4
:1029B0000101010E4425016E000E4521036E01C088
:1029C000E9FFEA6EEF5076080DE1060E476F1F0E25
:1029D000486F000158EC04F0010135519EA8FED764
:1029E000AD6E15D0312D13D0466B4651000176ECFB
:1029F00001F00101462B006E00509EA8FED7AD6E7F
:102A0000150E465DF2E135519EA8FED7AD6E000170
:102A10009AD00101375328E043530CE129C146F114
:102A20000001BFEC05F00152D8B402D0010102D080
:102A3000000E01D0010E0101436F400E2A251E6ECB
:102A400043530FE1B46B1E0EB36F010EB56F00015F
:102A5000F0EC03F00152D8B402D0010102D0000E14
:102A600001D0010E0101436F375302E142A13ED074
:102A70002F51030825E0435310E145C147F144C1FC
:102A800046F1486B496B0001D7EC0AF00152D8B40B
:102A900002D0010102D0000E01D0010E0101436FEE
:102AA00043530DE1010E476F2C0E466F486B30C14A
:102AB00049F10001D7EC0AF001C043F1010116D041
:102AC000435311E145C147F144C146F1486B010E42
:102AD000496F0001D7EC0AF00152D8B402D00101CD
:102AE00002D0000E01D0010E0101436F375327E0E1
:102AF000435325E1332D07D030C146F10001A1EC4D
:102B000008F01BD001013351020818E145C147F11B
:102B100044C146F13F0E486F0001E6EF0AF002C0E3
:102B200047F101C046F10101465302E1475306E077
:102B300030C146F10001A1EC08F0010103D043537C
:102B400001E0436B000101013753D8A490D0928279
:102B500080B269D0928280B265D0929A899AB46B21
:102B60001E0EB36F0001F6EC07F092988988400EB4
:102B7000010129251E5C02E1428152D0200E292547
:102B80001E5C02E142834CD01E503F0802E142939A
:102B900047D01E505F0802E1429142D01E501808F3
:102BA00002E142853DD01E50190802E1429538D01D
:102BB0001E5014080DE1140E9EA8FED7AD6E3551BF
:102BC0009EA8FED7AD6E429342914295396B28D0B4
:102BD0001E5011080BE142A309D0110E9EA8FED78A
:102BE000AD6E35519EA8FED7AD6E1AD01E2C0BD0FF
:102BF00042A309D0010E9EA8FED7AD6E35519EA806
:102C0000FED7AD6E0DD01E5008080AE142A308D0D1
:102C1000080E9EA8FED7AD6E35519EA8FED7AD6EAC
:102C2000929A898A24D00F0E006E002EFED79282CF
:102C300080A21DD042A30AD0929A899A30C146F14F
:102C40000001A1EC08F00101429311D042A10FD084
:102C500042A50DD0010E476F390E466F010E486F29
:102C6000496B0001D7EC0AF0010142954291000145
:062C7000DFEF0CF0030091
:020000040030CA
:0E00000000021E19008381000FC00FE00F40A8
:00000001FF
;PIC18F4520
