:020000040000FA
:0400000088EF07F08E
:08000800056ED8CF06F0E0CF31
:1000100007F00001E9CF0DF0EACF08F0E1CF09F0D9
:10002000E2CF0AF0D9CF0BF0DACF0CF0F3CF14F017
:10003000F4CF15F0FACF16F000C00FF001C010F0A9
:1000400002C011F003C012F004C013F09DA22CEF07
:1000500000F09EB273EF01F09DAA32EF00F09EBA5D
:100060009BEF01F00FC000F010C001F011C002F0D2
:1000700012C003F013C004F00E8E0DC0E9FF08C0DB
:10008000EAFF09C0E1FF0AC0E2FF0BC0D9FF0CC0C4
:10009000DAFF14C0F3FF15C0F4FF16C0FAFF0550D5
:1000A00007C0E0FF06C0D8FF1000F2CF0EF0F29EAE
:1000B000F76AC40FF66E000EF7220900F5500EBE67
:1000C000F28E120054696D656F75743A205761693C
:1000D00074696E6720666F72204E44414320746FCE
:1000E00020676F206C6F77207768696C6520777266
:1000F0006974696E670A0000F2CF0EF0F29EF76A2B
:10010000120FF66E010EF7220900F5500EBEF28EA8
:10011000120054696D656F75743A2057616974698E
:100120006E6720666F72204E52464420746F2067BF
:100130006F2068696768207768696C6520777269E5
:1001400074696E670A00F2CF0EF0F29EF76A600FD4
:10015000F66E010EF7220900F5500EBEF28E120067
:1001600054696D656F75743A2057616974696E677B
:1001700020666F72204E44414320746F20676F20C9
:1001800068696768207768696C6520777269746947
:100190006E670A00F2CF0EF0F29EF76AAE0FF66EAF
:1001A000010EF7220900F5500EBEF28E12005469BE
:1001B0006D656F75743A2057616974696E67206662
:1001C0006F722044415620746F20676F206C6F77E8
:1001D000207768696C652072656164696E670A00E2
:1001E000F2CF0EF0F29EF76AFA0FF66E010EF722CA
:1001F0000900F5500EBEF28E120054696D656F75E0
:10020000743A2057616974696E6720666F72204482
:10021000415620746F20676F20686967682077688F
:10022000696C652072656164696E670A0000F2CFCF
:100230000EF0F29EF76A480FF66E020EF7220900E2
:10024000F5500EBEF28E1200526561642065727226
:100250006F72206F6363757265642E0A0D00F2CFB2
:100260000EF0F29EF76A780FF66E020EF722090082
:10027000F5500EBEF28E120074657374696E670AD3
:100280000D00F2CF0EF0F29EF76A9C0FF66E020E92
:10029000F7220900F5500EBEF28E1200556E7265FF
:1002A000636F676E697A656420636F6D6D616E64FC
:1002B0002E0A0D00F2CF0EF0F29EF76ACE0FF66E08
:1002C000020EF7220900F5500EBEF28E1200577290
:1002D000697465206572726F72206F6363757265F1
:1002E000642E0A0D00000101872F03D08A2B6E0EA9
:1002F000876F9E92000132EF00F0ECC2EEF2EBC28B
:10030000EDF2EEC203F00201EDC2E9FFEEC2EAFF38
:10031000EF5206E0ED2BD8B4EE2B0001F2D702012C
:10032000EB51ED5D006EEC51EE59036E00C001F033
:10033000026E0001000C290E010176250201E96F11
:10034000EA6BD8B0EA2BEAC2EAFFE96EE906E92ACD
:100350009EAAFED7AECFEFFF0D0EEF5CF8E1EF6A7D
:10036000290E010176250201E96FEA6BD8B0EA2B6C
:10037000EAC2ECF2EB6F0001C0DF01C0EAF2010E4D
:1003800002010124016E000E0220015001017627B6
:10039000763D01D0766B9E9A000132EF00F0959C7D
:1003A0008C9C959A8C9A959E8C8E95988C9893801F
:1003B0009382938493869388938A938C938E92925C
:1003C00089829284928692988998929A899A969034
:1003D0008D80928096928D82EFEF01F0E0D7929A15
:1003E000898A58EF09F0020EEA6E6E0EE96EEF5040
:1003F0000EE0050E016E006A002EFED7012EFBD71F
:10040000F90E006E002EFED70000EF2EF2D7000C82
:10041000959A8C8A0201E05302E092928992DF530E
:100420000FE1186AF2BE188EF29EDEC2ECF2DDC257
:10043000EBF2000162DF18BEF28E01C0DFF20201B2
:10044000959C8C8C92948984929689869288E36B91
:10045000DF51E35DD8B08FD0036AE351DD25E96E4B
:10046000DE510320EA6EEFCFE2F2928A01018A6B3D
:1004700088518A25896F928A80AA1DD08A51895D08
:100480001AE3040089518A5D15E3802D10D0020122
:10049000E46BE451000109DE0201E42B006E005020
:1004A0009EA8FED7AD6E320EE45DF3E10101010EB0
:1004B000016E79D0E0D7FF0E0201E21B936AE2C21F
:1004C0008AFF928801018A6B88518A25896F9288F8
:1004D00080B81DD08A51895D1AE3040089518A5D74
:1004E00015E3802D10D00201E46BE451000104DE1D
:1004F0000201E42B006E00509EA8FED7AD6E330EB5
:10050000E45DF3E10101010E016E4DD0E0D7010E73
:100510000201DF5DE35D04E1E15302E0929489941E
:100520009296899601018A6B88518A25896F928AF1
:1005300080BA1DD08A51895D1AE3040089518A5D11
:1005400015E3802D10D00201E46BE4510001FBDDC6
:100550000201E42B006E00509EA8FED7AD6E330E54
:10056000E45DF3E10101010E016E1DD0E0D792863A
:100570000201E32B6DD7959C8C9C9380938293848E
:1005800093869388938A938C938EE05301E09282B2
:1005900092869284929A898A92988988959A8C9A5E
:1005A000000E016E01010001000CDBC2DEF2DAC2B6
:1005B000DDF2DCC2DFF2010E0201E06FE16B00014F
:1005C00027DF0150000C6DC278F196908D90C80E17
:1005D00002016E6F000107DF968096928D92140ED5
:1005E0001F6E0201DB6B1F0EDA6F010EDC6F000164
:1005F000DCDF01505DEF09F0290E010175250201D4
:100600006D6F6E6BD8B06E2B290E0101752502013E
:100610006F6F706BD8B0702B186AF2BE188EF29E96
:1006200070C2ECF2EB6F000168DE18BEF28E01C002
:1006300070F2010E02010124016E000E0220015031
:1006400001017527753D01D0756B02016DC201F086
:10065000000189EF09F0020173533FE06FC2E9FF27
:1006600070C2EAFFEFCF74F272C203F071C2E9FF09
:1006700072C2EAFFEF50745D17E070C203F06FC200
:10068000E9FF70C2EAFFEFCF74F272C203F071C2E9
:10069000E9FF72C2EAFFEF50745D02E2FF0E01D083
:1006A000010E016E1CD00BD070C203F06FC2E9FFC7
:1006B00070C2EAFFEF5203E1000E016E10D070C26B
:1006C00003F06F516F2BD8B4702B72C203F07151CD
:1006D000712BD8B4722B7307BFD7000E016E0001C7
:1006E000000C006A016A02017651D89077B10026A9
:1006F0000032013277B300260032013277B500268E
:100700000032013277B700260032013277B9002675
:100710000032013277BB00260032013277BD00265D
:100720000032013277BF002600320132000107EFAC
:1007300004F00201746B726B0A0E736F716B6F5170
:10074000701103E1000E016EC3D07451742B036A63
:100750006F25E96E70510320EA6EEFCF75F2755187
:100760002D080DE1010E726F7451742B036A6F2511
:10077000E96E70510320EA6EEFCF75F20DD075511E
:100780002B080AE17451742B036A6F25E96E7051CE
:100790000320EA6EEFCF75F275512F08D8B090D0D4
:1007A00075513908D8A08CD07551300821E1036A01
:1007B00074516F25E96E70510320EA6EEF5078088E
:1007C0000AE0036A74516F25E96E70510320EA6EE6
:1007D000EF5058080DE1100E736F742B7451742B89
:1007E000036A6F25E96E70510320EA6EEFCF75F250
:1007F00073510A081DE175512F0819E27551390826
:1008000016E30A0E766F71C277F200016AD7300ED6
:100810000201755D0124716F7451742B036A6F2599
:10082000E96E70510320EA6EEFCF75F2E4D748D03D
:100830007351100845E17551600806E275517A0858
:1008400003E37551DF0B01D07551756F75512F089A
:1008500003E27551390806E27551400831E27551DD
:1008600046082EE375512F080CE27551390809E34B
:100870007139766FF00E7617300E755D7625716FD3
:1008800009D07139766FF00E7617410E755D0A0F3B
:100890007625716F7451742B036A6F25E96E705160
:1008A0000320EA6EEFCF75F27551600806E27551CC
:1008B0007A0803E37551DF0B01D07551756FC6D708
:1008C000722D04D073510A0801E1716D71C201F0FB
:1008D0000001000C02017551016A745D03E274C2EB
:1008E00000F00CD0006A080E766F74370036755130
:1008F000005CD8B0006E0136762FF7D70001000CEF
:10090000200E02016FA9300E706F6EC200F06EAF44
:1009100007D0001E002A00C06EF22D0E706F6F8F80
:1009200001506EC274F2640E756F0001D3DF00C017
:100930006EF2300E01240201716F6EC274F20A0E63
:10094000756F0001C7DF300E00240201736F300E97
:100950000124726F70C200F06FA702D06FAF6F9565
:100960006FB90BD06FAF22D06FB520D000C071F23D
:100970006FB31CD000C072F219D0300E715D16E159
:1009800000C071F2200E706F6FA704D06F956F8357
:100990006FAF6F93300E725D09E100C072F2200EEE
:1009A000716F6FA7F7D76F936FAF6F916FA504D07B
:1009B00070519EA8FED7AD6E6FA304D071519EA852
:1009C000FED7AD6E6FA104D072519EA8FED7AD6E5A
:1009D00073519EA8FED7AD6E0001000C0201DC6BC6
:1009E00092988988929A899A928601018A6B885195
:1009F0008A25896F928680A61ED08A51895D1BE365
:100A0000040089518A5D16E3802D11D00201DE6B4E
:100A1000DE510001CAEC00F00201DE2B006E005036
:100A20009EA8FED7AD6E310EDE5DF2E10101FF0E34
:100A3000016E40D0DFD792988998FF0E936E81CFD8
:100A4000DCF20201DC1B928A01018A6B88518A2543
:100A5000896F928680B61ED08A51895D1BE304009F
:100A600089518A5D16E3802D11D00201DE6BDE51C3
:100A70000001F0EC00F00201DE2B006E00509EA899
:100A8000FED7AD6E320EDE5DF2E10101FF0E016EAA
:100A900011D0DFD7929A899A92840201DD6B80B4DB
:100AA000DD2BDAC2E9FFDBC2EAFFDCC2EFFFDDC209
:100AB00001F001010001000C0201D46BD56BD66B73
:100AC000D791020ED96F700ED86F5F0E1F6ED6537E
:100AD0000EE1DB6B1F0EDA6F010EDC6F000165DDCE
:100AE0000152D8B402D0020102D0000E01D0010E92
:100AF0000201D66F3F0E1F6ED6530EE1DB6B1F0E49
:100B0000DA6F010EDC6F000150DD0152D8B402D063
:100B1000020102D0000E01D0010E0201D66FD653A1
:100B200003E0010E016E6CD1200E010178251F6ECD
:100B30000201D6530EE1DB6B1F0EDA6F010EDC6F84
:100B4000000133DD0152D8B402D0020102D0000E00
:100B500001D0010E0201D66FD65303E0010E016EE3
:100B60004FD1400E010177251F6E0201DB6B1F0E76
:100B7000DA6F010EDC6F000118DD01C0D6F2020150
:100B8000D65303E0010E016E3BD1D46B020ED96F38
:100B9000700ED86F6D2D7FD0020EDB6F6E0EDA6F88
:100BA00000011CDF01C06FF202016F3D03D0010E96
:100BB000016E26D101017E5312E07B5102016E5D70
:100BC00002E16F530AE0036AD451700FE96E020E1E
:100BD0000320EA6E6EC2EFFFD42B22D001017C51BC
:100BE00002016E5D13E16F5311E1010ED45D036AE2
:100BF000700FE96E020E0320EA6E01017B51EF5C7B
:100C000003E10201D40701010CD00201036AD451AF
:100C1000700FE96E020E0320EA6E6EC2EFFFD42B56
:100C200001010201D45164081BE1D56BD551630861
:100C300011E3D9C203F0D8C2E9FFD9C2EAFFEFCF6E
:100C4000DAF2DA519EA8FED7AD6ED82BD8B4D92BE4
:100C5000D52BECD7D46B020ED96F700ED86F040071
:100C60006F539AE1D56B010181510201D45DD55DCD
:100C700011E2D9C203F0D8C2E9FFD9C2EAFFEFCF2F
:100C8000DAF2DA519EA8FED7AD6ED82BD8B4D92BA4
:100C9000D52BE9D77ED0020EDB6F6E0EDA6F000126
:100CA0009DDE01C06FF202016F3D03D0010E016EA7
:100CB000A7D001017E5312E07B5102016E5D0BE073
:100CC000036AD451700FE96E020E0320EA6E6EC201
:100CD000EFFFD42B01D0D78121D001017C5102013B
:100CE0006E5D12E1010ED45D036A700FE96E020EB3
:100CF0000320EA6E01017B51EF5C04E10201D4079D
:100D0000D78101010CD00201036AD451700FE96E42
:100D1000020E0320EA6E6EC2EFFFD42B0101020126
:100D2000D45164081BE1D56BD551630811E3D9C2D6
:100D300003F0D8C2E9FFD9C2EAFFEFCFDAF2DA5105
:100D40009EA8FED7AD6ED82BD8B4D92BD52BECD717
:100D5000D46B020ED96F700ED86F0400D7A19BD749
:100D6000D791D56B010181510201D45DD55D11E2AE
:100D7000D9C203F0D8C2E9FFD9C2EAFFEFCFDAF255
:100D8000DA519EA8FED7AD6ED82BD8B4D92BD52B6F
:100D9000E9D70101832D04D084519EA8FED7AD6E02
:100DA0000201D66B5F0E1F6ED6530FE1DB6B1F0E79
:100DB000DA6F010EDC6F0001D5EC02F00152D8B4FD
:100DC00002D0020102D0000E01D0010E0201D66F46
:100DD0003F0E1F6ED6530FE1DB6B1F0EDA6F010E55
:100DE000DC6F0001D5EC02F00152D8B402D0020150
:100DF00002D0000E01D0010E0201D66FD6C201F062
:100E00000001000C02016E6B5F0E1F6E6E530FE14E
:100E1000DB6B1F0EDA6F010EDC6F0001D5EC02F008
:100E20000152D8B402D0020102D0000E01D0010E4E
:100E300002016E6F3F0E1F6E6E530FE1DB6B1F0ED4
:100E4000DA6F010EDC6F0001D5EC02F00152D8B46C
:100E500002D0020102D0000E01D0010E02016E6F1D
:100E6000200E6D251F6E6E530FE1DB6B1F0EDA6FC8
:100E7000010EDC6F0001D5EC02F00152D8B402D0B3
:100E8000020102D0000E01D0010E02016E6F6EC28F
:100E900001F00001000C9280000E80B0010E016E86
:100EA000000E01A0010E016E70EF0FF06EC2DEF2B7
:100EB0006DC2DDF26FC2DFF20201E06B70C2E1F2DF
:100EC000000108EC02F00150000C6EC203F00201B8
:100ED0006DC2E9FF6EC2EAFF6F51EF5C12E06EC2B5
:100EE00003F06DC2E9FF6EC2EAFFEF5204E1000EAB
:100EF000016E026E0AD06D2BD8B46E2B0001E5D7BF
:100F000002016DC201F06EC202F000010BEF10F0A1
:100F1000F86AD09E0D8EEA6AE96AB886090EAF6E4D
:100F2000000EB06EA60EAC6E900EAB6EC150C00B34
:100F30000F09C16E070EB46E196A1A6A0101756B4A
:100F4000766B796B0A0E7A6F7B6B7C6B7D6B030E15
:100F50007E6F010E7F6F806B816B826F836F0D0ED2
:100F6000846F856B010E866F8A6B8B6B8D6B290E80
:100F70008C6F2B0E8E6F610E8F6F3A0E906F916B90
:100F80002B0E926F740E936F3A0E946F956B2B0E1F
:100F9000966F650E976F6F0E986F730E996F3A0E7E
:100FA0009A6F9B6B2B0E9C6F650E9D6F6F0E9E6FE5
:100FB000690E9F6F3A0EA06FA16B2B0EA26F740E7D
:100FC000A36F650EA46F730EA56F740EA66FA76B4B
:100FD0002B0EA86F720EA96F650EAA6F610EAB6F14
:100FE000640EAC6FAD6B2B0EAE6F670EAF6F650E00
:100FF000B06F740EB16FB26B2B0EB36F730EB46F14
:10100000740EB56F720EB66F690EB76F700EB86F53
:101010003A0EB96FBA6B2B0EBB6F760EBC6F650EB6
:10102000BD6F720EBE6FBF6B2B0EC06F610EC16FB6
:10103000750EC26F740EC36F6F0EC46F720EC56FE4
:10104000650EC66F610EC76F640EC86F3A0EC96F2A
:10105000CA6B2B0ECB6F720ECC6F650ECD6F730EFD
:10106000CE6F650ECF6F740ED06FD16B2B0ED26F1B
:10107000640ED36F650ED46F620ED56F750ED66F8A
:10108000670ED76F3A0ED86FD96B2B0EDA6FDB6F06
:10109000610EDC6F640EDD6FDE6F720EDF6FE06B72
:1010A0002B0EE16FE26F610EE36F750EE46F740E4D
:1010B000E56F6F0EE66FE76B2B0EE86FE96F630E5F
:1010C000EA6F6C0EEB6F720EEC6FED6B2B0EEE6F2A
:1010D000EF6F650EF06F6F0EF16F740EF26F5F0EB3
:1010E000F36F650EF46F6E0EF56F610EF66F620EA4
:1010F000F76F6C0EF86F650EF96FFA6B2B0EFB6FC6
:10110000FC6F650EFD6F6F0EFE6F740EFF6F5F0E4E
:101110000201006F630E016F680E026F610E036FB4
:10112000720E046F056B2B0E066F076F690E086F4A
:10113000660E096F630E0A6F0B6B2B0E0C6F0D6F33
:101140006C0E0E6F0F6F6F0E106F116B2B0E126FF8
:10115000136F6C0E146F6F0E156F630E166F176B97
:101160002B0E186F196F6C0E1A6F6F0E1B6F6E0EB1
:101170001C6F1D6B2B0E1E6F1F6F6D0E206F6F0E81
:10118000216F640E226F650E236F246B2B0E256F6B
:10119000266F720E276F650E286F610E296F640E21
:1011A0002A6F5F0E2B6F740E2C6F6D0E2D6F6F0EEE
:1011B0002E6F5F0E2F6F6D0E306F730E316F326BAF
:1011C0002B0E336F346F720E356F730E366F740ED5
:1011D000376F386B2B0E396F3A6F730E3B6F610EA2
:1011E0003C6F760E3D6F650E3E6F630E3F6F660E71
:1011F000406F670E416F426B2B0E436F446F730E4F
:10120000456F700E466F6F0E476F6C0E486F496FDB
:101210004A6B2B0E4B6F4C6F730E4D6F720E4E6FF1
:10122000710E4F6F506B2B0E516F526F730E536FC9
:10123000740E546F610E556F740E566F750E576FA6
:10124000730E586F596B2B0E5A6F5B6F740E5C6F79
:10125000720E5D6F670E5E6F5F6B2B0E606F616F5E
:10126000760E626F650E636F720E646F656B2B0E88
:10127000666F676F680E686F650E696F6C0E6A6FD8
:10128000700E6B6F6C6B949A8B8AD1806E0E01011D
:10129000876FD76AD66A480E0609CA6EFA0ECB6EF9
:1012A0009D82C00EF212050E886F0001EEEF01F074
:1012B00002016D6B0001E3EF02F001C08BF101014F
:1012C0008B2D01D0FF00949A8B9A0400640E0201CA
:1012D0006E6F0001F3EC01F00400949A8B8A040015
:1012E000640E02016E6F0001F3EC01F004009D8AB0
:1012F0000400949A8B9A040001017551765DD8B46C
:101300005AEF10F08DC16EF28CC16DF20001FCEF4E
:1013100002F0036A01C08CF1010103C08DF18DC19F
:1013200003F08CC1E9FF8DC1EAFFEF502B08D8A470
:1013300096EF0FF08DC170F28CC16FF2010E0201B9
:10134000726F8E0E716F030E736F00012BEC03F042
:10135000015214E1030E01018C2502016D6F000E94
:1013600001018D2102016E6F706F6DC26FF200017D
:1013700099EC03F001C077F194EF0FF08DC170F29A
:101380008CC16FF2010E0201726FDA0E716F060EE0
:10139000736F00012BEC03F001523AE1060E0101DC
:1013A0008C25016E000E8D21036E01C0E9FFEA6EEF
:1013B000EF520EE177C16EF21F0E02016F6F000156
:1013C00080EC04F00D0E9EA8FED7AD6E1ED001017C
:1013D000060E8C25016E000E8D21036E01C0E9FF03
:1013E000EA6EEF50200812E1070E8C2502016D6FA6
:1013F000000E01018D2102016E6F706F6DC26FF2E0
:10140000000199EC03F001C077F1010193EF0FF0B7
:101410008DC170F28CC16FF2010E0201726FA80EC5
:10142000716F050E736F00012BEC03F0015222E186
:101430007FC16DF25CEC05F001521AE00101802DD4
:1014400010D002016D6B6D51000117EC01F002012B
:101450006D2B006E00509EA8FED7AD6E150E6D5D13
:10146000F2E1010E02016E6F0001F3EC01F0FF00EA
:1014700094EF0FF0010E01018C2502016D6F000E3B
:1014800001018D2102016E6F706F6DC26FF2010E4E
:10149000726FA80E716F050E736F00012BEC03F0D5
:1014A000015228E1060E01018C25016E000E8D21EE
:1014B000036E01C0E9FFEA6EEF5207E102016D6BB6
:1014C00000015CEC05F013D00101070E8C25016EC4
:1014D000000E8D21036E01C0E9FFEA6EEF50650832
:1014E00007E1010E02016D6F00015CEC05F00101E6
:1014F00093EF0FF08DC170F28CC16FF2010E0201FB
:10150000726FA20E716F050E736F00012BEC03F06A
:10151000015212E102016D6B6D5100012FEC01F0DF
:1015200002016D2B006E00509EA8FED7AD6E090E15
:101530006D5DF2E192EF0FF08DC170F28CC16FF230
:10154000010E0201726F920E716F030E736F000134
:101550002BEC03F0015214E1030E01018C25020172
:101560006D6F000E01018D2102016E6F706F6DC2F3
:101570006FF2000199EC03F001C088F194EF0FF0D5
:101580008DC170F28CC16FF2010E0201726F960E66
:10159000716F050E736F00012BEC03F001521AE11D
:1015A000050E01018C2502016D6F000E01018D21D8
:1015B00002016E6F706F6DC26FF2000199EC03F063
:1015C00001C07AF17AC17BF101017C6B040E7E6F60
:1015D00093EF0FF0010E01018C2502016D6F000EDB
:1015E00001018D2102016E6F706F6DC26FF2010EED
:1015F000726F960E716F040E736F00012BEC03F087
:10160000015262E1050E01018C25016E000E8D2153
:10161000036E01C0E9FFEA6EEF520EE17EC16EF289
:101620001F0E02016F6F000180EC04F00D0E9EA8EA
:10163000FED7AD6E47D00101050E8C25016E000E60
:101640008D21036E01C0E9FFEA6EEF50200839E1F9
:10165000060E8C2502016D6F000E01018D21020125
:101660006E6F706F6DC26FF2000199EC03F001C0F4
:101670007EF101017E51000105E0010A0CE0030A40
:1016800012E019D001017E6B0D0E7B6F0A0E7C6F8C
:101690007D6B7A6F16D0010E01017E6F0D0E7B6F90
:1016A0007C6B7A6F0ED0020E01017E6F0A0E7B6F8B
:1016B0007C6B7A6F06D0030E01017E6F7B6B7A6BB9
:1016C00000D0000194EF0FF08DC170F28CC16FF269
:1016D000010E0201726F9C0E716F050E736F000197
:1016E0002BEC03F0015214E1050E01018C250201DF
:1016F0006D6F000E01018D2102016E6F706F6DC262
:101700006FF2000199EC03F001C07FF194EF0FF04C
:10171000010E01018C2502016D6F000E01018D216A
:1017200002016E6F706F6DC26FF2010E726F9C0ED0
:10173000716F040E736F00012BEC03F001523AE15C
:10174000050E01018C25016E000E8D21036E01C076
:10175000E9FFEA6EEF520EE17FC16EF21F0E020149
:101760006F6F000180EC04F00D0E9EA8FED7AD6EE9
:101770001ED00101050E8C25016E000E8D21036E19
:1017800001C0E9FFEA6EEF50200812E1060E8C2539
:1017900002016D6F000E01018D2102016E6F706FED
:1017A0006DC26FF2000199EC03F001C07FF10101FD
:1017B00093EF0FF08DC170F28CC16FF2010E020138
:1017C000726FB30E716F070E736F00012BEC03F095
:1017D000015214E1070E01018C2502016D6F000E0C
:1017E00001018D2102016E6F706F6DC26FF20001F9
:1017F00099EC03F001C081F194EF0FF08DC170F20C
:101800008CC16FF2010E0201726FBB0E716F040E7C
:10181000736F00012BEC03F001520DE1050E020184
:101820006E6F1F0E6F6F000180EC04F00D0E9EA80E
:10183000FED7AD6E79D3010E01018C2502016D6FCB
:10184000000E01018D2102016E6F706F6DC26FF28B
:10185000010E726FBB0E716F040E736F00012BECE3
:1018600003F001520DE1050E02016E6F1F0E6F6F46
:10187000000180EC04F00D0E9EA8FED7AD6E54D38F
:101880008DC170F28CC16FF2010E0201726FAE0E4B
:10189000716F040E736F00012BEC03F001520CE129
:1018A000080E1F6E0201DB6B1F0EDA6F010EDC6F7C
:1018B0000001D5EC02F038D38DC170F28CC16FF20B
:1018C000020E0201726F5A0E716F050E736F0001E6
:1018D0002BEC03F001522AE1050E01018C25016E6B
:1018E000000E8D21036E01C0E9FFEA6EEF521DE18B
:1018F0008B530CE177C16DF2000102EC07F001524D
:10190000D8B402D0010102D0000E01D0010E0101B5
:101910008B6F080E1F6E0201DB6B1F0EDA6F010E5C
:10192000DC6F0001D5EC02F00101FDD28DC170F237
:101930008CC16FF2010E0201726FC00E716F0A0E40
:10194000736F00012BEC03F0015213E10A0E010149
:101950008C2502016D6F000E01018D2102016E6F59
:10196000706F6DC26FF2000199EC03F001C082F15B
:10197000DBD28DC170F28CC16FF2010E0201726F69
:10198000E10E716F060E736F00012BEC03F0015234
:1019900041E1060E01018C25016E000E8D21036EC2
:1019A00001C0E9FFEA6EEF520EE182C16EF21F0E36
:1019B00002016F6F000180EC04F00D0E9EA8FED7AF
:1019C000AD6E27D00101060E8C25016E000E8D2113
:1019D000036E01C0E9FFEA6EEF50200819E1070E1F
:1019E0008C2502016D6F000E01018D2102016E6FC9
:1019F000706F6DC26FF2000199EC03F001C082F1CB
:101A00000101825305E0822D01D002D0010E826FC8
:101A100000018AD28DC170F28CC16FF2010E0201F9
:101A2000726FCB0E716F060E736F00012BEC03F01B
:101A3000015208E1010E02016E6F0001F3EC01F0AA
:101A4000FF0072D28DC170F28CC16FF2020E0201E2
:101A5000726F330E716F050E736F00012BEC03F084
:101A6000015208E1010E02016E6F0001F3EC01F07A
:101A7000FF005AD28DC170F28CC16FF2010E0201CB
:101A8000726FD20E716F070E736F00012BEC03F0B3
:101A9000015213E1070E01018C2502016D6F000E4A
:101AA00001018D2102016E6F706F6DC26FF2000136
:101AB00099EC03F001C080F137D28DC170F28CC176
:101AC0006FF2010E0201726FE80E716F050E736FF7
:101AD00000012BEC03F001522AE101018B530CE1D0
:101AE00077C16DF2000102EC07F00152D8B402D0C8
:101AF000010102D0000E01D0010E01018B6F040E16
:101B00001F6E8B5310E10201DB6B1F0EDA6F010EAB
:101B1000DC6F0001D5EC02F00152D8B402D0010113
:101B200002D0000E01D0010E01018B6FFCD18DC1DE
:101B300070F28CC16FF2010E0201726FEE0E716FC6
:101B40000C0E736F00012BEC03F0015241E10C0EFF
:101B500001018C25016E000E8D21036E01C0E9FF8D
:101B6000EA6EEF520EE183C16EF21F0E02016F6F3B
:101B7000000180EC04F00D0E9EA8FED7AD6E27D0BC
:101B800001010C0E8C25016E000E8D21036E01C02B
:101B9000E9FFEA6EEF50200819E10D0E8C250201D5
:101BA0006D6F000E01018D2102016E6F706F6DC2AD
:101BB0006FF2000199EC03F001C083F1010183533E
:101BC00005E0832D01D002D0010E836F0001ACD15E
:101BD0008DC170F28CC16FF2010E0201726FFB0EAB
:101BE000716F0A0E736F00012BEC03F0015239E1A3
:101BF0000A0E01018C25016E000E8D21036E01C0BD
:101C0000E9FFEA6EEF520EE184C16EF21F0E02018F
:101C10006F6F000180EC04F00D0E9EA8FED7AD6E34
:101C20001ED001010A0E8C25016E000E8D21036E5F
:101C300001C0E9FFEA6EEF50200812E10B0E8C257F
:101C400002016D6F000E01018D2102016E6F706F38
:101C50006DC26FF2000199EC03F001C084F1010143
:101C600062D18DC170F28CC16FF2020E0201726FEF
:101C7000060E716F050E736F00012BEC03F001521D
:101C800008E196908D90E60E006E002EFED79680AD
:101C90004BD18DC170F28CC16FF2020E0201726FD6
:101CA0000C0E716F050E736F00012BEC03F00152E7
:101CB0002AE101018B530CE177C16DF2000102ECC6
:101CC00007F00152D8B402D0010102D0000E01D0B9
:101CD000010E01018B6F110E1F6E8B5310E102017B
:101CE000DB6B1F0EDA6F010EDC6F0001D5EC02F02A
:101CF0000152D8B402D0010102D0000E01D0010E71
:101D000001018B6F10D18DC170F28CC16FF2020E88
:101D10000201726F120E716F050E736F00012BECD2
:101D200003F001522AE101018B530CE177C16DF2FE
:101D3000000102EC07F00152D8B402D0010102D038
:101D4000000E01D0010E01018B6F010E1F6E8B532F
:101D500010E10201DB6B1F0EDA6F010EDC6F000178
:101D6000D5EC02F00152D8B402D0010102D0000E2D
:101D700001D0010E01018B6FD6D08DC170F28CC1E4
:101D80006FF2020E0201726F180E716F050E736F03
:101D900000012BEC03F0015240E1050E01018C25FE
:101DA000016E000E8D21036E01C0E9FFEA6EEF5255
:101DB0000EE185C16EF21F0E02016F6F000180EC13
:101DC00004F00D0E9EA8FED7AD6E26D00101050EC3
:101DD0008C25016E000E8D21036E01C0E9FFEA6EB5
:101DE000EF50200818E1060E8C2502016D6F000EE1
:101DF00001018D2102016E6F706F6DC26FF20001E3
:101E000099EC03F001C085F10101855304E0852DB3
:101E100001D001D0856B000187D08DC170F28CC1DB
:101E20006FF2020E0201726F1E0E716F060E736F5B
:101E300000012BEC03F0015241E1060E01018C255B
:101E4000016E000E8D21036E01C0E9FFEA6EEF52B4
:101E50000EE186C16EF21F0E02016F6F000180EC71
:101E600004F00D0E9EA8FED7AD6E27D00101060E20
:101E70008C25016E000E8D21036E01C0E9FFEA6E14
:101E8000EF50200819E1070E8C2502016D6F000E3E
:101E900001018D2102016E6F706F6DC26FF2000142
:101EA00099EC03F001C086F10101865305E0862D0F
:101EB00001D002D0010E866F000136D08DC170F2C4
:101EC0008CC16FF2020E0201726F4B0E716F050E24
:101ED000736F00012BEC03F0015211E14BEF07F09F
:101EE00001C06DF201C06EF21F0E02016F6F0001A2
:101EF00080EC04F00D0E9EA8FED7AD6E15D001014A
:101F0000802D11D002016D6B6D51000141EC01F08B
:101F100002016D2B006E00509EA8FED7AD6E170E0D
:101F20006D5DF2E101010001C4D001018B530CE1B0
:101F300077C16DF2000102EC07F00152D8B402D073
:101F4000010102D0000E01D0010E01018B6F400E85
:101F500078251F6E8B5310E10201DB6B1F0EDA6FC9
:101F6000010EDC6F0001D5EC02F00152D8B402D0B2
:101F7000010102D0000E01D0010E01018B6F7E51D4
:101F8000030825E08B5311E18DC16EF28CC16DF217
:101F900002016F6B706B000156EC07F00152D8B470
:101FA00002D0010102D0000E01D0010E01018B6FA1
:101FB000010E02016E6F7B0E6D6F6F6B7FC170F251
:101FC000000156EC07F001C08BF118D001018B53D2
:101FD00012E18DC16EF28CC16DF202016F6B010EC8
:101FE000706F000156EC07F00152D8B402D0010125
:101FF00002D0000E01D0010E01018B6F010182534E
:1020000059E08DC16EF28CC16DF23F0E02016F6F0F
:10201000000165EF07F002C06EF201C06DF202012F
:102020006D5302E16E5328E001018B53D8B402D006
:10203000020122D07FC16DF200015CEC05F001527B
:102040001AE00101802D10D002016D6B6D5100016D
:1020500017EC01F002016D2B006E00509EA8FED718
:10206000AD6E150E6D5DF2E1010E02016E6F0001A5
:10207000F3EC01F0FF001DD001018B531BE08B6BD3
:10208000802D10D002016D6B6D5100015AEC01F0F2
:1020900002016D2B006E00509EA8FED7AD6E160E8D
:1020A0006D5DF2E1010E02016E6F0001F3EC01F0D3
:0C20B000FF00010100017BEF09F00300BC
:020000040030CA
:0E00000000021E19008381000FC00FE00F40A8
:00000001FF
;PIC18F4520
