:020000040000FA
:0400000048EF07F0CE
:08000800056ED8CF06F0E0CF31
:1000100007F00001E9CF0DF0EACF08F0E1CF09F0D9
:10002000E2CF0AF0D9CF0BF0DACF0CF0F3CF14F017
:10003000F4CF15F0FACF16F000C00FF001C010F0A9
:1000400002C011F003C012F004C013F09DA22CEF07
:1000500000F09EB273EF01F09DAA32EF00F09EBA5D
:100060009BEF01F00FC000F010C001F011C002F0D2
:1000700012C003F013C004F00E8E0DC0E9FF08C0DB
:10008000EAFF09C0E1FF0AC0E2FF0BC0D9FF0CC0C4
:10009000DAFF14C0F3FF15C0F4FF16C0FAFF0550D5
:1000A00007C0E0FF06C0D8FF1000F2CF0EF0F29EAE
:1000B000F76AC40FF66E000EF7220900F5500EBE67
:1000C000F28E120054696D656F75743A205761693C
:1000D00074696E6720666F72204E44414320746FCE
:1000E00020676F206C6F77207768696C6520777266
:1000F0006974696E670A0000F2CF0EF0F29EF76A2B
:10010000120FF66E010EF7220900F5500EBEF28EA8
:10011000120054696D656F75743A2057616974698E
:100120006E6720666F72204E52464420746F2067BF
:100130006F2068696768207768696C6520777269E5
:1001400074696E670A00F2CF0EF0F29EF76A600FD4
:10015000F66E010EF7220900F5500EBEF28E120067
:1001600054696D656F75743A2057616974696E677B
:1001700020666F72204E44414320746F20676F20C9
:1001800068696768207768696C6520777269746947
:100190006E670A00F2CF0EF0F29EF76AAE0FF66EAF
:1001A000010EF7220900F5500EBEF28E12005469BE
:1001B0006D656F75743A2057616974696E67206662
:1001C0006F722044415620746F20676F206C6F77E8
:1001D000207768696C652072656164696E670A00E2
:1001E000F2CF0EF0F29EF76AFA0FF66E010EF722CA
:1001F0000900F5500EBEF28E120054696D656F75E0
:10020000743A2057616974696E6720666F72204482
:10021000415620746F20676F20686967682077688F
:10022000696C652072656164696E670A0000F2CFCF
:100230000EF0F29EF76A480FF66E020EF7220900E2
:10024000F5500EBEF28E1200526561642065727226
:100250006F72206F6363757265642E0A0D00F2CFB2
:100260000EF0F29EF76A780FF66E020EF722090082
:10027000F5500EBEF28E120074657374696E670AD3
:100280000D00F2CF0EF0F29EF76A9C0FF66E020E92
:10029000F7220900F5500EBEF28E1200556E7265FF
:1002A000636F676E697A656420636F6D6D616E64FC
:1002B0002E0A0D00F2CF0EF0F29EF76ACE0FF66E08
:1002C000020EF7220900F5500EBEF28E1200577290
:1002D000697465206572726F72206F6363757265F1
:1002E000642E0A0D00000101842F03D0872B6E0EAF
:1002F000846F9E92000132EF00F080C282F27FC2D2
:1003000081F282C203F0020181C2E9FF82C2EAFFE8
:10031000EF5206E0812BD8B4822B0001F2D7020104
:100320007F51815D006E80518259036E00C001F0E3
:10033000026E0001000C290E0101762502017D6F7D
:100340007E6BD8B07E2B7EC2EAFFE96EE906E92A11
:100350009EAAFED7AECFEFFF0D0EEF5CF8E1EF6A7D
:10036000290E0101762502017D6F7E6BD8B07E2BB0
:100370007EC280F27F6F0001C0DF01C07EF2010EFD
:1003800002010124016E000E0220015001017627B6
:10039000763D01D0766B9E9A000132EF00F0959C7D
:1003A0008C9C959A8C9A959E8C8E95988C9893801F
:1003B0009382938493869388938A938C938E92925C
:1003C00089829284928692988998929A899A969034
:1003D0008D80928096928D82EFEF01F0E0D7929A15
:1003E000898A57EF08F0010EEA6EFF0EE96EEF50B2
:1003F0000EE0050E016E006A002EFED7012EFBD71F
:10040000F90E006E002EFED70000EF2EF2D7000C82
:10041000959A8C8A0201705302E0929289926F53EE
:100420000FE1186AF2BE188EF29E6EC280F26DC2A3
:100430007FF2000162DF18BEF28E01C06FF202018E
:10044000959C8C8C92948984929689869288736B01
:100450006F51735DD8B08FD0036A73516D25E96E0B
:100460006E510320EA6EEFCF72F2928A0101876B20
:1004700085518725866F928A80AA1DD08751865D17
:100480001AE304008651875D15E3802D10D0020128
:10049000746B7451000109DE0201742B006E005070
:1004A0009EA8FED7AD6E320E745DF3E10101010E20
:1004B000016E79D0E0D7FF0E0201721B936A72C2FF
:1004C0008AFF92880101876B85518725866F928804
:1004D00080B81DD08751865D1AE304008651875D80
:1004E00015E3802D10D00201746B7451000104DEFD
:1004F0000201742B006E00509EA8FED7AD6E330E25
:10050000745DF3E10101010E016E4DD0E0D7010EE3
:1005100002016F5D735D04E1715302E0929489946E
:10052000929689960101876B85518725866F928AFD
:1005300080BA1DD08751865D1AE304008651875D1D
:1005400015E3802D10D00201746B74510001FBDDA6
:100550000201742B006E00509EA8FED7AD6E330EC4
:10056000745DF3E10101010E016E1DD0E0D79286AA
:100570000201732B6DD7959C8C9C938093829384FE
:1005800093869388938A938C938E705301E0928222
:1005900092869284929A898A92988988959A8C9A5E
:1005A000000E016E01010001000C6BC26EF26AC206
:1005B0006DF26CC26FF2010E0201706F716B00017F
:1005C00027DF0150000CFEC178F196908D90C80E87
:1005D0000101FF6F000107DF968096928D92140E45
:1005E0001F6E02016B6B1F0E6A6F010E6C6F0001B4
:1005F000DCDF01505CEF08F0290E01017525FE6F6C
:10060000FF6BD8B0FF2B290E75250201006F016B1F
:10061000D8B0012B186AF2BE188EF29E01C280F289
:100620007F6F00016ADE18BEF28E01C001F2010E7A
:1006300002010124016E000E022001500101752704
:10064000753D01D0756BFEC101F0000187EF08F028
:10065000020104533FE000C2E9FF01C2EAFFEFCF0D
:1006600005F203C203F002C2E9FF03C2EAFFEF5042
:10067000055D17E001C203F000C2E9FF01C2EAFF15
:10068000EFCF05F203C203F002C2E9FF03C2EAFFA3
:10069000EF50055D02E2FF0E01D0010E016E1CD08D
:1006A0000BD001C203F000C2E9FF01C2EAFFEF5222
:1006B00003E1000E016E10D001C203F00051002BC7
:1006C000D8B4012B03C203F00251022BD8B4032B80
:1006D0000407BFD7000E016E0001000C006A016A1A
:1006E00002010751D89008B100260032013208B348
:1006F00000260032013208B500260032013208B768
:1007000000260032013208B900260032013208BB4F
:1007100000260032013208BD00260032013208BF37
:10072000002600320132000104EF04F00201056BE3
:10073000036B0A0E046F026B0051011103E1000EFE
:10074000016EC3D00551052B036A0025E96E0151E6
:100750000320EA6EEFCF06F206512D080DE1010EDF
:10076000036F0551052B036A0025E96E0151032033
:10077000EA6EEFCF06F20DD006512B080AE10551C3
:10078000052B036A0025E96E01510320EA6EEFCFC5
:1007900006F206512F08D8B090D006513908D8A0DB
:1007A0008CD00651300821E1036A05510025E96E1D
:1007B00001510320EA6EEF5078080AE0036A055100
:1007C0000025E96E01510320EA6EEF5058080DE153
:1007D000100E046F052B0551052B036A0025E96EE9
:1007E00001510320EA6EEFCF06F204510A081DE121
:1007F00006512F0819E20651390816E30A0E076F51
:1008000002C208F200016AD7300E0201065D01241F
:10081000026F0551052B036A0025E96E0151032083
:10082000EA6EEFCF06F2E4D748D00451100845E154
:100830000651600806E206517A0803E30651DF0B11
:1008400001D00651066F06512F0803E20651390800
:1008500006E20651400831E2065146082EE30651F1
:100860002F080CE20651390809E30239076FF00E30
:100870000717300E065D0725026F09D00239076F92
:10088000F00E0717410E065D0A0F0725026F05518E
:10089000052B036A0025E96E01510320EA6EEFCFB4
:1008A00006F20651600806E206517A0803E3065193
:1008B000DF0B01D00651066FC6D7032D04D00451BB
:1008C0000A0801E1026D02C201F00001000C020100
:1008D0000751016A065D03E206C200F00CD0006A0F
:1008E000080E086F063700360751005CD8B0006E5E
:1008F0000136082FF7D70001000C200E0101FFA9D7
:10090000300E0201006FFEC100F000AE09D0001EE3
:10091000002A00C0FEF12D0E006F0101FF8F0201C1
:100920000150FEC106F2640E076F0001D0DF00C067
:10093000FEF1300E01240201016FFEC106F20A0E23
:10094000076F0001C4DF300E00240201036F300E78
:100950000124026F00C200F00101FFA702D0FFAF27
:10096000FF95FFB90BD0FFAF2CD0FFB52AD000C048
:1009700001F2FFB326D000C002F223D0300E0201F4
:10098000015DD8B402D001011CD000C001F2200EDC
:10099000006F0101FFA704D0FF95FF83FFAFFF9316
:1009A000300E0201025DD8B402D001010AD000C0AD
:1009B00002F2200E016F0101FFA7F2D7FF93FFAFF4
:1009C000FF91FFA506D0020100519EA8FED7AD6E93
:1009D0000101FFA306D0020101519EA8FED7AD6E12
:1009E0000101FFA105D0020102519EA8FED7AD6E04
:1009F000020103519EA8FED7AD6E0001000C02015A
:100A00006C6B92988988929A899A92860101876B79
:100A100085518725866F928680A61ED08751865D78
:100A20001BE304008651875D16E3802D11D002017F
:100A30006E6B6E510001CAEC00F002016E2B006E6D
:100A400000509EA8FED7AD6E310E6E5DF2E1010141
:100A5000FF0E016E40D0DFD792988998FF0E936EFB
:100A600081CF6CF202016C1B928A0101876B855168
:100A70008725866F928680B61ED08751865D1BE3E0
:100A800004008651875D16E3802D11D002016E6B44
:100A90006E510001F0EC00F002016E2B006E005070
:100AA0009EA8FED7AD6E320E6E5DF2E10101FF0E23
:100AB000016E11D0DFD7929A899A928402016D6BF0
:100AC00080B46D2B6AC2E9FF6BC2EAFF6CC2EFFF14
:100AD0006DC201F001010001000C0201646B656B45
:100AE000666B6791020E696F686B5F0E1F6E6653CF
:100AF0000EE16B6B1F0E6A6F010E6C6F000155DD0E
:100B00000152D8B402D0020102D0000E01D0010E71
:100B10000201666F3F0E1F6E66530EE16B6B1F0E78
:100B20006A6F010E6C6F000140DD0152D8B402D033
:100B3000020102D0000E01D0010E0201666F665361
:100B400003E0010E016E6FD1200E010178251F6EAA
:100B5000020166530EE16B6B1F0E6A6F010E6C6F24
:100B6000000123DD0152D8B402D0020102D0000EF0
:100B700001D0010E0201666F665303E0010E016EA3
:100B800052D1400E010177251F6E02016B6B1F0EC3
:100B90006A6F010E6C6F000108DD01C066F2020190
:100BA000665303E0010E016E3ED1646B020E696F65
:100BB000686B01017F2D80D0010E02016B6FFE0E6C
:100BC0006A6F00011CDF01C0FFF10101FF3D05D08C
:100BD000010E016E020127D101017E5311E07B510C
:100BE000FE5D02E1FF530BE0036A020164C2E9FF0C
:100BF000020E0324EA6EFEC1EFFF642B010120D038
:100C00007C51FE5D12E1FF5310E1010E0201645DB3
:100C1000036AE96E020E0324EA6E01017B51EF5C68
:100C200003E10201640701010BD0036A020164C2FF
:100C3000E9FF020E0324EA6EFEC1EFFF642B0101FF
:100C40000201645164081AE1656B6551630811E3A0
:100C500069C203F068C2E9FF69C2EAFFEFCF6AF236
:100C60006A519EA8FED7AD6E682BD8B4692B652B50
:100C7000ECD7646B020E696F686B04000101FF53CF
:100C80009BE10201656B010181510201645D655DBB
:100C900011E269C203F068C2E9FF69C2EAFFEFCF5F
:100CA0006AF26A519EA8FED7AD6E682BD8B4692B44
:100CB000652BE9D781D00101010E02016B6FFE0E99
:100CC0006A6F00019CDE01C0FFF10101FF3D05D00C
:100CD000010E016E0201A7D001017E5313E07B518A
:100CE000FE5D0CE0036A020164C2E9FF020E032408
:100CF000EA6EFEC1EFFF642B03D0010102016781A0
:100D00001FD001017C51FE5D11E1010E0201645D05
:100D1000036AE96E020E0324EA6E01017B51EF5C67
:100D200004E102016407678101010BD0036A02013B
:100D300064C2E9FF020E0324EA6EFEC1EFFF642BDA
:100D400001010201645164081AE1656B6551630891
:100D500011E369C203F068C2E9FF69C2EAFFEFCF9D
:100D60006AF26A519EA8FED7AD6E682BD8B4692B83
:100D7000652BECD7646B020E696F686B040067B17A
:100D800002D0010199D76791656B01018151020180
:100D9000645D655D11E269C203F068C2E9FF69C282
:100DA000EAFFEFCF6AF26A519EA8FED7AD6E682BBC
:100DB000D8B4692B652BE9D70101832D04D00D0E22
:100DC0009EA8FED7AD6E0201666B5F0E1F6E665366
:100DD0000FE16B6B1F0E6A6F010E6C6F0001D5EC9B
:100DE00002F00152D8B402D0020102D0000E01D0AC
:100DF000010E0201666F3F0E1F6E66530FE16B6BB3
:100E00001F0E6A6F010E6C6F0001D5EC02F00152EB
:100E1000D8B402D0020102D0000E01D0010E0201AE
:100E2000666F66C201F00001000CFFC16EF2FEC1E8
:100E30006DF200C26FF20201706B01C271F200012B
:100E400008EC02F00150000CFFC103F0FEC1E9FF05
:100E5000FFC1EAFF02010051EF5C12E0FFC103F0A5
:100E60000101FEC1E9FFFFC1EAFFEF5204E1000EFC
:100E7000016E026E0AD0FE2BD8B4FF2B0001E4D71E
:100E80000101FEC101F0FFC102F00001F7EF0CF01B
:100E9000F86AD09E0D8EEA6AE96AB886090EAF6ECE
:100EA000000EB06EA60EAC6E900EAB6EC150C00BB5
:100EB0000F09C16E070EB46E196A1A6A0101756BCB
:100EC000766B796B0A0E7A6F7B6B7C6B7D6B030E96
:100ED0007E6F010E7F6F806B816B826F836F876B7C
:100EE000886B8A6B290E896F2B0E8B6F610E8C6F4E
:100EF0003A0E8D6F8E6B2B0E8F6F740E906F3A0EB5
:100F0000916F926B2B0E936F650E946F6F0E956FB2
:100F1000730E966F3A0E976F986B2B0E996F650E46
:100F20009A6F6F0E9B6F690E9C6F3A0E9D6F9E6B52
:100F30002B0E9F6F740EA06F650EA16F730EA26FC4
:100F4000740EA36FA46B2B0EA56F720EA66F650EA9
:100F5000A76F610EA86F640EA96FAA6B2B0EAB6F03
:100F6000670EAC6F650EAD6F740EAE6FAF6B2B0E70
:100F7000B06F730EB16F740EB26F720EB36F690EF5
:100F8000B46F700EB56F3A0EB66FB76B2B0EB86FAD
:100F9000760EB96F650EBA6F720EBB6FBC6B2B0EFF
:100FA000BD6F610EBE6F750EBF6F740EC06F6F0E9A
:100FB000C16F720EC26F650EC36F610EC46F640E97
:100FC000C56F3A0EC66FC76B2B0EC86F720EC96F16
:100FD000650ECA6F730ECB6F650ECC6F740ECD6F3E
:100FE000CE6B2B0ECF6F640ED06F650ED16F620E7D
:100FF000D26F750ED36F670ED46F3A0ED56FD66B66
:101000002B0ED76FD86F610ED96F640EDA6FDB6F5E
:10101000720EDC6FDD6B2B0EDE6FDF6F610EE06F2B
:10102000750EE16F740EE26F6F0EE36FE46B2B0EC3
:10103000E56FE66F630EE76F6C0EE86F720EE96F97
:10104000EA6B2B0EEB6FEC6F650EED6F6F0EEE6FB4
:10105000740EEF6F5F0EF06F650EF16F6E0EF26F34
:10106000610EF36F620EF46F6C0EF56F650EF66F26
:10107000F76B2B0EF86FF96F690EFA6F660EFB6F48
:10108000630EFC6FFD6B949A8B8AD1806E0E846F19
:10109000D76AD66A480E0609CA6EFA0ECB6E9D82D2
:1010A000C00EF212050E856F0001EEEF01F0010196
:1010B000FE6B0001E3EF02F001C088F10101882D11
:1010C00001D0FF00949A8B9A0400640EFF6F000118
:1010D000F3EC01F00400949A8B8A0400640E010181
:1010E000FF6F0001F3EC01F004009D8A0400949A64
:1010F0008B9A040001017551765DD8B43CEF0DF078
:101100008AC1FFF189C1FEF10001FCEF02F0036A20
:1011100001C089F1010103C08AF18AC103F089C1CC
:10112000E9FF8AC1EAFFEF502B08D8A44DEF0CF07D
:101130008AC101F289C100F2010E0201036F8B0E18
:10114000026F030E046F000128EC03F0015212E15C
:10115000030E01018925FE6F000E8A21FF6FE8CF83
:1011600001F2FEC100F2000196EC03F001C077F13C
:101170004BEF0CF08AC101F289C100F2010E0201AD
:10118000036FD70E026F060E046F000128EC03F008
:10119000015236E1060E01018925016E000E8A21F9
:1011A000036E01C0E9FFEA6EEF520DE177C1FEF177
:1011B0001F0EFF6F00017DEC04F00D0E9EA8FED700
:1011C000AD6E1CD00101060E8925016E000E8A212C
:1011D000036E01C0E9FFEA6EEF50200810E1070E30
:1011E0008925FE6F000E8A21FF6FE8CF01F2FEC154
:1011F00000F2000196EC03F001C077F101014AD33F
:101200008AC101F289C100F2010E0201036FA50E2D
:10121000026F050E046F000128EC03F001521CE17F
:101220005CDC015218E00101802D0FD0FE6BFE51F5
:10123000000117EC01F00101FE2B006E00509EA88A
:10124000FED7AD6E150EFE5DF2E1010EFF6F0001DF
:10125000F3EC01F0FF001FD38AC101F289C100F253
:10126000010E0201036F9F0E026F050E046F000155
:1012700028EC03F0015211E10101FE6BFE51000167
:101280002FEC01F00101FE2B006E00509EA8FED74E
:10129000AD6E090EFE5DF2E1FDD28AC101F289C197
:1012A00000F2010E0201036F8F0E026F030E046F36
:1012B000000128EC03F0015211E1030E0101892520
:1012C000FE6F000E8A21FF6FE8CF01F2FEC100F22F
:1012D000000196EC03F001C085F1DDD28AC101F274
:1012E00089C100F2010E0201036F930E026F050E19
:1012F000046F000128EC03F0015217E1050E010113
:101300008925FE6F000E8A21FF6FE8CF01F2FEC132
:1013100000F2000196EC03F001C07AF17AC17BF192
:1013200001017C6B040E7E6FB5D2010E010189258F
:10133000FE6F000E8A21FF6FE8CF01F2FEC100F2BE
:10134000010E0201036F930E026F040E046F000181
:1013500028EC03F001525EE1050E01018925016EC2
:10136000000E8A21036E01C0E9FFEA6EEF520DE123
:101370007EC1FEF11F0EFF6F00017DEC04F00D0E2B
:101380009EA8FED7AD6E45D00101050E8925016EE0
:10139000000E8A21036E01C0E9FFEA6EEF502008BB
:1013A00037E1060E8925FE6F000E8A21FF6FE8CF18
:1013B00001F2FEC100F2000196EC03F001C07EF1E3
:1013C00001017E51000105E0010A0CE0030A12E070
:1013D00019D001017E6B0D0E7B6F0A0E7C6F7D6B49
:1013E0007A6F16D0010E01017E6F0D0E7B6F7C6B44
:1013F0007A6F0ED0020E01017E6F0A0E7B6F7C6B3E
:101400007A6F06D0030E01017E6F7B6B7A6B00D082
:10141000000141D28AC101F289C100F2010E02012C
:10142000036F990E026F050E046F000128EC03F0A4
:10143000015211E1050E01018925FE6F000E8A217E
:10144000FF6FE8CF01F2FEC100F2000196EC03F05D
:1014500001C07FF120D2010E01018925FE6F000E2F
:101460008A21FF6FE8CF01F2FEC100F2010E0201F6
:10147000036F990E026F040E046F000128EC03F055
:10148000015236E1050E01018925016E000E8A2107
:10149000036E01C0E9FFEA6EEF520DE17FC1FEF17C
:1014A0001F0EFF6F00017DEC04F00D0E9EA8FED70D
:1014B000AD6E1CD00101050E8925016E000E8A213A
:1014C000036E01C0E9FFEA6EEF50200810E1060E3E
:1014D0008925FE6F000E8A21FF6FE8CF01F2FEC161
:1014E00000F2000196EC03F001C07FF10101D2D1BE
:1014F0008AC101F289C100F2010E0201036FB00E30
:10150000026F070E046F000128EC03F0015211E195
:10151000070E01018925FE6F000E8A21FF6FE8CFBB
:1015200001F2FEC100F2000196EC03F001C081F16E
:10153000B2D18AC101F289C100F2010E0201036F2A
:10154000B80E026F040E046F000128EC03F0015284
:101550000DE1050E0101FE6F1F0EFF6F00017DEC16
:1015600004F00D0E9EA8FED7AD6E95D18AC101F292
:1015700089C100F2010E0201036FAB0E026F040E6F
:10158000046F000128EC03F001520CE1080E1F6EFD
:1015900002016B6B1F0E6A6F010E6C6F0001D5ECC0
:1015A00002F079D18AC101F289C100F2010E020173
:1015B000036FBD0E026F0A0E046F000128EC03F0EA
:1015C000015211E10A0E01018925FE6F000E8A21E8
:1015D000FF6FE8CF01F2FEC100F2000196EC03F0CC
:1015E00001C082F158D18AC101F289C100F2010E15
:1015F0000201036FDE0E026F060E046F000128EC7D
:1016000003F001523EE1060E01018925016E000E34
:101610008A21036E01C0E9FFEA6EEF520DE182C13B
:10162000FEF11F0EFF6F00017DEC04F00D0E9EA871
:10163000FED7AD6E25D00101060E8925016E000E84
:101640008A21036E01C0E9FFEA6EEF50200817E11E
:10165000070E8925FE6F000E8A21FF6FE8CF01F289
:10166000FEC100F2000196EC03F001C082F101011D
:10167000825305E0822D01D002D0010E826F00015D
:101680000AD18AC101F289C100F2010E0201036F81
:10169000C80E026F060E046F000128EC03F0015221
:1016A00008E1010E0101FF6F0001F3EC01F0FF0002
:1016B000F2D08AC101F289C100F2010E0201036F6A
:1016C000CF0E026F070E046F000128EC03F00152E9
:1016D00011E1070E01018925FE6F000E8A21FF6FBF
:1016E000E8CF01F2FEC100F2000196EC03F001C068
:1016F00080F1D1D08AC101F289C100F2010E02014C
:10170000036FE50E026F050E046F000128EC03F075
:10171000015248E13F0E1F6E0101885310E10201A2
:101720006B6B1F0E6A6F010E6C6F0001D5EC02F03F
:101730000152D8B402D0010102D0000E01D0010E36
:101740000101886F200E77251F6E885310E102017A
:101750006B6B1F0E6A6F010E6C6F0001D5EC02F00F
:101760000152D8B402D0010102D0000E01D0010E06
:101770000101886F040E1F6E885310E102016B6B2C
:101780001F0E6A6F010E6C6F0001D5EC02F0015262
:10179000D8B402D0010102D0000E01D0010E010127
:1017A000886F78D08AC101F289C100F2010E02016E
:1017B000036FEB0E026F0C0E046F000128EC03F0B8
:1017C00001523EE10C0E01018925016E000E8A21B5
:1017D000036E01C0E9FFEA6EEF520DE183C1FEF135
:1017E0001F0EFF6F00017DEC04F00D0E9EA8FED7CA
:1017F000AD6E25D001010C0E8925016E000E8A21E7
:10180000036E01C0E9FFEA6EEF50200817E10D0EEC
:101810008925FE6F000E8A21FF6FE8CF01F2FEC11D
:1018200000F2000196EC03F001C083F10101835343
:1018300005E0832D01D002D0010E836F00012BD073
:101840008AC101F289C100F2010E0201036FF80E94
:10185000026F050E046F000128EC03F0015208E14D
:1018600096908D90E60E006E002EFED7968013D0D7
:101870000101802D0FD0FE6BFE51000141EC01F003
:101880000101FE2B006E00509EA8FED7AD6E170E14
:10189000FE5DF2E10001EFD001015F0E1F6E885383
:1018A00010E102016B6B1F0E6A6F010E6C6F00017D
:1018B000D5EC02F00152D8B402D0010102D0000EE2
:1018C00001D0010E0101886F3F0E1F6E885310E199
:1018D00002016B6B1F0E6A6F010E6C6F0001D5EC7D
:1018E00002F00152D8B402D0010102D0000E01D0A2
:1018F000010E0101886F200E77251F6E885310E1BD
:1019000002016B6B1F0E6A6F010E6C6F0001D5EC4C
:1019100002F00152D8B402D0010102D0000E01D071
:10192000010E0101886F400E78251F6E885310E16B
:1019300002016B6B1F0E6A6F010E6C6F0001D5EC1C
:1019400002F00152D8B402D0010102D0000E01D041
:10195000010E0101886F7E51030825E0885311E1D3
:101960008AC1FFF189C1FEF10201006B016B000128
:1019700015EC07F00152D8B402D0010102D0000EDC
:1019800001D0010E0101886F010EFF6F7B0EFE6F0B
:101990000201006B7FC101F2000115EC07F001C0EC
:1019A00088F118D00101885312E18AC1FFF189C181
:1019B000FEF10201006B010E016F000115EC07F052
:1019C0000152D8B402D0010102D0000E01D0010EA4
:1019D0000101886F010182534FE08AC1FFF189C183
:1019E000FEF13F0E0201006F000124EF07F002C07C
:1019F000FFF101C0FEF10101FE5302E1FF5321E0BE
:101A000088531FE100016DEC05F0015218E001015F
:101A1000802D0FD0FE6BFE51000117EC01F001018B
:101A2000FE2B006E00509EA8FED7AD6E150EFE5D1B
:101A3000F2E1010EFF6F0001F3EC01F0FF001BD09B
:101A40000101885319E0886B802D0FD0FE6BFE5189
:101A500000015AEC01F00101FE2B006E00509EA81F
:101A6000FED7AD6E160EFE5DF2E1010EFF6F0001B6
:101A7000F3EC01F0FF000101000179EF08F0030031
:020000040030CA
:0E00000000021E19008381000FC00FE00F40A8
:00000001FF
;PIC18F4520
