:020000040000FA
:04000000FCEF05F01C
:08000800056ED8CF06F0E0CF31
:1000100007F00001E9CF0DF0EACF08F0E1CF09F0D9
:10002000E2CF0AF0D9CF0BF0DACF0CF0F3CF14F017
:10003000F4CF15F0FACF16F000C00FF001C010F0A9
:1000400002C011F003C012F004C013F0F2AA2CEFAA
:1000500000F0F2B473EF01F09DAA32EF00F09EBA07
:100060007CEF01F00FC000F010C001F011C002F0F1
:1000700012C003F013C004F00E8E0DC0E9FF08C0DB
:10008000EAFF09C0E1FF0AC0E2FF0BC0D9FF0CC0C4
:10009000DAFF14C0F3FF15C0F4FF16C0FAFF0550D5
:1000A00007C0E0FF06C0D8FF1000F2CF0EF0F29EAE
:1000B000F76AC40FF66E000EF7220900F5500EBE67
:1000C000F28E120054696D656F75743A205761693C
:1000D00074696E6720666F72204E44414320746FCE
:1000E00020676F206C6F77207768696C6520777266
:1000F0006974696E670A0000F2CF0EF0F29EF76A2B
:10010000120FF66E010EF7220900F5500EBEF28EA8
:10011000120054696D656F75743A2057616974698E
:100120006E6720666F72204E52464420746F2067BF
:100130006F2068696768207768696C6520777269E5
:1001400074696E670A00F2CF0EF0F29EF76A600FD4
:10015000F66E010EF7220900F5500EBEF28E120067
:1001600054696D656F75743A2057616974696E677B
:1001700020666F72204E44414320746F20676F20C9
:1001800068696768207768696C6520777269746947
:100190006E670A00F2CF0EF0F29EF76AAE0FF66EAF
:1001A000010EF7220900F5500EBEF28E12005469BE
:1001B0006D656F75743A2057616974696E67206662
:1001C0006F722044415620746F20676F206C6F77E8
:1001D000207768696C652072656164696E670A00E2
:1001E000F2CF0EF0F29EF76AFA0FF66E010EF722CA
:1001F0000900F5500EBEF28E120054696D656F75E0
:10020000743A2057616974696E6720666F72204482
:10021000415620746F20676F20686967682077688F
:10022000696C652072656164696E670A0000F2CFCF
:100230000EF0F29EF76A480FF66E020EF7220900E2
:10024000F5500EBEF28E1200526561642065727226
:100250006F72206F6363757265642E0A0D00F2CFB2
:100260000EF0F29EF76A780FF66E020EF722090082
:10027000F5500EBEF28E120074657374696E670AD3
:100280000D00F2CF0EF0F29EF76A9C0FF66E020E92
:10029000F7220900F5500EBEF28E1200556E7265FF
:1002A000636F676E697A656420636F6D6D616E64FC
:1002B0002E0A0D00F2CF0EF0F29EF76ACE0FF66E08
:1002C000020EF7220900F5500EBEF28E1200577290
:1002D000697465206572726F72206F6363757265F1
:1002E000642E0A0D0000EF07EF5303E1F22B030E1B
:1002F000EF6FF29432EF00F0EA6A680EE96EE906F9
:10030000E92A9EAAFED7AECFEFFF0D0EEF5CF8E113
:10031000EF6A010EEA6F9E9A32EF00F00D00959C95
:100320008C9C959A8C9A959E8C8E95988C9893809F
:100330009382938493869388938A938C938E9292DC
:1003400089829284928692988998929A899A9690B4
:100350008D80928096928D82AFEF01F0E0D7929AD5
:10036000898AA7EF06F0010EEA6E3C0EE96EEF50A7
:100370000EE0050E016E006A002EFED7012EFBD79F
:10038000F90E006E002EFED70000EF2EF2D7BBEF65
:1003900002F0B0C1B2F1AFC1B1F1B2C103F00101DD
:1003A000B1C1E9FFB2C1EAFFEF5206E0B12BD8B408
:1003B000B22B0001F2D70101AF51B15D006EB05117
:1003C000B259036E00C001F0026E0001F7EF01F0B8
:1003D000959A8C8A0101AC5302E092928992AB53B8
:1003E00009E1AAC1B0F1A9C1AFF10001D2D701C0A2
:1003F000ABF10101959C8C8C9294898492968986AC
:100400009288AE6BAB51AE5DD8B086D0036AAE5168
:10041000A925E96EAA510320EA6EEFCFADF1928AC9
:100420000001F26BF051F225F16F928A80AA1AD086
:10043000F251F15D17E3F151F25D13E30101AF6B8E
:10044000AF51000132DE0101AF2B006E00509EA8BB
:10045000FED7AD6E320EAF5DF3E1010E016E73D0CB
:100460000001E3D7FF0E0101AD1B936AADC18AFF06
:1004700092880001F26BF051F225F16F928880B8FA
:100480001AD0F251F15D17E3F151F25D13E301016E
:10049000AF6BAF51000130DE0101AF2B006E005099
:1004A0009EA8FED7AD6E330EAF5DF3E1010E016E77
:1004B0004AD00001E3D7010E0101AB5DAE5D04E15E
:1004C000AC5302E192948994929689960001F26B62
:1004D000F051F225F16F928A80BA1AD0F251F15D93
:1004E00017E3F151F25D13E30101AF6BAF5100016E
:1004F0002ADE0101AF2B006E00509EA8FED7AD6E24
:10050000330EAF5DF3E1010E016E1DD00001E3D7A4
:1005100092860101AE2B76D7959C8C9C938093821A
:10052000938493869388938A938C938EAC5301E043
:10053000928292869284929A898A92988988959AD0
:100540008C9A000E016E0001000CA7C1AAF1A6C191
:10055000A9F1A8C1ABF1010E0101AC6F000138DFB8
:100560000150000C3BC1E9F096908D90C80E01013E
:100570003C6F0001F8D6968096928D92140E286EEC
:100580000101A76B280EA66F010EA86F0001DDDF29
:100590000150ABEF06F001013F533FE03BC1E9FFE3
:1005A0003CC1EAFFEFCF40F13EC103F03DC1E9FF9E
:1005B0003EC1EAFFEF50405D17E03CC103F03BC194
:1005C000E9FF3CC1EAFFEFCF40F13EC103F03DC17E
:1005D000E9FF3EC1EAFFEF50405D02E2FF0E01D0AD
:1005E000010E016E1CD00BD03CC103F03BC1E9FFF2
:1005F0003CC1EAFFEF5203E1000E016E10D03CC196
:1006000003F03B513B2BD8B43C2B3EC103F03D5192
:100610003D2BD8B43E2B3F07BFD7000E016E000123
:10062000000C006A016A01014251D89043B10026D2
:100630000032013243B300260032013243B50026B6
:100640000032013243B700260032013243B900269E
:100650000032013243BB00260032013243BD002686
:100660000032013243BF0026003201320001A7EF01
:1006700003F00101406B3E6B0A0E3F6F3D6B3B5137
:100680003C1103E1000E016EC3D04051402B036AC0
:100690003B25E96E3C510320EA6EEFCF41F1415119
:1006A0002D080DE1010E3E6F4051402B036A3B25A2
:1006B000E96E3C510320EA6EEFCF41F10DD041517C
:1006C0002B080AE14051402B036A3B25E96E3C515F
:1006D0000320EA6EEFCF41F141512F08D8B090D0FE
:1006E00041513908D8A08CD04151300821E1036A2A
:1006F00040513B25E96E3C510320EA6EEF507808EB
:100700000AE0036A40513B25E96E3C510320EA6E42
:10071000EF5058080DE1100E3F6F402B4051402B19
:10072000036A3B25E96E3C510320EA6EEFCF41F1AD
:100730003F510A081DE141512F0819E24151390882
:1007400016E30A0E426F3DC143F100016AD7300E35
:100750000101415D01243D6F4051402B036A3B255F
:10076000E96E3C510320EA6EEFCF41F1E4D748D067
:100770003F51100845E14151600806E241517A08B5
:1007800003E34151DF0B01D04151416F41512F082B
:1007900003E24151390806E24151400831E241513A
:1007A00046082EE341512F080CE24151390809E374
:1007B0003D39426FF00E4217300E415D42253D6FCC
:1007C00009D03D39426FF00E4217410E415D0A0FCC
:1007D00042253D6F4051402B036A3B25E96E3C5159
:1007E0000320EA6EEFCF41F14151600806E241512A
:1007F0007A0803E34151DF0B01D04151416FC6D765
:100800003E2D04D03F510A0801E13D6D3DC101F08C
:100810000001000C0101A86B92988988929A899A2C
:1008200092860001F051F225F16F928680A61AD0CF
:10083000F251F15D17E3F151F25D13E30101AA6B8F
:10084000AA510001A7DC0101AA2B006E00509EA84E
:10085000FED7AD6E310EAA5DF3E1FF0E016E3BD007
:100860000001E3D792988998FF0E936E81CFA8F18B
:100870000101A81B928A0001F051F225F16F9286C6
:1008800080B61AD0F251F15D17E3F151F25D13E336
:100890000101AA6BAA510001A3DC0101AA2B006E81
:1008A00000509EA8FED7AD6E320EAA5DF3E1FF0E9A
:1008B000016E11D00001E3D7929A899A92840101C6
:1008C000A96B80B4A92BA6C1E9FFA7C1EAFFA8C103
:1008D000EFFFA9C101F00001000C0101A16BA26BA7
:1008E000A36B010EA56F3D0EA46F5F0E286EA35380
:1008F0000EE1A76B280EA66F010EA86F000125DE82
:100900000152D8B402D0010102D0000E01D0010E74
:100910000101A36F3F0E286EA3530EE1A76B280EB3
:10092000A66F010EA86F000110DE0152D8B402D0EC
:10093000010102D0000E01D0010E0101A36FA353EB
:1009400003E0010E016E27D1200E0001E925286E7B
:100950000101A3530EE1A76B280EA66F010EA86F2D
:100960000001F3DD0152D8B402D0010102D0000E23
:1009700001D0010E0101A36FA35303E0010E016E2C
:100980000AD1400E0001E825286E0101A76B280E50
:10099000A66F010EA86F0001D8DD01C0A3F101010F
:1009A000A35303E0010E016EF6D0A16B010EA56FFB
:1009B0003D0EA46F0001EC2D5DD0010E0101A76F6B
:1009C0003B0EA66F000126DF01C03CF101013C3D5A
:1009D00003D0010E016EDFD00001EB5101013B5D40
:1009E00002E13C530AE0036AA1513D0FE96E010E9A
:1009F0000320EA6E3BC1EFFFA12BA15164081BE16C
:100A0000A26BA251630811E3A5C103F0A4C1E9FFE1
:100A1000A5C1EAFFEFCFA6F1A6519EA8FED7AD6E05
:100A2000A42BD8B4A52BA22BECD7A16B010EA56FDC
:100A30003D0EA46F04003C53D8B402D00001BDD7D2
:100A4000A26B0001ED510101A15DA25D11E2A5C102
:100A500003F0A4C1E9FFA5C1EAFFEFCFA6F1A651BB
:100A60009EA8FED7AD6EA42BD8B4A52BA22BE9D798
:100A700058D00001010E0101A76F3B0EA66F0001C7
:100A8000C9DE01C03CF101013C3D03D0010E016E05
:100A900082D0036AA1513D0FE96E010E0320EA6E78
:100AA0003BC1EFFFA12BA15164081BE1A26BA25136
:100AB000630811E3A5C103F0A4C1E9FFA5C1EAFFE2
:100AC000EFCFA6F1A6519EA8FED7AD6EA42BD8B449
:100AD000A52BA22BECD7A16B010EA56F3D0EA46F29
:100AE00004000001EB5101013B5DD8B402D00001CC
:100AF000C1D7A26B0001ED510101A15DA25D11E220
:100B0000A5C103F0A4C1E9FFA5C1EAFFEFCFA6F19B
:100B1000A6519EA8FED7AD6EA42BD8B4A52BA22BB0
:100B2000E9D7030E036E1C0E0001EB5D02E10352D8
:100B300004E00D0E9EA8FED7AD6E0101A36B5F0E03
:100B4000286EA3530EE1A76B280EA66F010EA86FA7
:100B50000001FBDC0152D8B402D0010102D0000E2A
:100B600001D0010E0101A36F3F0E286EA3530EE1C9
:100B7000A76B280EA66F010EA86F0001E6DC0152DC
:100B8000D8B402D0010102D0000E01D0010E010143
:100B9000A36FA3C101F00001000C3CC1AAF13BC14D
:100BA000A9F13DC1ABF10101AC6B000111DC0150B9
:100BB000000C3CC103F001013BC1E9FF3CC1EAFF6D
:100BC0003D51EF5C12E03CC103F03BC1E9FF3CC189
:100BD000EAFFEF5204E1000E016E026E0AD03B2BD9
:100BE000D8B43C2B0001E5D701013BC101F03CC169
:100BF00002F0000152EF08F0F86AD09E0D8EEA6A0A
:100C0000E96AB886090EAF6E000EB06EA60EAC6E25
:100C1000900EAB6EC150C00B0F09C16E070EB46EC3
:100C2000186A196A340E1E6E1F6A206A216A226AC7
:100C3000236A246A256A266A276AEA6B010EEB6F2B
:100C4000EC6FED6BEE6F2B0EFE6F610EFF6F3A0EC9
:100C50000101006F016B2B0E026F740E036F3A0ED1
:100C6000046F056B2B0E066F650E076F6F0E086F16
:100C7000730E096F3A0E0A6F0B6B2B0E0C6F650E1D
:100C80000D6F6F0E0E6F690E0F6F3A0E106F116BB6
:100C90002B0E126F740E136F650E146F730E156F9B
:100CA000740E166F176B2B0E186F720E196F650E80
:100CB0001A6F610E1B6F640E1C6F1D6B2B0E1E6F67
:100CC000670E1F6F650E206F740E216F226B2B0E47
:100CD000236F730E246F740E256F720E266F690ECC
:100CE000276F700E286F3A0E296F2A6B2B0E2B6F11
:100CF000760E2C6F650E2D6F720E2E6F2F6B2B0ED6
:100D0000306F610E316F750E326F740E336F6F0E70
:100D1000346F720E356F650E366F610E376F640E6D
:100D2000386F3A0E396F3A6B949A8B8AD180030EE2
:100D30000001EF6FD76AD66AD190830ED56EF28A22
:100D40009D8AC00EF212050EF06FAEEF01F00101A8
:100D50003B6B000107D401C0FDF0949A8B9A04000C
:100D6000EA53D8B4D8D1EA6B68502B08D8A425D15F
:100D700001013C6B680E3B6F3E6BFE0E3D6F030E38
:100D80003F6F000108DC015209E101013C6B6B0E71
:100D90003B6F00016EDC01C0E8F00ED101013C6B3D
:100DA000680E3B6F010E3E6F180E3D6F050E3F6FD4
:100DB0000001CBEC02F0015215E18FDD015211E090
:100DC00001013B6B3B51000117EC01F001013B2B92
:100DD000006E00509EA8FED7AD6E150E3B5DF2E191
:100DE0000001EAD001013C6B680E3B6F010E3E6FC3
:100DF000120E3D6F050E3F6F0001CBEC02F0015269
:100E000011E101013B6B3B5100012FEC01F00101AD
:100E10003B2B006E00509EA8FED7AD6E090E3B5DC9
:100E2000F2E1C9D001013C6B680E3B6F010E3E6FD1
:100E3000020E3D6F030E3F6F0001CBEC02F001523A
:100E400009E101013C6B6B0E3B6F000112DC01C03C
:100E5000F0F0B2D001013C6B680E3B6F010E3E6FAB
:100E6000060E3D6F050E3F6F0001CBEC02F0015204
:100E70000AE101013C6B6D0E3B6F000139EC03F0A0
:100E800001C0EBF099D001013C6B680E3B6F010E85
:100E90003E6F0C0E3D6F050E3F6F0001CBEC02F074
:100EA00001520AE101013C6B6D0E3B6F000139EC10
:100EB00003F001C0ECF080D001013C6B680E3B6F89
:100EC000010E3E6F230E3D6F070E3F6F0001CBEC0E
:100ED00002F001520AE101013C6B6F0E3B6F000111
:100EE00039EC03F001C0EDF067D001013C6B680EF6
:100EF0003B6F010E3E6F2B0E3D6F040E3F6F0001E6
:100F0000CBEC02F0015213E1EA6A1E0EE96E000E0C
:100F1000EF1008E0EF509EA8FED7AD6EE92AD8B4D6
:100F2000EA2AF5D70D0E9EA8FED7AD6E45D0010179
:100F30003C6B680E3B6F010E3E6F1E0E3D6F040E44
:100F40003F6F0001CBEC02F001520CE1080E286E5D
:100F50000101A76B280EA66F010EA86F0001A5EC7A
:100F600002F02AD001013C6B680E3B6F010E3E6F10
:100F7000300E3D6F0A0E3F6F0001CBEC02F00152C4
:100F80000AE101013C6B720E3B6F000139EC03F08A
:100F900001C0EEF011D001013B6B3B51000141EC6F
:100FA00001F001013B2B006E00509EA8FED7AD6EF4
:100FB000170E3B5DF2E10001AED05F0E286EFD53CF
:100FC0000DE10101A76B280EA66F010EA86F0001AD
:100FD000A5EC02F0015202E1000E01D0010EFD6FFE
:100FE0003F0E286EFD530DE10101A76B280EA66F81
:100FF000010EA86F0001A5EC02F0015202E1000E03
:1010000001D0010EFD6F200EE825286EFD530DE185
:101010000101A76B280EA66F010EA86F0001A5ECB9
:1010200002F0015202E1000E01D0010EFD6F400EF0
:10103000E925286EFD530DE10101A76B280EA66F6F
:10104000010EA86F0001A5EC02F0015202E1000EB2
:1010500001D0010EFD6FFD530BE101013C6B680EE9
:101060003B6F3D6B000199DD015202E1000E01D0A2
:10107000010EFD6FEC530CE1EBC068F001013C6B1D
:10108000680E3B6F010E3D6F000187DD01C0FDF072
:10109000EE5341E001013C6B680E3B6F3F0E3D6F2C
:1010A000000187D502C03CF101C03BF101013B5377
:1010B00002E13C531BE00001FD53D8B402D0010112
:1010C00015D00BDC015211E001013B6B3B510001DB
:1010D00017EC01F001013B2B006E00509EA8FED7DB
:1010E000AD6E150E3B5DF2E1000115D00001FD5320
:1010F00012E0FD6B01013B6B3B5100015AEC01F02A
:1011000001013B2B006E00509EA8FED7AD6E160E5F
:0A1110003B5DF2E1000123D603006D
:020000040030CA
:0E00000000021E13008381000FC00FE00F40AE
:00000001FF
;PIC18F4520
